{
  "_format": "hh-sol-artifact-1",
  "contractName": "Bridge",
  "sourceName": "src/bridge/Bridge.sol",
  "abi": [
    {
      "inputs": [
        {
          "internalType": "uint256",
          "name": "stored",
          "type": "uint256"
        },
        {
          "internalType": "uint256",
          "name": "received",
          "type": "uint256"
        }
      ],
      "name": "BadSequencerMessageNumber",
      "type": "error"
    },
    {
      "inputs": [
        {
          "internalType": "address",
          "name": "outbox",
          "type": "address"
        }
      ],
      "name": "InvalidOutboxSet",
      "type": "error"
    },
    {
      "inputs": [
        {
          "internalType": "address",
          "name": "addr",
          "type": "address"
        }
      ],
      "name": "NotContract",
      "type": "error"
    },
    {
      "inputs": [
        {
          "internalType": "address",
          "name": "sender",
          "type": "address"
        }
      ],
      "name": "NotDelayedInbox",
      "type": "error"
    },
    {
      "inputs": [
        {
          "internalType": "address",
          "name": "sender",
          "type": "address"
        }
      ],
      "name": "NotOutbox",
      "type": "error"
    },
    {
      "inputs": [
        {
          "internalType": "address",
          "name": "sender",
          "type": "address"
        },
        {
          "internalType": "address",
          "name": "rollup",
          "type": "address"
        },
        {
          "internalType": "address",
          "name": "owner",
          "type": "address"
        }
      ],
      "name": "NotRollupOrOwner",
      "type": "error"
    },
    {
      "inputs": [
        {
          "internalType": "address",
          "name": "sender",
          "type": "address"
        }
      ],
      "name": "NotSequencerInbox",
      "type": "error"
    },
    {
      "anonymous": false,
      "inputs": [
        {
          "indexed": true,
          "internalType": "address",
          "name": "outbox",
          "type": "address"
        },
        {
          "indexed": true,
          "internalType": "address",
          "name": "to",
          "type": "address"
        },
        {
          "indexed": false,
          "internalType": "uint256",
          "name": "value",
          "type": "uint256"
        },
        {
          "indexed": false,
          "internalType": "bytes",
          "name": "data",
          "type": "bytes"
        }
      ],
      "name": "BridgeCallTriggered",
      "type": "event"
    },
    {
      "anonymous": false,
      "inputs": [
        {
          "indexed": true,
          "internalType": "address",
          "name": "inbox",
          "type": "address"
        },
        {
          "indexed": false,
          "internalType": "bool",
          "name": "enabled",
          "type": "bool"
        }
      ],
      "name": "InboxToggle",
      "type": "event"
    },
    {
      "anonymous": false,
      "inputs": [
        {
          "indexed": true,
          "internalType": "uint256",
          "name": "messageIndex",
          "type": "uint256"
        },
        {
          "indexed": true,
          "internalType": "bytes32",
          "name": "beforeInboxAcc",
          "type": "bytes32"
        },
        {
          "indexed": false,
          "internalType": "address",
          "name": "inbox",
          "type": "address"
        },
        {
          "indexed": false,
          "internalType": "uint8",
          "name": "kind",
          "type": "uint8"
        },
        {
          "indexed": false,
          "internalType": "address",
          "name": "sender",
          "type": "address"
        },
        {
          "indexed": false,
          "internalType": "bytes32",
          "name": "messageDataHash",
          "type": "bytes32"
        },
        {
          "indexed": false,
          "internalType": "uint256",
          "name": "baseFeeL1",
          "type": "uint256"
        },
        {
          "indexed": false,
          "internalType": "uint64",
          "name": "timestamp",
          "type": "uint64"
        }
      ],
      "name": "MessageDelivered",
      "type": "event"
    },
    {
      "anonymous": false,
      "inputs": [
        {
          "indexed": true,
          "internalType": "address",
          "name": "outbox",
          "type": "address"
        },
        {
          "indexed": false,
          "internalType": "bool",
          "name": "enabled",
          "type": "bool"
        }
      ],
      "name": "OutboxToggle",
      "type": "event"
    },
    {
      "anonymous": false,
      "inputs": [
        {
          "indexed": false,
          "internalType": "address",
          "name": "rollup",
          "type": "address"
        }
      ],
      "name": "RollupUpdated",
      "type": "event"
    },
    {
      "anonymous": false,
      "inputs": [
        {
          "indexed": false,
          "internalType": "address",
          "name": "newSequencerInbox",
          "type": "address"
        }
      ],
      "name": "SequencerInboxUpdated",
      "type": "event"
    },
    {
      "inputs": [],
      "name": "acceptFundsFromOldBridge",
      "outputs": [],
      "stateMutability": "payable",
      "type": "function"
    },
    {
      "inputs": [],
      "name": "activeOutbox",
      "outputs": [
        {
          "internalType": "address",
          "name": "",
          "type": "address"
        }
      ],
      "stateMutability": "view",
      "type": "function"
    },
    {
      "inputs": [
        {
          "internalType": "uint256",
          "name": "",
          "type": "uint256"
        }
      ],
      "name": "allowedDelayedInboxList",
      "outputs": [
        {
          "internalType": "address",
          "name": "",
          "type": "address"
        }
      ],
      "stateMutability": "view",
      "type": "function"
    },
    {
      "inputs": [
        {
          "internalType": "address",
          "name": "inbox",
          "type": "address"
        }
      ],
      "name": "allowedDelayedInboxes",
      "outputs": [
        {
          "internalType": "bool",
          "name": "",
          "type": "bool"
        }
      ],
      "stateMutability": "view",
      "type": "function"
    },
    {
      "inputs": [
        {
          "internalType": "uint256",
          "name": "",
          "type": "uint256"
        }
      ],
      "name": "allowedOutboxList",
      "outputs": [
        {
          "internalType": "address",
          "name": "",
          "type": "address"
        }
      ],
      "stateMutability": "view",
      "type": "function"
    },
    {
      "inputs": [
        {
          "internalType": "address",
          "name": "outbox",
          "type": "address"
        }
      ],
      "name": "allowedOutboxes",
      "outputs": [
        {
          "internalType": "bool",
          "name": "",
          "type": "bool"
        }
      ],
      "stateMutability": "view",
      "type": "function"
    },
    {
      "inputs": [
        {
          "internalType": "uint256",
          "name": "",
          "type": "uint256"
        }
      ],
      "name": "delayedInboxAccs",
      "outputs": [
        {
          "internalType": "bytes32",
          "name": "",
          "type": "bytes32"
        }
      ],
      "stateMutability": "view",
      "type": "function"
    },
    {
      "inputs": [],
      "name": "delayedMessageCount",
      "outputs": [
        {
          "internalType": "uint256",
          "name": "",
          "type": "uint256"
        }
      ],
      "stateMutability": "view",
      "type": "function"
    },
    {
      "inputs": [
        {
          "internalType": "uint8",
          "name": "kind",
          "type": "uint8"
        },
        {
          "internalType": "address",
          "name": "sender",
          "type": "address"
        },
        {
          "internalType": "bytes32",
          "name": "messageDataHash",
          "type": "bytes32"
        }
      ],
      "name": "enqueueDelayedMessage",
      "outputs": [
        {
          "internalType": "uint256",
          "name": "",
          "type": "uint256"
        }
      ],
      "stateMutability": "payable",
      "type": "function"
    },
    {
      "inputs": [
        {
          "internalType": "bytes32",
          "name": "dataHash",
          "type": "bytes32"
        },
        {
          "internalType": "uint256",
          "name": "afterDelayedMessagesRead",
          "type": "uint256"
        },
        {
          "internalType": "uint256",
          "name": "prevMessageCount",
          "type": "uint256"
        },
        {
          "internalType": "uint256",
          "name": "newMessageCount",
          "type": "uint256"
        }
      ],
      "name": "enqueueSequencerMessage",
      "outputs": [
        {
          "internalType": "uint256",
          "name": "seqMessageIndex",
          "type": "uint256"
        },
        {
          "internalType": "bytes32",
          "name": "beforeAcc",
          "type": "bytes32"
        },
        {
          "internalType": "bytes32",
          "name": "delayedAcc",
          "type": "bytes32"
        },
        {
          "internalType": "bytes32",
          "name": "acc",
          "type": "bytes32"
        }
      ],
      "stateMutability": "nonpayable",
      "type": "function"
    },
    {
      "inputs": [
        {
          "internalType": "address",
          "name": "to",
          "type": "address"
        },
        {
          "internalType": "uint256",
          "name": "value",
          "type": "uint256"
        },
        {
          "internalType": "bytes",
          "name": "data",
          "type": "bytes"
        }
      ],
      "name": "executeCall",
      "outputs": [
        {
          "internalType": "bool",
          "name": "success",
          "type": "bool"
        },
        {
          "internalType": "bytes",
          "name": "returnData",
          "type": "bytes"
        }
      ],
      "stateMutability": "nonpayable",
      "type": "function"
    },
    {
      "inputs": [
        {
          "internalType": "contract IOwnable",
          "name": "rollup_",
          "type": "address"
        }
      ],
      "name": "initialize",
      "outputs": [],
      "stateMutability": "nonpayable",
      "type": "function"
    },
    {
      "inputs": [],
      "name": "rollup",
      "outputs": [
        {
          "internalType": "contract IOwnable",
          "name": "",
          "type": "address"
        }
      ],
      "stateMutability": "view",
      "type": "function"
    },
    {
      "inputs": [],
      "name": "sequencerInbox",
      "outputs": [
        {
          "internalType": "address",
          "name": "",
          "type": "address"
        }
      ],
      "stateMutability": "view",
      "type": "function"
    },
    {
      "inputs": [
        {
          "internalType": "uint256",
          "name": "",
          "type": "uint256"
        }
      ],
      "name": "sequencerInboxAccs",
      "outputs": [
        {
          "internalType": "bytes32",
          "name": "",
          "type": "bytes32"
        }
      ],
      "stateMutability": "view",
      "type": "function"
    },
    {
      "inputs": [],
      "name": "sequencerMessageCount",
      "outputs": [
        {
          "internalType": "uint256",
          "name": "",
          "type": "uint256"
        }
      ],
      "stateMutability": "view",
      "type": "function"
    },
    {
      "inputs": [],
      "name": "sequencerReportedSubMessageCount",
      "outputs": [
        {
          "internalType": "uint256",
          "name": "",
          "type": "uint256"
        }
      ],
      "stateMutability": "view",
      "type": "function"
    },
    {
      "inputs": [
        {
          "internalType": "address",
          "name": "inbox",
          "type": "address"
        },
        {
          "internalType": "bool",
          "name": "enabled",
          "type": "bool"
        }
      ],
      "name": "setDelayedInbox",
      "outputs": [],
      "stateMutability": "nonpayable",
      "type": "function"
    },
    {
      "inputs": [
        {
          "internalType": "address",
          "name": "outbox",
          "type": "address"
        },
        {
          "internalType": "bool",
          "name": "enabled",
          "type": "bool"
        }
      ],
      "name": "setOutbox",
      "outputs": [],
      "stateMutability": "nonpayable",
      "type": "function"
    },
    {
      "inputs": [
        {
          "internalType": "address",
          "name": "_sequencerInbox",
          "type": "address"
        }
      ],
      "name": "setSequencerInbox",
      "outputs": [],
      "stateMutability": "nonpayable",
      "type": "function"
    },
    {
      "inputs": [
        {
          "internalType": "uint256",
          "name": "newMsgCount",
          "type": "uint256"
        }
      ],
      "name": "setSequencerReportedSubMessageCount",
      "outputs": [],
      "stateMutability": "nonpayable",
      "type": "function"
    },
    {
      "inputs": [
        {
          "internalType": "address",
          "name": "sender",
          "type": "address"
        },
        {
          "internalType": "bytes32",
          "name": "messageDataHash",
          "type": "bytes32"
        }
      ],
      "name": "submitBatchSpendingReport",
      "outputs": [
        {
          "internalType": "uint256",
          "name": "",
          "type": "uint256"
        }
      ],
      "stateMutability": "nonpayable",
      "type": "function"
    },
    {
      "inputs": [
        {
          "internalType": "contract IOwnable",
          "name": "_rollup",
          "type": "address"
        }
      ],
      "name": "updateRollupAddress",
      "outputs": [],
      "stateMutability": "nonpayable",
      "type": "function"
    }
  ],
  "bytecode": "0x60a08060405234610023573060805261156c90816100298239608051816103d90152f35b600080fdfe608060408181526004908136101561001657600080fd5b600092833560e01c90816284120c14610f965750806316bf557914610f6b578063413b35bd14610f2957806347fb24c514610e8d5780634f61f85014610da15780635fca4a1614610d825780637a88b10714610c0f57806386598a5614610a4d5780638db5993b1461089c578063919cc706146107b1578063945e1147146107715780639e5d4c491461056e578063ab5d894314610540578063ae60bd13146104ff578063c4d66de814610389578063cb23bcb514610360578063cee3d728146102b7578063d5719dc21461027e578063e76f5c8d1461023d578063e77145f41461022b578063eca067ad1461020c578063ee35f327146101df5763f81ff3b31461012057600080fd5b346101db5760203660031901126101db576008546001600160a01b039081169133839003610153575b50505035600a5580f35b8051638da5cb5b60e01b8152916020838681875afa9283156101d15786936101a1575b5082163303156101495751630739600760e01b81529350839261019d929033908501611127565b0390fd5b6101c391935060203d81116101ca575b6101bb81836110e5565b810190611108565b9138610176565b503d6101b1565b82513d88823e3d90fd5b8280fd5b83823461020857816003193601126102085760095490516001600160a01b039091168152602090f35b5080fd5b8382346102085781600319360112610208576020906006549051908152f35b838060031936011261023a5780f35b80fd5b5090346101db5760203660031901126101db57359160035483101561023a5750610268602092611019565b60018060a01b0391549060031b1c169051908152f35b5090346101db5760203660031901126101db57359160065483101561023a57506102a9602092610fe3565b91905490519160031b1c8152f35b50919034610208576102c83661104f565b9160018060a01b038060085416958633036102ec575b856102e98686611370565b80f35b8051638da5cb5b60e01b81529160208385818b5afa928315610356578793610336575b5082163303156102de5751630739600760e01b815291829161019d91889033908501611127565b61034f91935060203d81116101ca576101bb81836110e5565b913861030f565b82513d89823e3d90fd5b83823461020857816003193601126102085760085490516001600160a01b039091168152602090f35b5090346101db5760203660031901126101db576001600160a01b03813581811692908390036104fb5784549360ff8560081c16806000146104f157303b155b1561049757159485610486575b50827f000000000000000000000000000000000000000000000000000000000000000016301461042e57505060018060a01b03199081600554161760055560085416176008556104225780f35b805461ff001916815580f35b906020608492519162461bcd60e51b8352820152602c60248201527f46756e6374696f6e206d7573742062652063616c6c6564207468726f7567682060448201526b19195b1959d85d1958d85b1b60a21b6064820152fd5b61ffff1916610101178655386103d5565b815162461bcd60e51b8152602081850152602e60248201527f496e697469616c697a61626c653a20636f6e747261637420697320616c72656160448201526d191e481a5b9a5d1a585b1a5e995960921b6064820152608490fd5b60ff8616156103c8565b8480fd5b8382346102085760203660031901126102085760209160ff9060019083906001600160a01b0361052d611034565b1681528286522001541690519015158152f35b83823461020857816003193601126102085760209061055d61114a565b90516001600160a01b039091168152f35b50823461023a57606091826003193601126102085761058b611034565b604435949092906024356001600160401b0380881161076d573660238901121561076d578783013590811161076d576024880197602482369201011161076d573384526020926002845260ff600187872001541615610756578115158061074d575b61072b5750600580546001600160a01b03198082163317909255909291907f2d9d115ef3e4a606d698913b1eae831a3cdfe20d9a83d48007b0526749c3d466908287808b8e888d6106496106408861118e565b915191826110e5565b868152868d8201938437848d888301015251925af19b3d1561071e573d966106708861118e565b9761067d8c51998a6110e5565b88523d8a8a8a013e9c99979c9a98969a5b60018060a01b038094169060055416176005558751958652878d87015281888701528b860137848a8486010152601f19961692898188601f339601168101030190a381519687941515855282818601528551809386015281955b8387106107065750508394508582601f949501015201168101030190f35b868101820151898801890152958101958895506106e8565b8b9a98969c99979c61068e565b855163b5cf5b8f60e01b81526001600160a01b03881691810191909152602490fd5b50863b156105ed565b6024908651906332ea82ab60e01b82523390820152fd5b8380fd5b50823461023a57602036600319011261023a578235925483101561023a575061079b602092610ffe565b905491519160018060a01b039160031b1c168152f35b50346101db5760203660031901126101db5781356001600160a01b0381811693918490036104fb576008549181831691823303610829575b6001600160a01b031984168617600855845186815287907fae1f5aa15f6ff844896347ceca2a3c24c8d3a27785efdeacd581a0a95172784a90602090a180f35b8451638da5cb5b60e01b8152906020828481875afa918215610892578892610872575b5081163303156107e95761019d908551938493630739600760e01b855233908501611127565b61088b91925060203d81116101ca576101bb81836110e5565b903861084c565b86513d8a823e3d90fd5b50829060603660031901126102085782359160ff831680840361020857602435936001600160a01b03851680860361076d5760443591338552600160205260ff600187872001541615610a3757600654865160f89290921b6001600160f81b0319166020830190815260609890981b6001600160601b03191660218301524360c090811b6001600160c01b031990811660358501524290911b16603d8301526045820181905248606583015260858083018590528252969061095d816110af565b5190209684876109d7575b505085926000805160206115178339815191529260c0926109a660209a89518c8101918a83528b8201528a815261099e816110ca565b519020611168565b87513381528a810193909352828801526060820152486080820152426001600160401b031660a0820152a351908152f35b90979450600019870190878211610a24575060209750926000805160206115178339815191529260c0926109a6610a0e8a97610fe3565b90549060031b1c979a5050925092819450610968565b634e487b7160e01b815260118952602490fd5b855163b6c60ea360e01b815233818a0152602490fd5b5090346101db5760803660031901126101db57600954602493843593604435929091906001600160a01b03163303610bfa57808093600a548181141580610bf1575b80610be8575b610bcd575050606435600a556007549586610b97575b80610b5f575b508251602081018381528635828601526060808301879052825290608081016001600160401b03811182821017610b4d57855251902094600160401b871015610b3b575050608095506001850160075583610b25610b0e87610fb2565b819391549060031b91821b91600019901b19161790565b9055815194855260208501528301526060820152f35b634e487b7160e01b8252604190528690fd5b634e487b7160e01b8452604188528984fd5b9093506000198101908111610b8557610b7790610fe3565b90549060031b1c9238610ab1565b634e487b7160e01b8452601185528684fd5b91506000198601868111610bbb57610bae90610fb2565b90549060031b1c91610aab565b634e487b7160e01b8252601186528782fd5b60449189889287519363e2051feb60e01b8552840152820152fd5b50801515610a95565b50811515610a8f565b815163223e13c160e21b815233818601528690fd5b50829034610208578060031936011261020857610c2a611034565b6009546001600160a01b039391906024359085163303610d6c576006548451600d60f81b602082019081526001600160601b0319606086901b1660218301526001600160c01b03194360c090811b8216603585015242901b16603d830152604582018390524860658301526085808301859052825291969190610cac816110af565b519020968487610d1f575b505085926000805160206115178339815191529260c092610ced60209a89518c8101918a83528b8201528a815261099e816110ca565b8751338152600d8b8201529216828801526060820152486080820152426001600160401b031660a0820152a351908152f35b90979450600019870190878211610a24575060209750926000805160206115178339815191529260c092610ced610d568a97610fe3565b90549060031b1c979a5050925092819450610cb7565b835163223e13c160e21b81523381880152602490fd5b838234610208578160031936011261020857602090600a549051908152f35b5090346101db5760203660031901126101db57610dbc611034565b6008546001600160a01b03929083169033829003610e17575b857f8c1e6003ed33ca6748d4ad3dd4ecc949065c89dceb31fdf546a5289202763c6a602087878716908160018060a01b0319600954161760095551908152a180f35b8451638da5cb5b60e01b81526020818381865afa908115610e83578791610e65575b508481163303610e495750610dd5565b61019d908651938493630739600760e01b855233908501611127565b610e7d915060203d81116101ca576101bb81836110e5565b38610e39565b86513d89823e3d90fd5b5091903461020857610e9e3661104f565b9160018060a01b03806008541695863303610ebf575b856102e986866111c7565b8051638da5cb5b60e01b81529160208385818b5afa928315610356578793610f09575b508216330315610eb45751630739600760e01b815291829161019d91889033908501611127565b610f2291935060203d81116101ca576101bb81836110e5565b9138610ee2565b8382346102085760203660031901126102085760209160ff9060019083906001600160a01b03610f57611034565b168152600286522001541690519015158152f35b5090346101db5760203660031901126101db57359160075483101561023a57506102a9602092610fb2565b8490346102085781600319360112610208576020906007548152f35b600754811015610fcd57600760005260206000200190600090565b634e487b7160e01b600052603260045260246000fd5b600654811015610fcd57600660005260206000200190600090565b600454811015610fcd57600460005260206000200190600090565b600354811015610fcd57600360005260206000200190600090565b600435906001600160a01b038216820361104a57565b600080fd5b604090600319011261104a576004356001600160a01b038116810361104a5790602435801515810361104a5790565b604081019081106001600160401b0382111761109957604052565b634e487b7160e01b600052604160045260246000fd5b60c081019081106001600160401b0382111761109957604052565b606081019081106001600160401b0382111761109957604052565b601f909101601f19168101906001600160401b0382119082101761109957604052565b9081602091031261104a57516001600160a01b038116810361104a5790565b6001600160a01b0391821681529181166020830152909116604082015260600190565b6005546001600160a01b039081169081146111625790565b50600090565b600654600160401b81101561109957610b0e81600161118a9301600655610fe3565b9055565b6001600160401b03811161109957601f01601f191660200190565b919082549060031b9160018060a01b03809116831b921b1916179055565b9060018060a01b03808316916000928084526001926020928484526040918287209160ff8784015416845190867f6675ce8882cb71637de5903a193d218cc0544be9c0650cb83e0955f6aa2bf5218985151594858152a215151461136557156112ac57505061126c9291849182600354948251956112448761107e565b86528086019382855289525286209251835551151591019060ff801983541691151516179055565b60035491600160401b83101561129857508161129091611296949301600355611019565b906111a9565b565b634e487b7160e01b81526041600452602490fd5b909194959650600354916000199283810190811161135157826112d16112e392611019565b90549060031b1c166112908354611019565b54906112ee82611019565b90549060031b1c16875285845284872055600354801561133d57859392910161132e61131982611019565b81549060018060a01b039060031b1b19169055565b60035585525282208281550155565b634e487b7160e01b87526031600452602487fd5b634e487b7160e01b89526011600452602489fd5b505050505050505050565b906001600160a01b03908183168083146114fe57600092818452602092600284526040918286209160ff600184015416845190867f49477e7356dbcb654ab85d7534b50126772d938130d1350e23e2540370c8dffa8985151594858152a21515146114f4571561144357505061141e92916001916002600454948251956113f68761107e565b86528086019385855288525285209251835551151591019060ff801983541691151516179055565b60045490600160401b8210156112985750906112908260016112969401600455610ffe565b909194955060045491600019928381019081116114e05761146661148191610ffe565b9054846114738554610ffe565b92909360031b1c16916111a9565b549061148c82610ffe565b90549060031b1c168652600284528486205560045480156114cc57916001949391600293016114bd61131982610ffe565b60045585525282208281550155565b634e487b7160e01b86526031600452602486fd5b634e487b7160e01b88526011600452602488fd5b5050505050505050565b6024906040519063077abed160e41b82526004820152fdfe5e3c1311ea442664e8b1611bfabef659120ea7a0a2cfc0667700bebc69cbffe1a264697066735822122004cbd15be27ed4a618042cf91fb13ed786720a1885ae9363eb5f942fecd973e164736f6c63430008130033",
  "linkReferences": {},
  "deployedLinkReferences": {}
}