{
  "_format": "hh-sol-artifact-1",
  "contractName": "ERC20RollupUserLogic",
  "sourceName": "src/rollup/RollupUserLogic.sol",
  "abi": [
    {
      "anonymous": false,
      "inputs": [
        {
          "indexed": false,
          "internalType": "address",
          "name": "previousAdmin",
          "type": "address"
        },
        {
          "indexed": false,
          "internalType": "address",
          "name": "newAdmin",
          "type": "address"
        }
      ],
      "name": "AdminChanged",
      "type": "event"
    },
    {
      "anonymous": false,
      "inputs": [
        {
          "indexed": true,
          "internalType": "address",
          "name": "beacon",
          "type": "address"
        }
      ],
      "name": "BeaconUpgraded",
      "type": "event"
    },
    {
      "anonymous": false,
      "inputs": [
        {
          "indexed": true,
          "internalType": "uint64",
          "name": "nodeNum",
          "type": "uint64"
        },
        {
          "indexed": false,
          "internalType": "bytes32",
          "name": "blockHash",
          "type": "bytes32"
        },
        {
          "indexed": false,
          "internalType": "bytes32",
          "name": "sendRoot",
          "type": "bytes32"
        }
      ],
      "name": "NodeConfirmed",
      "type": "event"
    },
    {
      "anonymous": false,
      "inputs": [
        {
          "indexed": true,
          "internalType": "uint64",
          "name": "nodeNum",
          "type": "uint64"
        },
        {
          "indexed": true,
          "internalType": "bytes32",
          "name": "parentNodeHash",
          "type": "bytes32"
        },
        {
          "indexed": true,
          "internalType": "bytes32",
          "name": "nodeHash",
          "type": "bytes32"
        },
        {
          "indexed": false,
          "internalType": "bytes32",
          "name": "executionHash",
          "type": "bytes32"
        },
        {
          "components": [
            {
              "components": [
                {
                  "components": [
                    {
                      "internalType": "bytes32[2]",
                      "name": "bytes32Vals",
                      "type": "bytes32[2]"
                    },
                    {
                      "internalType": "uint64[2]",
                      "name": "u64Vals",
                      "type": "uint64[2]"
                    }
                  ],
                  "internalType": "struct GlobalState",
                  "name": "globalState",
                  "type": "tuple"
                },
                {
                  "internalType": "enum MachineStatus",
                  "name": "machineStatus",
                  "type": "uint8"
                }
              ],
              "internalType": "struct ExecutionState",
              "name": "beforeState",
              "type": "tuple"
            },
            {
              "components": [
                {
                  "components": [
                    {
                      "internalType": "bytes32[2]",
                      "name": "bytes32Vals",
                      "type": "bytes32[2]"
                    },
                    {
                      "internalType": "uint64[2]",
                      "name": "u64Vals",
                      "type": "uint64[2]"
                    }
                  ],
                  "internalType": "struct GlobalState",
                  "name": "globalState",
                  "type": "tuple"
                },
                {
                  "internalType": "enum MachineStatus",
                  "name": "machineStatus",
                  "type": "uint8"
                }
              ],
              "internalType": "struct ExecutionState",
              "name": "afterState",
              "type": "tuple"
            },
            {
              "internalType": "uint64",
              "name": "numBlocks",
              "type": "uint64"
            }
          ],
          "indexed": false,
          "internalType": "struct Assertion",
          "name": "assertion",
          "type": "tuple"
        },
        {
          "indexed": false,
          "internalType": "bytes32",
          "name": "afterInboxBatchAcc",
          "type": "bytes32"
        },
        {
          "indexed": false,
          "internalType": "bytes32",
          "name": "wasmModuleRoot",
          "type": "bytes32"
        },
        {
          "indexed": false,
          "internalType": "uint256",
          "name": "inboxMaxCount",
          "type": "uint256"
        }
      ],
      "name": "NodeCreated",
      "type": "event"
    },
    {
      "anonymous": false,
      "inputs": [
        {
          "indexed": true,
          "internalType": "uint64",
          "name": "nodeNum",
          "type": "uint64"
        }
      ],
      "name": "NodeRejected",
      "type": "event"
    },
    {
      "anonymous": false,
      "inputs": [
        {
          "indexed": false,
          "internalType": "address",
          "name": "account",
          "type": "address"
        }
      ],
      "name": "Paused",
      "type": "event"
    },
    {
      "anonymous": false,
      "inputs": [
        {
          "indexed": true,
          "internalType": "uint64",
          "name": "challengeIndex",
          "type": "uint64"
        },
        {
          "indexed": false,
          "internalType": "address",
          "name": "asserter",
          "type": "address"
        },
        {
          "indexed": false,
          "internalType": "address",
          "name": "challenger",
          "type": "address"
        },
        {
          "indexed": false,
          "internalType": "uint64",
          "name": "challengedNode",
          "type": "uint64"
        }
      ],
      "name": "RollupChallengeStarted",
      "type": "event"
    },
    {
      "anonymous": false,
      "inputs": [
        {
          "indexed": false,
          "internalType": "bytes32",
          "name": "machineHash",
          "type": "bytes32"
        },
        {
          "indexed": false,
          "internalType": "uint256",
          "name": "chainId",
          "type": "uint256"
        }
      ],
      "name": "RollupInitialized",
      "type": "event"
    },
    {
      "anonymous": false,
      "inputs": [
        {
          "indexed": false,
          "internalType": "address",
          "name": "account",
          "type": "address"
        }
      ],
      "name": "Unpaused",
      "type": "event"
    },
    {
      "anonymous": false,
      "inputs": [
        {
          "indexed": true,
          "internalType": "address",
          "name": "implementation",
          "type": "address"
        }
      ],
      "name": "Upgraded",
      "type": "event"
    },
    {
      "anonymous": false,
      "inputs": [
        {
          "indexed": true,
          "internalType": "address",
          "name": "implementation",
          "type": "address"
        }
      ],
      "name": "UpgradedSecondary",
      "type": "event"
    },
    {
      "anonymous": false,
      "inputs": [
        {
          "indexed": true,
          "internalType": "address",
          "name": "user",
          "type": "address"
        },
        {
          "indexed": false,
          "internalType": "uint256",
          "name": "initialBalance",
          "type": "uint256"
        },
        {
          "indexed": false,
          "internalType": "uint256",
          "name": "finalBalance",
          "type": "uint256"
        }
      ],
      "name": "UserStakeUpdated",
      "type": "event"
    },
    {
      "anonymous": false,
      "inputs": [
        {
          "indexed": true,
          "internalType": "address",
          "name": "user",
          "type": "address"
        },
        {
          "indexed": false,
          "internalType": "uint256",
          "name": "initialBalance",
          "type": "uint256"
        },
        {
          "indexed": false,
          "internalType": "uint256",
          "name": "finalBalance",
          "type": "uint256"
        }
      ],
      "name": "UserWithdrawableFundsUpdated",
      "type": "event"
    },
    {
      "inputs": [],
      "name": "VALIDATOR_AFK_BLOCKS",
      "outputs": [
        {
          "internalType": "uint256",
          "name": "",
          "type": "uint256"
        }
      ],
      "stateMutability": "view",
      "type": "function"
    },
    {
      "inputs": [
        {
          "internalType": "address",
          "name": "",
          "type": "address"
        }
      ],
      "name": "_stakerMap",
      "outputs": [
        {
          "internalType": "uint256",
          "name": "amountStaked",
          "type": "uint256"
        },
        {
          "internalType": "uint64",
          "name": "index",
          "type": "uint64"
        },
        {
          "internalType": "uint64",
          "name": "latestStakedNode",
          "type": "uint64"
        },
        {
          "internalType": "uint64",
          "name": "currentChallenge",
          "type": "uint64"
        },
        {
          "internalType": "bool",
          "name": "isStaked",
          "type": "bool"
        }
      ],
      "stateMutability": "view",
      "type": "function"
    },
    {
      "inputs": [
        {
          "internalType": "address",
          "name": "stakerAddress",
          "type": "address"
        },
        {
          "internalType": "uint256",
          "name": "tokenAmount",
          "type": "uint256"
        }
      ],
      "name": "addToDeposit",
      "outputs": [],
      "stateMutability": "nonpayable",
      "type": "function"
    },
    {
      "inputs": [
        {
          "internalType": "address",
          "name": "staker",
          "type": "address"
        }
      ],
      "name": "amountStaked",
      "outputs": [
        {
          "internalType": "uint256",
          "name": "",
          "type": "uint256"
        }
      ],
      "stateMutability": "view",
      "type": "function"
    },
    {
      "inputs": [],
      "name": "anyTrustFastConfirmer",
      "outputs": [
        {
          "internalType": "address",
          "name": "",
          "type": "address"
        }
      ],
      "stateMutability": "view",
      "type": "function"
    },
    {
      "inputs": [],
      "name": "baseStake",
      "outputs": [
        {
          "internalType": "uint256",
          "name": "",
          "type": "uint256"
        }
      ],
      "stateMutability": "view",
      "type": "function"
    },
    {
      "inputs": [],
      "name": "bridge",
      "outputs": [
        {
          "internalType": "contract IBridge",
          "name": "",
          "type": "address"
        }
      ],
      "stateMutability": "view",
      "type": "function"
    },
    {
      "inputs": [],
      "name": "chainId",
      "outputs": [
        {
          "internalType": "uint256",
          "name": "",
          "type": "uint256"
        }
      ],
      "stateMutability": "view",
      "type": "function"
    },
    {
      "inputs": [],
      "name": "challengeManager",
      "outputs": [
        {
          "internalType": "contract IChallengeManager",
          "name": "",
          "type": "address"
        }
      ],
      "stateMutability": "view",
      "type": "function"
    },
    {
      "inputs": [
        {
          "internalType": "uint256",
          "name": "challengeIndex",
          "type": "uint256"
        },
        {
          "internalType": "address",
          "name": "winningStaker",
          "type": "address"
        },
        {
          "internalType": "address",
          "name": "losingStaker",
          "type": "address"
        }
      ],
      "name": "completeChallenge",
      "outputs": [],
      "stateMutability": "nonpayable",
      "type": "function"
    },
    {
      "inputs": [
        {
          "internalType": "bytes32",
          "name": "blockHash",
          "type": "bytes32"
        },
        {
          "internalType": "bytes32",
          "name": "sendRoot",
          "type": "bytes32"
        }
      ],
      "name": "confirmNextNode",
      "outputs": [],
      "stateMutability": "nonpayable",
      "type": "function"
    },
    {
      "inputs": [],
      "name": "confirmPeriodBlocks",
      "outputs": [
        {
          "internalType": "uint64",
          "name": "",
          "type": "uint64"
        }
      ],
      "stateMutability": "view",
      "type": "function"
    },
    {
      "inputs": [
        {
          "internalType": "uint64",
          "name": "nodeNum",
          "type": "uint64"
        }
      ],
      "name": "countStakedZombies",
      "outputs": [
        {
          "internalType": "uint256",
          "name": "",
          "type": "uint256"
        }
      ],
      "stateMutability": "view",
      "type": "function"
    },
    {
      "inputs": [
        {
          "internalType": "uint64",
          "name": "nodeNum",
          "type": "uint64"
        }
      ],
      "name": "countZombiesStakedOnChildren",
      "outputs": [
        {
          "internalType": "uint256",
          "name": "",
          "type": "uint256"
        }
      ],
      "stateMutability": "view",
      "type": "function"
    },
    {
      "inputs": [
        {
          "internalType": "address[2]",
          "name": "stakers",
          "type": "address[2]"
        },
        {
          "internalType": "uint64[2]",
          "name": "nodeNums",
          "type": "uint64[2]"
        },
        {
          "internalType": "enum MachineStatus[2]",
          "name": "machineStatuses",
          "type": "uint8[2]"
        },
        {
          "components": [
            {
              "internalType": "bytes32[2]",
              "name": "bytes32Vals",
              "type": "bytes32[2]"
            },
            {
              "internalType": "uint64[2]",
              "name": "u64Vals",
              "type": "uint64[2]"
            }
          ],
          "internalType": "struct GlobalState[2]",
          "name": "globalStates",
          "type": "tuple[2]"
        },
        {
          "internalType": "uint64",
          "name": "numBlocks",
          "type": "uint64"
        },
        {
          "internalType": "bytes32",
          "name": "secondExecutionHash",
          "type": "bytes32"
        },
        {
          "internalType": "uint256[2]",
          "name": "proposedBlocks",
          "type": "uint256[2]"
        },
        {
          "internalType": "bytes32[2]",
          "name": "wasmModuleRoots",
          "type": "bytes32[2]"
        }
      ],
      "name": "createChallenge",
      "outputs": [],
      "stateMutability": "nonpayable",
      "type": "function"
    },
    {
      "inputs": [
        {
          "internalType": "address",
          "name": "staker",
          "type": "address"
        }
      ],
      "name": "currentChallenge",
      "outputs": [
        {
          "internalType": "uint64",
          "name": "",
          "type": "uint64"
        }
      ],
      "stateMutability": "view",
      "type": "function"
    },
    {
      "inputs": [],
      "name": "currentRequiredStake",
      "outputs": [
        {
          "internalType": "uint256",
          "name": "",
          "type": "uint256"
        }
      ],
      "stateMutability": "view",
      "type": "function"
    },
    {
      "inputs": [],
      "name": "extraChallengeTimeBlocks",
      "outputs": [
        {
          "internalType": "uint64",
          "name": "",
          "type": "uint64"
        }
      ],
      "stateMutability": "view",
      "type": "function"
    },
    {
      "inputs": [
        {
          "internalType": "bytes32",
          "name": "blockHash",
          "type": "bytes32"
        },
        {
          "internalType": "bytes32",
          "name": "sendRoot",
          "type": "bytes32"
        },
        {
          "internalType": "bytes32",
          "name": "nodeHash",
          "type": "bytes32"
        }
      ],
      "name": "fastConfirmNextNode",
      "outputs": [],
      "stateMutability": "nonpayable",
      "type": "function"
    },
    {
      "inputs": [],
      "name": "firstUnresolvedNode",
      "outputs": [
        {
          "internalType": "uint64",
          "name": "",
          "type": "uint64"
        }
      ],
      "stateMutability": "view",
      "type": "function"
    },
    {
      "inputs": [
        {
          "internalType": "uint64",
          "name": "nodeNum",
          "type": "uint64"
        }
      ],
      "name": "getNode",
      "outputs": [
        {
          "components": [
            {
              "internalType": "bytes32",
              "name": "stateHash",
              "type": "bytes32"
            },
            {
              "internalType": "bytes32",
              "name": "challengeHash",
              "type": "bytes32"
            },
            {
              "internalType": "bytes32",
              "name": "confirmData",
              "type": "bytes32"
            },
            {
              "internalType": "uint64",
              "name": "prevNum",
              "type": "uint64"
            },
            {
              "internalType": "uint64",
              "name": "deadlineBlock",
              "type": "uint64"
            },
            {
              "internalType": "uint64",
              "name": "noChildConfirmedBeforeBlock",
              "type": "uint64"
            },
            {
              "internalType": "uint64",
              "name": "stakerCount",
              "type": "uint64"
            },
            {
              "internalType": "uint64",
              "name": "childStakerCount",
              "type": "uint64"
            },
            {
              "internalType": "uint64",
              "name": "firstChildBlock",
              "type": "uint64"
            },
            {
              "internalType": "uint64",
              "name": "latestChildNumber",
              "type": "uint64"
            },
            {
              "internalType": "uint64",
              "name": "createdAtBlock",
              "type": "uint64"
            },
            {
              "internalType": "bytes32",
              "name": "nodeHash",
              "type": "bytes32"
            }
          ],
          "internalType": "struct Node",
          "name": "",
          "type": "tuple"
        }
      ],
      "stateMutability": "view",
      "type": "function"
    },
    {
      "inputs": [
        {
          "internalType": "uint64",
          "name": "nodeNum",
          "type": "uint64"
        }
      ],
      "name": "getNodeCreationBlockForLogLookup",
      "outputs": [
        {
          "internalType": "uint256",
          "name": "",
          "type": "uint256"
        }
      ],
      "stateMutability": "view",
      "type": "function"
    },
    {
      "inputs": [
        {
          "internalType": "address",
          "name": "staker",
          "type": "address"
        }
      ],
      "name": "getStaker",
      "outputs": [
        {
          "components": [
            {
              "internalType": "uint256",
              "name": "amountStaked",
              "type": "uint256"
            },
            {
              "internalType": "uint64",
              "name": "index",
              "type": "uint64"
            },
            {
              "internalType": "uint64",
              "name": "latestStakedNode",
              "type": "uint64"
            },
            {
              "internalType": "uint64",
              "name": "currentChallenge",
              "type": "uint64"
            },
            {
              "internalType": "bool",
              "name": "isStaked",
              "type": "bool"
            }
          ],
          "internalType": "struct IRollupCore.Staker",
          "name": "",
          "type": "tuple"
        }
      ],
      "stateMutability": "view",
      "type": "function"
    },
    {
      "inputs": [
        {
          "internalType": "uint64",
          "name": "stakerNum",
          "type": "uint64"
        }
      ],
      "name": "getStakerAddress",
      "outputs": [
        {
          "internalType": "address",
          "name": "",
          "type": "address"
        }
      ],
      "stateMutability": "view",
      "type": "function"
    },
    {
      "inputs": [],
      "name": "inbox",
      "outputs": [
        {
          "internalType": "contract IInboxBase",
          "name": "",
          "type": "address"
        }
      ],
      "stateMutability": "view",
      "type": "function"
    },
    {
      "inputs": [
        {
          "internalType": "address",
          "name": "_stakeToken",
          "type": "address"
        }
      ],
      "name": "initialize",
      "outputs": [],
      "stateMutability": "view",
      "type": "function"
    },
    {
      "inputs": [],
      "name": "isERC20Enabled",
      "outputs": [
        {
          "internalType": "bool",
          "name": "",
          "type": "bool"
        }
      ],
      "stateMutability": "view",
      "type": "function"
    },
    {
      "inputs": [
        {
          "internalType": "address",
          "name": "staker",
          "type": "address"
        }
      ],
      "name": "isStaked",
      "outputs": [
        {
          "internalType": "bool",
          "name": "",
          "type": "bool"
        }
      ],
      "stateMutability": "view",
      "type": "function"
    },
    {
      "inputs": [
        {
          "internalType": "address",
          "name": "staker",
          "type": "address"
        }
      ],
      "name": "isStakedOnLatestConfirmed",
      "outputs": [
        {
          "internalType": "bool",
          "name": "",
          "type": "bool"
        }
      ],
      "stateMutability": "view",
      "type": "function"
    },
    {
      "inputs": [
        {
          "internalType": "address",
          "name": "",
          "type": "address"
        }
      ],
      "name": "isValidator",
      "outputs": [
        {
          "internalType": "bool",
          "name": "",
          "type": "bool"
        }
      ],
      "stateMutability": "view",
      "type": "function"
    },
    {
      "inputs": [
        {
          "internalType": "address",
          "name": "staker",
          "type": "address"
        }
      ],
      "name": "isZombie",
      "outputs": [
        {
          "internalType": "bool",
          "name": "",
          "type": "bool"
        }
      ],
      "stateMutability": "view",
      "type": "function"
    },
    {
      "inputs": [],
      "name": "lastStakeBlock",
      "outputs": [
        {
          "internalType": "uint64",
          "name": "",
          "type": "uint64"
        }
      ],
      "stateMutability": "view",
      "type": "function"
    },
    {
      "inputs": [],
      "name": "latestConfirmed",
      "outputs": [
        {
          "internalType": "uint64",
          "name": "",
          "type": "uint64"
        }
      ],
      "stateMutability": "view",
      "type": "function"
    },
    {
      "inputs": [],
      "name": "latestNodeCreated",
      "outputs": [
        {
          "internalType": "uint64",
          "name": "",
          "type": "uint64"
        }
      ],
      "stateMutability": "view",
      "type": "function"
    },
    {
      "inputs": [
        {
          "internalType": "address",
          "name": "staker",
          "type": "address"
        }
      ],
      "name": "latestStakedNode",
      "outputs": [
        {
          "internalType": "uint64",
          "name": "",
          "type": "uint64"
        }
      ],
      "stateMutability": "view",
      "type": "function"
    },
    {
      "inputs": [],
      "name": "loserStakeEscrow",
      "outputs": [
        {
          "internalType": "address",
          "name": "",
          "type": "address"
        }
      ],
      "stateMutability": "view",
      "type": "function"
    },
    {
      "inputs": [],
      "name": "minimumAssertionPeriod",
      "outputs": [
        {
          "internalType": "uint256",
          "name": "",
          "type": "uint256"
        }
      ],
      "stateMutability": "view",
      "type": "function"
    },
    {
      "inputs": [
        {
          "internalType": "uint256",
          "name": "tokenAmount",
          "type": "uint256"
        },
        {
          "internalType": "uint64",
          "name": "nodeNum",
          "type": "uint64"
        },
        {
          "internalType": "bytes32",
          "name": "nodeHash",
          "type": "bytes32"
        }
      ],
      "name": "newStakeOnExistingNode",
      "outputs": [],
      "stateMutability": "nonpayable",
      "type": "function"
    },
    {
      "inputs": [
        {
          "internalType": "uint256",
          "name": "tokenAmount",
          "type": "uint256"
        },
        {
          "components": [
            {
              "components": [
                {
                  "components": [
                    {
                      "internalType": "bytes32[2]",
                      "name": "bytes32Vals",
                      "type": "bytes32[2]"
                    },
                    {
                      "internalType": "uint64[2]",
                      "name": "u64Vals",
                      "type": "uint64[2]"
                    }
                  ],
                  "internalType": "struct GlobalState",
                  "name": "globalState",
                  "type": "tuple"
                },
                {
                  "internalType": "enum MachineStatus",
                  "name": "machineStatus",
                  "type": "uint8"
                }
              ],
              "internalType": "struct ExecutionState",
              "name": "beforeState",
              "type": "tuple"
            },
            {
              "components": [
                {
                  "components": [
                    {
                      "internalType": "bytes32[2]",
                      "name": "bytes32Vals",
                      "type": "bytes32[2]"
                    },
                    {
                      "internalType": "uint64[2]",
                      "name": "u64Vals",
                      "type": "uint64[2]"
                    }
                  ],
                  "internalType": "struct GlobalState",
                  "name": "globalState",
                  "type": "tuple"
                },
                {
                  "internalType": "enum MachineStatus",
                  "name": "machineStatus",
                  "type": "uint8"
                }
              ],
              "internalType": "struct ExecutionState",
              "name": "afterState",
              "type": "tuple"
            },
            {
              "internalType": "uint64",
              "name": "numBlocks",
              "type": "uint64"
            }
          ],
          "internalType": "struct Assertion",
          "name": "assertion",
          "type": "tuple"
        },
        {
          "internalType": "bytes32",
          "name": "expectedNodeHash",
          "type": "bytes32"
        },
        {
          "internalType": "uint256",
          "name": "prevNodeInboxMaxCount",
          "type": "uint256"
        }
      ],
      "name": "newStakeOnNewNode",
      "outputs": [],
      "stateMutability": "nonpayable",
      "type": "function"
    },
    {
      "inputs": [
        {
          "internalType": "uint64",
          "name": "nodeNum",
          "type": "uint64"
        },
        {
          "internalType": "address",
          "name": "staker",
          "type": "address"
        }
      ],
      "name": "nodeHasStaker",
      "outputs": [
        {
          "internalType": "bool",
          "name": "",
          "type": "bool"
        }
      ],
      "stateMutability": "view",
      "type": "function"
    },
    {
      "inputs": [],
      "name": "outbox",
      "outputs": [
        {
          "internalType": "contract IOutbox",
          "name": "",
          "type": "address"
        }
      ],
      "stateMutability": "view",
      "type": "function"
    },
    {
      "inputs": [],
      "name": "owner",
      "outputs": [
        {
          "internalType": "address",
          "name": "",
          "type": "address"
        }
      ],
      "stateMutability": "view",
      "type": "function"
    },
    {
      "inputs": [],
      "name": "paused",
      "outputs": [
        {
          "internalType": "bool",
          "name": "",
          "type": "bool"
        }
      ],
      "stateMutability": "view",
      "type": "function"
    },
    {
      "inputs": [],
      "name": "proxiableUUID",
      "outputs": [
        {
          "internalType": "bytes32",
          "name": "",
          "type": "bytes32"
        }
      ],
      "stateMutability": "view",
      "type": "function"
    },
    {
      "inputs": [
        {
          "internalType": "uint256",
          "name": "target",
          "type": "uint256"
        }
      ],
      "name": "reduceDeposit",
      "outputs": [],
      "stateMutability": "nonpayable",
      "type": "function"
    },
    {
      "inputs": [
        {
          "internalType": "address",
          "name": "stakerAddress",
          "type": "address"
        }
      ],
      "name": "rejectNextNode",
      "outputs": [],
      "stateMutability": "nonpayable",
      "type": "function"
    },
    {
      "inputs": [
        {
          "internalType": "uint256",
          "name": "startIndex",
          "type": "uint256"
        }
      ],
      "name": "removeOldZombies",
      "outputs": [],
      "stateMutability": "nonpayable",
      "type": "function"
    },
    {
      "inputs": [],
      "name": "removeWhitelistAfterFork",
      "outputs": [],
      "stateMutability": "nonpayable",
      "type": "function"
    },
    {
      "inputs": [],
      "name": "removeWhitelistAfterValidatorAfk",
      "outputs": [],
      "stateMutability": "nonpayable",
      "type": "function"
    },
    {
      "inputs": [
        {
          "internalType": "uint256",
          "name": "zombieNum",
          "type": "uint256"
        },
        {
          "internalType": "uint256",
          "name": "maxNodes",
          "type": "uint256"
        }
      ],
      "name": "removeZombie",
      "outputs": [],
      "stateMutability": "nonpayable",
      "type": "function"
    },
    {
      "inputs": [
        {
          "internalType": "uint256",
          "name": "nodeNum",
          "type": "uint256"
        }
      ],
      "name": "requireUnresolved",
      "outputs": [],
      "stateMutability": "view",
      "type": "function"
    },
    {
      "inputs": [],
      "name": "requireUnresolvedExists",
      "outputs": [],
      "stateMutability": "view",
      "type": "function"
    },
    {
      "inputs": [
        {
          "internalType": "uint256",
          "name": "blockNumber",
          "type": "uint256"
        },
        {
          "internalType": "uint64",
          "name": "firstUnresolvedNodeNum",
          "type": "uint64"
        },
        {
          "internalType": "uint64",
          "name": "latestCreatedNode",
          "type": "uint64"
        }
      ],
      "name": "requiredStake",
      "outputs": [
        {
          "internalType": "uint256",
          "name": "",
          "type": "uint256"
        }
      ],
      "stateMutability": "view",
      "type": "function"
    },
    {
      "inputs": [
        {
          "internalType": "address",
          "name": "stakerAddress",
          "type": "address"
        }
      ],
      "name": "returnOldDeposit",
      "outputs": [],
      "stateMutability": "nonpayable",
      "type": "function"
    },
    {
      "inputs": [],
      "name": "rollupDeploymentBlock",
      "outputs": [
        {
          "internalType": "uint256",
          "name": "",
          "type": "uint256"
        }
      ],
      "stateMutability": "view",
      "type": "function"
    },
    {
      "inputs": [],
      "name": "rollupEventInbox",
      "outputs": [
        {
          "internalType": "contract IRollupEventInbox",
          "name": "",
          "type": "address"
        }
      ],
      "stateMutability": "view",
      "type": "function"
    },
    {
      "inputs": [],
      "name": "sequencerInbox",
      "outputs": [
        {
          "internalType": "contract ISequencerInbox",
          "name": "",
          "type": "address"
        }
      ],
      "stateMutability": "view",
      "type": "function"
    },
    {
      "inputs": [
        {
          "internalType": "uint64",
          "name": "nodeNum",
          "type": "uint64"
        },
        {
          "internalType": "bytes32",
          "name": "nodeHash",
          "type": "bytes32"
        }
      ],
      "name": "stakeOnExistingNode",
      "outputs": [],
      "stateMutability": "nonpayable",
      "type": "function"
    },
    {
      "inputs": [
        {
          "components": [
            {
              "components": [
                {
                  "components": [
                    {
                      "internalType": "bytes32[2]",
                      "name": "bytes32Vals",
                      "type": "bytes32[2]"
                    },
                    {
                      "internalType": "uint64[2]",
                      "name": "u64Vals",
                      "type": "uint64[2]"
                    }
                  ],
                  "internalType": "struct GlobalState",
                  "name": "globalState",
                  "type": "tuple"
                },
                {
                  "internalType": "enum MachineStatus",
                  "name": "machineStatus",
                  "type": "uint8"
                }
              ],
              "internalType": "struct ExecutionState",
              "name": "beforeState",
              "type": "tuple"
            },
            {
              "components": [
                {
                  "components": [
                    {
                      "internalType": "bytes32[2]",
                      "name": "bytes32Vals",
                      "type": "bytes32[2]"
                    },
                    {
                      "internalType": "uint64[2]",
                      "name": "u64Vals",
                      "type": "uint64[2]"
                    }
                  ],
                  "internalType": "struct GlobalState",
                  "name": "globalState",
                  "type": "tuple"
                },
                {
                  "internalType": "enum MachineStatus",
                  "name": "machineStatus",
                  "type": "uint8"
                }
              ],
              "internalType": "struct ExecutionState",
              "name": "afterState",
              "type": "tuple"
            },
            {
              "internalType": "uint64",
              "name": "numBlocks",
              "type": "uint64"
            }
          ],
          "internalType": "struct Assertion",
          "name": "assertion",
          "type": "tuple"
        },
        {
          "internalType": "bytes32",
          "name": "expectedNodeHash",
          "type": "bytes32"
        },
        {
          "internalType": "uint256",
          "name": "prevNodeInboxMaxCount",
          "type": "uint256"
        }
      ],
      "name": "stakeOnNewNode",
      "outputs": [],
      "stateMutability": "nonpayable",
      "type": "function"
    },
    {
      "inputs": [],
      "name": "stakeToken",
      "outputs": [
        {
          "internalType": "address",
          "name": "",
          "type": "address"
        }
      ],
      "stateMutability": "view",
      "type": "function"
    },
    {
      "inputs": [],
      "name": "stakerCount",
      "outputs": [
        {
          "internalType": "uint64",
          "name": "",
          "type": "uint64"
        }
      ],
      "stateMutability": "view",
      "type": "function"
    },
    {
      "inputs": [],
      "name": "totalWithdrawableFunds",
      "outputs": [
        {
          "internalType": "uint256",
          "name": "",
          "type": "uint256"
        }
      ],
      "stateMutability": "view",
      "type": "function"
    },
    {
      "inputs": [],
      "name": "validatorUtils",
      "outputs": [
        {
          "internalType": "address",
          "name": "",
          "type": "address"
        }
      ],
      "stateMutability": "view",
      "type": "function"
    },
    {
      "inputs": [],
      "name": "validatorWalletCreator",
      "outputs": [
        {
          "internalType": "address",
          "name": "",
          "type": "address"
        }
      ],
      "stateMutability": "view",
      "type": "function"
    },
    {
      "inputs": [],
      "name": "validatorWhitelistDisabled",
      "outputs": [
        {
          "internalType": "bool",
          "name": "",
          "type": "bool"
        }
      ],
      "stateMutability": "view",
      "type": "function"
    },
    {
      "inputs": [],
      "name": "wasmModuleRoot",
      "outputs": [
        {
          "internalType": "bytes32",
          "name": "",
          "type": "bytes32"
        }
      ],
      "stateMutability": "view",
      "type": "function"
    },
    {
      "inputs": [],
      "name": "withdrawStakerFunds",
      "outputs": [
        {
          "internalType": "uint256",
          "name": "",
          "type": "uint256"
        }
      ],
      "stateMutability": "nonpayable",
      "type": "function"
    },
    {
      "inputs": [
        {
          "internalType": "address",
          "name": "user",
          "type": "address"
        }
      ],
      "name": "withdrawableFunds",
      "outputs": [
        {
          "internalType": "uint256",
          "name": "",
          "type": "uint256"
        }
      ],
      "stateMutability": "view",
      "type": "function"
    },
    {
      "inputs": [
        {
          "internalType": "uint256",
          "name": "zombieNum",
          "type": "uint256"
        }
      ],
      "name": "zombieAddress",
      "outputs": [
        {
          "internalType": "address",
          "name": "",
          "type": "address"
        }
      ],
      "stateMutability": "view",
      "type": "function"
    },
    {
      "inputs": [],
      "name": "zombieCount",
      "outputs": [
        {
          "internalType": "uint256",
          "name": "",
          "type": "uint256"
        }
      ],
      "stateMutability": "view",
      "type": "function"
    },
    {
      "inputs": [
        {
          "internalType": "uint256",
          "name": "zombieNum",
          "type": "uint256"
        }
      ],
      "name": "zombieLatestStakedNode",
      "outputs": [
        {
          "internalType": "uint64",
          "name": "",
          "type": "uint64"
        }
      ],
      "stateMutability": "view",
      "type": "function"
    }
  ],
  "bytecode": "0x60e0604052620000196200003a60201b620029261760201c565b15156080523060a0524660c0523480156200003357600080fd5b5062000115565b60408051600481526024810182526020810180516001600160e01b03166302881c7960e11b1790529051600091829182916064916200007a9190620000d7565b600060405180830381855afa9150503d8060008114620000b7576040519150601f19603f3d011682016040523d82523d6000602084013e620000bc565b606091505b5091509150818015620000d0575080516020145b9250505090565b6000825160005b81811015620000fa5760208186018101518583015201620000de565b818111156200010a576000828501525b509190910192915050565b60805160a05160c051615e636200015a6000396000612431015260008181610f4d015281816124a0015261251301526000818161286e0152614a110152615e636000f3fe608060405234801561001057600080fd5b506004361061032d5760003560e01c8063014cc92c14610332578063023a96fe146103625780630357aa491461037557806312ab3d3b1461038a57806318baaab9146103a75780631aeb55a0146103af5780631b1689e9146103c25780631e83d30f146103d95780632b2af0ab146103ec5780632e7acfa6146103ff5780632f30cabd1461041f5780633e96576e146104485780633ed575981461045b57806345e38b641461046e5780634ceccfe5146104775780634d26732d1461048057806351ed6a301461048857806352d1902d1461049b57806354ce8961146104a357806355840a58146104b65780635c617e94146104ce5780635c975abb146104e15780635eb405d5146104ec57806361373919146104ff5780636177fd181461050757806363721d6b1461051a57806365f7f80d1461052257806367425daf1461052a57806369fd251c146105325780636b94c33b146105455780636d08d0a2146105585780636ddd37441461056b5780636f57644e1461057e57806371ef232c146105915780637427be511461059a57806376e7e23b146105ad578063771b2f97146105b6578063773d984e146105d05780637ba9534a146105e35780637e2d2155146105eb5780638640ce5f146105fe5780638da5cb5b146106165780638ee1a1261461061e57806391c657e81461062757806392c8134c1461063a5780639a8a05921461065a578063a23c44b114610663578063aa38a6e714610762578063aa65af4814610775578063b0ebedc714610788578063bc45e0ae1461079b578063c2c2e68e146107ae578063c4d66de8146107b6578063cd205fda146107c9578063ce11e6ab146107d1578063d01e6602146107e4578063d29a4e27146107f7578063d735e21d1461080a578063dcd030aa14610812578063dff6978714610825578063e78cea921461082d578063e8bd492214610840578063edfd03ed146108c8578063ee35f327146108db578063ef40a670146108ee578063f065de3f14610901578063f33e1fac14610914578063f3f0a03e14610927578063f63a434a1461093a578063facd743b1461094d578063fb0e722b14610970575b600080fd5b606f54610345906001600160a01b031681565b6040516001600160a01b0390911681526020015b60405180910390f35b606e54610345906001600160a01b031681565b6103886103833660046150f2565b610983565b005b607e546103979060ff1681565b6040519015158152602001610359565b610388610a56565b6103886103bd366004615149565b610ad0565b6103cb607d5481565b604051908152602001610359565b6103886103e7366004615175565b610c90565b6103886103fa366004615175565b610da8565b606554610412906001600160401b031681565b604051610359919061519b565b6103cb61042d3660046151af565b6001600160a01b03166000908152607b602052604090205490565b6104126104563660046151af565b610e4c565b6103886104693660046151cc565b610e7a565b6103cb60735481565b6103cb61b2fa81565b6103cb610f12565b607254610345906001600160a01b031681565b6103cb610f40565b6103886104b1366004615211565b610ff1565b607e546103459061010090046001600160a01b031681565b6103cb6104dc366004615248565b611254565b60335460ff16610397565b6103886104fa366004615265565b6112a8565b6103cb6112f4565b6103976105153660046151af565b6114b4565b607a546103cb565b6104126114dc565b6103886114eb565b6104126105403660046151af565b61156b565b6103886105533660046151af565b611599565b6103cb610566366004615248565b6118c7565b610345610579366004615248565b61194a565b61038861058c366004615298565b611983565b6103cb607c5481565b6103886105a83660046151af565b611fa5565b6103cb60675481565b60655461041290600160401b90046001600160401b031681565b6103886105de366004615338565b612102565b61041261211e565b6103886105f9366004615265565b612134565b607554600160c01b90046001600160401b0316610412565b61034561228e565b6103cb60685481565b6103976106353660046151af565b612298565b61064d610648366004615248565b6122fc565b6040516103599190615370565b6103cb60665481565b6107106106713660046151af565b6040805160a081018252600080825260208201819052918101829052606081018290526080810191909152506001600160a01b0316600090815260796020908152604091829020825160a081018452815481526001909101546001600160401b0380821693830193909352600160401b8104831693820193909352600160801b83049091166060820152600160c01b90910460ff161515608082015290565b6040516103599190815181526020808301516001600160401b03908116918301919091526040808401518216908301526060808401519091169082015260809182015115159181019190915260a00190565b606d54610345906001600160a01b031681565b61039761078336600461543e565b6123b4565b6103cb610796366004615477565b6123eb565b607054610345906001600160a01b031681565b61038861240b565b6103886107c43660046151af565b612495565b61039761262b565b606b54610345906001600160a01b031681565b6103456107f2366004615175565b61263c565b6103886108053660046154ae565b612651565b61041261266e565b6103976108203660046151af565b612684565b607854610412565b606a54610345906001600160a01b031681565b61089061084e3660046151af565b607960205260009081526040902080546001909101546001600160401b0380821691600160401b8104821691600160801b82041690600160c01b900460ff1685565b604080519586526001600160401b0394851660208701529284169285019290925290911660608301521515608082015260a001610359565b6103886108d6366004615175565b6126c7565b606c54610345906001600160a01b031681565b6103cb6108fc3660046151af565b6127a6565b607154610345906001600160a01b031681565b610412610922366004615175565b6127c1565b6103886109353660046154ed565b6127f8565b6103cb610948366004615248565b61286a565b61039761095b3660046151af565b60746020526000908152604090205460ff1681565b606954610345906001600160a01b031681565b60335460ff16156109af5760405162461bcd60e51b81526004016109a69061550b565b60405180910390fd5b606e546001600160a01b031633146109f85760405162461bcd60e51b815260206004820152600c60248201526b2ba927a723afa9a2a72222a960a11b60448201526064016109a6565b610a0282826129be565b6001600160401b03168314610a475760405162461bcd60e51b815260206004820152600b60248201526a1393d517d25397d0d2105360aa1b60448201526064016109a6565b610a518282612a8c565b505050565b607e5460ff1615610a795760405162461bcd60e51b81526004016109a690615535565b610a81612b41565b610ac15760405162461bcd60e51b815260206004820152601160248201527056414c494441544f525f4e4f545f41464b60781b60448201526064016109a6565b607e805460ff19166001179055565b3360009081526074602052604090205460ff1680610af05750607e5460ff165b610b0c5760405162461bcd60e51b81526004016109a690615561565b60335460ff1615610b2f5760405162461bcd60e51b81526004016109a69061550b565b610b3833612684565b610b545760405162461bcd60e51b81526004016109a690615588565b610b5c61266e565b6001600160401b0316826001600160401b031610158015610b965750610b8061211e565b6001600160401b0316826001600160401b031611155b610bda5760405162461bcd60e51b81526020600482015260156024820152744e4f44455f4e554d5f4f55545f4f465f52414e474560581b60448201526064016109a6565b6000610be583612c4b565b905081816005015414610c275760405162461bcd60e51b815260206004820152600a6024820152694e4f44455f52454f524760b01b60448201526064016109a6565b60038101546001600160401b0316610c3e33610e4c565b6001600160401b031614610c865760405162461bcd60e51b815260206004820152600f60248201526e2727aa2fa9aa20a5a2a22fa82922ab60891b60448201526064016109a6565b610a513384612c65565b3360009081526074602052604090205460ff1680610cb05750607e5460ff165b610ccc5760405162461bcd60e51b81526004016109a690615561565b60335460ff161580610d615750606a546040805163cb23bcb560e01b8152905130926001600160a01b03169163cb23bcb5916004808301926020929190829003018186803b158015610d1d57600080fd5b505afa158015610d31573d6000803e3d6000fd5b505050506040513d601f19601f82011682018060405250810190610d5591906155ac565b6001600160a01b031614155b610d7d5760405162461bcd60e51b81526004016109a6906155c9565b610d8633612cb5565b6000610d90610f12565b905080821015610d9e578091505b610a513383612d25565b610db061266e565b6001600160401b0316811015610dfa5760405162461bcd60e51b815260206004820152600f60248201526e1053149150511657d11150d2511151608a1b60448201526064016109a6565b610e0261211e565b6001600160401b0316811115610e495760405162461bcd60e51b815260206004820152600c60248201526b1113d154d39517d1561254d560a21b60448201526064016109a6565b50565b6001600160a01b0316600090815260796020526040902060010154600160401b90046001600160401b031690565b607e5461010090046001600160a01b03163314610ebf5760405162461bcd60e51b81526020600482015260036024820152624e464360e81b60448201526064016109a6565b610ecf610eca61266e565b612c4b565b600501548114610f065760405162461bcd60e51b81526020600482015260026024820152610ae960f31b60448201526064016109a6565b610a5183836001612dd7565b600080610f1d61266e565b9050610f3a4382610f2c61211e565b6001600160401b03166130c2565b91505090565b6000306001600160a01b037f00000000000000000000000000000000000000000000000000000000000000001614610fde5760405162461bcd60e51b815260206004820152603b60248201527f555550534e6f745570677261646561626c653a206d757374206e6f742062652060448201527a18d85b1b1959081d1a1c9bdd59da0819195b1959d85d1958d85b1b602a1b60648201526084016109a6565b50600080516020615e0e83398151915290565b3360009081526074602052604090205460ff16806110115750607e5460ff165b61102d5760405162461bcd60e51b81526004016109a690615561565b60335460ff16156110505760405162461bcd60e51b81526004016109a69061550b565b61105933612684565b6110755760405162461bcd60e51b81526004016109a690615588565b600061108033610e4c565b9050600061108d826122fc565b61014001516110a5906001600160401b03164361560a565b90506073548110156110e65760405162461bcd60e51b815260206004820152600a60248201526954494d455f44454c544160b01b60448201526064016109a6565b60026110fa61014087016101208801615646565b600381111561110b5761110b615621565b148061113957508261112d61112836889003880160a08901615762565b61332a565b6001600160401b031610155b6111715760405162461bcd60e51b81526020600482015260096024820152681513d3d7d4d350531360ba1b60448201526064016109a6565b600061118561016087016101408801615248565b6001600160401b0316116111cd5760405162461bcd60e51b815260206004820152600f60248201526e22a6a82a2cafa0a9a9a2a92a24a7a760891b60448201526064016109a6565b60016111df60a0870160808801615646565b60038111156111f0576111f0615621565b1461122f5760405162461bcd60e51b815260206004820152600f60248201526e4241445f505245565f53544154555360881b60448201526064016109a6565b5061123c8482848661333f565b5061124e3361124961211e565b612c65565b50505050565b600080611260607a5490565b90506000805b828110156112a05761127b856107838361263c565b1561128e578161128a8161577e565b9250505b806112988161577e565b915050611266565b509392505050565b3360009081526074602052604090205460ff16806112c85750607e5460ff165b6112e45760405162461bcd60e51b81526004016109a690615561565b6112f082826000612dd7565b5050565b3360009081526074602052604081205460ff16806113145750607e5460ff165b6113305760405162461bcd60e51b81526004016109a690615561565b60335460ff1615806113c55750606a546040805163cb23bcb560e01b8152905130926001600160a01b03169163cb23bcb5916004808301926020929190829003018186803b15801561138157600080fd5b505afa158015611395573d6000803e3d6000fd5b505050506040513d601f19601f820116820180604052508101906113b991906155ac565b6001600160a01b031614155b6113e15760405162461bcd60e51b81526004016109a6906155c9565b60006113ec3361391c565b60725460405163a9059cbb60e01b8152336004820152602481018390529192506001600160a01b03169063a9059cbb90604401602060405180830381600087803b15801561143957600080fd5b505af115801561144d573d6000803e3d6000fd5b505050506040513d601f19601f820116820180604052508101906114719190615799565b6114af5760405162461bcd60e51b815260206004820152600f60248201526e1514905394d1915497d19052531151608a1b60448201526064016109a6565b905090565b6001600160a01b0316600090815260796020526040902060010154600160c01b900460ff1690565b6075546001600160401b031690565b60006114f561266e565b6001600160401b031690506115086114dc565b6001600160401b03168111801561152f575061152261211e565b6001600160401b03168111155b610e495760405162461bcd60e51b815260206004820152600d60248201526c1393d7d553949154d3d3159151609a1b60448201526064016109a6565b6001600160a01b0316600090815260796020526040902060010154600160801b90046001600160401b031690565b3360009081526074602052604090205460ff16806115b95750607e5460ff165b6115d55760405162461bcd60e51b81526004016109a690615561565b60335460ff16156115f85760405162461bcd60e51b81526004016109a69061550b565b6116006114eb565b600061160a6114dc565b9050600061161661266e565b9050600061162382612c4b565b60038101549091506001600160401b03848116911614156118855761164784612684565b6116635760405162461bcd60e51b81526004016109a690615588565b61167d61166f85610e4c565b6001600160401b0316610da8565b61168782856123b4565b156116c75760405162461bcd60e51b815260206004820152601060248201526f14d51052d15117d3d397d5105491d15560821b60448201526064016109a6565b6040805161018081018252825481526001830154602082015260028301549181019190915260038201546001600160401b038082166060840152600160401b80830482166080850152600160801b808404831660a0860152600160c01b93849004831660c0860152600486015480841660e0870152918204831661010086015281048216610120850152919091041661014082015260058201546101608201526117709061398d565b61182261177c84612c4b565b6040805161018081018252825481526001830154602082015260028301549181019190915260038201546001600160401b038082166060840152600160401b80830482166080850152600160801b808404831660a0860152600160c01b93849004831660c0860152600486015480841660e087015291820483166101008601528104821661012085015291909104166101408201526005909101546101608201526139dc565b61182c60006126c7565b61183582611254565b6003820154600160c01b90046001600160401b0316146118855760405162461bcd60e51b815260206004820152600b60248201526a4841535f5354414b45525360a81b60448201526064016109a6565b61188d613a2c565b6040516001600160401b038316907feaffa3d968707ec919a2fc9f31d5ab2b86c905881ff561725d5a82fc95ad464090600090a250505050565b6000806118d3607a5490565b90506000805b828110156112a05760006118ec82613a73565b80549091506001600160401b03878116600160a01b9092041614801590611924575080546119249087906001600160a01b03166123b4565b1561193757826119338161577e565b9350505b50806119428161577e565b9150506118d9565b60006078826001600160401b031681548110611968576119686157bb565b6000918252602090912001546001600160a01b031692915050565b3360009081526074602052604090205460ff16806119a35750607e5460ff165b6119bf5760405162461bcd60e51b81526004016109a690615561565b60335460ff16156119e25760405162461bcd60e51b81526004016109a69061550b565b6119f26040880160208901615248565b6001600160401b0316611a086020890189615248565b6001600160401b031610611a4c5760405162461bcd60e51b815260206004820152600b60248201526a2ba927a723afa7a92222a960a91b60448201526064016109a6565b611a5461211e565b6001600160401b0316611a6d6040890160208a01615248565b6001600160401b03161115611ab35760405162461bcd60e51b815260206004820152600c60248201526b1393d517d41493d413d4d15160a21b60448201526064016109a6565b611ac06020880188615248565b6001600160401b0316611ad16114dc565b6001600160401b031610611b1b5760405162461bcd60e51b81526020600482015260116024820152701053149150511657d0d3d3919254935151607a1b60448201526064016109a6565b6000611b3688825b602002016020810190610eca9190615248565b90506000611b45896001611b23565b600380820154908401549192506001600160401b03918216911614611b985760405162461bcd60e51b81526020600482015260096024820152682224a3232fa82922ab60b91b60448201526064016109a6565b611bb78a60005b602002016020810190611bb291906151af565b612cb5565b611bc28a6001611b9f565b611be9611bd260208b018b615248565b8b60005b60200201602081019061078391906151af565b611c2a5760405162461bcd60e51b815260206004820152601260248201527114d51052d1548c57d393d517d4d51052d15160721b60448201526064016109a6565b611c45611c3d60408b0160208c01615248565b8b6001611bd6565b611c865760405162461bcd60e51b815260206004820152601260248201527114d51052d1548c97d393d517d4d51052d15160721b60448201526064016109a6565b604080518082018252611d0791611cf791908b90600290839083908082843760009201829052506040805180820190915292508c9150600290835b82821015611ced57611cde60808302850136819003810190615762565b81526020019060010190611cc1565b5050505089613a99565b85358560005b6020020135613b43565b826001015414611d465760405162461bcd60e51b815260206004820152600a6024820152694348414c5f484153483160b01b60448201526064016109a6565b611d57856020860135856001611cfd565b816001015414611d965760405162461bcd60e51b815260206004820152600a60248201526921a420a62fa420a9a41960b11b60448201526064016109a6565b60655460038301546000916001600160401b03600160401b91829004811692611dc49289359291041661560a565b6003850154611ddb906001600160401b0316612c4b565b60040154611df99190600160401b90046001600160401b03166157d1565b611e0391906157d1565b90506020850135811015611e3e57611e36611e2160208d018d6151af565b611e3160408e0160208f016151af565b612a8c565b505050611f9b565b6000611e7e8c8b8b8b89600c611e558d358a61560a565b611e5f91906157e9565b600c611e6f60208f01358b61560a565b611e7991906157e9565b613b81565b9050611f00611e9060208e018e6151af565b8d6001602002016020810190611ea691906151af565b6001600160a01b03918216600090815260796020526040808220600190810180546001600160401b038916600160801b02600160801b600160c01b0319918216811790925594909516835291200180549091169091179055565b6001600160401b0381167f6db7dc2f507647d135035469b27aa79cea90582779d084a7821d6cd092cbd873611f3860208f018f6151af565b8e6001602002016020810190611f4e91906151af565b8e6000602002016020810190611f649190615248565b604080516001600160a01b0394851681529390921660208401526001600160401b03169082015260600160405180910390a2505050505b5050505050505050565b3360009081526074602052604090205460ff1680611fc55750607e5460ff165b611fe15760405162461bcd60e51b81526004016109a690615561565b60335460ff1615806120765750606a546040805163cb23bcb560e01b8152905130926001600160a01b03169163cb23bcb5916004808301926020929190829003018186803b15801561203257600080fd5b505afa158015612046573d6000803e3d6000fd5b505050506040513d601f19601f8201168201806040525081019061206a91906155ac565b6001600160a01b031614155b6120925760405162461bcd60e51b81526004016109a6906155c9565b61209a6114dc565b6001600160401b03166120ac82610e4c565b6001600160401b031611156120f05760405162461bcd60e51b815260206004820152600a6024820152691513d3d7d49150d1539560b21b60448201526064016109a6565b6120f981612cb5565b610e4981613c40565b61210b83613cef565b6121158282610ad0565b610a5183613e11565b607554600160801b90046001600160401b031690565b3360009081526074602052604090205460ff16806121545750607e5460ff165b6121705760405162461bcd60e51b81526004016109a690615561565b60335460ff16156121935760405162461bcd60e51b81526004016109a69061550b565b607a5482106121d55760405162461bcd60e51b815260206004820152600e60248201526d4e4f5f535543485f5a4f4d42494560901b60448201526064016109a6565b60006121e08361263c565b905060006121ed846127c1565b90506000806121fa6114dc565b6001600160401b031690505b80836001600160401b03161015801561221e57508482105b1561225d57600061222e84612c4b565b905061223a8486613ed7565b60038101546001600160401b03169350826122548161577e565b93505050612206565b80836001600160401b0316101561227c5761227786614021565b612286565b61228686846140e7565b505050505050565b60006114af614130565b6000805b607a548110156122f357607a81815481106122b9576122b96157bb565b6000918252602090912001546001600160a01b03848116911614156122e15750600192915050565b806122eb8161577e565b91505061229c565b50600092915050565b612304614fab565b61230d82612c4b565b6040805161018081018252825481526001830154602082015260028301549181019190915260038201546001600160401b038082166060840152600160401b80830482166080850152600160801b808404831660a0860152600160c01b93849004831660c0860152600486015480841660e0870152918204831661010086015281048216610120850152919091041661014082015260059091015461016082015292915050565b6001600160401b03821660009081526077602090815260408083206001600160a01b038516845290915290205460ff165b92915050565b60006124018484846001600160401b03166130c2565b90505b9392505050565b607e5460ff161561242e5760405162461bcd60e51b81526004016109a690615535565b467f00000000000000000000000000000000000000000000000000000000000000001415610ac15760405162461bcd60e51b815260206004820152601460248201527310d210525397d25117d393d517d0d2105391d15160621b60448201526064016109a6565b306001600160a01b037f00000000000000000000000000000000000000000000000000000000000000001614156125115760405162461bcd60e51b815260206004820152602c6024820152600080516020615dce83398151915260448201526b19195b1959d85d1958d85b1b60a21b60648201526084016109a6565b7f00000000000000000000000000000000000000000000000000000000000000006001600160a01b0316612543614163565b6001600160a01b03161461259c5760405162461bcd60e51b815260206004820152602c6024820152600080516020615dce83398151915260448201526b6163746976652070726f787960a01b60648201526084016109a6565b6001600160a01b0381166125e55760405162461bcd60e51b815260206004820152601060248201526f2722a2a22fa9aa20a5a2afaa27a5a2a760811b60448201526064016109a6565b6125ed61262b565b610e495760405162461bcd60e51b815260206004820152600f60248201526e046414345545f4e4f545f455243323608c1b60448201526064016109a6565b6072546001600160a01b0316151590565b6000607a8281548110611968576119686157bb565b61265a84613cef565b612665838383610ff1565b61124e84613e11565b607554600160401b90046001600160401b031690565b6001600160a01b038116600090815260796020526040812060010154600160c01b900460ff1680156123e557506075546123e5906001600160401b0316836123b4565b3360009081526074602052604090205460ff16806126e75750607e5460ff165b6127035760405162461bcd60e51b81526004016109a690615561565b60335460ff16156127265760405162461bcd60e51b81526004016109a69061550b565b6000612731607a5490565b9050600061273d6114dc565b6001600160401b03169050825b8281101561124e575b8161275d826127c1565b6001600160401b031610156127945761277581614021565b8261277f81615808565b93505082811061278f5750505050565b612753565b8061279e8161577e565b91505061274a565b6001600160a01b031660009081526079602052604090205490565b6000607a82815481106127d6576127d66157bb565b600091825260209091200154600160a01b90046001600160401b031692915050565b3360009081526074602052604090205460ff16806128185750607e5460ff165b6128345760405162461bcd60e51b81526004016109a690615561565b60335460ff16156128575760405162461bcd60e51b81526004016109a69061550b565b6128618282614179565b6112f081613e11565b60007f0000000000000000000000000000000000000000000000000000000000000000156128c8576001600160401b0382166000908152607f6020526040902054806123e55760405162461bcd60e51b81526004016109a69061581f565b60006128d383612c4b565b6003810154909150600160401b90046001600160401b03166129075760405162461bcd60e51b81526004016109a69061581f565b60040154600160c01b90046001600160401b031692915050565b919050565b60408051600481526024810182526020810180516001600160e01b03166302881c7960e11b1790529051600091829182916064916129649190615840565b600060405180830381855afa9150503d806000811461299f576040519150601f19603f3d011682016040523d82523d6000602084013e6129a4565b606091505b50915091508180156129b7575080516020145b9250505090565b6001600160a01b03828116600090815260796020526040808220928416825281206001830154919291600160801b90046001600160401b031680612a2e5760405162461bcd60e51b81526020600482015260076024820152661393d7d0d2105360ca1b60448201526064016109a6565b60018201546001600160401b03828116600160801b9092041614612a835760405162461bcd60e51b815260206004820152600c60248201526b1112519197d25397d0d2105360a21b60448201526064016109a6565b95945050505050565b6000612a97826127a6565b90506000612aa4846127a6565b905080821115612ac557612ab88382612d25565b612ac2908361560a565b91505b6000612ad2600284615891565b9050612ade85826141e7565b612ae8818461560a565b9250612b1b856001600160a01b031660009081526079602052604090206001018054600160801b600160c01b0319169055565b607154612b31906001600160a01b03168461424d565b612b3a846142d3565b5050505050565b600080612b4f610eca61211e565b6040805161018081018252825481526001830154602082015260028301549181019190915260038201546001600160401b038082166060840152600160401b80830482166080850152600160801b808404831660a0860152600160c01b93849004831660c0860152600486015480841660e0870152918204831661010086015281048216610120850152919091041661014082018190526005909201546101608201529150612c0057600091505090565b606554610140820151439161b2fa91612c22916001600160401b0316906158a5565b6001600160401b0316612c3591906157d1565b1015612c4357600191505090565b600091505090565b6001600160401b0316600090815260766020526040902090565b6001600160a01b0382166000908152607960205260409020612c878284614379565b60010180546001600160401b03909216600160401b02600160401b600160801b031990921691909117905550565b612cbe816114b4565b612cda5760405162461bcd60e51b81526004016109a690615588565b6000612ce58261156b565b6001600160401b031614610e495760405162461bcd60e51b8152602060048201526007602482015266125397d0d2105360ca1b60448201526064016109a6565b6001600160a01b0382166000908152607960205260408120805480841115612d825760405162461bcd60e51b815260206004820152601060248201526f544f4f5f4c4954544c455f5354414b4560801b60448201526064016109a6565b6000612d8e858361560a565b8584559050612d9d868261424d565b856001600160a01b0316600080516020615dae8339815191528387604051612dc69291906158d0565b60405180910390a295945050505050565b60335460ff1615612dfa5760405162461bcd60e51b81526004016109a69061550b565b612e026114eb565b6000612e0c61266e565b90506000612e1982612c4b565b905082612ec9576040805161018081018252825481526001830154602082015260028301549181019190915260038201546001600160401b038082166060840152600160401b80830482166080850152600160801b808404831660a0860152600160c01b93849004831660c0860152600486015480841660e087015291820483166101008601528104821661012085015291909104166101408201526005820154610160820152612ec99061398d565b612ed16114dc565b60038201546001600160401b03908116911614612ef057612ef06158de565b6003810154600090612f0a906001600160401b0316612c4b565b905083612fba576040805161018081018252825481526001830154602082015260028301549181019190915260038201546001600160401b038082166060840152600160401b80830482166080850152600160801b808404831660a0860152600160c01b93849004831660c0860152600486015480841660e087015291820483166101008601528104821661012085015291909104166101408201526005820154610160820152612fba906139dc565b612fc460006126c7565b6000612fcf84611254565b60038401549091506000908290612fee906001600160401b03166118c7565b612ff8919061560a565b6003850154909150600160c01b90046001600160401b0316821061304b5760405162461bcd60e51b815260206004820152600a6024820152694e4f5f5354414b45525360b01b60448201526064016109a6565b600384015461306b908290600160c01b90046001600160401b03166157d1565b60048401546001600160401b0316146130b75760405162461bcd60e51b815260206004820152600e60248201526d1393d517d0531317d4d51052d15160921b60448201526064016109a6565b611f9b85898961453e565b6000816130d06001856158f4565b6001600160401b031614156130e85750606754612404565b60006130f384612c4b565b60030154600160401b90046001600160401b031690508085101561311b575050606754612404565b6000604051806101400160405280600162ffffff1681526020016201e05b62ffffff1681526020016201f7d162ffffff1681526020016201389162ffffff168152602001620329e162ffffff1681526020016201be4362ffffff1681526020016204cb8c62ffffff1681526020016201fbc462ffffff16815260200162036d3262ffffff1681526020016202797362ffffff1681525090506000604051806101400160405280600162ffffff1681526020016201c03062ffffff1681526020016201b69962ffffff16815260200161fde262ffffff168152602001620265c662ffffff16815260200162013b8e62ffffff168152602001620329e162ffffff1681526020016201389162ffffff1681526020016201f7d162ffffff1681526020016201537562ffffff16815250905060008388613258919061560a565b6065549091506000906001600160401b031661327583600a6157e9565b61327f9190615891565b9050600061328e600a83615891565b613299906002615a00565b90506000856132a9600a85615a0c565b600a81106132b9576132b96157bb565b60200201516132cd9062ffffff16836157e9565b90506000856132dd600a86615a0c565b600a81106132ed576132ed6157bb565b60200201516133019062ffffff1683615891565b90508061330c575060015b8060675461331a91906157e9565b9c9b505050505050505050505050565b6020810151600090815b602002015192915050565b6000600161335561014087016101208801615646565b600381111561336657613366615621565b14806133945750600261338161014087016101208801615646565b600381111561339257613392615621565b145b6133d35760405162461bcd60e51b815260206004820152601060248201526f4241445f41465445525f53544154555360801b60448201526064016109a6565b6133db61500f565b6133e4856122fc565b6060820152606a54604080516221048360e21b815290516001600160a01b03909216916284120c91600480820192602092909190829003018186803b15801561342c57600080fd5b505afa158015613440573d6000803e3d6000fd5b505050506040513d601f19601f820116820180604052508101906134649190615a20565b8152606081015151613476878661467c565b146134b55760405162461bcd60e51b815260206004820152600f60248201526e0a0a48aacbea6a882a88abe9082a69608b1b60448201526064016109a6565b60006134cc61112836899003890160a08a01615762565b905060006134e2611128368a90038a018a615762565b9050806001600160401b0316826001600160401b031610156135385760405162461bcd60e51b815260206004820152600f60248201526e494e424f585f4241434b574152445360881b60448201526064016109a6565b806001600160401b0316826001600160401b031614156135db57613569613564368a90038a018a615762565b6146d6565b6001600160401b0316613587613564368b90038b0160a08c01615762565b6001600160401b031610156135db5760405162461bcd60e51b815260206004820152601a602482015279494e424f585f504f535f494e5f4d53475f4241434b574152445360301b60448201526064016109a6565b60026135ef6101408a016101208b01615646565b600381111561360057613600615621565b14806136295750600061361e613564368b90038b0160a08c01615762565b6001600160401b0316115b1561363c578161363881615a39565b9250505b82516001600160401b03831611156136875760405162461bcd60e51b815260206004820152600e60248201526d12539093d617d41054d517d1539160921b60448201526064016109a6565b6001600160401b0382161561372457606a546001600160a01b03166316bf55796136b26001856158f4565b6040518263ffffffff1660e01b81526004016136ce919061519b565b60206040518083038186803b1580156136e657600080fd5b505afa1580156136fa573d6000803e3d6000fd5b505050506040513d601f19601f8201168201806040525081019061371e9190615a20565b60e08401525b5061373e905061373936889003880188615a9f565b6146e5565b6040820152606554613759906001600160401b0316436158a5565b6001600160401b0390811660c0830152606082015161012001511615801560a08301526137a05761379281606001516101200151612c4b565b6005015460808201526137b0565b6060810151610160015160808201525b6137cf8160a00151826080015183604001518460e00151606854614784565b9150828214806137dd575082155b6138205760405162461bcd60e51b81526020600482015260146024820152730aa9c8ab0a08a86a88a88be9c9e888abe9082a6960631b60448201526064016109a6565b6138686138348760a001836000015161467c565b613845836040015143606854613b43565b61385c613857368b90038b018b615a9f565b6147f1565b888560c001518761481b565b6020820152600061387761211e565b6138829060016158a5565b9050600061388f87612c4b565b905061389b818361486f565b6138a883602001516148de565b505081816060015161016001516138bd61211e565b6001600160401b03167f4f4caa9e67fb994e349dd35d1ad0ce23053d4323f83ce11dc817b5435031d09684604001518a8660e00151606854886000015160405161390b959493929190615b9a565b60405180910390a450949350505050565b6001600160a01b0381166000908152607b60205260408120805490829055607c8054829190849061394e90849061560a565b92505081905550826001600160a01b0316600080516020615dee83398151915282600060405161397f9291906158d0565b60405180910390a292915050565b80608001516001600160401b0316431015610e495760405162461bcd60e51b815260206004820152600f60248201526e4245464f52455f444541444c494e4560881b60448201526064016109a6565b8060a001516001600160401b0316431015610e495760405162461bcd60e51b815260206004820152601060248201526f10d212531117d513d3d7d49150d1539560821b60448201526064016109a6565b60758054600160401b90046001600160401b0316906008613a4c83615a39565b91906101000a8154816001600160401b0302191690836001600160401b0316021790555050565b6000607a8281548110613a8857613a886157bb565b906000526020600020019050919050565b60408051600280825260608201835260009283929190602083019080368337019050508551909150613adb90613ad68660005b6020020151614acc565b614b40565b81600081518110613aee57613aee6157bb565b6020908102919091010152613b0f8560016020020151613ad6866001613acc565b81600181518110613b2257613b226157bb565b602002602001018181525050612a836000846001600160401b031683614c64565b6040805160208101859052908101839052606081018290526000906080015b6040516020818303038152906040528051906020012090509392505050565b606e546000906001600160a01b03166314eab5e78535898989613ba760208f018f6151af565b8e6001602002016020810190613bbd91906151af565b8a8a6040518963ffffffff1660e01b8152600401613be2989796959493929190615bfc565b602060405180830381600087803b158015613bfc57600080fd5b505af1158015613c10573d6000803e3d6000fd5b505050506040513d601f19601f82011682018060405250810190613c349190615caf565b98975050505050505050565b6001600160a01b038116600090815260796020526040812090613c616114dc565b9050613c6d81846123b4565b15613ca25760018201546001600160401b03828116600160401b9092041614613c9857613c986158de565b613ca28184613ed7565b8154613cae848261424d565b613cb784614c7b565b836001600160a01b0316600080516020615dae833981519152826000604051613ce19291906158d0565b60405180910390a250505050565b3360009081526074602052604090205460ff1680613d0f5750607e5460ff165b613d2b5760405162461bcd60e51b81526004016109a690615561565b60335460ff1615613d4e5760405162461bcd60e51b81526004016109a69061550b565b613d57336114b4565b15613d745760405162461bcd60e51b81526004016109a690615ccc565b613d7d33612298565b15613dbd5760405162461bcd60e51b815260206004820152601060248201526f5354414b45525f49535f5a4f4d42494560801b60448201526064016109a6565b613dc5610f12565b811015613e075760405162461bcd60e51b815260206004820152601060248201526f4e4f545f454e4f5547485f5354414b4560801b60448201526064016109a6565b610e493382614e20565b6072546040516323b872dd60e01b8152336004820152306024820152604481018390526001600160a01b03909116906323b872dd90606401602060405180830381600087803b158015613e6357600080fd5b505af1158015613e77573d6000803e3d6000fd5b505050506040513d601f19601f82011682018060405250810190613e9b9190615799565b610e495760405162461bcd60e51b815260206004820152600d60248201526c1514905394d1915497d1905253609a1b60448201526064016109a6565b6001600160401b03821660009081526077602090815260408083206001600160a01b038516845290915290205460ff16613f235760405162461bcd60e51b81526004016109a690615588565b6001600160401b03821660009081526077602090815260408083206001600160a01b03851684529091528120805460ff19169055613f6083612c4b565b600381018054919250600160c01b9091046001600160401b0316906018613f8683615cf4565b91906101000a8154816001600160401b0302191690836001600160401b031602179055505060006001600160401b0316836001600160401b03161115610a51576003810154613fdd906001600160401b0316612c4b565b60040180546001600160401b0316906000613ff783615cf4565b91906101000a8154816001600160401b0302191690836001600160401b0316021790555050505050565b607a80546140319060019061560a565b81548110614041576140416157bb565b90600052602060002001607a828154811061405e5761405e6157bb565b600091825260209091208254910180546001600160a01b039092166001600160a01b031983168117825592546001600160e01b0319909216909217600160a01b918290046001600160401b0316909102179055607a8054806140c2576140c2615d17565b600082815260209020810160001990810180546001600160e01b031916905501905550565b80607a83815481106140fb576140fb6157bb565b9060005260206000200160000160146101000a8154816001600160401b0302191690836001600160401b031602179055505050565b60007fb53127684a568b3173ae13b9f8a6016e243e63b6e8ee1178d6a717850b5d61035b546001600160a01b0316919050565b6000600080516020615e0e833981519152614154565b3360009081526074602052604090205460ff16806141995750607e5460ff165b6141b55760405162461bcd60e51b81526004016109a690615561565b60335460ff16156141d85760405162461bcd60e51b81526004016109a69061550b565b6141e182612cb5565b6112f082825b6001600160a01b03821660009081526079602052604081208054909161420d84836157d1565b8084556040519091506001600160a01b03861690600080516020615dae8339815191529061423e90859085906158d0565b60405180910390a25050505050565b6001600160a01b0382166000908152607b60205260408120549061427183836157d1565b6001600160a01b0385166000908152607b60205260408120829055607c805492935085929091906142a39084906157d1565b92505081905550836001600160a01b0316600080516020615dee8339815191528383604051613ce19291906158d0565b6001600160a01b03808216600081815260796020908152604080832081518083019092529381526001808501546001600160401b03600160401b9091048116938301938452607a8054928301815590945290517ff0440771a29e57e18c66727944770b82cc77924aef333c927ce6bdd2cdb3ae0390910180549251909316600160a01b026001600160e01b0319909216941693909317929092179091556112f082614c7b565b6001600160401b03821660009081526077602090815260408083206001600160a01b038516845290915290205460ff16156143c65760405162461bcd60e51b81526004016109a690615ccc565b6001600160401b03821660009081526077602090815260408083206001600160a01b03851684529091528120805460ff1916600117905561440683612c4b565b6003810154909150600160401b90046001600160401b031661443a5760405162461bcd60e51b81526004016109a69061581f565b6003810154600160c01b90046001600160401b031661445a8160016158a5565b6003830180546001600160c01b0316600160c01b6001600160401b039384160217905584161561124e57600382015460009061449e906001600160401b0316612c4b565b6004810180549192506001600160401b039091169060006144be83615a39565b91906101000a8154816001600160401b0302191690836001600160401b0316021790555050816001600160401b031660001415612b3a57606554612b3a9061450f906001600160401b0316436158a5565b600383018054600160801b600160c01b031916600160801b6001600160401b0390931692909202919091179055565b600061454984612c4b565b90506145558383614f78565b8160020154146145965760405162461bcd60e51b815260206004820152600c60248201526b434f4e4649524d5f4441544160a01b60448201526064016109a6565b606b54604051630502677360e51b81526001600160a01b039091169063a04cee60906145c890859087906004016158d0565b600060405180830381600087803b1580156145e257600080fd5b505af11580156145f6573d6000803e3d6000fd5b5050607580546001600160401b0319166001600160401b0388161790555061462190508460016158a5565b60758054600160401b600160801b031916600160401b6001600160401b0393841602179055604051908516907f22ef0479a7ff660660d1c2fe35f1b632cf31675c2d9378db8cec95b00d8ffa3c90613ce190869086906158d0565b600061469561469036859003850185615762565b614acc565b826146a660a0860160808701615646565b6040516020016146b893929190615d2d565b60405160208183030381529060405280519060200120905092915050565b60208101516000906001613334565b60006146ef615060565b8251602001518190600381111561470857614708615621565b9081600381111561471b5761471b615621565b90525060208381015181015190820190600381111561473c5761473c615621565b9081600381111561474f5761474f615621565b90525061475a61507e565b83515181526020808501515190820152604084015161477c9083908390613a99565b949350505050565b60008086614793576000614796565b60015b6040516001600160f81b031960f883901b1660208201526021810188905260418101879052606181018690526081810185905290915060a1016040516020818303038152906040528051906020012091505095945050505050565b60006123e5614807836020015160000151614f94565b60208401515161481690614f9f565b614f78565b614823614fab565b61482b614fab565b96875250602086019490945260408501929092526001600160401b0390811660608501529081166080840181905260a0840152431661014083015261016082015290565b6004820154600160401b90046001600160401b03166148af57600482018054600160401b600160801b031916600160401b436001600160401b0316021790555b600490910180546001600160401b03909216600160801b02600160801b600160c01b0319909216919091179055565b60758054600160801b90046001600160401b03169060106148fe83615a39565b825461010092830a6001600160401b03818102199092169282160291909117909255607554600160801b908190048316600090815260766020908152604091829020875181559087015160018201559086015160028201556060860151600382018054608089015160a08a015160c08b01519489166001600160801b031993841617600160401b928a168302176001600160801b03908116918a1688026001600160c01b0390811692909217600160c01b968b1687021790945560e08b0151600487018054998d01516101208e01516101408f0151938d169b9096169a909a17998b16909302989098179093169188169095029091161793909416909302919091179055610160830151600590910155507f000000000000000000000000000000000000000000000000000000000000000015610e495760646001600160a01b031663a3b1b31d6040518163ffffffff1660e01b815260040160206040518083038186803b158015614a6f57600080fd5b505afa158015614a83573d6000803e3d6000fd5b505050506040513d601f19601f82011682018060405250810190614aa79190615a20565b607554600160801b90046001600160401b03166000908152607f602052604090205550565b8051805160209182015192820151805190830151604080516c23b637b130b61039ba30ba329d60991b81870152602d810194909452604d8401959095526001600160c01b031960c092831b8116606d850152911b1660758201528251808203605d018152607d909101909252815191012090565b60006001836003811115614b5657614b56615621565b1415614b9c576040516b213637b1b59039ba30ba329d60a11b6020820152602c8101839052604c015b6040516020818303038152906040528051906020012090506123e5565b6002836003811115614bb057614bb0615621565b1415614be65760405174213637b1b59039ba30ba32961032b93937b932b21d60591b602082015260358101839052605501614b7f565b6003836003811115614bfa57614bfa615621565b1415614c295760405174213637b1b59039ba30ba3296103a37b7903330b91d60591b6020820152603501614b7f565b60405162461bcd60e51b815260206004820152601060248201526f4241445f424c4f434b5f53544154555360801b60448201526064016109a6565b6000838383604051602001613b6293929190615d6b565b6001600160a01b03811660009081526079602052604090206001810154600160c01b900460ff16614cbe5760405162461bcd60e51b81526004016109a690615588565b600180820154607880546001600160401b03909216929091614ce0919061560a565b81548110614cf057614cf06157bb565b600091825260209091200154607880546001600160a01b03909216916001600160401b038416908110614d2557614d256157bb565b9060005260206000200160006101000a8154816001600160a01b0302191690836001600160a01b0316021790555080607960006078846001600160401b031681548110614d7457614d746157bb565b6000918252602080832091909101546001600160a01b03168352820192909252604001902060010180546001600160401b0319166001600160401b03929092169190911790556078805480614dcb57614dcb615d17565b60008281526020808220830160001990810180546001600160a01b03191690559092019092556001600160a01b03949094168152607990935250506040812090815560010180546001600160c81b0319169055565b6078805460018082019092557f8dc6fb69531d98d70dc0420e638d2dfd04e09e1ec783ede9aac77da9c5a0dac4810180546001600160a01b0319166001600160a01b0386169081179091556040805160a0810182528581526001600160401b038085166020808401918252607580548416858701908152600060608701818152608088018c81528a835260798652898320985189559551978c0180549351915196519888166001600160801b031990941693909317600160401b9188169190910217600160801b600160c81b031916600160801b9587169590950260ff60c01b191694909417600160c01b961515870217905580548416835260778252858320878452909152848220805460ff191690981790975586546001600160c01b031643909216909202179094555191929091600080516020615dae83398151915291614f6b9186906158d0565b60405180910390a2505050565b60408051602081018490529081018290526000906060016146b8565b805160009081613334565b80516000906001613334565b6040805161018081018252600080825260208201819052918101829052606081018290526080810182905260a0810182905260c0810182905260e0810182905261010081018290526101208101829052610140810182905261016081019190915290565b6040518061010001604052806000815260200161502a614fab565b81526000602082015260400161503e614fab565b8152600060208201819052604082018190526060820181905260809091015290565b60405180604001604052806002906020820280368337509192915050565b60405180604001604052806002905b6150956150ab565b81526020019060019003908161508d5790505090565b60405180604001604052806150be615060565b81526020016150cb615060565b905290565b6001600160a01b03169052565b6001600160a01b0381168114610e4957600080fd5b60008060006060848603121561510757600080fd5b833592506020840135615119816150dd565b91506040840135615129816150dd565b809150509250925092565b6001600160401b0381168114610e4957600080fd5b6000806040838503121561515c57600080fd5b823561516781615134565b946020939093013593505050565b60006020828403121561518757600080fd5b5035919050565b6001600160401b03169052565b6001600160401b0391909116815260200190565b6000602082840312156151c157600080fd5b8135612404816150dd565b6000806000606084860312156151e157600080fd5b505081359360208301359350604090920135919050565b6000610160828403121561520b57600080fd5b50919050565b60008060006101a0848603121561522757600080fd5b61523185856151f8565b956101608501359550610180909401359392505050565b60006020828403121561525a57600080fd5b813561240481615134565b6000806040838503121561527857600080fd5b50508035926020909101359150565b80604081018310156123e557600080fd5b600080600080600080600080610280898b0312156152b557600080fd5b6152bf8a8a615287565b97506152ce8a60408b01615287565b96506152dd8a60808b01615287565b95506101c089018a8111156152f157600080fd5b60c08a0195503561530181615134565b93506101e089013592506153198a6102008b01615287565b91506153298a6102408b01615287565b90509295985092959890939650565b60008060006060848603121561534d57600080fd5b83359250602084013561535f81615134565b929592945050506040919091013590565b60006101808201905082518252602083015160208301526040830151604083015260608301516153a3606084018261518e565b5060808301516153b6608084018261518e565b5060a08301516153c960a084018261518e565b5060c08301516153dc60c084018261518e565b5060e08301516153ef60e084018261518e565b50610100808401516154038285018261518e565b5050610120808401516154188285018261518e565b50506101408084015161542d8285018261518e565b505061016092830151919092015290565b6000806040838503121561545157600080fd5b823561545c81615134565b9150602083013561546c816150dd565b809150509250929050565b60008060006060848603121561548c57600080fd5b83359250602084013561549e81615134565b9150604084013561512981615134565b6000806000806101c085870312156154c557600080fd5b843593506154d686602087016151f8565b9396939550505050610180820135916101a0013590565b6000806040838503121561550057600080fd5b8235615167816150dd565b60208082526010908201526f14185d5cd8589b194e881c185d5cd95960821b604082015260600190565b60208082526012908201527115d2125511531254d517d11254d05093115160721b604082015260600190565b6020808252600d908201526c2727aa2fab20a624a220aa27a960991b604082015260600190565b6020808252600a90820152691393d517d4d51052d15160b21b604082015260600190565b6000602082840312156155be57600080fd5b8151612404816150dd565b6020808252601190820152705041555345445f414e445f41435449564560781b604082015260600190565b634e487b7160e01b600052601160045260246000fd5b60008282101561561c5761561c6155f4565b500390565b634e487b7160e01b600052602160045260246000fd5b80356004811061292157600080fd5b60006020828403121561565857600080fd5b61240482615637565b634e487b7160e01b600052604160045260246000fd5b604080519081016001600160401b038111828210171561569957615699615661565b60405290565b6000608082840312156156b157600080fd5b6156b9615677565b905082601f8301126156ca57600080fd5b6156d2615677565b8060408401858111156156e457600080fd5b845b818110156156fe5780358452602093840193016156e6565b5081845285605f86011261571157600080fd5b615719615677565b9250829150608085018681111561572f57600080fd5b8082101561575457813561574281615134565b8452602093840193919091019061572f565b505060208301525092915050565b60006080828403121561577457600080fd5b612404838361569f565b6000600019821415615792576157926155f4565b5060010190565b6000602082840312156157ab57600080fd5b8151801515811461240457600080fd5b634e487b7160e01b600052603260045260246000fd5b600082198211156157e4576157e46155f4565b500190565b6000816000190483118215151615615803576158036155f4565b500290565b600081615817576158176155f4565b506000190190565b6020808252600790820152664e4f5f4e4f444560c81b604082015260600190565b6000825160005b818110156158615760208186018101518583015201615847565b81811115615870576000828501525b509190910192915050565b634e487b7160e01b600052601260045260246000fd5b6000826158a0576158a061587b565b500490565b60006001600160401b038281168482168083038211156158c7576158c76155f4565b01949350505050565b918252602082015260400190565b634e487b7160e01b600052600160045260246000fd5b60006001600160401b0383811690831681811015615914576159146155f4565b039392505050565b600181815b8085111561595757816000190482111561593d5761593d6155f4565b8085161561594a57918102915b93841c9390800290615921565b509250929050565b60008261596e575060016123e5565b8161597b575060006123e5565b8160018114615991576002811461599b576159b7565b60019150506123e5565b60ff8411156159ac576159ac6155f4565b50506001821b6123e5565b5060208310610133831016604e8410600b84101617156159da575081810a6123e5565b6159e4838361591c565b80600019048211156159f8576159f86155f4565b029392505050565b6000612404838361595f565b600082615a1b57615a1b61587b565b500690565b600060208284031215615a3257600080fd5b5051919050565b60006001600160401b0382811680821415615a5657615a566155f4565b6001019392505050565b600060a08284031215615a7257600080fd5b615a7a615677565b9050615a86838361569f565b8152615a9460808301615637565b602082015292915050565b60006101608284031215615ab257600080fd5b604051606081016001600160401b0381118282101715615ad457615ad4615661565b604052615ae18484615a60565b8152615af08460a08501615a60565b6020820152610140830135615b0481615134565b60408201529392505050565b604081833760006040838101828152908301915b6002811015612b3a578235615b3881615134565b6001600160401b0316825260209283019290910190600101615b24565b60048110615b7357634e487b7160e01b600052602160045260246000fd5b9052565b615b818282615b10565b615b8d60808201615637565b610a516080840182615b55565b8581526101e08101615baf6020830187615b77565b615bbf60c0830160a08801615b77565b610140860135615bce81615134565b6001600160401b03166101608301526101808201949094526101a08101929092526101c09091015292915050565b888152610200810160208083018a60005b6002811015615c3857615c2883615c2384615637565b615b55565b9183019190830190600101615c0d565b50505050606082018860005b6002811015615c6a57615c578383615b10565b6080928301929190910190600101615c44565b505050615c7b61016083018861518e565b615c896101808301876150d0565b615c976101a08301866150d0565b6101c08201939093526101e001529695505050505050565b600060208284031215615cc157600080fd5b815161240481615134565b6020808252600e908201526d1053149150511657d4d51052d15160921b604082015260600190565b60006001600160401b03821680615d0d57615d0d6155f4565b6000190192915050565b634e487b7160e01b600052603160045260246000fd5b838152826020820152600060048310615d5657634e487b7160e01b600052602160045260246000fd5b5060f89190911b604082015260410192915050565b83815260006020848184015260408301845182860160005b82811015615d9f57815184529284019290840190600101615d83565b50919897505050505050505056feebd093d389ab57f3566918d2c379a2b4d9539e8eb95efad9d5e465457833fde646756e6374696f6e206d7573742062652063616c6c6564207468726f75676820a740af14c56e4e04a617b1de1eb20de73270decbaaead14f142aabf3038e5ae22b1dbce74324248c222f0ec2d5ed7bd323cfc425b336f0253c5ccfda7265546da2646970667358221220705ab24891d54ce5e10cbf89d8aff1e2c9064762168624cd1800da737cfaa83464736f6c63430008090033",
  "linkReferences": {},
  "deployedLinkReferences": {}
}