{
  "_format": "hh-sol-artifact-1",
  "contractName": "SdkStorage",
  "sourceName": "src/mocks/SdkStorage.sol",
  "abi": [
    {
      "inputs": [],
      "name": "populate",
      "outputs": [],
      "stateMutability": "nonpayable",
      "type": "function"
    },
    {
      "inputs": [],
      "name": "remove",
      "outputs": [],
      "stateMutability": "nonpayable",
      "type": "function"
    }
  ],
  "bytecode": "0x608080604052346100165761149f908161001c8239f35b600080fdfe6080604052600436101561001257600080fd5b60003560e01c8063a7f4377914610e1e5763f809f2051461003257600080fd5b34610e19576000366003190112610e1957600080546001600160a81b031916617001178155600180546001600160a01b03191660301790556002805465ffffffffffff1916657fffffff002017905560406003555b6001600160401b0381811660208110156101145760058054600160401b8110156100fe576100ba9160018201905561122d565b815460039190911b93841b19169190921b1790556001600160401b039081169081146100e857600101610087565b634e487b7160e01b600052601160045260246000fd5b634e487b7160e01b600052604160045260246000fd5b600554600710156104a657600560009081527f036b6384b5eca791c62761152d0c79bb0604c104a5fb6f4eb0703f3154bb3db180546001600160c01b0316604d60c01b1790555b600a8110610c545760005b600a8110610beb5760005b601f908160ff821610156103405760405160075492908060006101938661134f565b60018716801561031e576001146102d9575b506101c89160019160ff60f81b8760f81b16815203601e1981018452018261127d565b8051936001600160401b0385116100fe576101e29061134f565b82811161029e575b50602091841160011461022f5761021f939160009183610224575b50508160011b916000199060031b1c19161760075561133e565b610171565b015190508480610205565b90600760005260206000209160005b601f1986168110610286575091849160019361021f96601f1981161061026d575b505050811b0160075561133e565b015160001960f88460031b161c1916905584808061025f565b9192602060018192868501518155019401920161023e565b6102ca90600760005260206000208480880160051c820192602089106102d0575b0160051c01906112ed565b846101ea565b925081926102bf565b91505060076000528160206000206000905b83821061030457509091820160200190506101c86101a5565b6020919250806001915483858801015201910183916102eb565b5060ff19871660208085019190915281151590910283010190506101c86101a5565b60005b605060ff821610610a305761036161035c60095461134f565b611389565b601e6e617262697472756d207374796c757360881b0160095560005b601081106109fb5760005b60046001600160a01b03821610156105a7576040516001600160401b0360208201818111838210176100fe57604081815260008085526001600160a01b0386168152600b6020522092519182116100fe57600160401b82116100fe578254828455808310610551575b509160005260206000209060005b8160051c811061050b5750601f19811681036104bc575b50505060005b6001600160a01b03821681111561043c5750610437906113cf565b610388565b6001600160a01b0382166000908152600b602052604090208054909190600160401b8110156100fe57600181018084558110156104a6576104a19260005260206000208160051c019060f882549160031b169060ff6001831b921b191617905561126e565b61041c565b634e487b7160e01b600052603260045260246000fd5b60009260005b601f198316830381106104de57505060051c0155818080610416565b909360206105026001928488511515919060ff809160031b9316831b921b19161790565b950191016104c2565b6000805b602081106105245750838201556001016103ff565b949060206105486001928885511515919060ff809160031b9316831b921b19161790565b9201950161050f565b61057e90846000526020600020601f80860160051c82019281871680610584575b500160051c01906112ed565b846103f1565b6105a1906000198601908154906000199060200360031b1c169055565b89610572565b60005b8060030b600481121561061d57600c8054600160401b8110156100fe576105d6916001820190556112d2565b505063ffffffff8216906105e9826112d2565b5060009182526020526040902080546001600160a01b031916909117905560030b637fffffff81146100e8576001016105aa565b60005b60ff906004828216101561066e576106699161063b826113e7565b1660ff60f81b8260f81b16600052600d6020526040600020600183161560005260205260406000205561133e565b610620565b61068f6026604051657374796c757360d01b8152600e6006820152206113f9565b60005b600481106109765760116106a6815461134f565b601f8111610954575b50601c6d4c3220697320666f7220796f752160901b018155601c9060005b60058110610921575060005b600281106108f6575060005b600481106108c2575060005b600381106107c6575060005b60048110158061079c5760005b80600b0b600481121561078b57826104a657601d8401805491600160401b8310156100fe57600183018083558310156104a65761075b91600052600c6001602060002085821c019416028354611450565b9055600b0b60016001605f1b0381146107765760010161070a565b83634e487b7160e01b60005260045260246000fd5b5050506107979061126e565b6106fd565b60005b600381106107a957005b806107bc6107c19260011b6021016113f9565b61126e565b61079f565b60405160808082016001600160401b038111838210176100fe5760405236823760005b6004811261087557508354600160401b8110156100fe57600181018086558110156104a6578460005260206000209060011b019060005b60028110610839575050506108349061126e565b6106f1565b6000805b60028110610852575083820155600101610820565b9290602061086c6001928451600b0b9087600c0290611450565b9201930161083d565b60048195939594929410156104a657600b81900b600582901b8501526001600160ff1b0381146108ad576001019391939290926107e9565b50634e487b7160e01b60005260045260246000fd5b8060ff6108f19216816018019081549061ff006108de826113e7565b60081b169161ffff19161717905561126e565b6106e5565b6016810180546001600160a01b0319166001600160a01b03831617905561091c9061126e565b6106d9565b61094f90600a80820460140190600382549184060260031b9062ffffff808516831b921b191617905561126e565b6106cd565b6109709082600052601f6020600020910160051c8101906112ed565b816106af565b600454600160401b8110156100fe578060016109959201600455611431565b9190916109e5578160026109af93036109b4575b5061126e565b610692565b61ffff6002541661ffff198254161781556109d760025460101c60030b8261120f565b6001600354910155826109a9565b634e487b7160e01b600052600060045260246000fd5b6000818152600a6020526040902080546001600160a01b0319166001600160a01b038316179055610a2b9061126e565b61037d565b6040516008549190806000610a448561134f565b600186168015610bc957600114610b84575b50610a799160019160ff60f81b8660f81b16815203601e1981018452018261127d565b8051926001600160401b0384116100fe57610a939061134f565b90601f91828111610b53575b506020918411600114610ae457610ad4939160009183610ad9575b50508160011b916000199060031b1c19161760085561133e565b610343565b015190508480610aba565b90600860005260206000209160005b601f1986168110610b3b5750918491600193610ad496601f19811610610b22575b505050811b0160085561133e565b015160001960f88460031b161c19169055848080610b14565b91926020600181928685015181550194019201610af3565b610b7e90600860005260206000208480880160051c820192602089106102d0570160051c01906112ed565b84610a9f565b91505060086000528160206000206000905b838210610baf5750909182016020019050610a79610a56565b602091925080600191548385880101520191018391610b96565b5060ff1986166020808501919091528115159091028301019050610a79610a56565b60005b818110610c045750610bff9061126e565b610166565b610c1781610c11846112b7565b5061131c565b91908054808460031b1c60011b6501fffffffffe64fffffffffe8216911681036100e857610c4f94610c4892611304565b905561126e565b610bee565b610c5d816112a0565b610c6a604051918261127d565b818152610c76826112a0565b6020820190601f190136823760068054600160401b9290838110156100fe57806001610ca4920184556112b7565b9490946109e55751926001600160401b0384116100fe5783116100fe578354838555808410610dc3575b509260005260206000209160005b8282048110610d845750818104820281039384610d3e575b505050505060005b818110610d125750610d0d9061126e565b61015b565b80610c48610d26610d3993610c11866112b7565b64ffffffffff8493929316908354611304565b610cfc565b60009460005b818110610d5b575050500401558180808080610cf4565b9091956020610d7a60019264ffffffffff8a5116908560050290611304565b9701929101610d44565b6000805b848110610d9c575084820155600101610cdc565b95906020610dba60019264ffffffffff855116908a60050290611304565b92019601610d88565b610df090856000526020600020846005818189010483019381838a060280610df6575b50010401906112ed565b85610cce565b610e13906000198701908154906000199060200360031b1c169055565b8b610de6565b600080fd5b34610e19576000366003190112610e19575b60078054610e3d8161134f565b15610ee657610e4b8161134f565b8015610ed05780602014610eb25760001990818101916020809210600114610e9a5750836000526000208160051c019060ff825491601f809116900360031b1b19169055600119019055610e30565b90508160019392931b9260031b1c1916179055610e30565b5050600081815260208120805460ff1916603e179092559055610e30565b634e487b7160e01b600052603160045260246000fd5b600880546010610ef58261134f565b1115610f8957610f048161134f565b8015610ed05780602014610f6b5760001990818101916020809210600114610f535750836000526000208160051c019060ff825491601f809116900360031b1b19169055600119019055610ee6565b90508160019392931b9260031b1c1916179055610ee6565b5050600081815260208120805460ff1916603e179092559055610ee6565b610f9761035c60095461134f565b601e6e7761736d2069732063757465203c3360881b016009555b600580548015610fe2576000190190610fc98261122d565b81549060018060401b039060031b1b1916905555610fb1565b60068054600181111561103c578015610ed0576000190190611003826112b7565b6109e5578054600082558061101b575b505055610fe2565b6110359160005282600560206000209201048101906112ed565b8280611013565b60005b600881106111e55760086000908152600a60209081527f2c1fd36ba11b13b555f58753742999069764391f450ca8727fe8a3eeffe6777580546001600160a01b03191682179055905b6001600160a01b0381169060048210156110e5576110bf91600052600b83526040600020805460008255806110c4575b50506113cf565b611088565b6110de91600052601f85600020910160051c8101906112ed565b83806110b8565b826004548015610ed05760001901906110fd82611431565b9290926109e5576000835560006001809401556004558160185b601c81106111d1575050601c546000601c558061118f575b5081601d5b6021811061115b575060215b6027811061114a57005b600080825582820155600201611140565b80546000825580611170575b50018290611134565b611189908260005283856000209101841c8101906112ed565b84611167565b6001600160ff1b03811681036100e857601c6000528160002090831b8101905b8181106111bc575061112f565b806111cb6002809301826112ed565b016111af565b6111dd828201826112ed565b018290611117565b6000818152600a6020526040902080546001600160a01b031916905561120a9061126e565b61103f565b9081549060101b65ffffffff0000169065ffffffff00001916179055565b906005548210156104a6576005600052600282901c7f036b6384b5eca791c62761152d0c79bb0604c104a5fb6f4eb0703f3154bb3db0019160031b60181690565b60001981146100e85760010190565b601f909101601f19168101906001600160401b038211908210176100fe57604052565b6001600160401b0381116100fe5760051b60200190565b6006548110156104a657600660005260206000200190600090565b600c548110156104a657600c60005260206000200190600090565b8181106112f8575050565b600081556001016112ed565b9060031b9164ffffffffff809116831b921b19161790565b91909180548310156104a6576000526005600660206000208185040193060290565b60ff1660ff81146100e85760010190565b90600182811c9216801561137f575b602083101461136957565b634e487b7160e01b600052602260045260246000fd5b91607f169161135e565b601f81116113945750565b60096000526113cd90601f0160051c7f6e1540171b6c0c960b71a7020d9f60077f6af931a8bbf590da0223dacf75c7af908101906112ed565b565b6001600160a01b039081169081146100e85760010190565b60ff60019116019060ff82116100e857565b600281036114045750565b61ffff6002541661ffff1982541617815561142760025460101c60030b8261120f565b6001600354910155565b6004548110156104a657600460005260206000209060011b0190600090565b9060031b9160018060601b03809116831b921b1916179056fea264697066735822122039694eeca2e985a1952a84e27bbb65ae26d3ef1fc0715e5ba77189f0f05bb31864736f6c63430008130033",
  "linkReferences": {},
  "deployedLinkReferences": {}
}