{
  "_format": "hh-sol-artifact-1",
  "contractName": "SequencerInbox",
  "sourceName": "src/bridge/SequencerInbox.sol",
  "abi": [
    {
      "inputs": [
        {
          "internalType": "uint256",
          "name": "_maxDataSize",
          "type": "uint256"
        },
        {
          "internalType": "contract IReader4844",
          "name": "reader4844_",
          "type": "address"
        },
        {
          "internalType": "bool",
          "name": "_isUsingFeeToken",
          "type": "bool"
        }
      ],
      "stateMutability": "nonpayable",
      "type": "constructor"
    },
    {
      "inputs": [],
      "name": "AlreadyInit",
      "type": "error"
    },
    {
      "inputs": [
        {
          "internalType": "bytes32",
          "name": "",
          "type": "bytes32"
        }
      ],
      "name": "AlreadyValidDASKeyset",
      "type": "error"
    },
    {
      "inputs": [],
      "name": "BadMaxTimeVariation",
      "type": "error"
    },
    {
      "inputs": [],
      "name": "BadPostUpgradeInit",
      "type": "error"
    },
    {
      "inputs": [
        {
          "internalType": "uint256",
          "name": "stored",
          "type": "uint256"
        },
        {
          "internalType": "uint256",
          "name": "received",
          "type": "uint256"
        }
      ],
      "name": "BadSequencerNumber",
      "type": "error"
    },
    {
      "inputs": [],
      "name": "DataBlobsNotSupported",
      "type": "error"
    },
    {
      "inputs": [
        {
          "internalType": "uint256",
          "name": "dataLength",
          "type": "uint256"
        },
        {
          "internalType": "uint256",
          "name": "maxDataLength",
          "type": "uint256"
        }
      ],
      "name": "DataTooLarge",
      "type": "error"
    },
    {
      "inputs": [],
      "name": "DelayedBackwards",
      "type": "error"
    },
    {
      "inputs": [],
      "name": "DelayedTooFar",
      "type": "error"
    },
    {
      "inputs": [],
      "name": "Deprecated",
      "type": "error"
    },
    {
      "inputs": [],
      "name": "ForceIncludeBlockTooSoon",
      "type": "error"
    },
    {
      "inputs": [],
      "name": "ForceIncludeTimeTooSoon",
      "type": "error"
    },
    {
      "inputs": [],
      "name": "HadZeroInit",
      "type": "error"
    },
    {
      "inputs": [],
      "name": "IncorrectMessagePreimage",
      "type": "error"
    },
    {
      "inputs": [
        {
          "internalType": "string",
          "name": "name",
          "type": "string"
        }
      ],
      "name": "InitParamZero",
      "type": "error"
    },
    {
      "inputs": [],
      "name": "InvalidCelestiaBatch",
      "type": "error"
    },
    {
      "inputs": [
        {
          "internalType": "bytes1",
          "name": "",
          "type": "bytes1"
        }
      ],
      "name": "InvalidHeaderFlag",
      "type": "error"
    },
    {
      "inputs": [],
      "name": "MissingDataHashes",
      "type": "error"
    },
    {
      "inputs": [],
      "name": "NativeTokenMismatch",
      "type": "error"
    },
    {
      "inputs": [
        {
          "internalType": "bytes32",
          "name": "",
          "type": "bytes32"
        }
      ],
      "name": "NoSuchKeyset",
      "type": "error"
    },
    {
      "inputs": [],
      "name": "NotBatchPoster",
      "type": "error"
    },
    {
      "inputs": [
        {
          "internalType": "address",
          "name": "",
          "type": "address"
        }
      ],
      "name": "NotBatchPosterManager",
      "type": "error"
    },
    {
      "inputs": [],
      "name": "NotCodelessOrigin",
      "type": "error"
    },
    {
      "inputs": [],
      "name": "NotForked",
      "type": "error"
    },
    {
      "inputs": [
        {
          "internalType": "address",
          "name": "sender",
          "type": "address"
        },
        {
          "internalType": "address",
          "name": "owner",
          "type": "address"
        }
      ],
      "name": "NotOwner",
      "type": "error"
    },
    {
      "inputs": [],
      "name": "RollupNotChanged",
      "type": "error"
    },
    {
      "anonymous": false,
      "inputs": [
        {
          "indexed": true,
          "internalType": "uint256",
          "name": "messageNum",
          "type": "uint256"
        },
        {
          "indexed": false,
          "internalType": "bytes",
          "name": "data",
          "type": "bytes"
        }
      ],
      "name": "InboxMessageDelivered",
      "type": "event"
    },
    {
      "anonymous": false,
      "inputs": [
        {
          "indexed": true,
          "internalType": "uint256",
          "name": "messageNum",
          "type": "uint256"
        }
      ],
      "name": "InboxMessageDeliveredFromOrigin",
      "type": "event"
    },
    {
      "anonymous": false,
      "inputs": [
        {
          "indexed": true,
          "internalType": "bytes32",
          "name": "keysetHash",
          "type": "bytes32"
        }
      ],
      "name": "InvalidateKeyset",
      "type": "event"
    },
    {
      "anonymous": false,
      "inputs": [
        {
          "indexed": true,
          "internalType": "uint256",
          "name": "id",
          "type": "uint256"
        }
      ],
      "name": "OwnerFunctionCalled",
      "type": "event"
    },
    {
      "anonymous": false,
      "inputs": [
        {
          "indexed": true,
          "internalType": "uint256",
          "name": "batchSequenceNumber",
          "type": "uint256"
        },
        {
          "indexed": false,
          "internalType": "bytes",
          "name": "data",
          "type": "bytes"
        }
      ],
      "name": "SequencerBatchData",
      "type": "event"
    },
    {
      "anonymous": false,
      "inputs": [
        {
          "indexed": true,
          "internalType": "uint256",
          "name": "batchSequenceNumber",
          "type": "uint256"
        },
        {
          "indexed": true,
          "internalType": "bytes32",
          "name": "beforeAcc",
          "type": "bytes32"
        },
        {
          "indexed": true,
          "internalType": "bytes32",
          "name": "afterAcc",
          "type": "bytes32"
        },
        {
          "indexed": false,
          "internalType": "bytes32",
          "name": "delayedAcc",
          "type": "bytes32"
        },
        {
          "indexed": false,
          "internalType": "uint256",
          "name": "afterDelayedMessagesRead",
          "type": "uint256"
        },
        {
          "components": [
            {
              "internalType": "uint64",
              "name": "minTimestamp",
              "type": "uint64"
            },
            {
              "internalType": "uint64",
              "name": "maxTimestamp",
              "type": "uint64"
            },
            {
              "internalType": "uint64",
              "name": "minBlockNumber",
              "type": "uint64"
            },
            {
              "internalType": "uint64",
              "name": "maxBlockNumber",
              "type": "uint64"
            }
          ],
          "indexed": false,
          "internalType": "struct IBridge.TimeBounds",
          "name": "timeBounds",
          "type": "tuple"
        },
        {
          "indexed": false,
          "internalType": "enum IBridge.BatchDataLocation",
          "name": "dataLocation",
          "type": "uint8"
        }
      ],
      "name": "SequencerBatchDelivered",
      "type": "event"
    },
    {
      "anonymous": false,
      "inputs": [
        {
          "indexed": true,
          "internalType": "bytes32",
          "name": "keysetHash",
          "type": "bytes32"
        },
        {
          "indexed": false,
          "internalType": "bytes",
          "name": "keysetBytes",
          "type": "bytes"
        }
      ],
      "name": "SetValidKeyset",
      "type": "event"
    },
    {
      "inputs": [],
      "name": "BROTLI_MESSAGE_HEADER_FLAG",
      "outputs": [
        {
          "internalType": "bytes1",
          "name": "",
          "type": "bytes1"
        }
      ],
      "stateMutability": "view",
      "type": "function"
    },
    {
      "inputs": [],
      "name": "CELESTIA_MESSAGE_HEADER_FLAG",
      "outputs": [
        {
          "internalType": "bytes1",
          "name": "",
          "type": "bytes1"
        }
      ],
      "stateMutability": "view",
      "type": "function"
    },
    {
      "inputs": [],
      "name": "DAS_MESSAGE_HEADER_FLAG",
      "outputs": [
        {
          "internalType": "bytes1",
          "name": "",
          "type": "bytes1"
        }
      ],
      "stateMutability": "view",
      "type": "function"
    },
    {
      "inputs": [],
      "name": "DATA_AUTHENTICATED_FLAG",
      "outputs": [
        {
          "internalType": "bytes1",
          "name": "",
          "type": "bytes1"
        }
      ],
      "stateMutability": "view",
      "type": "function"
    },
    {
      "inputs": [],
      "name": "DATA_BLOB_HEADER_FLAG",
      "outputs": [
        {
          "internalType": "bytes1",
          "name": "",
          "type": "bytes1"
        }
      ],
      "stateMutability": "view",
      "type": "function"
    },
    {
      "inputs": [],
      "name": "HEADER_LENGTH",
      "outputs": [
        {
          "internalType": "uint256",
          "name": "",
          "type": "uint256"
        }
      ],
      "stateMutability": "view",
      "type": "function"
    },
    {
      "inputs": [],
      "name": "TREE_DAS_MESSAGE_HEADER_FLAG",
      "outputs": [
        {
          "internalType": "bytes1",
          "name": "",
          "type": "bytes1"
        }
      ],
      "stateMutability": "view",
      "type": "function"
    },
    {
      "inputs": [],
      "name": "ZERO_HEAVY_MESSAGE_HEADER_FLAG",
      "outputs": [
        {
          "internalType": "bytes1",
          "name": "",
          "type": "bytes1"
        }
      ],
      "stateMutability": "view",
      "type": "function"
    },
    {
      "inputs": [
        {
          "internalType": "uint256",
          "name": "sequenceNumber",
          "type": "uint256"
        },
        {
          "internalType": "bytes",
          "name": "data",
          "type": "bytes"
        },
        {
          "internalType": "uint256",
          "name": "afterDelayedMessagesRead",
          "type": "uint256"
        },
        {
          "internalType": "contract IGasRefunder",
          "name": "gasRefunder",
          "type": "address"
        },
        {
          "internalType": "uint256",
          "name": "prevMessageCount",
          "type": "uint256"
        },
        {
          "internalType": "uint256",
          "name": "newMessageCount",
          "type": "uint256"
        }
      ],
      "name": "addSequencerL2Batch",
      "outputs": [],
      "stateMutability": "nonpayable",
      "type": "function"
    },
    {
      "inputs": [
        {
          "internalType": "uint256",
          "name": "sequenceNumber",
          "type": "uint256"
        },
        {
          "internalType": "uint256",
          "name": "afterDelayedMessagesRead",
          "type": "uint256"
        },
        {
          "internalType": "contract IGasRefunder",
          "name": "gasRefunder",
          "type": "address"
        },
        {
          "internalType": "uint256",
          "name": "prevMessageCount",
          "type": "uint256"
        },
        {
          "internalType": "uint256",
          "name": "newMessageCount",
          "type": "uint256"
        }
      ],
      "name": "addSequencerL2BatchFromBlobs",
      "outputs": [],
      "stateMutability": "nonpayable",
      "type": "function"
    },
    {
      "inputs": [
        {
          "internalType": "uint256",
          "name": "",
          "type": "uint256"
        },
        {
          "internalType": "bytes",
          "name": "",
          "type": "bytes"
        },
        {
          "internalType": "uint256",
          "name": "",
          "type": "uint256"
        },
        {
          "internalType": "contract IGasRefunder",
          "name": "",
          "type": "address"
        }
      ],
      "name": "addSequencerL2BatchFromOrigin",
      "outputs": [],
      "stateMutability": "pure",
      "type": "function"
    },
    {
      "inputs": [
        {
          "internalType": "uint256",
          "name": "sequenceNumber",
          "type": "uint256"
        },
        {
          "internalType": "bytes",
          "name": "data",
          "type": "bytes"
        },
        {
          "internalType": "uint256",
          "name": "afterDelayedMessagesRead",
          "type": "uint256"
        },
        {
          "internalType": "contract IGasRefunder",
          "name": "gasRefunder",
          "type": "address"
        },
        {
          "internalType": "uint256",
          "name": "prevMessageCount",
          "type": "uint256"
        },
        {
          "internalType": "uint256",
          "name": "newMessageCount",
          "type": "uint256"
        }
      ],
      "name": "addSequencerL2BatchFromOrigin",
      "outputs": [],
      "stateMutability": "nonpayable",
      "type": "function"
    },
    {
      "inputs": [],
      "name": "batchCount",
      "outputs": [
        {
          "internalType": "uint256",
          "name": "",
          "type": "uint256"
        }
      ],
      "stateMutability": "view",
      "type": "function"
    },
    {
      "inputs": [],
      "name": "batchPosterManager",
      "outputs": [
        {
          "internalType": "address",
          "name": "",
          "type": "address"
        }
      ],
      "stateMutability": "view",
      "type": "function"
    },
    {
      "inputs": [],
      "name": "bridge",
      "outputs": [
        {
          "internalType": "contract IBridge",
          "name": "",
          "type": "address"
        }
      ],
      "stateMutability": "view",
      "type": "function"
    },
    {
      "inputs": [
        {
          "internalType": "bytes32",
          "name": "",
          "type": "bytes32"
        }
      ],
      "name": "dasKeySetInfo",
      "outputs": [
        {
          "internalType": "bool",
          "name": "isValidKeyset",
          "type": "bool"
        },
        {
          "internalType": "uint64",
          "name": "creationBlock",
          "type": "uint64"
        }
      ],
      "stateMutability": "view",
      "type": "function"
    },
    {
      "inputs": [
        {
          "internalType": "uint256",
          "name": "_totalDelayedMessagesRead",
          "type": "uint256"
        },
        {
          "internalType": "uint8",
          "name": "kind",
          "type": "uint8"
        },
        {
          "internalType": "uint64[2]",
          "name": "l1BlockAndTime",
          "type": "uint64[2]"
        },
        {
          "internalType": "uint256",
          "name": "baseFeeL1",
          "type": "uint256"
        },
        {
          "internalType": "address",
          "name": "sender",
          "type": "address"
        },
        {
          "internalType": "bytes32",
          "name": "messageDataHash",
          "type": "bytes32"
        }
      ],
      "name": "forceInclusion",
      "outputs": [],
      "stateMutability": "nonpayable",
      "type": "function"
    },
    {
      "inputs": [
        {
          "internalType": "bytes32",
          "name": "ksHash",
          "type": "bytes32"
        }
      ],
      "name": "getKeysetCreationBlock",
      "outputs": [
        {
          "internalType": "uint256",
          "name": "",
          "type": "uint256"
        }
      ],
      "stateMutability": "view",
      "type": "function"
    },
    {
      "inputs": [
        {
          "internalType": "uint256",
          "name": "index",
          "type": "uint256"
        }
      ],
      "name": "inboxAccs",
      "outputs": [
        {
          "internalType": "bytes32",
          "name": "",
          "type": "bytes32"
        }
      ],
      "stateMutability": "view",
      "type": "function"
    },
    {
      "inputs": [
        {
          "internalType": "contract IBridge",
          "name": "bridge_",
          "type": "address"
        },
        {
          "components": [
            {
              "internalType": "uint256",
              "name": "delayBlocks",
              "type": "uint256"
            },
            {
              "internalType": "uint256",
              "name": "futureBlocks",
              "type": "uint256"
            },
            {
              "internalType": "uint256",
              "name": "delaySeconds",
              "type": "uint256"
            },
            {
              "internalType": "uint256",
              "name": "futureSeconds",
              "type": "uint256"
            }
          ],
          "internalType": "struct ISequencerInbox.MaxTimeVariation",
          "name": "maxTimeVariation_",
          "type": "tuple"
        }
      ],
      "name": "initialize",
      "outputs": [],
      "stateMutability": "nonpayable",
      "type": "function"
    },
    {
      "inputs": [
        {
          "internalType": "bytes32",
          "name": "ksHash",
          "type": "bytes32"
        }
      ],
      "name": "invalidateKeysetHash",
      "outputs": [],
      "stateMutability": "nonpayable",
      "type": "function"
    },
    {
      "inputs": [
        {
          "internalType": "address",
          "name": "",
          "type": "address"
        }
      ],
      "name": "isBatchPoster",
      "outputs": [
        {
          "internalType": "bool",
          "name": "",
          "type": "bool"
        }
      ],
      "stateMutability": "view",
      "type": "function"
    },
    {
      "inputs": [
        {
          "internalType": "address",
          "name": "",
          "type": "address"
        }
      ],
      "name": "isSequencer",
      "outputs": [
        {
          "internalType": "bool",
          "name": "",
          "type": "bool"
        }
      ],
      "stateMutability": "view",
      "type": "function"
    },
    {
      "inputs": [],
      "name": "isUsingFeeToken",
      "outputs": [
        {
          "internalType": "bool",
          "name": "",
          "type": "bool"
        }
      ],
      "stateMutability": "view",
      "type": "function"
    },
    {
      "inputs": [
        {
          "internalType": "bytes32",
          "name": "ksHash",
          "type": "bytes32"
        }
      ],
      "name": "isValidKeysetHash",
      "outputs": [
        {
          "internalType": "bool",
          "name": "",
          "type": "bool"
        }
      ],
      "stateMutability": "view",
      "type": "function"
    },
    {
      "inputs": [],
      "name": "maxDataSize",
      "outputs": [
        {
          "internalType": "uint256",
          "name": "",
          "type": "uint256"
        }
      ],
      "stateMutability": "view",
      "type": "function"
    },
    {
      "inputs": [],
      "name": "maxTimeVariation",
      "outputs": [
        {
          "internalType": "uint256",
          "name": "",
          "type": "uint256"
        },
        {
          "internalType": "uint256",
          "name": "",
          "type": "uint256"
        },
        {
          "internalType": "uint256",
          "name": "",
          "type": "uint256"
        },
        {
          "internalType": "uint256",
          "name": "",
          "type": "uint256"
        }
      ],
      "stateMutability": "view",
      "type": "function"
    },
    {
      "inputs": [],
      "name": "postUpgradeInit",
      "outputs": [],
      "stateMutability": "nonpayable",
      "type": "function"
    },
    {
      "inputs": [],
      "name": "reader4844",
      "outputs": [
        {
          "internalType": "contract IReader4844",
          "name": "",
          "type": "address"
        }
      ],
      "stateMutability": "view",
      "type": "function"
    },
    {
      "inputs": [],
      "name": "removeDelayAfterFork",
      "outputs": [],
      "stateMutability": "nonpayable",
      "type": "function"
    },
    {
      "inputs": [],
      "name": "rollup",
      "outputs": [
        {
          "internalType": "contract IOwnable",
          "name": "",
          "type": "address"
        }
      ],
      "stateMutability": "view",
      "type": "function"
    },
    {
      "inputs": [
        {
          "internalType": "address",
          "name": "newBatchPosterManager",
          "type": "address"
        }
      ],
      "name": "setBatchPosterManager",
      "outputs": [],
      "stateMutability": "nonpayable",
      "type": "function"
    },
    {
      "inputs": [
        {
          "internalType": "address",
          "name": "addr",
          "type": "address"
        },
        {
          "internalType": "bool",
          "name": "isBatchPoster_",
          "type": "bool"
        }
      ],
      "name": "setIsBatchPoster",
      "outputs": [],
      "stateMutability": "nonpayable",
      "type": "function"
    },
    {
      "inputs": [
        {
          "internalType": "address",
          "name": "addr",
          "type": "address"
        },
        {
          "internalType": "bool",
          "name": "isSequencer_",
          "type": "bool"
        }
      ],
      "name": "setIsSequencer",
      "outputs": [],
      "stateMutability": "nonpayable",
      "type": "function"
    },
    {
      "inputs": [
        {
          "components": [
            {
              "internalType": "uint256",
              "name": "delayBlocks",
              "type": "uint256"
            },
            {
              "internalType": "uint256",
              "name": "futureBlocks",
              "type": "uint256"
            },
            {
              "internalType": "uint256",
              "name": "delaySeconds",
              "type": "uint256"
            },
            {
              "internalType": "uint256",
              "name": "futureSeconds",
              "type": "uint256"
            }
          ],
          "internalType": "struct ISequencerInbox.MaxTimeVariation",
          "name": "maxTimeVariation_",
          "type": "tuple"
        }
      ],
      "name": "setMaxTimeVariation",
      "outputs": [],
      "stateMutability": "nonpayable",
      "type": "function"
    },
    {
      "inputs": [
        {
          "internalType": "bytes",
          "name": "keysetBytes",
          "type": "bytes"
        }
      ],
      "name": "setValidKeyset",
      "outputs": [],
      "stateMutability": "nonpayable",
      "type": "function"
    },
    {
      "inputs": [],
      "name": "totalDelayedMessagesRead",
      "outputs": [
        {
          "internalType": "uint256",
          "name": "",
          "type": "uint256"
        }
      ],
      "stateMutability": "view",
      "type": "function"
    },
    {
      "inputs": [],
      "name": "updateRollupAddress",
      "outputs": [],
      "stateMutability": "nonpayable",
      "type": "function"
    }
  ],
  "bytecode": "0x610160604090808252346200023e5760608162003212803803809162000026828562000243565b8339810103126200023e578051906020928382015160018060a01b038116928382036200023e578201519283151584036200023e57306080526202000060a0524661010090815283516302881c7960e11b818901908152600482529197916001600160401b03918087018381118282101762000228578752600080928192519060645afa913d156200021d573d90811162000209578651849291620000d5601f8201601f191685018362000243565b81528091833d92013e5b82620001fd575b505061012081815260e09790975215620001be5750620001ad575b60c0526101409182525191612faa9384620002688539608051848181610ed401526122ec015260a05184611dc9015260c05184818161154d01528181611a2601528181611a8b01528181611cc201528181611d140152611d70015260e0518481816106b70152612b3f015251838181610e660152612742015251828181610af4015281816112860152611c060152518181816110540152818161147701528181611f8401526123570152f35b81516386657a5360e01b8152600490fd5b9015620001cc575062000101565b6064908351906380fc2c0360e01b82526004820152600a60248201526914995859195c8d0e0d0d60b21b6044820152fd5b511490508138620000e6565b634e487b7160e01b82526041600452602482fd5b5050816060620000df565b634e487b7160e01b600052604160045260246000fd5b600080fd5b601f909101601f19168101906001600160401b03821190821017620002285760405256fe608080604052600436101561001357600080fd5b60003560e01c90816302c99275146125355750806306f13056146124b45780631637be481461248357806316af91a7146124675780631f7a92b2146122b35780631f956632146122055780631ff6479014612128578063258f0495146120ad57806327957a49146120915780632cbf74e5146120715780633e5aa082146119ca5780635fd9e56d146119aa5780636ae71f12146118895780636c890450146118695780636d46e9871461182a5780636e7df3e7146117645780636f12b0c91461170e578063715ea34b146116cc57806371c3e6fe1461168d5780637fa3a40e1461166f578063844208601461157c5780638d910dde146115375780638f111f3c1461107957806392d9f7821461103c57806395fcea7814610eb557806396cc5c7814610e52578063b31761f814610d5f578063cb23bcb514610d36578063cc2a1a0c14610d0d578063d1ce8da8146109f3578063d9dd67ab1461096f578063e0bc972914610723578063e5a358c814610703578063e78cea92146106da578063e8eb1dc31461069f578063ebea461d1461065b578063f1981578146101e65763f60a5091146101c157600080fd5b346101e15760003660031901126101e157604051600160ff1b8152602090f35b600080fd5b346101e15760e03660031901126101e15760043560249081359160ff831683036101e157366084116101e1576001600160a01b039260a435919084831683036101e157600054918285111561051a5761023d612798565b916102466127ae565b60001987019387851161064657604051916020978884019460ff60f81b9060f81b16855260018060601b03199060601b16602184015260018060c01b0319809260c01b16603584015260c01b16603d820152836045820152608435606582015260c4356085820152608581526102bb8161264d565b519020926102c7612798565b600a54976001600160401b0394916102e290868b16906127d1565b854391161015610634576103046102f76127ae565b8660809b8c1c16906127d1565b854291161015610622576000906001891161059c575b600154169560405192636ab8cee160e11b84526004840152878386818a5afa9283156104cf5760009361056d575b506040519088820192835260408201526040815261036581612668565b5190200361055b576103756129a7565b5061037f866129cc565b92908681519101209460405192632fe5250b60e11b84528784600481855afa9384156104cf5760009461052c575b50881061051a5760405163eca067ad60e01b81528781600481855afa9081156104cf576000916104ed575b5088116104db57879560006084928b95604051998a96879563432cc52b60e11b8752600487015285015280604485015260648401525af19586156104cf5760009460009660009560009961047e575b5092849260e09560609386600080516020612f358339815191529997600055604051978852818801528184511660408801528301511683860152836040830151169085015201511660a0820152600260c0820152a4005b975097509450809192935085813d83116104c8575b61049d8183612683565b810103126101e1578451848601516040870151606090970151979096919591949392919060e0610427565b503d610493565b6040513d6000823e3d90fd5b60405163925f8bd360e01b8152600490fd5b90508781813d8311610513575b6105048183612683565b810103126101e157518a6103d8565b503d6104fa565b604051633eb9f37d60e11b8152600490fd5b9093508781813d8311610554575b6105448183612683565b810103126101e15751928a6103ad565b503d61053a565b6040516313947fd760e01b8152600490fd5b9092508781813d8311610595575b6105858183612683565b810103126101e15751918a610348565b503d61057b565b80915060015416600119890189811161060d5788908660405180948193636ab8cee160e11b835260048301525afa9081156104cf576000916105e0575b509061031a565b90508781813d8311610606575b6105f78183612683565b810103126101e157518a6105d9565b503d6105ed565b85634e487b7160e01b60005260116004526000fd5b60405163c76d17e560e01b8152600490fd5b60405163ad3515d960e01b8152600490fd5b83634e487b7160e01b60005260116004526000fd5b346101e15760003660031901126101e1576080610676612740565b90926040519360018060401b038094818094168752166020860152166040840152166060820152f35b346101e15760003660031901126101e15760206040517f00000000000000000000000000000000000000000000000000000000000000008152f35b346101e15760003660031901126101e1576001546040516001600160a01b039091168152602090f35b346101e15760003660031901126101e157604051600160fe1b8152602090f35b346101e157610731366125c4565b95929490949391935a95336000526020976003895260ff60406000205416158061095a575b6109485761077091610769848787612b25565b9490612d0e565b9390919296808814158061093c575b61091e5750600080516020612f3583398151915260e07ffe325ca1efe4c5c1062c981c3ee74b781debe4ea9440306a96d2a55759c66c2097969594938c60608b956000546040519485528385015260018060401b038093818351166040870152820151168285015282604082015116608085015201511660a0820152600160c0820152a46108126040519283928361297f565b0390a26001600160a01b03168061082557005b36601f81018082116109085760051c916006830283810460061484151715610908576108be9461086561086b9261085c899761282a565b60091c906127ea565b906127ea565b91323314806108ff575b6108f557506108886000925b5a906127c4565b60405163e3db8a4960e01b8152336004820152602481019190915260448101929092529092839190829060009082906064820190565b03925af180156104cf576108cf575b005b816108cd92903d106108ee575b6108e68183612683565b810190612967565b503d6108dc565b9161088890610881565b50333b15610875565b634e487b7160e01b600052601160045260246000fd5b876044916040519163ac7411c960e01b835260048301526024820152fd5b5060001981141561077f565b604051632dd9fc9760e01b8152600490fd5b506002546001600160a01b0316331415610756565b346101e1576020806003193601126101e1576001546040516316bf557960e01b81526004803590820152908290829060249082906001600160a01b03165afa9081156104cf576000916109c6575b50604051908152f35b90508181813d83116109ec575b6109dd8183612683565b810103126101e15751826109bd565b503d6109d3565b346101e1576020806003193601126101e1576001600160401b03906004358281116101e157610a26903690600401612597565b600254604051638da5cb5b60e01b8082529293926001600160a01b039283169290918681600481875afa9081156104cf57600091610cf0575b50163303610c7f575050838211610c6957604051610a86601f8401601f1916850182612683565b8281528381019036848401116101e1578383833760008585830101525190206040519084820190607f60f91b8252602183015260218252610ac682612668565b90519020600160ff1b189362010000831015610c2e57846000526008845260ff60406000205416610c1557437f0000000000000000000000000000000000000000000000000000000000000000610bb7575b60087fabca9b7986bc22ad0160eb0cb88ae75411eacfba4052af0b457a9335ef6557229560405193610b4985612617565b60018552818501931683528760005252610b6b60406000209251151583612f03565b518154610100600160481b03191660089190911b610100600160481b0316179055604051918291610b9d91908361297f565b0390a26002600080516020612f55833981519152600080a2005b5060405163a3b1b31d60e01b815293808560048160645afa9485156104cf57600095610be5575b5093610b18565b94508085813d8311610c0e575b610bfc8183612683565b810103126101e1579351936008610bde565b503d610bf2565b604051637d17eeed60e11b815260048101869052602490fd5b60405162461bcd60e51b81526004810185905260136024820152726b657973657420697320746f6f206c6172676560681b6044820152606490fd5b634e487b7160e01b600052604160045260246000fd5b9084809260046040518094819382525afa9081156104cf57610cbf92600092610cc3575b5050604051631194af8760e11b81529182913360048401612707565b0390fd5b610ce29250803d10610ce9575b610cda8183612683565b810190612721565b8280610ca3565b503d610cd0565b610d079150873d8911610ce957610cda8183612683565b88610a5f565b346101e15760003660031901126101e157600b546040516001600160a01b039091168152602090f35b346101e15760003660031901126101e1576002546040516001600160a01b039091168152602090f35b346101e15760803660031901126101e157604051610d7c81612632565b6004358152602090602435828201526044356040820152606435606082015260018060a01b0380600254169060405190638da5cb5b60e01b918281528581600481875afa9081156104cf57600091610e35575b50163303610df657610de083612e50565b6000600080516020612f558339815191528180a2005b8391925060046040518094819382525afa9081156104cf57610cbf92600092610cc3575050604051631194af8760e11b81529182913360048401612707565b610e4c9150863d8811610ce957610cda8183612683565b86610dcf565b346101e15760003660031901126101e157467f000000000000000000000000000000000000000000000000000000000000000014610ea3576001600160401b01600160801b01600160c01b01600a55005b604051635180dd8360e11b8152600490fd5b346101e15760003660031901126101e1576001600160a01b03610efc307f0000000000000000000000000000000000000000000000000000000000000000831614156126a6565b7fb53127684a568b3173ae13b9f8a6016e243e63b6e8ee1178d6a717850b5d610354908116330361101e57600454801580611014575b8061100a575b80611000575b610fee576001600160401b038082118015610fe3575b8015610fd8575b8015610fcd575b610fbb57600160401b600160801b0360055460401b16600160801b600160c01b0360065460801b169160018060c01b031960075460c01b169316171717600a556000600455600060055560006006556000600755600080f35b60405163d0afb66160e01b8152600490fd5b508060075411610f62565b508060065411610f5b565b508060055411610f54565b604051633bcd329760e21b8152600490fd5b5060075415610f3e565b5060065415610f38565b5060055415610f32565b604051631194af8760e11b8152908190610cbf903360048401612707565b346101e15760003660031901126101e15760206040517f000000000000000000000000000000000000000000000000000000000000000015158152f35b346101e157611087366125c4565b93909291935a9633321496878061152e575b1561151c5733600052600360205260ff60406000205416156109485784846110c092612b25565b919095600054861061051a5760015460405163eca067ad60e01b81526001600160a01b039091169490602081600481895afa9081156104cf576000916114ea575b5087116104db5760846080926000604051978894859363432cc52b60e11b85528d60048601528c6024860152604485015260648401525af19586156104cf5760009460009660009560009961149c575b50600055151580611474575b611281575b508084141580611275575b6112575750600080516020612f358339815191529160e0916000546040519283526020830152606060018060401b0391828151166040850152826020820151168285015282604082015116608085015201511660a0820152600060c0820152a46001600160a01b031690816111de57005b3691601f83018084116109085760051c9260068402848104600614851517156109085761122f956108656112179261085c60209861282a565b92806108ff576108f557506108886000925a906127c4565b03925af180156104cf5761123f57005b6108cd9060203d6020116108ee576108e68183612683565b836044916040519163ac7411c960e01b835260048301526024820152fd5b5060001981141561116d565b6000907f0000000000000000000000000000000000000000000000000000000000000000611406575b6001600160401b0382116113ca57600091604051914260208401523260601b6040840152605483015286607483015248609483015260018060c01b03199060c01b1660b4820152609c81526112fe8161264d565b602060018060a01b036001541660448351838501206040519586938492637a88b10760e01b845232600485015260248401525af19182156104cf57600092611388575b50600080516020612f1583398151915290604080518092602082526113758151809281602086015260208686019101612b02565b601f01601f19168101030190a289611162565b9091506020813d6020116113c2575b816113a460209383612683565b810103126101e1575190600080516020612f15833981519152611341565b3d9150611397565b60405162461bcd60e51b8152602060048201526014602482015273115615149057d1d054d7d393d517d55253950d8d60621b6044820152606490fd5b60405163637bef0760e11b8152909150602081600481606c5afa80156104cf57600090611440575b61143a915048906127f7565b906112aa565b506020813d60201161146c575b8161145a60209383612683565b810103126101e15761143a905161142e565b3d915061144d565b507f00000000000000000000000000000000000000000000000000000000000000001561115d565b97509750945092506080853d82116114e2575b816114bc60809383612683565b810103126101e1578451926020860151946060604088015197015194959694978c611151565b3d91506114af565b90506020813d602011611514575b8161150560209383612683565b810103126101e157518c611101565b3d91506114f8565b60405163c8958ead60e01b8152600490fd5b50333b15611099565b346101e15760003660031901126101e1576040517f00000000000000000000000000000000000000000000000000000000000000006001600160a01b03168152602090f35b346101e1576020806003193601126101e157600254604051638da5cb5b60e01b80825260048035936001600160a01b039081169390918690829081875afa9081156104cf57600091611652575b50163303610df6578284816000526008815260ff604060002054161561163a576008908260005252604060002060ff1981541690557f5cb4218b272fd214168ac43e90fb4d05d6c36f0b17ffb4c2dd07c234d744eb2a600080a26003600080516020612f55833981519152600080a2005b60405162f20c5d60e01b815260048101839052602490fd5b6116699150863d8811610ce957610cda8183612683565b866115c9565b346101e15760003660031901126101e1576020600054604051908152f35b346101e15760203660031901126101e1576001600160a01b036116ae612552565b166000526003602052602060ff604060002054166040519015158152f35b346101e15760203660031901126101e15760043560009081526008602081815260409283902054835160ff821615158152921c6001600160401b031690820152f35b346101e15760803660031901126101e1576024356001600160401b0381116101e15761173e903690600401612597565b50506064356001600160a01b038116036101e1576040516331cee75f60e21b8152600490fd5b346101e15761177236612568565b600254604051638da5cb5b60e01b81526001600160a01b03916020908290600490829086165afa80156104cf57829160009161180c575b5016331415806117fe575b6117e6576117cf921660005260036020526040600020612f03565b6001600080516020612f55833981519152600080a2005b6040516333059da160e11b8152336004820152602490fd5b5080600b54163314156117b4565b611824915060203d8111610ce957610cda8183612683565b856117a9565b346101e15760203660031901126101e1576001600160a01b0361184b612552565b166000526009602052602060ff604060002054166040519015158152f35b346101e15760003660031901126101e157604051600160fb1b8152602090f35b346101e15760003660031901126101e157600254604051638da5cb5b60e01b8082526001600160a01b03808416939290916020918281600481895afa80156104cf57849160009161198d575b50163303611951575060048183600154166040519283809263cb23bcb560e01b82525afa9182156104cf57600092611934575b505016809214611922576001600160a01b03191617600255005b60405163d054909f60e01b8152600490fd5b61194a9250803d10610ce957610cda8183612683565b8480611908565b6040519081528181600481885afa9081156104cf57610cbf92600092610cc3575050604051631194af8760e11b81529182913360048401612707565b6119a49150843d8611610ce957610cda8183612683565b876118d5565b346101e15760003660031901126101e157604051606360f81b8152602090f35b346101e15760a03660031901126101e1576044356001600160a01b03811681036101e1575a9033600052600360205260ff604060002054161561094857611a0f6129a7565b5060405163741d16c160e11b8152916000836004817f00000000000000000000000000000000000000000000000000000000000000006001600160a01b03165afa9283156104cf57600093612054575b5082511561204257611a726024356129cc565b604051631f6d6ef760e01b8152909491906020816004817f00000000000000000000000000000000000000000000000000000000000000006001600160a01b03165afa9081156104cf57600091612010575b50808060111b04620200001481151715610908578251611ae69160111b612817565b91604051602081019182602082519192019060005b818110611ffa5750505081611b1e611b649360219303601f198101835282612683565b604051938491611b556020611b3c818601998a815193849201612b02565b840191600560fc1b602084015251809386840190612b02565b01036001810184520182612683565b519020904815611ff257611b799048906127f7565b611b8b60843560643560243585612d0e565b929760043589141580611fe4575b611fc4576000546040805193845260208085019290925282516001600160401b03908116858301529183015182166060808601919091529083015182166080850152909101511660a0820152600360c082015260043590600080516020612f358339815191529060e090a47f0000000000000000000000000000000000000000000000000000000000000000611fb257333214948580611fa9575b80611f81575b611e6e575b5050506001600160a01b038216611c5257005b3690601f82018083116109085760051c9060068202918083046006148115171561090857611c869261085c6108659261282a565b9280611e65575b611cbf5750611ca6916020916108886000925a906127c4565b03926001600160a01b03165af180156104cf5761123f57005b917f00000000000000000000000000000000000000000000000000000000000000006001600160a01b0316611cff575b91602091610888611ca694610881565b60405163741d16c160e11b81526000816004817f00000000000000000000000000000000000000000000000000000000000000006001600160a01b03165afa60009181611e40575b50611d53575b50611cef565b805115611d4d57604051631f6d6ef760e01b8152906020826004817f00000000000000000000000000000000000000000000000000000000000000006001600160a01b03165afa9182156104cf57600092611e02575b50611df8611ca6959361086560209694611df3610888955191611dee48937f000000000000000000000000000000000000000000000000000000000000000090612817565b612817565b6127f7565b9294505091611d4d565b9094929391506020813d602011611e38575b81611e2160209383612683565b810103126101e15751919390929190611df8611da9565b3d9150611e14565b611e5e9192503d806000833e611e568183612683565b8101906128ec565b9085611d47565b50333b15611c8d565b6001600160401b0382116113ca576000916040519160208301944286523260601b60408501526054840152607483015248609483015260018060c01b03199060c01b1660b4820152609c8152611ec38161264d565b602060018060a01b03600154166044835186206040519586938492637a88b10760e01b845232600485015260248401525af19182156104cf57600092611f4c575b506040611f3791600080516020612f15833981519152939482519384926020845251809281602086015285850190612b02565b601f01601f19168101030190a2838080611c3f565b91506020823d602011611f79575b81611f6760209383612683565b810103126101e1579051906040611f04565b3d9150611f5a565b507f000000000000000000000000000000000000000000000000000000000000000015611c3a565b50333b15611c34565b6040516386657a5360e01b8152600490fd5b60405163ac7411c960e01b815260048082018b9052356024820152604490fd5b506004356000191415611b99565b506000611b79565b8251845260209384019390920191600101611afb565b90506020813d60201161203a575b8161202b60209383612683565b810103126101e1575186611ac4565b3d915061201e565b604051631e693f5b60e11b8152600490fd5b61206a9193503d806000833e611e568183612683565b9183611a5f565b346101e15760003660031901126101e157604051600560fc1b8152602090f35b346101e15760003660031901126101e157602060405160288152f35b346101e15760203660031901126101e1576004358060005260086020526040600020604051906120dc82612617565b5460ff81161515825260081c6001600160401b03908116602090920182815290911561211057602092505116604051908152f35b60405162f20c5d60e01b815260048101849052602490fd5b346101e1576020806003193601126101e157612142612552565b600254604051638da5cb5b60e01b8082526001600160a01b0394928516918381600481865afa80156104cf5786916000916121e8575b501633036121ab575050501660018060a01b0319600b541617600b556005600080516020612f55833981519152600080a2005b829060046040518094819382525afa9081156104cf57610cbf92600092610cc3575050604051631194af8760e11b81529182913360048401612707565b6121ff9150853d8711610ce957610cda8183612683565b87612178565b346101e15761221336612568565b600254604051638da5cb5b60e01b81526001600160a01b03916020908290600490829086165afa80156104cf578291600091612295575b501633141580612287575b6117e657612270921660005260096020526040600020612f03565b6004600080516020612f55833981519152600080a2005b5080600b5416331415612255565b6122ad915060203d8111610ce957610cda8183612683565b8561224a565b346101e15760a03660031901126101e1576004356001600160a01b03818116918290036101e15760803660231901126101e157612314817f0000000000000000000000000000000000000000000000000000000000000000163014156126a6565b600154818116610fee57821561245557604051631c2eb17b60e31b815260209290600090829085816004818a5afa60009181612436575b50612421575b505015157f000000000000000000000000000000000000000000000000000000000000000015150361240f576001600160a01b0319918216841760015560405163cb23bcb560e01b8152938390859060049082905afa80156104cf576108cd946000916123f2575b5016906002541617600255604051906123d182612632565b60243582526044359082015260643560408201526084356060820152612e50565b6124099150843d8611610ce957610cda8183612683565b856123b9565b60405163c3e31f8d60e01b8152600490fd5b1661242e575b8186612351565b506001612427565b61244e919250873d8911610ce957610cda8183612683565b908861234b565b604051631ad0f74360e01b8152600490fd5b346101e15760003660031901126101e157602060405160008152f35b346101e15760203660031901126101e1576004356000526008602052602060ff604060002054166040519015158152f35b346101e15760003660031901126101e1576001546040516221048360e21b815290602090829060049082906001600160a01b03165afa80156104cf57600090612503575b602090604051908152f35b506020813d821161252d575b8161251c60209383612683565b810103126101e157602090516124f8565b3d915061250f565b346101e15760003660031901126101e157600160fd1b8152602090f35b600435906001600160a01b03821682036101e157565b60409060031901126101e1576004356001600160a01b03811681036101e1579060243580151581036101e15790565b9181601f840112156101e1578235916001600160401b0383116101e157602083818601950101116101e157565b9060c06003198301126101e15760043591602435906001600160401b0382116101e1576125f391600401612597565b9091604435906064356001600160a01b03811681036101e157906084359060a43590565b604081019081106001600160401b03821117610c6957604052565b608081019081106001600160401b03821117610c6957604052565b60c081019081106001600160401b03821117610c6957604052565b606081019081106001600160401b03821117610c6957604052565b601f909101601f19168101906001600160401b03821190821017610c6957604052565b156126ad57565b60405162461bcd60e51b815260206004820152602c60248201527f46756e6374696f6e206d7573742062652063616c6c6564207468726f7567682060448201526b19195b1959d85d1958d85b1b60a21b6064820152608490fd5b6001600160a01b0391821681529116602082015260400190565b908160209103126101e157516001600160a01b03811681036101e15790565b7f0000000000000000000000000000000000000000000000000000000000000000461461277257600190819082908390565b600a546001600160401b0380821692604083901c821692608081901c9092169160c01c90565b6044356001600160401b03811681036101e15790565b6064356001600160401b03811681036101e15790565b9190820391821161090857565b6001600160401b03918216908216019190821161090857565b9190820180921161090857565b8115612801570490565b634e487b7160e01b600052601260045260246000fd5b8181029291811591840414171561090857565b60009080156128e85780806001146128e0576002146128d8576001918261013383101683600b841016176128c85760028392935b80821161288b5750508260001904821161287757500290565b634e487b7160e01b81526011600452602490fd5b9093806000190481116128b4578185166128ab575b800293811c9061285e565b809302926128a0565b634e487b7160e01b83526011600452602483fd5b929150600283910a926128775750565b509060049150565b505050600190565b5090565b9060209081838203126101e15782516001600160401b03938482116101e1570181601f820112156101e1578051938411610c69578360051b906040519461293585840187612683565b855283808601928201019283116101e1578301905b828210612958575050505090565b8151815290830190830161294a565b908160209103126101e1575180151581036101e15790565b90918060409360208452816020850152848401376000828201840152601f01601f1916010190565b604051906129b482612632565b60006060838281528260208201528260408201520152565b906129d56129a7565b506129de6129a7565b50612a386129ea6129a7565b926129f3612740565b92946001600160401b0394939092918591612a1c9183908181164211612ad3575b5042166127d1565b958160208a01971687528181164311612aba575b5043166127d1565b9182166060860152845192516040860151926040519460018060c01b03199485809481809460c01b1660208a015260c01b16602888015260c01b16603086015260c01b16603884015260c01b16604082015260288152612a9781612668565b6028815103612aa4579190565b634e487b7160e01b600052600160045260246000fd5b612ac690824316612ae9565b1660408801528338612a30565b612adf90824216612ae9565b168a528238612a14565b6001600160401b03918216908216039190821161090857565b60005b838110612b155750506000910152565b8181015183820152602001612b05565b909291612b306129a7565b508360280180602811610908577f0000000000000000000000000000000000000000000000000000000000000000808211612cf0575050612b70906129cc565b93909181158015612bbe575b506020612bb7916040519384918184612b9e818601998a815193849201612b02565b8401918583013701600083820152038084520182612683565b5190209190565b80612c8e578135906001600160f81b0319821680158015612ce3575b8015612cd6575b8015612cc9575b8015612cbc575b15612ca45750612c8e57600160ff1b8116151580612c83575b612c42575b606360f81b16151580612c37575b612c255738612b7c565b604051633a205f0960e11b8152600490fd5b506059821415612c1b565b826021116101e157600182013580600052600860205260ff6040600020541615612c6c5750612c0d565b6024906040519062f20c5d60e01b82526004820152fd5b506021831015612c08565b634e487b7160e01b600052603260045260246000fd5b6024906040519063359999ab60e11b82526004820152fd5b50600160fd1b8114612bef565b50601160fb1b8114612be8565b50606360f81b8114612be1565b50600160ff1b8114612bda565b6044925060405191634634691b60e01b835260048301526024820152fd5b91939290926000948554851061051a576001546040805163eca067ad60e01b81529095916001600160a01b031690602081600481855afa908115612e46578991612e11575b508711612e005760809291886084928851978895869463432cc52b60e11b865260048601528b6024860152604485015260648401525af1938415612df6578594869487948892612da7575b50509293949555565b955095505091506080833d8211612dee575b81612dc660809383612683565b81010312612dea578251916060602085015195850151940151929493923880612d9e565b8480fd5b3d9150612db9565b83513d87823e3d90fd5b855163925f8bd360e01b8152600490fd5b90506020813d8211612e3e575b81612e2b60209383612683565b81010312612e3a575138612d53565b8880fd5b3d9150612e1e565b87513d8b823e3d90fd5b80516001600160401b039081108015612ef6575b8015612ee9575b8015612edc575b612eca57815160208301516040808501516060909501516001600160c01b031960c09190911b16600160801b600160c01b0360809690961b9590951693909216600160401b600160801b039190921b16171717600a55565b6040516309cfba7560e01b8152600490fd5b5080606083015111612e72565b5080604083015111612e6b565b5080602083015111612e64565b9060ff80198354169115151617905556feff64905f73a67fb594e0f940a8075a860db489ad991e032f48c81123eb52d60b7394f4a19a13c7b92b5bb71033245305946ef78452f7b4986ac1390b5df4ebd7ea8787f128d10b2cc0317b0c3960f9ad447f7f6c1ed189db1083ccffd20f456ea26469706673582212202616136c01587808fa9b61872eb6e819b6440cafb8dde655cf18998a3d30e53d64736f6c63430008130033",
  "linkReferences": {},
  "deployedLinkReferences": {}
}