{
  "_format": "hh-sol-artifact-1",
  "contractName": "ERC20Outbox",
  "sourceName": "src/bridge/ERC20Outbox.sol",
  "abi": [
    {
      "inputs": [],
      "name": "AlreadyInit",
      "type": "error"
    },
    {
      "inputs": [
        {
          "internalType": "uint256",
          "name": "index",
          "type": "uint256"
        }
      ],
      "name": "AlreadySpent",
      "type": "error"
    },
    {
      "inputs": [],
      "name": "BadPostUpgradeInit",
      "type": "error"
    },
    {
      "inputs": [],
      "name": "BridgeCallFailed",
      "type": "error"
    },
    {
      "inputs": [],
      "name": "HadZeroInit",
      "type": "error"
    },
    {
      "inputs": [
        {
          "internalType": "uint256",
          "name": "actualLength",
          "type": "uint256"
        },
        {
          "internalType": "uint256",
          "name": "maxProofLength",
          "type": "uint256"
        }
      ],
      "name": "MerkleProofTooLong",
      "type": "error"
    },
    {
      "inputs": [
        {
          "internalType": "address",
          "name": "sender",
          "type": "address"
        },
        {
          "internalType": "address",
          "name": "owner",
          "type": "address"
        }
      ],
      "name": "NotOwner",
      "type": "error"
    },
    {
      "inputs": [
        {
          "internalType": "address",
          "name": "sender",
          "type": "address"
        },
        {
          "internalType": "address",
          "name": "rollup",
          "type": "address"
        }
      ],
      "name": "NotRollup",
      "type": "error"
    },
    {
      "inputs": [
        {
          "internalType": "uint256",
          "name": "index",
          "type": "uint256"
        },
        {
          "internalType": "uint256",
          "name": "maxIndex",
          "type": "uint256"
        }
      ],
      "name": "PathNotMinimal",
      "type": "error"
    },
    {
      "inputs": [
        {
          "internalType": "uint256",
          "name": "proofLength",
          "type": "uint256"
        }
      ],
      "name": "ProofTooLong",
      "type": "error"
    },
    {
      "inputs": [],
      "name": "RollupNotChanged",
      "type": "error"
    },
    {
      "inputs": [],
      "name": "SimulationOnlyEntrypoint",
      "type": "error"
    },
    {
      "inputs": [
        {
          "internalType": "bytes32",
          "name": "root",
          "type": "bytes32"
        }
      ],
      "name": "UnknownRoot",
      "type": "error"
    },
    {
      "anonymous": false,
      "inputs": [
        {
          "indexed": true,
          "internalType": "address",
          "name": "to",
          "type": "address"
        },
        {
          "indexed": true,
          "internalType": "address",
          "name": "l2Sender",
          "type": "address"
        },
        {
          "indexed": true,
          "internalType": "uint256",
          "name": "zero",
          "type": "uint256"
        },
        {
          "indexed": false,
          "internalType": "uint256",
          "name": "transactionIndex",
          "type": "uint256"
        }
      ],
      "name": "OutBoxTransactionExecuted",
      "type": "event"
    },
    {
      "anonymous": false,
      "inputs": [
        {
          "indexed": true,
          "internalType": "bytes32",
          "name": "outputRoot",
          "type": "bytes32"
        },
        {
          "indexed": true,
          "internalType": "bytes32",
          "name": "l2BlockHash",
          "type": "bytes32"
        }
      ],
      "name": "SendRootUpdated",
      "type": "event"
    },
    {
      "inputs": [],
      "name": "OUTBOX_VERSION",
      "outputs": [
        {
          "internalType": "uint128",
          "name": "",
          "type": "uint128"
        }
      ],
      "stateMutability": "view",
      "type": "function"
    },
    {
      "inputs": [],
      "name": "bridge",
      "outputs": [
        {
          "internalType": "contract IBridge",
          "name": "",
          "type": "address"
        }
      ],
      "stateMutability": "view",
      "type": "function"
    },
    {
      "inputs": [
        {
          "internalType": "address",
          "name": "l2Sender",
          "type": "address"
        },
        {
          "internalType": "address",
          "name": "to",
          "type": "address"
        },
        {
          "internalType": "uint256",
          "name": "l2Block",
          "type": "uint256"
        },
        {
          "internalType": "uint256",
          "name": "l1Block",
          "type": "uint256"
        },
        {
          "internalType": "uint256",
          "name": "l2Timestamp",
          "type": "uint256"
        },
        {
          "internalType": "uint256",
          "name": "value",
          "type": "uint256"
        },
        {
          "internalType": "bytes",
          "name": "data",
          "type": "bytes"
        }
      ],
      "name": "calculateItemHash",
      "outputs": [
        {
          "internalType": "bytes32",
          "name": "",
          "type": "bytes32"
        }
      ],
      "stateMutability": "pure",
      "type": "function"
    },
    {
      "inputs": [
        {
          "internalType": "bytes32[]",
          "name": "proof",
          "type": "bytes32[]"
        },
        {
          "internalType": "uint256",
          "name": "path",
          "type": "uint256"
        },
        {
          "internalType": "bytes32",
          "name": "item",
          "type": "bytes32"
        }
      ],
      "name": "calculateMerkleRoot",
      "outputs": [
        {
          "internalType": "bytes32",
          "name": "",
          "type": "bytes32"
        }
      ],
      "stateMutability": "pure",
      "type": "function"
    },
    {
      "inputs": [
        {
          "internalType": "bytes32[]",
          "name": "proof",
          "type": "bytes32[]"
        },
        {
          "internalType": "uint256",
          "name": "index",
          "type": "uint256"
        },
        {
          "internalType": "address",
          "name": "l2Sender",
          "type": "address"
        },
        {
          "internalType": "address",
          "name": "to",
          "type": "address"
        },
        {
          "internalType": "uint256",
          "name": "l2Block",
          "type": "uint256"
        },
        {
          "internalType": "uint256",
          "name": "l1Block",
          "type": "uint256"
        },
        {
          "internalType": "uint256",
          "name": "l2Timestamp",
          "type": "uint256"
        },
        {
          "internalType": "uint256",
          "name": "value",
          "type": "uint256"
        },
        {
          "internalType": "bytes",
          "name": "data",
          "type": "bytes"
        }
      ],
      "name": "executeTransaction",
      "outputs": [],
      "stateMutability": "nonpayable",
      "type": "function"
    },
    {
      "inputs": [
        {
          "internalType": "uint256",
          "name": "index",
          "type": "uint256"
        },
        {
          "internalType": "address",
          "name": "l2Sender",
          "type": "address"
        },
        {
          "internalType": "address",
          "name": "to",
          "type": "address"
        },
        {
          "internalType": "uint256",
          "name": "l2Block",
          "type": "uint256"
        },
        {
          "internalType": "uint256",
          "name": "l1Block",
          "type": "uint256"
        },
        {
          "internalType": "uint256",
          "name": "l2Timestamp",
          "type": "uint256"
        },
        {
          "internalType": "uint256",
          "name": "value",
          "type": "uint256"
        },
        {
          "internalType": "bytes",
          "name": "data",
          "type": "bytes"
        }
      ],
      "name": "executeTransactionSimulation",
      "outputs": [],
      "stateMutability": "nonpayable",
      "type": "function"
    },
    {
      "inputs": [
        {
          "internalType": "contract IBridge",
          "name": "_bridge",
          "type": "address"
        }
      ],
      "name": "initialize",
      "outputs": [],
      "stateMutability": "nonpayable",
      "type": "function"
    },
    {
      "inputs": [
        {
          "internalType": "uint256",
          "name": "index",
          "type": "uint256"
        }
      ],
      "name": "isSpent",
      "outputs": [
        {
          "internalType": "bool",
          "name": "",
          "type": "bool"
        }
      ],
      "stateMutability": "view",
      "type": "function"
    },
    {
      "inputs": [],
      "name": "l2ToL1BatchNum",
      "outputs": [
        {
          "internalType": "uint256",
          "name": "",
          "type": "uint256"
        }
      ],
      "stateMutability": "pure",
      "type": "function"
    },
    {
      "inputs": [],
      "name": "l2ToL1Block",
      "outputs": [
        {
          "internalType": "uint256",
          "name": "",
          "type": "uint256"
        }
      ],
      "stateMutability": "view",
      "type": "function"
    },
    {
      "inputs": [],
      "name": "l2ToL1EthBlock",
      "outputs": [
        {
          "internalType": "uint256",
          "name": "",
          "type": "uint256"
        }
      ],
      "stateMutability": "view",
      "type": "function"
    },
    {
      "inputs": [],
      "name": "l2ToL1OutputId",
      "outputs": [
        {
          "internalType": "bytes32",
          "name": "",
          "type": "bytes32"
        }
      ],
      "stateMutability": "view",
      "type": "function"
    },
    {
      "inputs": [],
      "name": "l2ToL1Sender",
      "outputs": [
        {
          "internalType": "address",
          "name": "",
          "type": "address"
        }
      ],
      "stateMutability": "view",
      "type": "function"
    },
    {
      "inputs": [],
      "name": "l2ToL1Timestamp",
      "outputs": [
        {
          "internalType": "uint256",
          "name": "",
          "type": "uint256"
        }
      ],
      "stateMutability": "view",
      "type": "function"
    },
    {
      "inputs": [],
      "name": "l2ToL1WithdrawalAmount",
      "outputs": [
        {
          "internalType": "uint256",
          "name": "",
          "type": "uint256"
        }
      ],
      "stateMutability": "view",
      "type": "function"
    },
    {
      "inputs": [],
      "name": "postUpgradeInit",
      "outputs": [],
      "stateMutability": "nonpayable",
      "type": "function"
    },
    {
      "inputs": [],
      "name": "rollup",
      "outputs": [
        {
          "internalType": "address",
          "name": "",
          "type": "address"
        }
      ],
      "stateMutability": "view",
      "type": "function"
    },
    {
      "inputs": [
        {
          "internalType": "bytes32",
          "name": "",
          "type": "bytes32"
        }
      ],
      "name": "roots",
      "outputs": [
        {
          "internalType": "bytes32",
          "name": "",
          "type": "bytes32"
        }
      ],
      "stateMutability": "view",
      "type": "function"
    },
    {
      "inputs": [
        {
          "internalType": "uint256",
          "name": "",
          "type": "uint256"
        }
      ],
      "name": "spent",
      "outputs": [
        {
          "internalType": "bytes32",
          "name": "",
          "type": "bytes32"
        }
      ],
      "stateMutability": "view",
      "type": "function"
    },
    {
      "inputs": [],
      "name": "updateRollupAddress",
      "outputs": [],
      "stateMutability": "nonpayable",
      "type": "function"
    },
    {
      "inputs": [
        {
          "internalType": "bytes32",
          "name": "root",
          "type": "bytes32"
        },
        {
          "internalType": "bytes32",
          "name": "l2BlockHash",
          "type": "bytes32"
        }
      ],
      "name": "updateSendRoot",
      "outputs": [],
      "stateMutability": "nonpayable",
      "type": "function"
    }
  ],
  "bytecode": "0x60a0806040523461002a57306080526112c19081610030823960805181818161066801526108b50152f35b600080fdfe6080604052600436101561001257600080fd5b60003560e01c80627436d31461016657806308635a9514610161578063119852711461015c578063288e5b101461015757806346547790146101525780635a129efe1461014d5780636ae71f121461014857806372f2a8c71461014357806380648b021461013e5780638515bc6a1461013957806395fcea78146101345780639f0c04bf1461012f578063a04cee601461012a578063ae6dead714610125578063b0f3053714610120578063c4d66de81461011b578063c75184df14610116578063cb23bcb514610111578063cbf96f631461010c578063d5b5cc23146101075763e78cea921461010257600080fd5b610a4e565b610a22565b610a07565b6109de565b6109c2565b61088a565b61086f565b610843565b6107c1565b61075a565b610649565b61062e565b610601565b6105e6565b610476565b610447565b61042c565b6103af565b610393565b6102fc565b610249565b634e487b7160e01b600052604160045260246000fd5b60c081019081106001600160401b0382111761019c57604052565b61016b565b604081019081106001600160401b0382111761019c57604052565b601f909101601f19168101906001600160401b0382119082101761019c57604052565b604051906101ec82610181565b565b9092916001600160401b03841161019c578360051b6040519260208094610217828501826101bc565b809781520191810192831161024457905b8282106102355750505050565b81358152908301908301610228565b600080fd5b34610244576060366003190112610244576004356001600160401b03811161024457366023820112156102445761029c61028f60209236906024816004013591016101ee565b60443590602435906110f5565b604051908152f35b6001600160a01b0381160361024457565b604435906101ec826102a4565b606435906101ec826102a4565b9181601f84011215610244578235916001600160401b038311610244576020838186019501011161024457565b3461024457610120366003190112610244576001600160401b036004358181116102445736602382011215610244578060040135828111610244573660248260051b840101116102445761034e6102b5565b6103566102c2565b9061010435948511610244576103736103919536906004016102cf565b94909360e4359360c4359360a4359360843593602480359201610c06565b005b3461024457600036600319011261024457602060405160008152f35b3461024457610100366003190112610244576024356103cd816102a4565b6044356103d9816102a4565b60e4356001600160401b038111610244576103f89036906004016102cf565b913361041a576103919360c4359160a435916084359160643591600435610dca565b604051630e13b69d60e01b8152600490fd5b3461024457600036600319011261024457602061029c610bb1565b346102445760203660031901126102445760206001610467600435610f09565b604051911c9092161515825250f35b34610244576000806003193601126105e3578054604051638da5cb5b60e01b8082526001600160a01b039283169291602091908281600481885afa801561056257849187916105c6575b50163303610567575060015460049082906104eb906001600160a01b03165b6001600160a01b031690565b60405163cb23bcb560e01b815292839182905afa918215610562578592610535575b5050168091146105235761052090610ad8565b80f35b60405163d054909f60e01b8152600490fd5b6105549250803d1061055b575b61054c81836101bc565b810190610b55565b388061050d565b503d610542565b610b6d565b8193925060046040518094819382525afa918215610562576105a593926105a9575b5050604051631194af8760e11b81529182913360048401610b79565b0390fd5b6105bf9250803d1061055b5761054c81836101bc565b3880610589565b6105dd9150843d861161055b5761054c81836101bc565b386104c0565b80fd5b3461024457600036600319011261024457602061029c610bf7565b3461024457600036600319011261024457602061061c610b93565b6040516001600160a01b039091168152f35b3461024457600036600319011261024457602061029c610bc9565b34610244576000366003190112610244576001600160a01b03610690307f000000000000000000000000000000000000000000000000000000000000000083161415610a77565b7fb53127684a568b3173ae13b9f8a6016e243e63b6e8ee1178d6a717850b5d610354908116330361073c576004546001600160801b03166002600160801b03190161072a576103916040516106e481610181565b6001600160801b0381526001600160801b0360208201525b600019604082018190526001600160a01b0360608301526001600160601b03608083015260a0820152610afa565b60405163d0afb66160e01b8152600490fd5b604051631194af8760e11b81529081906105a5903360048401610b79565b346102445760e036600319011261024457600435610777816102a4565b602435610783816102a4565b60c435906001600160401b038211610244576020926107a961029c9336906004016102cf565b92909160a4359160843591606435916044359161108d565b34610244576040366003190112610244576000805460243590600435906001600160a01b031633819003610825575080835260036020528160408420557fb4df3847300f076a369cd76d2314b470a1194d9e8a6bb97f1860aee88a5f67488380a380f35b604051630e4cf1bf60e21b81529081906105a5903360048401610b79565b346102445760203660031901126102445760043560005260036020526020604060002054604051908152f35b3461024457600036600319011261024457602061029c610be0565b34610244576020366003190112610244576004356108a7816102a4565b6001600160a01b036108dd307f000000000000000000000000000000000000000000000000000000000000000083161415610a77565b8082169182156109b0576001546108fe906104df906001600160a01b031681565b61099e576004926109536020926109316109166101df565b6001600160801b0381526001600160801b03818701526106fc565b600180546001600160a01b0319166001600160a01b0392909216919091179055565b60405163cb23bcb560e01b815293849182905afa80156105625761039192600091610980575b5016610ad8565b610998915060203d811161055b5761054c81836101bc565b38610979565b604051633bcd329760e21b8152600490fd5b604051631ad0f74360e01b8152600490fd5b3461024457600036600319011261024457602060405160028152f35b34610244576000366003190112610244576000546040516001600160a01b039091168152602090f35b3461024457600036600319011261024457602061029c61119b565b346102445760203660031901126102445760043560005260026020526020604060002054604051908152f35b34610244576000366003190112610244576001546040516001600160a01b039091168152602090f35b15610a7e57565b60405162461bcd60e51b815260206004820152602c60248201527f46756e6374696f6e206d7573742062652063616c6c6564207468726f7567682060448201526b19195b1959d85d1958d85b1b60a21b6064820152608490fd5b600080546001600160a01b0319166001600160a01b0392909216919091179055565b805160208201516001600160801b039091166001600160801b0319608092831b161760045560408201516005556060820151908201516001600160a01b039091166001600160a01b031960a092831b16176006550151600755565b908160209103126102445751610b6a816102a4565b90565b6040513d6000823e3d90fd5b6001600160a01b0391821681529116602082015260400190565b6006546001600160a01b03908116908114610bab5790565b50600090565b6004546001600160801b03908116908114610bab5790565b60065460a01c6001600160601b038114610bab5790565b60045460801c6001600160801b038114610bab5790565b6005546000198114610bab5790565b610c2d909b9a99989796959493929b610c258b8b8b8b8b8b8b8b61108d565b9236916101ee565b8051610100811015610d09575080610c468d9251610f27565b821015610ce05790610c5892916110f5565b610c6c816000526003602052604060002090565b5415610cc65750610c7c8a610f09565b9b919060018d821c16610cad576101ec9b9c6001610ca7921b17916000526002602052604060002090565b55610dca565b604051639715b8d360e01b815260048101849052602490fd5b6040516310e61af960e31b81526004810191909152602490fd5b610cea9051610f27565b604051630b8a724b60e01b815260048101929092526024820152604490fd5b60405163ab6a068360e01b81526004810191909152602490fd5b60405190610d3082610181565b6004546001600160801b0381168352608090811c602084015260055460408401526006546001600160a01b038116606085015260a090811c9184019190915260075490830152565b6001600160401b03811161019c57601f01601f191660200190565b929192610d9f82610d78565b91610dad60405193846101bc565b829481845281830111610244578281602093846000960137010152565b93979092969194600490602060405187815260008960018060a01b03927f20af7f3bbfe38132b8900ae295cd9c8d1914be7052d061a511f3f728dab189648585808d16941692a460015416604051938480926356a465af60e11b82525afa8015610562576101ec9a610e96610eb897610e56610ea694610ebe9d610eb198600092610ec3575b506111e7565b99610e81610e62610d23565b9e610e6b6101df565b6001600160801b03918216815297166020880152565b60408601526001600160a01b03166060850152565b6001600160601b03166080830152565b8560a0820152610afa565b3691610d93565b91610fcd565b610afa565b610ee591925060203d8111610eec575b610edd81836101bc565b8101906111aa565b9038610e50565b503d610ed3565b634e487b7160e01b600052601160045260246000fd5b9060ff82049081600052600260205260ff6040600020549293069190565b60ff8111610f36576001901b90565b610ef3565b60005b838110610f4e5750506000910152565b8181015183820152602001610f3e565b9190604083820312610244578251801515810361024457602084015190936001600160401b038211610244570181601f82011215610244578051610fa181610d78565b92610faf60405194856101bc565b8184526020828401011161024457610b6a9160208085019101610f3b565b9060009160018060a01b0383608482600154169360405197889687958693639e5d4c4960e01b85521660048401526024830152606060448301526110208151809281606486015260208686019101610f3b565b601f01601f191681010301925af1908115610562576000908192611069575b50156110485750565b80511561105757805190602001fd5b604051631bb7daad60e11b8152600490fd5b9061108692503d8091833e61107e81836101bc565b810190610f5e565b903861103f565b92956110ef9560c895899498999399604051998a97602089019c8d60018060601b0319809360601b16905260601b16603489015260488801526068870152608886015260a88501528484013781016000838201520360a88101845201826101bc565b51902090565b916040805191602092838101918252838152611110816101a1565b5190209184519261010080851161117e575094939291906000945b83861061113b5750505050505090565b90919293949561114b8783611261565b5160019182891b881661116e57600052835283600020965b01949392919061112b565b9060005283528360002096611163565b84604491855191637ed6198f60e11b835260048301526024820152fd5b6007546000198114610bab5790565b90816020910312610244575160ff811681036102445790565b60ff6011199116019060ff8211610f3657565b60ff16604d8111610f3657600a0a90565b9060ff8116601281036111f957505090565b8060121060001461122a5750611211611216916111c3565b6111d6565b90818102918183041490151715610f365790565b905060120360ff8111610f3657611240906111d6565b90811561124b570490565b634e487b7160e01b600052601260045260246000fd5b80518210156112755760209160051b010190565b634e487b7160e01b600052603260045260246000fdfea26469706673582212203f589846ac443c2c9a5aebf2101d5f8d99ca6f3c6dec6922fdb12b6d75a5921264736f6c63430008130033",
  "linkReferences": {},
  "deployedLinkReferences": {}
}