{
  "_format": "hh-sol-artifact-1",
  "contractName": "BridgeUnproxied",
  "sourceName": "src/mocks/BridgeUnproxied.sol",
  "abi": [
    {
      "inputs": [],
      "stateMutability": "nonpayable",
      "type": "constructor"
    },
    {
      "inputs": [
        {
          "internalType": "uint256",
          "name": "stored",
          "type": "uint256"
        },
        {
          "internalType": "uint256",
          "name": "received",
          "type": "uint256"
        }
      ],
      "name": "BadSequencerMessageNumber",
      "type": "error"
    },
    {
      "inputs": [
        {
          "internalType": "address",
          "name": "outbox",
          "type": "address"
        }
      ],
      "name": "InvalidOutboxSet",
      "type": "error"
    },
    {
      "inputs": [
        {
          "internalType": "address",
          "name": "addr",
          "type": "address"
        }
      ],
      "name": "NotContract",
      "type": "error"
    },
    {
      "inputs": [
        {
          "internalType": "address",
          "name": "sender",
          "type": "address"
        }
      ],
      "name": "NotDelayedInbox",
      "type": "error"
    },
    {
      "inputs": [
        {
          "internalType": "address",
          "name": "sender",
          "type": "address"
        }
      ],
      "name": "NotOutbox",
      "type": "error"
    },
    {
      "inputs": [
        {
          "internalType": "address",
          "name": "sender",
          "type": "address"
        },
        {
          "internalType": "address",
          "name": "rollup",
          "type": "address"
        },
        {
          "internalType": "address",
          "name": "owner",
          "type": "address"
        }
      ],
      "name": "NotRollupOrOwner",
      "type": "error"
    },
    {
      "inputs": [
        {
          "internalType": "address",
          "name": "sender",
          "type": "address"
        }
      ],
      "name": "NotSequencerInbox",
      "type": "error"
    },
    {
      "anonymous": false,
      "inputs": [
        {
          "indexed": true,
          "internalType": "address",
          "name": "outbox",
          "type": "address"
        },
        {
          "indexed": true,
          "internalType": "address",
          "name": "to",
          "type": "address"
        },
        {
          "indexed": false,
          "internalType": "uint256",
          "name": "value",
          "type": "uint256"
        },
        {
          "indexed": false,
          "internalType": "bytes",
          "name": "data",
          "type": "bytes"
        }
      ],
      "name": "BridgeCallTriggered",
      "type": "event"
    },
    {
      "anonymous": false,
      "inputs": [
        {
          "indexed": true,
          "internalType": "address",
          "name": "inbox",
          "type": "address"
        },
        {
          "indexed": false,
          "internalType": "bool",
          "name": "enabled",
          "type": "bool"
        }
      ],
      "name": "InboxToggle",
      "type": "event"
    },
    {
      "anonymous": false,
      "inputs": [
        {
          "indexed": true,
          "internalType": "uint256",
          "name": "messageIndex",
          "type": "uint256"
        },
        {
          "indexed": true,
          "internalType": "bytes32",
          "name": "beforeInboxAcc",
          "type": "bytes32"
        },
        {
          "indexed": false,
          "internalType": "address",
          "name": "inbox",
          "type": "address"
        },
        {
          "indexed": false,
          "internalType": "uint8",
          "name": "kind",
          "type": "uint8"
        },
        {
          "indexed": false,
          "internalType": "address",
          "name": "sender",
          "type": "address"
        },
        {
          "indexed": false,
          "internalType": "bytes32",
          "name": "messageDataHash",
          "type": "bytes32"
        },
        {
          "indexed": false,
          "internalType": "uint256",
          "name": "baseFeeL1",
          "type": "uint256"
        },
        {
          "indexed": false,
          "internalType": "uint64",
          "name": "timestamp",
          "type": "uint64"
        }
      ],
      "name": "MessageDelivered",
      "type": "event"
    },
    {
      "anonymous": false,
      "inputs": [
        {
          "indexed": true,
          "internalType": "address",
          "name": "outbox",
          "type": "address"
        },
        {
          "indexed": false,
          "internalType": "bool",
          "name": "enabled",
          "type": "bool"
        }
      ],
      "name": "OutboxToggle",
      "type": "event"
    },
    {
      "anonymous": false,
      "inputs": [
        {
          "indexed": false,
          "internalType": "address",
          "name": "rollup",
          "type": "address"
        }
      ],
      "name": "RollupUpdated",
      "type": "event"
    },
    {
      "anonymous": false,
      "inputs": [
        {
          "indexed": false,
          "internalType": "address",
          "name": "newSequencerInbox",
          "type": "address"
        }
      ],
      "name": "SequencerInboxUpdated",
      "type": "event"
    },
    {
      "inputs": [],
      "name": "DUMMYVAR",
      "outputs": [
        {
          "internalType": "uint256",
          "name": "",
          "type": "uint256"
        }
      ],
      "stateMutability": "view",
      "type": "function"
    },
    {
      "inputs": [],
      "name": "acceptFundsFromOldBridge",
      "outputs": [],
      "stateMutability": "payable",
      "type": "function"
    },
    {
      "inputs": [],
      "name": "activeOutbox",
      "outputs": [
        {
          "internalType": "address",
          "name": "",
          "type": "address"
        }
      ],
      "stateMutability": "view",
      "type": "function"
    },
    {
      "inputs": [
        {
          "internalType": "uint256",
          "name": "",
          "type": "uint256"
        }
      ],
      "name": "allowedDelayedInboxList",
      "outputs": [
        {
          "internalType": "address",
          "name": "",
          "type": "address"
        }
      ],
      "stateMutability": "view",
      "type": "function"
    },
    {
      "inputs": [
        {
          "internalType": "address",
          "name": "inbox",
          "type": "address"
        }
      ],
      "name": "allowedDelayedInboxes",
      "outputs": [
        {
          "internalType": "bool",
          "name": "",
          "type": "bool"
        }
      ],
      "stateMutability": "view",
      "type": "function"
    },
    {
      "inputs": [
        {
          "internalType": "uint256",
          "name": "",
          "type": "uint256"
        }
      ],
      "name": "allowedOutboxList",
      "outputs": [
        {
          "internalType": "address",
          "name": "",
          "type": "address"
        }
      ],
      "stateMutability": "view",
      "type": "function"
    },
    {
      "inputs": [
        {
          "internalType": "address",
          "name": "outbox",
          "type": "address"
        }
      ],
      "name": "allowedOutboxes",
      "outputs": [
        {
          "internalType": "bool",
          "name": "",
          "type": "bool"
        }
      ],
      "stateMutability": "view",
      "type": "function"
    },
    {
      "inputs": [
        {
          "internalType": "uint256",
          "name": "",
          "type": "uint256"
        }
      ],
      "name": "delayedInboxAccs",
      "outputs": [
        {
          "internalType": "bytes32",
          "name": "",
          "type": "bytes32"
        }
      ],
      "stateMutability": "view",
      "type": "function"
    },
    {
      "inputs": [],
      "name": "delayedMessageCount",
      "outputs": [
        {
          "internalType": "uint256",
          "name": "",
          "type": "uint256"
        }
      ],
      "stateMutability": "view",
      "type": "function"
    },
    {
      "inputs": [
        {
          "internalType": "uint8",
          "name": "kind",
          "type": "uint8"
        },
        {
          "internalType": "address",
          "name": "sender",
          "type": "address"
        },
        {
          "internalType": "bytes32",
          "name": "messageDataHash",
          "type": "bytes32"
        }
      ],
      "name": "enqueueDelayedMessage",
      "outputs": [
        {
          "internalType": "uint256",
          "name": "",
          "type": "uint256"
        }
      ],
      "stateMutability": "payable",
      "type": "function"
    },
    {
      "inputs": [
        {
          "internalType": "bytes32",
          "name": "dataHash",
          "type": "bytes32"
        },
        {
          "internalType": "uint256",
          "name": "afterDelayedMessagesRead",
          "type": "uint256"
        },
        {
          "internalType": "uint256",
          "name": "prevMessageCount",
          "type": "uint256"
        },
        {
          "internalType": "uint256",
          "name": "newMessageCount",
          "type": "uint256"
        }
      ],
      "name": "enqueueSequencerMessage",
      "outputs": [
        {
          "internalType": "uint256",
          "name": "seqMessageIndex",
          "type": "uint256"
        },
        {
          "internalType": "bytes32",
          "name": "beforeAcc",
          "type": "bytes32"
        },
        {
          "internalType": "bytes32",
          "name": "delayedAcc",
          "type": "bytes32"
        },
        {
          "internalType": "bytes32",
          "name": "acc",
          "type": "bytes32"
        }
      ],
      "stateMutability": "nonpayable",
      "type": "function"
    },
    {
      "inputs": [
        {
          "internalType": "address",
          "name": "to",
          "type": "address"
        },
        {
          "internalType": "uint256",
          "name": "value",
          "type": "uint256"
        },
        {
          "internalType": "bytes",
          "name": "data",
          "type": "bytes"
        }
      ],
      "name": "executeCall",
      "outputs": [
        {
          "internalType": "bool",
          "name": "success",
          "type": "bool"
        },
        {
          "internalType": "bytes",
          "name": "returnData",
          "type": "bytes"
        }
      ],
      "stateMutability": "nonpayable",
      "type": "function"
    },
    {
      "inputs": [
        {
          "internalType": "contract IOwnable",
          "name": "rollup_",
          "type": "address"
        }
      ],
      "name": "initialize",
      "outputs": [],
      "stateMutability": "nonpayable",
      "type": "function"
    },
    {
      "inputs": [],
      "name": "rollup",
      "outputs": [
        {
          "internalType": "contract IOwnable",
          "name": "",
          "type": "address"
        }
      ],
      "stateMutability": "view",
      "type": "function"
    },
    {
      "inputs": [],
      "name": "sequencerInbox",
      "outputs": [
        {
          "internalType": "address",
          "name": "",
          "type": "address"
        }
      ],
      "stateMutability": "view",
      "type": "function"
    },
    {
      "inputs": [
        {
          "internalType": "uint256",
          "name": "",
          "type": "uint256"
        }
      ],
      "name": "sequencerInboxAccs",
      "outputs": [
        {
          "internalType": "bytes32",
          "name": "",
          "type": "bytes32"
        }
      ],
      "stateMutability": "view",
      "type": "function"
    },
    {
      "inputs": [],
      "name": "sequencerMessageCount",
      "outputs": [
        {
          "internalType": "uint256",
          "name": "",
          "type": "uint256"
        }
      ],
      "stateMutability": "view",
      "type": "function"
    },
    {
      "inputs": [],
      "name": "sequencerReportedSubMessageCount",
      "outputs": [
        {
          "internalType": "uint256",
          "name": "",
          "type": "uint256"
        }
      ],
      "stateMutability": "view",
      "type": "function"
    },
    {
      "inputs": [
        {
          "internalType": "address",
          "name": "inbox",
          "type": "address"
        },
        {
          "internalType": "bool",
          "name": "enabled",
          "type": "bool"
        }
      ],
      "name": "setDelayedInbox",
      "outputs": [],
      "stateMutability": "nonpayable",
      "type": "function"
    },
    {
      "inputs": [
        {
          "internalType": "address",
          "name": "outbox",
          "type": "address"
        },
        {
          "internalType": "bool",
          "name": "enabled",
          "type": "bool"
        }
      ],
      "name": "setOutbox",
      "outputs": [],
      "stateMutability": "nonpayable",
      "type": "function"
    },
    {
      "inputs": [
        {
          "internalType": "address",
          "name": "_sequencerInbox",
          "type": "address"
        }
      ],
      "name": "setSequencerInbox",
      "outputs": [],
      "stateMutability": "nonpayable",
      "type": "function"
    },
    {
      "inputs": [
        {
          "internalType": "uint256",
          "name": "newMsgCount",
          "type": "uint256"
        }
      ],
      "name": "setSequencerReportedSubMessageCount",
      "outputs": [],
      "stateMutability": "nonpayable",
      "type": "function"
    },
    {
      "inputs": [
        {
          "internalType": "address",
          "name": "sender",
          "type": "address"
        },
        {
          "internalType": "bytes32",
          "name": "messageDataHash",
          "type": "bytes32"
        }
      ],
      "name": "submitBatchSpendingReport",
      "outputs": [
        {
          "internalType": "uint256",
          "name": "",
          "type": "uint256"
        }
      ],
      "stateMutability": "nonpayable",
      "type": "function"
    },
    {
      "inputs": [
        {
          "internalType": "contract IOwnable",
          "name": "_rollup",
          "type": "address"
        }
      ],
      "name": "updateRollupAddress",
      "outputs": [],
      "stateMutability": "nonpayable",
      "type": "function"
    }
  ],
  "bytecode": "0x60a0806040523461004f57306080526000603355600580546001600160a01b03199081166001600160a01b0317909155600880549091163317905561159690816100558239608051816103e40152f35b600080fdfe608060408181526004908136101561001657600080fd5b600092833560e01c90816284120c14610fc05750806316bf557914610f95578063413b35bd14610f5357806347fb24c514610eb75780634f61f85014610dcb5780635fca4a1614610dac5780637a88b10714610c3957806386598a5614610a775780638db5993b146108c6578063919cc706146107db578063927dcfab146107bc578063945e11471461077c5780639e5d4c4914610579578063ab5d89431461054b578063ae60bd131461050a578063c4d66de814610394578063cb23bcb51461036b578063cee3d728146102c2578063d5719dc214610289578063e76f5c8d14610248578063e77145f414610236578063eca067ad14610217578063ee35f327146101ea5763f81ff3b31461012b57600080fd5b346101e65760203660031901126101e6576008546001600160a01b03908116913383900361015e575b50505035600a5580f35b8051638da5cb5b60e01b8152916020838681875afa9283156101dc5786936101ac575b5082163303156101545751630739600760e01b8152935083926101a8929033908501611151565b0390fd5b6101ce91935060203d81116101d5575b6101c6818361110f565b810190611132565b9138610181565b503d6101bc565b82513d88823e3d90fd5b8280fd5b83823461021357816003193601126102135760095490516001600160a01b039091168152602090f35b5080fd5b8382346102135781600319360112610213576020906006549051908152f35b83806003193601126102455780f35b80fd5b5090346101e65760203660031901126101e65735916003548310156102455750610273602092611043565b60018060a01b0391549060031b1c169051908152f35b5090346101e65760203660031901126101e657359160065483101561024557506102b460209261100d565b91905490519160031b1c8152f35b50919034610213576102d336611079565b9160018060a01b038060085416958633036102f7575b856102f4868661139a565b80f35b8051638da5cb5b60e01b81529160208385818b5afa928315610361578793610341575b5082163303156102e95751630739600760e01b81529182916101a891889033908501611151565b61035a91935060203d81116101d5576101c6818361110f565b913861031a565b82513d89823e3d90fd5b83823461021357816003193601126102135760085490516001600160a01b039091168152602090f35b5090346101e65760203660031901126101e6576001600160a01b03813581811692908390036105065784549360ff8560081c16806000146104fc57303b155b156104a257159485610491575b50827f000000000000000000000000000000000000000000000000000000000000000016301461043957505060018060a01b031990816005541617600555600854161760085561042d5780f35b805461ff001916815580f35b906020608492519162461bcd60e51b8352820152602c60248201527f46756e6374696f6e206d7573742062652063616c6c6564207468726f7567682060448201526b19195b1959d85d1958d85b1b60a21b6064820152fd5b61ffff1916610101178655386103e0565b815162461bcd60e51b8152602081850152602e60248201527f496e697469616c697a61626c653a20636f6e747261637420697320616c72656160448201526d191e481a5b9a5d1a585b1a5e995960921b6064820152608490fd5b60ff8616156103d3565b8480fd5b8382346102135760203660031901126102135760209160ff9060019083906001600160a01b0361053861105e565b1681528286522001541690519015158152f35b838234610213578160031936011261021357602090610568611174565b90516001600160a01b039091168152f35b50823461024557606091826003193601126102135761059661105e565b604435949092906024356001600160401b03808811610778573660238901121561077857878301359081116107785760248801976024823692010111610778573384526020926002845260ff6001878720015416156107615781151580610758575b6107365750600580546001600160a01b03198082163317909255909291907f2d9d115ef3e4a606d698913b1eae831a3cdfe20d9a83d48007b0526749c3d466908287808b8e888d61065461064b886111b8565b9151918261110f565b868152868d8201938437848d888301015251925af19b3d15610729573d9661067b886111b8565b976106888c51998a61110f565b88523d8a8a8a013e9c99979c9a98969a5b60018060a01b038094169060055416176005558751958652878d87015281888701528b860137848a8486010152601f19961692898188601f339601168101030190a381519687941515855282818601528551809386015281955b8387106107115750508394508582601f949501015201168101030190f35b868101820151898801890152958101958895506106f3565b8b9a98969c99979c610699565b855163b5cf5b8f60e01b81526001600160a01b03881691810191909152602490fd5b50863b156105f8565b6024908651906332ea82ab60e01b82523390820152fd5b8380fd5b508234610245576020366003190112610245578235925483101561024557506107a6602092611028565b905491519160018060a01b039160031b1c168152f35b8382346102135781600319360112610213576020906033549051908152f35b50346101e65760203660031901126101e65781356001600160a01b038181169391849003610506576008549181831691823303610853575b6001600160a01b031984168617600855845186815287907fae1f5aa15f6ff844896347ceca2a3c24c8d3a27785efdeacd581a0a95172784a90602090a180f35b8451638da5cb5b60e01b8152906020828481875afa9182156108bc57889261089c575b508116330315610813576101a8908551938493630739600760e01b855233908501611151565b6108b591925060203d81116101d5576101c6818361110f565b9038610876565b86513d8a823e3d90fd5b50829060603660031901126102135782359160ff831680840361021357602435936001600160a01b0385168086036107785760443591338552600160205260ff600187872001541615610a6157600654865160f89290921b6001600160f81b0319166020830190815260609890981b6001600160601b03191660218301524360c090811b6001600160c01b031990811660358501524290911b16603d83015260458201819052486065830152608580830185905282529690610987816110d9565b519020968487610a01575b505085926000805160206115418339815191529260c0926109d060209a89518c8101918a83528b8201528a81526109c8816110f4565b519020611192565b87513381528a810193909352828801526060820152486080820152426001600160401b031660a0820152a351908152f35b90979450600019870190878211610a4e575060209750926000805160206115418339815191529260c0926109d0610a388a9761100d565b90549060031b1c979a5050925092819450610992565b634e487b7160e01b815260118952602490fd5b855163b6c60ea360e01b815233818a0152602490fd5b5090346101e65760803660031901126101e657600954602493843593604435929091906001600160a01b03163303610c2457808093600a548181141580610c1b575b80610c12575b610bf7575050606435600a556007549586610bc1575b80610b89575b508251602081018381528635828601526060808301879052825290608081016001600160401b03811182821017610b7757855251902094600160401b871015610b65575050608095506001850160075583610b4f610b3887610fdc565b819391549060031b91821b91600019901b19161790565b9055815194855260208501528301526060820152f35b634e487b7160e01b8252604190528690fd5b634e487b7160e01b8452604188528984fd5b9093506000198101908111610baf57610ba19061100d565b90549060031b1c9238610adb565b634e487b7160e01b8452601185528684fd5b91506000198601868111610be557610bd890610fdc565b90549060031b1c91610ad5565b634e487b7160e01b8252601186528782fd5b60449189889287519363e2051feb60e01b8552840152820152fd5b50801515610abf565b50811515610ab9565b815163223e13c160e21b815233818601528690fd5b50829034610213578060031936011261021357610c5461105e565b6009546001600160a01b039391906024359085163303610d96576006548451600d60f81b602082019081526001600160601b0319606086901b1660218301526001600160c01b03194360c090811b8216603585015242901b16603d830152604582018390524860658301526085808301859052825291969190610cd6816110d9565b519020968487610d49575b505085926000805160206115418339815191529260c092610d1760209a89518c8101918a83528b8201528a81526109c8816110f4565b8751338152600d8b8201529216828801526060820152486080820152426001600160401b031660a0820152a351908152f35b90979450600019870190878211610a4e575060209750926000805160206115418339815191529260c092610d17610d808a9761100d565b90549060031b1c979a5050925092819450610ce1565b835163223e13c160e21b81523381880152602490fd5b838234610213578160031936011261021357602090600a549051908152f35b5090346101e65760203660031901126101e657610de661105e565b6008546001600160a01b03929083169033829003610e41575b857f8c1e6003ed33ca6748d4ad3dd4ecc949065c89dceb31fdf546a5289202763c6a602087878716908160018060a01b0319600954161760095551908152a180f35b8451638da5cb5b60e01b81526020818381865afa908115610ead578791610e8f575b508481163303610e735750610dff565b6101a8908651938493630739600760e01b855233908501611151565b610ea7915060203d81116101d5576101c6818361110f565b38610e63565b86513d89823e3d90fd5b5091903461021357610ec836611079565b9160018060a01b03806008541695863303610ee9575b856102f486866111f1565b8051638da5cb5b60e01b81529160208385818b5afa928315610361578793610f33575b508216330315610ede5751630739600760e01b81529182916101a891889033908501611151565b610f4c91935060203d81116101d5576101c6818361110f565b9138610f0c565b8382346102135760203660031901126102135760209160ff9060019083906001600160a01b03610f8161105e565b168152600286522001541690519015158152f35b5090346101e65760203660031901126101e657359160075483101561024557506102b4602092610fdc565b8490346102135781600319360112610213576020906007548152f35b600754811015610ff757600760005260206000200190600090565b634e487b7160e01b600052603260045260246000fd5b600654811015610ff757600660005260206000200190600090565b600454811015610ff757600460005260206000200190600090565b600354811015610ff757600360005260206000200190600090565b600435906001600160a01b038216820361107457565b600080fd5b6040906003190112611074576004356001600160a01b0381168103611074579060243580151581036110745790565b604081019081106001600160401b038211176110c357604052565b634e487b7160e01b600052604160045260246000fd5b60c081019081106001600160401b038211176110c357604052565b606081019081106001600160401b038211176110c357604052565b601f909101601f19168101906001600160401b038211908210176110c357604052565b9081602091031261107457516001600160a01b03811681036110745790565b6001600160a01b0391821681529181166020830152909116604082015260600190565b6005546001600160a01b0390811690811461118c5790565b50600090565b600654600160401b8110156110c357610b388160016111b4930160065561100d565b9055565b6001600160401b0381116110c357601f01601f191660200190565b919082549060031b9160018060a01b03809116831b921b1916179055565b9060018060a01b03808316916000928084526001926020928484526040918287209160ff8784015416845190867f6675ce8882cb71637de5903a193d218cc0544be9c0650cb83e0955f6aa2bf5218985151594858152a215151461138f57156112d657505061129692918491826003549482519561126e876110a8565b86528086019382855289525286209251835551151591019060ff801983541691151516179055565b60035491600160401b8310156112c25750816112ba916112c0949301600355611043565b906111d3565b565b634e487b7160e01b81526041600452602490fd5b909194959650600354916000199283810190811161137b57826112fb61130d92611043565b90549060031b1c166112ba8354611043565b549061131882611043565b90549060031b1c16875285845284872055600354801561136757859392910161135861134382611043565b81549060018060a01b039060031b1b19169055565b60035585525282208281550155565b634e487b7160e01b87526031600452602487fd5b634e487b7160e01b89526011600452602489fd5b505050505050505050565b906001600160a01b039081831680831461152857600092818452602092600284526040918286209160ff600184015416845190867f49477e7356dbcb654ab85d7534b50126772d938130d1350e23e2540370c8dffa8985151594858152a215151461151e571561146d5750506114489291600191600260045494825195611420876110a8565b86528086019385855288525285209251835551151591019060ff801983541691151516179055565b60045490600160401b8210156112c25750906112ba8260016112c09401600455611028565b9091949550600454916000199283810190811161150a576114906114ab91611028565b90548461149d8554611028565b92909360031b1c16916111d3565b54906114b682611028565b90549060031b1c168652600284528486205560045480156114f657916001949391600293016114e761134382611028565b60045585525282208281550155565b634e487b7160e01b86526031600452602486fd5b634e487b7160e01b88526011600452602488fd5b5050505050505050565b6024906040519063077abed160e41b82526004820152fdfe5e3c1311ea442664e8b1611bfabef659120ea7a0a2cfc0667700bebc69cbffe1a2646970667358221220a8df94c13d987f26c3240af69c35af4fd0a5b76453efa7e88a9bfce4c81bdf9e64736f6c63430008130033",
  "linkReferences": {},
  "deployedLinkReferences": {}
}