{
  "_format": "hh-sol-artifact-1",
  "contractName": "MockResultReceiver",
  "sourceName": "src/mocks/MockResultReceiver.sol",
  "abi": [
    {
      "inputs": [
        {
          "internalType": "contract IChallengeManager",
          "name": "manager_",
          "type": "address"
        }
      ],
      "stateMutability": "nonpayable",
      "type": "constructor"
    },
    {
      "anonymous": false,
      "inputs": [
        {
          "indexed": true,
          "internalType": "uint256",
          "name": "challengeIndex",
          "type": "uint256"
        },
        {
          "indexed": true,
          "internalType": "address",
          "name": "winner",
          "type": "address"
        },
        {
          "indexed": true,
          "internalType": "address",
          "name": "loser",
          "type": "address"
        }
      ],
      "name": "ChallengeCompleted",
      "type": "event"
    },
    {
      "inputs": [],
      "name": "challengeIndex",
      "outputs": [
        {
          "internalType": "uint256",
          "name": "",
          "type": "uint256"
        }
      ],
      "stateMutability": "view",
      "type": "function"
    },
    {
      "inputs": [
        {
          "internalType": "uint256",
          "name": "challengeIndex_",
          "type": "uint256"
        },
        {
          "internalType": "address",
          "name": "winner_",
          "type": "address"
        },
        {
          "internalType": "address",
          "name": "loser_",
          "type": "address"
        }
      ],
      "name": "completeChallenge",
      "outputs": [],
      "stateMutability": "nonpayable",
      "type": "function"
    },
    {
      "inputs": [
        {
          "internalType": "bytes32",
          "name": "wasmModuleRoot_",
          "type": "bytes32"
        },
        {
          "internalType": "enum MachineStatus[2]",
          "name": "startAndEndMachineStatuses_",
          "type": "uint8[2]"
        },
        {
          "components": [
            {
              "internalType": "bytes32[2]",
              "name": "bytes32Vals",
              "type": "bytes32[2]"
            },
            {
              "internalType": "uint64[2]",
              "name": "u64Vals",
              "type": "uint64[2]"
            }
          ],
          "internalType": "struct GlobalState[2]",
          "name": "startAndEndGlobalStates_",
          "type": "tuple[2]"
        },
        {
          "internalType": "uint64",
          "name": "numBlocks",
          "type": "uint64"
        },
        {
          "internalType": "address",
          "name": "asserter_",
          "type": "address"
        },
        {
          "internalType": "address",
          "name": "challenger_",
          "type": "address"
        },
        {
          "internalType": "uint256",
          "name": "asserterTimeLeft_",
          "type": "uint256"
        },
        {
          "internalType": "uint256",
          "name": "challengerTimeLeft_",
          "type": "uint256"
        }
      ],
      "name": "createChallenge",
      "outputs": [
        {
          "internalType": "uint64",
          "name": "",
          "type": "uint64"
        }
      ],
      "stateMutability": "nonpayable",
      "type": "function"
    },
    {
      "inputs": [],
      "name": "loser",
      "outputs": [
        {
          "internalType": "address",
          "name": "",
          "type": "address"
        }
      ],
      "stateMutability": "view",
      "type": "function"
    },
    {
      "inputs": [],
      "name": "manager",
      "outputs": [
        {
          "internalType": "contract IChallengeManager",
          "name": "",
          "type": "address"
        }
      ],
      "stateMutability": "view",
      "type": "function"
    },
    {
      "inputs": [],
      "name": "winner",
      "outputs": [
        {
          "internalType": "address",
          "name": "",
          "type": "address"
        }
      ],
      "stateMutability": "view",
      "type": "function"
    }
  ],
  "bytecode": "0x60803461007457601f61043138819003918201601f19168301916001600160401b038311848410176100795780849260209460405283398101031261007457516001600160a01b0381169081900361007457600080546001600160a01b0319169190911790556040516103a190816100908239f35b600080fd5b634e487b7160e01b600052604160045260246000fdfe6080604081815260048036101561001557600080fd5b600092833560e01c9182630357aa49146102ec57826314eab5e7146100fe5750508063481c6a75146100d7578063d6853748146100b9578063dfbf53ae146100915763e82898b31461006657600080fd5b3461008d578160031936011261008d5760025490516001600160a01b039091168152602090f35b5080fd5b503461008d578160031936011261008d5760015490516001600160a01b039091168152602090f35b503461008d578160031936011261008d576020906003549051908152f35b503461008d578160031936011261008d57905490516001600160a01b039091168152602090f35b90915034610291576102003660031901126102915736606411610291576101643681116102e85780356001600160401b0381811695918690036102e4576001600160a01b036101848035828116979196928a9189900361008d576101a4908135908082168092036102915783546314eab5e760e01b8652863587870152999a9916918360248087015b600283106102ba57505050606485019960649b859b5b6002808e10156101fb578e8c81843788908d018c848f015b8484106101d457505050505060019060808091019e019c019b9c61019d565b82359182168092036101f757600191815260208091019201920191908d906101b5565b8b80fd5b5050869a87999d5060209a9c509d610204989e8801528601528401526101c48035908401526101e48035908401525af19384156102b0578594610246575b5050602093505191168152f35b909193506020903d82116102a8575b601f8201601f19168301908482118483101761029557506020918391865281010312610291575181811681036102915760209350913880610239565b8380fd5b634e487b7160e01b875260419052602486fd5b3d9150610255565b82513d87823e3d90fd5b819d9c9d3590898210156102e057600191815260208091019201920191909c9b9c610187565b8780fd5b8680fd5b8480fd5b84903461008d57606036600319011261008d576001600160a01b039060243582811691359082900361029157604435928316809303610291578260018060a01b0319838160015416176001556002541617600255806003557f88cb1f3fe351f3ac338db9c36bff1ece1750423c7ae6dfc427cd194b1c69b1278480a480f3fea2646970667358221220c709eac48be077dd6932fc31a647acd12ec91293ceaeb8d41883519434b13ee664736f6c63430008130033",
  "linkReferences": {},
  "deployedLinkReferences": {}
}