{
  "_format": "hh-sol-artifact-1",
  "contractName": "Mockstream",
  "sourceName": "src/mocks/MockBlobstream.sol",
  "abi": [
    {
      "inputs": [],
      "name": "ContractFrozen",
      "type": "error"
    },
    {
      "anonymous": false,
      "inputs": [
        {
          "indexed": false,
          "internalType": "uint256",
          "name": "proofNonce",
          "type": "uint256"
        },
        {
          "indexed": true,
          "internalType": "uint64",
          "name": "startBlock",
          "type": "uint64"
        },
        {
          "indexed": true,
          "internalType": "uint64",
          "name": "endBlock",
          "type": "uint64"
        },
        {
          "indexed": true,
          "internalType": "bytes32",
          "name": "dataCommitment",
          "type": "bytes32"
        }
      ],
      "name": "DataCommitmentStored",
      "type": "event"
    },
    {
      "inputs": [],
      "name": "frozen",
      "outputs": [
        {
          "internalType": "bool",
          "name": "",
          "type": "bool"
        }
      ],
      "stateMutability": "view",
      "type": "function"
    },
    {
      "inputs": [
        {
          "internalType": "uint64",
          "name": "_latestBlock",
          "type": "uint64"
        }
      ],
      "name": "initialize",
      "outputs": [],
      "stateMutability": "nonpayable",
      "type": "function"
    },
    {
      "inputs": [],
      "name": "latestBlock",
      "outputs": [
        {
          "internalType": "uint64",
          "name": "",
          "type": "uint64"
        }
      ],
      "stateMutability": "view",
      "type": "function"
    },
    {
      "inputs": [
        {
          "internalType": "uint256",
          "name": "",
          "type": "uint256"
        }
      ],
      "name": "state_dataCommitments",
      "outputs": [
        {
          "internalType": "bytes32",
          "name": "",
          "type": "bytes32"
        }
      ],
      "stateMutability": "view",
      "type": "function"
    },
    {
      "inputs": [],
      "name": "state_proofNonce",
      "outputs": [
        {
          "internalType": "uint256",
          "name": "",
          "type": "uint256"
        }
      ],
      "stateMutability": "view",
      "type": "function"
    },
    {
      "inputs": [
        {
          "internalType": "bytes32",
          "name": "_dataCommitment",
          "type": "bytes32"
        },
        {
          "internalType": "uint64",
          "name": "_beginBlock",
          "type": "uint64"
        },
        {
          "internalType": "uint64",
          "name": "_endBlock",
          "type": "uint64"
        }
      ],
      "name": "submitDataCommitment",
      "outputs": [],
      "stateMutability": "nonpayable",
      "type": "function"
    },
    {
      "inputs": [
        {
          "internalType": "bool",
          "name": "_freeze",
          "type": "bool"
        }
      ],
      "name": "updateFreeze",
      "outputs": [],
      "stateMutability": "nonpayable",
      "type": "function"
    },
    {
      "inputs": [
        {
          "internalType": "uint64",
          "name": "_height",
          "type": "uint64"
        }
      ],
      "name": "updateGenesisState",
      "outputs": [],
      "stateMutability": "nonpayable",
      "type": "function"
    },
    {
      "inputs": [
        {
          "internalType": "uint256",
          "name": "_proofNonce",
          "type": "uint256"
        },
        {
          "components": [
            {
              "internalType": "uint256",
              "name": "height",
              "type": "uint256"
            },
            {
              "internalType": "bytes32",
              "name": "dataRoot",
              "type": "bytes32"
            }
          ],
          "internalType": "struct DataRootTuple",
          "name": "_tuple",
          "type": "tuple"
        },
        {
          "components": [
            {
              "internalType": "bytes32[]",
              "name": "sideNodes",
              "type": "bytes32[]"
            },
            {
              "internalType": "uint256",
              "name": "key",
              "type": "uint256"
            },
            {
              "internalType": "uint256",
              "name": "numLeaves",
              "type": "uint256"
            }
          ],
          "internalType": "struct BinaryMerkleProof",
          "name": "_proof",
          "type": "tuple"
        }
      ],
      "name": "verifyAttestation",
      "outputs": [
        {
          "internalType": "bool",
          "name": "",
          "type": "bool"
        }
      ],
      "stateMutability": "view",
      "type": "function"
    }
  ],
  "bytecode": "0x6080806040523461001657610a28908161001c8239f35b600080fdfe608060409080825260048036101561001657600080fd5b600092833560e01c928363054f7d9c146103d15750826307e2da96146103a95782631f3302a91461027457826355ae3f221461025557826382e0cf6b14610222578263aeeed33e146101fa578263e098f57d146101075750508063eb92db27146100c15763fb0f43681461008957600080fd5b346100be5760203660031901126100be576001600160401b036100aa610442565b82546001600160401b031916911617815580f35b80fd5b50346100be5760203660031901126100be576100db610442565b6003805460ff1916905581546001600160401b0319166001600160401b03919091161781556001805580f35b909150346101f65760603660031901126101f6576001600160401b039180359060243584811691908290036101f257604435948086168096036101ee5782908754161180156101e5575b6101b25750908361019d93926001548752600260205282848820557f34dd3689f5bd77a60a3ff2e09483dcab032fa2f1fd7227af3e24bed21beab1cb60206001549551868152a461045d565b60015581546001600160401b03191617815580f35b606490602085519162461bcd60e51b8352820152600d60248201526c494e56414c49442052414e474560981b6044820152fd5b50848211610151565b8680fd5b8580fd5b8280fd5b9150346101f65760203660031901126101f65760209282913581526002845220549051908152f35b83823461025157602036600319011261025157358015158091036102515760ff80196003541691161760035580f35b5080fd5b8390346102515781600319360112610251576020906001549051908152f35b909150346101f657600319916080368401126103a557816023193601126103a55781516001600160401b039181840183811183821017610392578452602435825260209560443587840152606435958487116102515760609087360301126100be57845193606085018581108282111761037f5786528683013590811161025157860190366023830112156100be57828201356103108161042b565b9261031d885194856103f2565b81845260248a85019260051b820101923684116100be57509060248a9201905b83821061037057505050506103679495604491855260248101358886015201358584015235610482565b90519015158152f35b8135815290820190820161033d565b634e487b7160e01b835260418452602483fd5b634e487b7160e01b875260418252602487fd5b8380fd5b839034610251578160031936011261025157905490516001600160401b039091168152602090f35b84903461025157816003193601126102515760209060ff6003541615158152f35b601f909101601f19168101906001600160401b0382119082101761041557604052565b634e487b7160e01b600052604160045260246000fd5b6001600160401b0381116104155760051b60200190565b600435906001600160401b038216820361045857565b600080fd5b600019811461046c5760010190565b634e487b7160e01b600052601160045260246000fd5b60ff600354166104f957801580156104ed575b6104e5576000526002602052604060002054916020604051928051828501520151604083015260408252606082019282841060018060401b03851117610415576104e19360405261052b565b5090565b505050600090565b50600154811015610495565b604051634051e96160e01b8152600490fd5b6006111561051557565b634e487b7160e01b600052602160045260246000fd5b604082018051939493600181116106245750825151610617575b6020830190815181511115610609576020610578966105926040516105868160009b8c9586888401526021830190610959565b03601f1981018352826103f2565b60405191828092610959565b039060025afa156105fe5785519351918251156105e757906105b99394915190519061075a565b60068110156105d357806105cd5750149190565b92915050565b634e487b7160e01b85526021600452602485fd5b50516001141590506105f857149190565b50508190565b6040513d87823e3d90fd5b505050509050600090600290565b5050509050600090600190565b610635845151916020860151610681565b14610545575050509050600090600190565b9061010091820391821161046c57565b60001981019190821161046c57565b9190820391821161046c57565b600101908160011161046c57565b90600190818111156104e55760005b8183821b1061070f5761010090810390811161046c576106af90610647565b92826106ba85610657565b1b906106c582610657565b81116106d2575050505090565b92935090918382036106e45750505090565b6107039350906106f7816106fd93610666565b92610666565b90610681565b61070c90610673565b90565b8281018091111561069057634e487b7160e01b600052601160045260246000fd5b80518210156107445760209160051b010190565b634e487b7160e01b600052603260045260246000fd5b9392938115610841576001821461082c57845115610821578261077c8361084c565b61078f6107898851610657565b88610890565b928181106107ec57816106f76107af96936107a993610666565b9061075a565b90916107ba8261050b565b816107e55750506107d9836107d36107df949551610657565b90610730565b51610984565b90600090565b9350919050565b6107f6945061075a565b90916108018261050b565b816107e557505061081a836107d36107df949551610657565b5190610984565b505090915090600590565b505090915161083b5790600090565b90600490565b505090915090600390565b600180821061045857600082805b61087d5750600019810190811161046c5781901b918214610879575090565b1c90565b906108879061045d565b90821c8061085a565b9190825181116108fc576108a38161042b565b906108b160405192836103f2565b808252601f196108c08261042b565b0136602084013760005b8181106108d8575090925050565b806108e66108f79287610730565b516108f18286610730565b5261045d565b6108ca565b60405162461bcd60e51b815260206004820152602f60248201527f496e76616c69642072616e67653a205f626567696e206f72205f656e6420617260448201526e65206f7574206f6620626f756e647360881b6064820152608490fd5b9081519160005b838110610971575050016000815290565b8060208092840101518185015201610960565b604051600160f81b6020820152602181019190915260418082019290925290815260808101906001600160401b038211818310176104155781600091602093604052607f19906109d48382610959565b03019060025afa156109e65760005190565b6040513d6000823e3d90fdfea2646970667358221220d6957bce923b4d0f7f2499c00fbce46bfbbb63e3128b07804db63bcb684e097664736f6c63430008130033",
  "linkReferences": {},
  "deployedLinkReferences": {}
}