{
  "_format": "hh-sol-artifact-1",
  "contractName": "ERC20Bridge",
  "sourceName": "src/bridge/ERC20Bridge.sol",
  "abi": [
    {
      "inputs": [
        {
          "internalType": "uint256",
          "name": "stored",
          "type": "uint256"
        },
        {
          "internalType": "uint256",
          "name": "received",
          "type": "uint256"
        }
      ],
      "name": "BadSequencerMessageNumber",
      "type": "error"
    },
    {
      "inputs": [],
      "name": "CallNotAllowed",
      "type": "error"
    },
    {
      "inputs": [
        {
          "internalType": "address",
          "name": "target",
          "type": "address"
        }
      ],
      "name": "CallTargetNotAllowed",
      "type": "error"
    },
    {
      "inputs": [
        {
          "internalType": "address",
          "name": "outbox",
          "type": "address"
        }
      ],
      "name": "InvalidOutboxSet",
      "type": "error"
    },
    {
      "inputs": [
        {
          "internalType": "address",
          "name": "token",
          "type": "address"
        }
      ],
      "name": "InvalidTokenSet",
      "type": "error"
    },
    {
      "inputs": [
        {
          "internalType": "uint256",
          "name": "decimals",
          "type": "uint256"
        }
      ],
      "name": "NativeTokenDecimalsTooLarge",
      "type": "error"
    },
    {
      "inputs": [
        {
          "internalType": "address",
          "name": "addr",
          "type": "address"
        }
      ],
      "name": "NotContract",
      "type": "error"
    },
    {
      "inputs": [
        {
          "internalType": "address",
          "name": "sender",
          "type": "address"
        }
      ],
      "name": "NotDelayedInbox",
      "type": "error"
    },
    {
      "inputs": [
        {
          "internalType": "address",
          "name": "sender",
          "type": "address"
        }
      ],
      "name": "NotOutbox",
      "type": "error"
    },
    {
      "inputs": [
        {
          "internalType": "address",
          "name": "sender",
          "type": "address"
        },
        {
          "internalType": "address",
          "name": "rollup",
          "type": "address"
        },
        {
          "internalType": "address",
          "name": "owner",
          "type": "address"
        }
      ],
      "name": "NotRollupOrOwner",
      "type": "error"
    },
    {
      "inputs": [
        {
          "internalType": "address",
          "name": "sender",
          "type": "address"
        }
      ],
      "name": "NotSequencerInbox",
      "type": "error"
    },
    {
      "anonymous": false,
      "inputs": [
        {
          "indexed": true,
          "internalType": "address",
          "name": "outbox",
          "type": "address"
        },
        {
          "indexed": true,
          "internalType": "address",
          "name": "to",
          "type": "address"
        },
        {
          "indexed": false,
          "internalType": "uint256",
          "name": "value",
          "type": "uint256"
        },
        {
          "indexed": false,
          "internalType": "bytes",
          "name": "data",
          "type": "bytes"
        }
      ],
      "name": "BridgeCallTriggered",
      "type": "event"
    },
    {
      "anonymous": false,
      "inputs": [
        {
          "indexed": true,
          "internalType": "address",
          "name": "inbox",
          "type": "address"
        },
        {
          "indexed": false,
          "internalType": "bool",
          "name": "enabled",
          "type": "bool"
        }
      ],
      "name": "InboxToggle",
      "type": "event"
    },
    {
      "anonymous": false,
      "inputs": [
        {
          "indexed": true,
          "internalType": "uint256",
          "name": "messageIndex",
          "type": "uint256"
        },
        {
          "indexed": true,
          "internalType": "bytes32",
          "name": "beforeInboxAcc",
          "type": "bytes32"
        },
        {
          "indexed": false,
          "internalType": "address",
          "name": "inbox",
          "type": "address"
        },
        {
          "indexed": false,
          "internalType": "uint8",
          "name": "kind",
          "type": "uint8"
        },
        {
          "indexed": false,
          "internalType": "address",
          "name": "sender",
          "type": "address"
        },
        {
          "indexed": false,
          "internalType": "bytes32",
          "name": "messageDataHash",
          "type": "bytes32"
        },
        {
          "indexed": false,
          "internalType": "uint256",
          "name": "baseFeeL1",
          "type": "uint256"
        },
        {
          "indexed": false,
          "internalType": "uint64",
          "name": "timestamp",
          "type": "uint64"
        }
      ],
      "name": "MessageDelivered",
      "type": "event"
    },
    {
      "anonymous": false,
      "inputs": [
        {
          "indexed": true,
          "internalType": "address",
          "name": "outbox",
          "type": "address"
        },
        {
          "indexed": false,
          "internalType": "bool",
          "name": "enabled",
          "type": "bool"
        }
      ],
      "name": "OutboxToggle",
      "type": "event"
    },
    {
      "anonymous": false,
      "inputs": [
        {
          "indexed": false,
          "internalType": "address",
          "name": "rollup",
          "type": "address"
        }
      ],
      "name": "RollupUpdated",
      "type": "event"
    },
    {
      "anonymous": false,
      "inputs": [
        {
          "indexed": false,
          "internalType": "address",
          "name": "newSequencerInbox",
          "type": "address"
        }
      ],
      "name": "SequencerInboxUpdated",
      "type": "event"
    },
    {
      "inputs": [],
      "name": "acceptFundsFromOldBridge",
      "outputs": [],
      "stateMutability": "payable",
      "type": "function"
    },
    {
      "inputs": [],
      "name": "activeOutbox",
      "outputs": [
        {
          "internalType": "address",
          "name": "",
          "type": "address"
        }
      ],
      "stateMutability": "view",
      "type": "function"
    },
    {
      "inputs": [
        {
          "internalType": "uint256",
          "name": "",
          "type": "uint256"
        }
      ],
      "name": "allowedDelayedInboxList",
      "outputs": [
        {
          "internalType": "address",
          "name": "",
          "type": "address"
        }
      ],
      "stateMutability": "view",
      "type": "function"
    },
    {
      "inputs": [
        {
          "internalType": "address",
          "name": "inbox",
          "type": "address"
        }
      ],
      "name": "allowedDelayedInboxes",
      "outputs": [
        {
          "internalType": "bool",
          "name": "",
          "type": "bool"
        }
      ],
      "stateMutability": "view",
      "type": "function"
    },
    {
      "inputs": [
        {
          "internalType": "uint256",
          "name": "",
          "type": "uint256"
        }
      ],
      "name": "allowedOutboxList",
      "outputs": [
        {
          "internalType": "address",
          "name": "",
          "type": "address"
        }
      ],
      "stateMutability": "view",
      "type": "function"
    },
    {
      "inputs": [
        {
          "internalType": "address",
          "name": "outbox",
          "type": "address"
        }
      ],
      "name": "allowedOutboxes",
      "outputs": [
        {
          "internalType": "bool",
          "name": "",
          "type": "bool"
        }
      ],
      "stateMutability": "view",
      "type": "function"
    },
    {
      "inputs": [
        {
          "internalType": "uint256",
          "name": "",
          "type": "uint256"
        }
      ],
      "name": "delayedInboxAccs",
      "outputs": [
        {
          "internalType": "bytes32",
          "name": "",
          "type": "bytes32"
        }
      ],
      "stateMutability": "view",
      "type": "function"
    },
    {
      "inputs": [],
      "name": "delayedMessageCount",
      "outputs": [
        {
          "internalType": "uint256",
          "name": "",
          "type": "uint256"
        }
      ],
      "stateMutability": "view",
      "type": "function"
    },
    {
      "inputs": [
        {
          "internalType": "uint8",
          "name": "kind",
          "type": "uint8"
        },
        {
          "internalType": "address",
          "name": "sender",
          "type": "address"
        },
        {
          "internalType": "bytes32",
          "name": "messageDataHash",
          "type": "bytes32"
        },
        {
          "internalType": "uint256",
          "name": "tokenFeeAmount",
          "type": "uint256"
        }
      ],
      "name": "enqueueDelayedMessage",
      "outputs": [
        {
          "internalType": "uint256",
          "name": "",
          "type": "uint256"
        }
      ],
      "stateMutability": "nonpayable",
      "type": "function"
    },
    {
      "inputs": [
        {
          "internalType": "bytes32",
          "name": "dataHash",
          "type": "bytes32"
        },
        {
          "internalType": "uint256",
          "name": "afterDelayedMessagesRead",
          "type": "uint256"
        },
        {
          "internalType": "uint256",
          "name": "prevMessageCount",
          "type": "uint256"
        },
        {
          "internalType": "uint256",
          "name": "newMessageCount",
          "type": "uint256"
        }
      ],
      "name": "enqueueSequencerMessage",
      "outputs": [
        {
          "internalType": "uint256",
          "name": "seqMessageIndex",
          "type": "uint256"
        },
        {
          "internalType": "bytes32",
          "name": "beforeAcc",
          "type": "bytes32"
        },
        {
          "internalType": "bytes32",
          "name": "delayedAcc",
          "type": "bytes32"
        },
        {
          "internalType": "bytes32",
          "name": "acc",
          "type": "bytes32"
        }
      ],
      "stateMutability": "nonpayable",
      "type": "function"
    },
    {
      "inputs": [
        {
          "internalType": "address",
          "name": "to",
          "type": "address"
        },
        {
          "internalType": "uint256",
          "name": "value",
          "type": "uint256"
        },
        {
          "internalType": "bytes",
          "name": "data",
          "type": "bytes"
        }
      ],
      "name": "executeCall",
      "outputs": [
        {
          "internalType": "bool",
          "name": "success",
          "type": "bool"
        },
        {
          "internalType": "bytes",
          "name": "returnData",
          "type": "bytes"
        }
      ],
      "stateMutability": "nonpayable",
      "type": "function"
    },
    {
      "inputs": [
        {
          "internalType": "contract IOwnable",
          "name": "rollup_",
          "type": "address"
        },
        {
          "internalType": "address",
          "name": "nativeToken_",
          "type": "address"
        }
      ],
      "name": "initialize",
      "outputs": [],
      "stateMutability": "nonpayable",
      "type": "function"
    },
    {
      "inputs": [],
      "name": "nativeToken",
      "outputs": [
        {
          "internalType": "address",
          "name": "",
          "type": "address"
        }
      ],
      "stateMutability": "view",
      "type": "function"
    },
    {
      "inputs": [],
      "name": "nativeTokenDecimals",
      "outputs": [
        {
          "internalType": "uint8",
          "name": "",
          "type": "uint8"
        }
      ],
      "stateMutability": "view",
      "type": "function"
    },
    {
      "inputs": [],
      "name": "rollup",
      "outputs": [
        {
          "internalType": "contract IOwnable",
          "name": "",
          "type": "address"
        }
      ],
      "stateMutability": "view",
      "type": "function"
    },
    {
      "inputs": [],
      "name": "sequencerInbox",
      "outputs": [
        {
          "internalType": "address",
          "name": "",
          "type": "address"
        }
      ],
      "stateMutability": "view",
      "type": "function"
    },
    {
      "inputs": [
        {
          "internalType": "uint256",
          "name": "",
          "type": "uint256"
        }
      ],
      "name": "sequencerInboxAccs",
      "outputs": [
        {
          "internalType": "bytes32",
          "name": "",
          "type": "bytes32"
        }
      ],
      "stateMutability": "view",
      "type": "function"
    },
    {
      "inputs": [],
      "name": "sequencerMessageCount",
      "outputs": [
        {
          "internalType": "uint256",
          "name": "",
          "type": "uint256"
        }
      ],
      "stateMutability": "view",
      "type": "function"
    },
    {
      "inputs": [],
      "name": "sequencerReportedSubMessageCount",
      "outputs": [
        {
          "internalType": "uint256",
          "name": "",
          "type": "uint256"
        }
      ],
      "stateMutability": "view",
      "type": "function"
    },
    {
      "inputs": [
        {
          "internalType": "address",
          "name": "inbox",
          "type": "address"
        },
        {
          "internalType": "bool",
          "name": "enabled",
          "type": "bool"
        }
      ],
      "name": "setDelayedInbox",
      "outputs": [],
      "stateMutability": "nonpayable",
      "type": "function"
    },
    {
      "inputs": [
        {
          "internalType": "address",
          "name": "outbox",
          "type": "address"
        },
        {
          "internalType": "bool",
          "name": "enabled",
          "type": "bool"
        }
      ],
      "name": "setOutbox",
      "outputs": [],
      "stateMutability": "nonpayable",
      "type": "function"
    },
    {
      "inputs": [
        {
          "internalType": "address",
          "name": "_sequencerInbox",
          "type": "address"
        }
      ],
      "name": "setSequencerInbox",
      "outputs": [],
      "stateMutability": "nonpayable",
      "type": "function"
    },
    {
      "inputs": [
        {
          "internalType": "uint256",
          "name": "newMsgCount",
          "type": "uint256"
        }
      ],
      "name": "setSequencerReportedSubMessageCount",
      "outputs": [],
      "stateMutability": "nonpayable",
      "type": "function"
    },
    {
      "inputs": [
        {
          "internalType": "address",
          "name": "sender",
          "type": "address"
        },
        {
          "internalType": "bytes32",
          "name": "messageDataHash",
          "type": "bytes32"
        }
      ],
      "name": "submitBatchSpendingReport",
      "outputs": [
        {
          "internalType": "uint256",
          "name": "",
          "type": "uint256"
        }
      ],
      "stateMutability": "nonpayable",
      "type": "function"
    },
    {
      "inputs": [
        {
          "internalType": "contract IOwnable",
          "name": "_rollup",
          "type": "address"
        }
      ],
      "name": "updateRollupAddress",
      "outputs": [],
      "stateMutability": "nonpayable",
      "type": "function"
    }
  ],
  "bytecode": "0x60a080604052346100235730608052611cf490816100298239608051816116e10152f35b600080fdfe6080604052600436101561001257600080fd5b60003560e01c806284120c146101a657806316bf5579146101a1578063413b35bd1461019c57806347fb24c514610197578063485cc955146101925780634f61f8501461018d5780635fca4a161461018857806375d81e25146101835780637a88b1071461017e57806386598a5614610179578063919cc70614610174578063945e11471461016f5780639e5d4c491461016a578063ab5d894314610165578063ad48cb5e14610160578063ae60bd131461015b578063cb23bcb514610156578063cee3d72814610151578063d5719dc21461014c578063e1758bd814610147578063e76f5c8d14610142578063e77145f41461013d578063eca067ad14610138578063ee35f327146101335763f81ff3b31461012e57600080fd5b610dac565b610d83565b610d65565b610d57565b610d0e565b610ce5565b610ca6565b610bfc565b610bd3565b610b8e565b610b6a565b610b3d565b610ac8565b610a26565b61095c565b61081b565b6106a1565b6105ca565b6105a1565b6104ea565b6103ed565b610323565b6102ac565b610250565b346101c45760003660031901126101c4576020600754604051908152f35b600080fd5b634e487b7160e01b600052603260045260246000fd5b6007548110156101fa57600760005260206000200190600090565b6101c9565b6006548110156101fa57600660005260206000200190600090565b6003548110156101fa57600360005260206000200190600090565b6004548110156101fa57600460005260206000200190600090565b346101c45760203660031901126101c4576004356007548110156101c4576007600052600080516020611c3f8339815191520154604051908152602090f35b6001600160a01b031690565b6001600160a01b038116036101c457565b346101c45760203660031901126101c4576004356102c98161029b565b60018060a01b03166000526002602052602060ff600160406000200154166040519015158152f35b801515036101c457565b60409060031901126101c4576004356103138161029b565b90602435610320816102f1565b90565b346101c457610331366102fb565b61034461033f60085461028f565b61028f565b6001600160a01b0392908381163303610364575b61036283836114a4565b005b604051638da5cb5b60e01b815293602085600481855afa9485156103e8576000956103b8575b50841633031561035857604051630739600760e01b81529081906103b49086903360048501610f06565b0390fd5b6103da91955060203d81116103e1575b6103d28183610ec2565b810190610ee5565b933861038a565b503d6103c8565b610efa565b346101c45760403660031901126101c45760043561040a8161029b565b6024356104168161029b565b6000549060ff8260081c1691826000146104e15750303b155b15610485576104449115928361045a576116d6565b61044a57005b61036261ff001960005416600055565b61046e61010061ff00196000541617600055565b610480600160ff196000541617600055565b6116d6565b60405162461bcd60e51b815260206004820152602e60248201527f496e697469616c697a61626c653a20636f6e747261637420697320616c72656160448201526d191e481a5b9a5d1a585b1a5e995960921b6064820152608490fd5b60ff161561042f565b346101c45760203660031901126101c4576004356105078161029b565b61051561033f60085461028f565b6001600160a01b0391908281163303610532575b61036282611325565b604051638da5cb5b60e01b815292602084600481855afa9384156103e857600094610581575b50831633031561052957604051630739600760e01b8152928392506103b4913360048501610f06565b61059a91945060203d81116103e1576103d28183610ec2565b9238610558565b346101c45760003660031901126101c4576020600a54604051908152f35b60ff8116036101c457565b346101c45760803660031901126101c4576004356105e7816105bf565b602435906105f48261029b565b33600052600160205260ff6001604060002001541615610689576106859161063191604435916001600160401b034281169243909116919061107a565b6033546040516323b872dd60e01b602082015233602482015230604482015260648035818301528152610675916001600160a01b031661067082610e6c565b6118f8565b6040519081529081906020820190565b0390f35b60405163b6c60ea360e01b8152336004820152602490fd5b346101c45760403660031901126101c4576004356106be8161029b565b60095460243591906001600160a01b0316330361080357600654604051600d60f81b602082019081526001600160601b0319606085901b1660218301526001600160c01b03194360c090811b8216603585015242901b16603d83015260458201839052486065830152608580830186905282526106859492939184919061074481610e8c565b51902092600092826107c3575b61077461076f8596600080516020611c5f8339815191529596611bea565b611044565b60408051338152600d60208201526001600160a01b03929092169082015260608101919091524860808201526001600160401b03421660a082015260c090a36040519081529081906020820190565b82935061077461076f6107f96107ef6107ea600080516020611c5f83398151915297610fe9565b6101ff565b90549060031b1c90565b9594505050610751565b60405163223e13c160e21b8152336004820152602490fd5b346101c45760803660031901126101c45760095460443590602435906001600160a01b0316330361080357600091600090600a548181141580610953575b8061094a575b610928575050610870606435600a55565b6007549182610905575b9081610685926108ee575b5060405160208101906108be816108b0856004358a8791606093918352602083015260408201520190565b03601f198101835282610ec2565b519020906108cb8261100e565b604051948594859094939260609260808301968352602083015260408201520152565b6108ff91506107ea6107ef91610fe9565b38610885565b92506106859061091f6107ef61091a85610fe9565b6101df565b9390915061087a565b60405163e2051feb60e01b815260048101919091526024810191909152604490fd5b5080151561085f565b50811515610859565b346101c45760203660031901126101c4576004356109798161029b565b61098761033f60085461028f565b6001600160a01b03919082811633036109a4575b61036282610f4b565b604051638da5cb5b60e01b815292602084600481855afa9384156103e8576000946109f3575b50831633031561099b57604051630739600760e01b8152928392506103b4913360048501610f06565b610a0c91945060203d81116103e1576103d28183610ec2565b92386109ca565b6001600160a01b03909116815260200190565b346101c45760203660031901126101c4576004356004548110156101c4576004600052600080516020611c9f83398151915201546040516001600160a01b039091168152602090f35b919082519283825260005b848110610a9b575050826000602080949584010152601f8019910116010190565b602081830181015184830182015201610a7a565b6040906103209392151581528160208201520190610a6f565b346101c45760603660031901126101c457600435610ae58161029b565b604435906001600160401b03908183116101c457366023840112156101c45782600401359182116101c45736602483850101116101c4576024610b2d9301906024359061123d565b9061068560405192839283610aaf565b346101c45760003660031901126101c4576020610b58610f97565b6040516001600160a01b039091168152f35b346101c45760003660031901126101c457602060ff60335460a01c16604051908152f35b346101c45760203660031901126101c457600435610bab8161029b565b60018060a01b03166000526001602052602060ff600160406000200154166040519015158152f35b346101c45760003660031901126101c4576008546040516001600160a01b039091168152602090f35b346101c457610c0a366102fb565b610c1861033f60085461028f565b6001600160a01b0392908381163303610c36575b61036283836115db565b604051638da5cb5b60e01b815293602085600481855afa9485156103e857600095610c86575b508416330315610c2c57604051630739600760e01b81529081906103b49086903360048501610f06565b610c9f91955060203d81116103e1576103d28183610ec2565b9338610c5c565b346101c45760203660031901126101c4576004356006548110156101c4576006600052600080516020611c7f8339815191520154604051908152602090f35b346101c45760003660031901126101c4576033546040516001600160a01b039091168152602090f35b346101c45760203660031901126101c4576004356003548110156101c4576003600052600080516020611c1f83398151915201546040516001600160a01b039091168152602090f35b60003660031901126101c457005b346101c45760003660031901126101c4576020600654604051908152f35b346101c45760003660031901126101c4576009546040516001600160a01b039091168152602090f35b346101c45760203660031901126101c457610dcb61033f60085461028f565b6001600160a01b03908082163303610de9575b610362600435600a55565b604051638da5cb5b60e01b815291602083600481855afa9283156103e857600093610e36575b508216330315610dde576103b4604051928392630739600760e01b84523360048501610f06565b610e4f91935060203d81116103e1576103d28183610ec2565b9138610e0f565b634e487b7160e01b600052604160045260246000fd5b60a081019081106001600160401b03821117610e8757604052565b610e56565b60c081019081106001600160401b03821117610e8757604052565b604081019081106001600160401b03821117610e8757604052565b601f909101601f19168101906001600160401b03821190821017610e8757604052565b908160209103126101c457516103208161029b565b6040513d6000823e3d90fd5b6001600160a01b0391821681529181166020830152909116604082015260600190565b600580546001600160a01b0319166001600160a01b0392909216919091179055565b600880546001600160a01b0319166001600160a01b0390921691821790556040519081527fae1f5aa15f6ff844896347ceca2a3c24c8d3a27785efdeacd581a0a95172784a90602090a1565b6005546001600160a01b03908116908114610faf5790565b50600090565b6001600160a01b0316600090815260026020526040902090565b6001600160a01b0316600090815260016020526040902090565b600019810191908211610ff857565b634e487b7160e01b600052601160045260246000fd5b600754600160401b811015610e875760018101806007558110156101fa576007600052600080516020611c3f8339815191520155565b600654600160401b811015610e875760018101806006558110156101fa576006600052600080516020611c7f8339815191520155565b6006546040516001600160f81b031960f884901b16602082019081526001600160601b0319606086901b1660218301526001600160c01b031960c096871b811660358401529587901b909516603d820152604581018290526000606582015260858082018890528152909593869392916110f381610e8c565b5190209360009484611175575b9561116f9161112361076f8899600080516020611c5f8339815191529899611bea565b6040805133815260ff90951660208601526001600160a01b03909516948401949094526060830193909352600060808301526001600160401b0390921660a082015290819060c0820190565b0390a390565b9584955061116f9161112361076f6111a16107ef6107ea600080516020611c5f8339815191529a610fe9565b9897505050915095611100565b604051906111bb82610ea7565b565b6001600160401b038111610e8757601f01601f191660200190565b9291926111e4826111bd565b916111f26040519384610ec2565b8294818452818301116101c4578281602093846000960137010152565b91926060938192845260406020850152816040850152848401376000828201840152601f01601f1916010190565b9293919061125e61125a600161125233610fb5565b015460ff1690565b1590565b61130a5784151580611301575b6112e6577f2d9d115ef3e4a606d698913b1eae831a3cdfe20d9a83d48007b0526749c3d4666112c794956112a060055461028f565b966112aa33610f29565b6112bf6112b83684886111d8565b8583611a4c565b979098610f29565b6112e160405192839260018060a01b03169633968461120f565b0390a3565b60405163b5cf5b8f60e01b8152806103b48660048301610a13565b50833b1561126b565b6040516332ea82ab60e01b8152806103b43360048301610a13565b600980546001600160a01b0319166001600160a01b0390921691821790556040519081527f8c1e6003ed33ca6748d4ad3dd4ecc949065c89dceb31fdf546a5289202763c6a90602090a1565b80546001600160a01b0319166001600160a01b03909216919091179055565b60035480156113d25760001981810191808310156101fa57600360008190529101600080516020611c1f8339815191520180546001600160a01b031916905555565b634e487b7160e01b600052603160045260246000fd5b60045480156113d25760001981810191808310156101fa57600460008190529101600080516020611c9f8339815191520180546001600160a01b031916905555565b60035490600160401b821015610e875760018201806003558210156101fa5760036000526111bb91600080516020611c1f83398151915201611371565b60045490600160401b821015610e875760018201806004558210156101fa5760046000526111bb91600080516020611c9f83398151915201611371565b906114ae82610fcf565b906114bd600183015460ff1690565b60405182151581526001600160a01b038516907f6675ce8882cb71637de5903a193d218cc0544be9c0650cb83e0955f6aa2bf52190602090a21515811515146115d6571561154d57506111bb906115486003546115186111ae565b9081526001602082015261152b83610fcf565b60016020918351815501910151151560ff80198354169116179055565b61142a565b6111bb916115ca916115ac61158361156e611569600354610fe9565b61021a565b905460039190911b1c6001600160a01b031690565b61158d835461021a565b90919082549060031b9160018060a01b03809116831b921b1916179055565b546115c16115bc61156e8361021a565b610fcf565b556115bc611390565b60016000918281550155565b505050565b906001600160a01b03808316919082146116bb576115f883610fb5565b91611607600184015460ff1690565b60405183151581529091907f49477e7356dbcb654ab85d7534b50126772d938130d1350e23e2540370c8dffa90602090a21515811515146115d6571561167257506111bb9061166d60045461165a6111ae565b9081526001602082015261152b83610fb5565b611467565b6111bb916115ca9161169d61169361156e61168e600454610fe9565b610235565b61158d8354610235565b546116b26116ad61156e83610235565b610fb5565b556116ad6113e8565b60405163077abed160e41b8152806103b48560048301610a13565b6001600160a01b03307f00000000000000000000000000000000000000000000000000000000000000008216146118155782169182156117f857603380546001600160a01b039283166001600160a01b031991821617909155600580548216831790556008805493909216921691909117905560049060209060405163313ce56760e01b815292839182905afa600091816117c8575b5061178157506033805460ff60a01b19169055565b602460ff8216116117ab576033805460ff60a01b191660a09290921b60ff60a01b16919091179055565b60405163070613b160e11b815260ff919091166004820152602490fd5b6117ea91925060203d81116117f1575b6117e28183610ec2565b81019061186f565b903861176c565b503d6117d8565b60405163036ffb6b60e11b81529081906103b49060048301610a13565b60405162461bcd60e51b815260206004820152602c60248201527f46756e6374696f6e206d7573742062652063616c6c6564207468726f7567682060448201526b19195b1959d85d1958d85b1b60a21b6064820152608490fd5b908160209103126101c45751610320816105bf565b908160209103126101c45751610320816102f1565b156118a057565b60405162461bcd60e51b815260206004820152602a60248201527f5361666545524332303a204552433230206f7065726174696f6e20646964206e6044820152691bdd081cdd58d8d9595960b21b6064820152608490fd5b6040516001600160a01b03919091169161191182610ea7565b6020928383527f5361666545524332303a206c6f772d6c6576656c2063616c6c206661696c656484840152803b1561198857600082819282876119639796519301915af161195d6119cd565b906119fd565b8051908161197057505050565b826111bb93611983938301019101611884565b611899565b60405162461bcd60e51b815260048101859052601d60248201527f416464726573733a2063616c6c20746f206e6f6e2d636f6e74726163740000006044820152606490fd5b3d156119f8573d906119de826111bd565b916119ec6040519384610ec2565b82523d6000602084013e565b606090565b90919015611a09575090565b815115611a195750805190602001fd5b60405162461bcd60e51b8152602060048201529081906103b4906024830190610a6f565b908160209103126101c4575190565b929091606092611a5d60335461028f565b6001600160a01b0380821692919087168314611b7e5750611a7f908683611b9b565b6001948251611a8d57505050565b6040516370a0823160e01b80825296509194509091602091828480611ab53060048301610a13565b0381895afa9384156103e857600094611b57575b50816000929183858194519301915af19381611ae36119cd565b959660405192839182528180611afc3060048301610a13565b03915afa9182156103e857600092611b2a575b505010611b1857565b6040516315dace2d60e21b8152600490fd5b611b499250803d10611b50575b611b418183610ec2565b810190611a3d565b3880611b0f565b503d611b37565b6000929083929550611b7590853d8711611b5057611b418183610ec2565b94915091611ac9565b604051631c2d9a4160e31b81529081906103b49060048301610a13565b60405163a9059cbb60e01b60208201526001600160a01b03909216602483015260448083019390935291815260808101916001600160401b03831182841017610e87576111bb926040526118f8565b604080516020810192835280820193909352825290606081016001600160401b03811182821017610e87576040525190209056fec2575a0e9e593c00f959f8c92f12db2869c3395a3b0502d05e2516446f71f85ba66cc928b5edb82af9bd49922954155ab7b0942694bea4ce44661d9a8736c6885e3c1311ea442664e8b1611bfabef659120ea7a0a2cfc0667700bebc69cbffe1f652222313e28459528d920b65115c16c04f3efc82aaedc97be59f3f377c0d3f8a35acfbc15ff81a39ae7d344fd709f28e8600b4aa8c65c6b64bfe7fe36bd19ba2646970667358221220e8aba1553e4e00d377cf1b2f64385d8301fabad2c7c7ba22c86a71b714f6ff5264736f6c63430008130033",
  "linkReferences": {},
  "deployedLinkReferences": {}
}