{
  "_format": "hh-sol-artifact-1",
  "contractName": "CryptographyPrimitivesTester",
  "sourceName": "src/test-helpers/CryptographyPrimitivesTester.sol",
  "abi": [
    {
      "inputs": [
        {
          "internalType": "uint256[25]",
          "name": "input",
          "type": "uint256[25]"
        }
      ],
      "name": "keccakF",
      "outputs": [
        {
          "internalType": "uint256[25]",
          "name": "",
          "type": "uint256[25]"
        }
      ],
      "stateMutability": "pure",
      "type": "function"
    },
    {
      "inputs": [
        {
          "internalType": "bytes32[2]",
          "name": "inputChunk",
          "type": "bytes32[2]"
        },
        {
          "internalType": "bytes32",
          "name": "hashState",
          "type": "bytes32"
        }
      ],
      "name": "sha256Block",
      "outputs": [
        {
          "internalType": "bytes32",
          "name": "",
          "type": "bytes32"
        }
      ],
      "stateMutability": "pure",
      "type": "function"
    }
  ],
  "bytecode": "0x6080806040523461001a576113579081610020823930815050f35b600080fdfe608060405260048036101561001357600080fd5b60003560e01c8063ac90ed46146108475763e479f5321461003357600080fd5b606036600319011261082d57366023121561082d57604080516001600160401b039291810183811182821017610832576040526044928136851161082d5783905b85821061081d575050604051916040830183811083821117610808579060209160405280518452015193602083019485526040519461080093848701878110858211176107f35760405263428a2f9887526371374491602088015263b5c0fbcf604088015263e9b5dba56060880152633956c25b60808801526359f111f160a088015263923f82a460c088015263ab1c5ed560e08801526101009363d807aa98858901526312835b0161012089015263243185be61014089015263550c7dc36101608901526372be5d746101808901526380deb1fe6101a0890152639bdc06a76101c089015263c19bf1746101e089015263e49b69c161020089015263efbe4786610220890152630fc19dc661024089015263240ca1cc610260890152632de92c6f610280890152634a7484aa6102a0890152635cb0a9dc6102c08901526376f988da6102e089015263983e515261030089015263a831c66d61032089015263b00327c861034089015263bf597fc761036089015263c6e00bf361038089015263d5a791476103a08901526306ca63516103c089015263142929676103e08901526327b70a85610400890152632e1b2138610420890152634d2c6dfc6104408901526353380d1361046089015263650a735461048089015263766a0abb6104a08901526381c2c92e6104c08901526392722c856104e089015263a2bfe8a161050089015263a81a664b61052089015263c24b8b7061054089015263c76c51a361056089015263d192e81961058089015263d69906246105a089015263f40e35856105c089015263106aa0706105e08901526319a4c116610600890152631e376c08610620890152632748774c6106408901526334b0bcb561066089015263391c0cb3610680890152634ed8aa4a6106a0890152635b9cca4f6106c089015263682e6ff36106e089015263748f82ee6107008901526378a5636f6107208901526384c87814610740890152638cc702086107608901526390befffa61078089015263a4506ceb6107a089015263bef9a3f76107c089015263c67178f26107e089015260405195808701878110838211176107de5760405236873760005b600863ffffffff828116828110156103e657916103de8263ffffffff95936001958d6103ce8b51928480808b60051b1660e0031694851c16926112e9565b528a51901c16928401168b6112e9565b520116610390565b848c8b8b8b8f60105b63ffffffff80821690604082101561050757916001916104ff84898181816104f263ffffffff9a600e198a011683838b816104b68161042e87876112e9565b51631fffffff6104496104418a8a6112e9565b5199896112e9565b5160031c1690623fffff610479600119880185166104728161046b818e6112e9565b519c6112e9565b519e6112e9565b51600a1c1698613fff63ffffc00082600e1b169160121c1617906301ffffff63fe0000008260191b169160071c1617181893600f1901168b6112e9565b5116011694611fff63ffffe00082600d1b169160131c161790617fff63ffff800082600f1b169160111c1617181894826006198b0116906112e9565b51160116011691896112e9565b5201166103ef565b505050939190946040519482860191868310908311176107c9575060405236843760005b63ffffffff808216906008821015610568579160019161056063ffffffff94893581808660051b1660e003161c169188611310565b52011661052b565b5050509060005b604063ffffffff8216101561072b5760808401518060071b63ffffff80168160191c607f16178160151b63ffe000001682600b1c621fffff161782601a1b63fc000000168360061c6303ffffff1617181860e086015163ffffffff160163ffffffff1660a08601519060c08701519263ffffffff85166105ef90886112e9565b5163ffffffff169263ffffffff861661060890886112e9565b5163ffffffff169463ffffffff8316191663ffffffff16911663ffffffff16180163ffffffff160163ffffffff160163ffffffff168451602086015163ffffffff811690604088015163ffffffff81169160c08a015163ffffffff1660e08b015260a08a015163ffffffff1660c08b015260808a015163ffffffff1660a08b01528560608b015163ffffffff160163ffffffff1660808b01528260608b01528360408b015263ffffffff851660208b01521663ffffffff169118821663ffffffff16189080600a1b63fffffc00168160161c6103ff1617908060131b63fff800001681600d1c6207ffff16179080601e1b63c0000000169060021c633fffffff161718180163ffffffff160163ffffffff168452600163ffffffff91011661056f565b838560005b63ffffffff80821691600883101561077c5763ffffffff9261077483600194873581808760051b1660e003161c1681610769858b611310565b511601169187611310565b520116610730565b846000805b63ffffffff80831660088110156107be5791816001926107a663ffffffff9588611310565b511690808660051b1660e003161b1792011690610781565b602083604051908152f35b604190634e487b7160e01b6000525260246000fd5b604189634e487b7160e01b6000525260246000fd5b604187634e487b7160e01b6000525260246000fd5b604185634e487b7160e01b6000525260246000fd5b8135815260209182019101610074565b600080fd5b604183634e487b7160e01b6000525260246000fd5b5061032036600319011261082d57366023121561082d57610866611294565b906103248236821161082d5782905b828210611284575050506103203661088b611294565b3761032036610898611294565b376108a16112ca565b9060a03683376108af6112ca565b60a03682376108bc611294565b91610320368437604051906103008201906001600160401b038211838310176107c95750604090815260018252618082602083015267800000000000808a90820152678000000080008000606082015261808b6080820152638000000160a0820181905267800000008000808160c0830181905267800000000000800960e0840152608a61010084015260886101208401526380008009610140840152638000000a610160840152638000808b610180840152608b6001603f1b016101a08401526780000000000080896101c08401526780000000000080036101e084015267800000000000800261020084015260806001603f1b0161022084015261800a61024084015267800000008000000a6102608401526102808301526780000000000080806102a08301526102c08201526780000000800080086102e082015260005b60188110610a3157604051866000825b60198210610a1b5761032084f35b6020806001928551815201930191019091610a0d565b6001908651602088015118604088015118606088015118608088015118865260a087015160c08801511860e088015118610100880151186101208801511880602088015261014088015161016089015118610180890151186101a0890151186101c08901511860408801526101e08801516102008901511861022089015118610240890151186102608901511860608801526102808801516102a0890151186102c0890151186102e089015118610300890151189081608089015280603f1c90848060401b0390851b1617188085528651604088015180603f1c90858060401b0390861b16171860208601526020870151606088015180603f1c90858060401b0390861b16171860408601526040870151608088015180603f1c90858060401b0390861b16171860608601526060870151875180603f1c90858060401b0390861b16171860808601528751188088526020880151855118602089015260408801518551186040890152606088015185511860608901526080880151855118608089015260a088015160208601511860a089015260c088015160208601511860c089015260e088015160208601511860e08901526101008801516020860151186101008901526101208801516020860151186101208901526101408801516040860151186101408901526101608801516040860151186101608901526101808801516040860151186101808901526101a08801516040860151186101a08901526101c08801516040860151186101c08901526101e08801516060860151186101e08901526102008801516060860151186102008901526102208801516060860151186102208901526102408801516060860151186102408901526102608801516060860151186102608901526102808801516080860151186102808901526102a08801516080860151186102a08901526102c08801516080860151186102c08901526102e08801516080860151186102e0890152610300880151608086015118610300890152808652602088015180601c1c90848060401b039060241b1617610100870152604088015180603d1c90848060401b039060031b161761016087015260608801518060171c90848060401b039060291b1617610260870152608088015180602e1c90848060401b039060121b16176102c087015260a088015180603f1c90848060401b0390851b1617604087015260c0880151908160141c848060401b0383602c1b161760a088015260e08901518060361c90858060401b0390600a1b16176101a08801526101008901518060131c90858060401b0390602d1b1617610200880152610120890151603e60029180821c90878060401b0390841b16176103008a01526101408b015180921c91868060401b03911b1617608088015261016089015180603a1c90858060401b039060061b161760e0880152610180890151918260151c858060401b0384602b1b16176101408901526101a08a01518060311c90868060401b0390600f1b16176102408901526101c08a01518060031c90868060401b0390603d1b16176102a08901526101e08a01518060241c90868060401b0390601c1b161760208901526102008a01518060091c90868060401b039060371b16176101208901526102208a01518060271c90868060401b039060191b16176101808901526102408a015180602b1c90868060401b039060151b16176101e08901526102608a01518060081c90868060401b039060381b16176102e08901526102808a01518060251c90868060401b0390601b1b161760608901526102a08a015180602c1c90868060401b039060141b161760c08901526102c08a01518060191c90868060401b039060271b16176101c08901526102e08a01518060381c90868060401b039060081b16176102208901526103008a01518060321c90868060401b0390600e1b16176102808901528260151c858060401b0384602b1b16178160141c868060401b0383602c1b1617191682188a52602088015160c0890151196101608a0151161860208b0152604088015160e0890151196101808a0151161860408b01526060880151610100890151196101a08a0151161860608b01526080880151610120890151196101c08a0151161860808b015260a0880151610140890151196101e08a0151161860a08b015260c0880151610160890151196102008a0151161860c08b015260e0880151610180890151196102208a0151161860e08b01526101008801516101a0890151196102408a015116186101008b01526101208801516101c0890151196102608a015116186101208b01526101408801516101e0890151196102808a015116186101408b0152610160880151610200890151196102a08a015116186101608b0152610180880151610220890151196102c08a015116186101808b01526101a0880151610240890151196102e08a015116186101a08b01526101c0880151610260890151196103008a015116186101c08b01526101e088015161028089015119895116186101e08b01526102008801516102a08901511960208a015116186102008b01526102208801516102c08901511960408a015116186102208b01526102408801516102e08901511960608a015116186102408b01526102608801516103008901511960808a015116186102608b015261028088015188511960a08a015116186102808b01526102a088015160208901511960c08a015116186102a08b01526102c088015160408901511960e08a015116186102c08b01526102e08801516060890151196101008a015116186102e08b01526103008801516080890151196101208a015116186103008b01528360051b860151928060151c90868060401b0390602b1b1617908060141c90868060401b0390602c1b1617191618188752016109fd565b8135815260209182019101610875565b6040519061032082016001600160401b038111838210176112b457604052565b634e487b7160e01b600052604160045260246000fd5b6040519060a082016001600160401b038111838210176112b457604052565b9060408110156112fa5760051b0190565b634e487b7160e01b600052603260045260246000fd5b9060088110156112fa5760051b019056fea2646970667358221220ec29109748169e26a8050f7ed58170b7984573f76fa9fd02463a6e0d1297b7f364736f6c63430008130033",
  "linkReferences": {},
  "deployedLinkReferences": {}
}