{
  "_format": "hh-sol-artifact-1",
  "contractName": "BridgeTester",
  "sourceName": "src/test-helpers/BridgeTester.sol",
  "abi": [
    {
      "inputs": [
        {
          "internalType": "address",
          "name": "addr",
          "type": "address"
        }
      ],
      "name": "NotContract",
      "type": "error"
    },
    {
      "inputs": [
        {
          "internalType": "address",
          "name": "sender",
          "type": "address"
        }
      ],
      "name": "NotDelayedInbox",
      "type": "error"
    },
    {
      "inputs": [
        {
          "internalType": "address",
          "name": "sender",
          "type": "address"
        }
      ],
      "name": "NotOutbox",
      "type": "error"
    },
    {
      "inputs": [
        {
          "internalType": "address",
          "name": "sender",
          "type": "address"
        },
        {
          "internalType": "address",
          "name": "rollup",
          "type": "address"
        },
        {
          "internalType": "address",
          "name": "owner",
          "type": "address"
        }
      ],
      "name": "NotRollupOrOwner",
      "type": "error"
    },
    {
      "anonymous": false,
      "inputs": [
        {
          "indexed": true,
          "internalType": "address",
          "name": "outbox",
          "type": "address"
        },
        {
          "indexed": true,
          "internalType": "address",
          "name": "to",
          "type": "address"
        },
        {
          "indexed": false,
          "internalType": "uint256",
          "name": "value",
          "type": "uint256"
        },
        {
          "indexed": false,
          "internalType": "bytes",
          "name": "data",
          "type": "bytes"
        }
      ],
      "name": "BridgeCallTriggered",
      "type": "event"
    },
    {
      "anonymous": false,
      "inputs": [
        {
          "indexed": true,
          "internalType": "address",
          "name": "inbox",
          "type": "address"
        },
        {
          "indexed": false,
          "internalType": "bool",
          "name": "enabled",
          "type": "bool"
        }
      ],
      "name": "InboxToggle",
      "type": "event"
    },
    {
      "anonymous": false,
      "inputs": [
        {
          "indexed": true,
          "internalType": "uint256",
          "name": "messageIndex",
          "type": "uint256"
        },
        {
          "indexed": true,
          "internalType": "bytes32",
          "name": "beforeInboxAcc",
          "type": "bytes32"
        },
        {
          "indexed": false,
          "internalType": "address",
          "name": "inbox",
          "type": "address"
        },
        {
          "indexed": false,
          "internalType": "uint8",
          "name": "kind",
          "type": "uint8"
        },
        {
          "indexed": false,
          "internalType": "address",
          "name": "sender",
          "type": "address"
        },
        {
          "indexed": false,
          "internalType": "bytes32",
          "name": "messageDataHash",
          "type": "bytes32"
        },
        {
          "indexed": false,
          "internalType": "uint256",
          "name": "baseFeeL1",
          "type": "uint256"
        },
        {
          "indexed": false,
          "internalType": "uint64",
          "name": "timestamp",
          "type": "uint64"
        }
      ],
      "name": "MessageDelivered",
      "type": "event"
    },
    {
      "anonymous": false,
      "inputs": [
        {
          "indexed": true,
          "internalType": "address",
          "name": "outbox",
          "type": "address"
        },
        {
          "indexed": false,
          "internalType": "bool",
          "name": "enabled",
          "type": "bool"
        }
      ],
      "name": "OutboxToggle",
      "type": "event"
    },
    {
      "anonymous": false,
      "inputs": [
        {
          "indexed": false,
          "internalType": "address",
          "name": "rollup",
          "type": "address"
        }
      ],
      "name": "RollupUpdated",
      "type": "event"
    },
    {
      "anonymous": false,
      "inputs": [
        {
          "indexed": false,
          "internalType": "address",
          "name": "newSequencerInbox",
          "type": "address"
        }
      ],
      "name": "SequencerInboxUpdated",
      "type": "event"
    },
    {
      "inputs": [],
      "name": "acceptFundsFromOldBridge",
      "outputs": [],
      "stateMutability": "payable",
      "type": "function"
    },
    {
      "inputs": [],
      "name": "activeOutbox",
      "outputs": [
        {
          "internalType": "address",
          "name": "",
          "type": "address"
        }
      ],
      "stateMutability": "view",
      "type": "function"
    },
    {
      "inputs": [
        {
          "internalType": "uint256",
          "name": "",
          "type": "uint256"
        }
      ],
      "name": "allowedDelayedInboxList",
      "outputs": [
        {
          "internalType": "address",
          "name": "",
          "type": "address"
        }
      ],
      "stateMutability": "view",
      "type": "function"
    },
    {
      "inputs": [
        {
          "internalType": "address",
          "name": "inbox",
          "type": "address"
        }
      ],
      "name": "allowedDelayedInboxes",
      "outputs": [
        {
          "internalType": "bool",
          "name": "",
          "type": "bool"
        }
      ],
      "stateMutability": "view",
      "type": "function"
    },
    {
      "inputs": [
        {
          "internalType": "uint256",
          "name": "",
          "type": "uint256"
        }
      ],
      "name": "allowedOutboxList",
      "outputs": [
        {
          "internalType": "address",
          "name": "",
          "type": "address"
        }
      ],
      "stateMutability": "view",
      "type": "function"
    },
    {
      "inputs": [
        {
          "internalType": "address",
          "name": "outbox",
          "type": "address"
        }
      ],
      "name": "allowedOutboxes",
      "outputs": [
        {
          "internalType": "bool",
          "name": "",
          "type": "bool"
        }
      ],
      "stateMutability": "view",
      "type": "function"
    },
    {
      "inputs": [
        {
          "internalType": "uint256",
          "name": "",
          "type": "uint256"
        }
      ],
      "name": "delayedInboxAccs",
      "outputs": [
        {
          "internalType": "bytes32",
          "name": "",
          "type": "bytes32"
        }
      ],
      "stateMutability": "view",
      "type": "function"
    },
    {
      "inputs": [],
      "name": "delayedMessageCount",
      "outputs": [
        {
          "internalType": "uint256",
          "name": "",
          "type": "uint256"
        }
      ],
      "stateMutability": "view",
      "type": "function"
    },
    {
      "inputs": [
        {
          "internalType": "uint8",
          "name": "kind",
          "type": "uint8"
        },
        {
          "internalType": "address",
          "name": "sender",
          "type": "address"
        },
        {
          "internalType": "bytes32",
          "name": "messageDataHash",
          "type": "bytes32"
        }
      ],
      "name": "enqueueDelayedMessage",
      "outputs": [
        {
          "internalType": "uint256",
          "name": "",
          "type": "uint256"
        }
      ],
      "stateMutability": "payable",
      "type": "function"
    },
    {
      "inputs": [
        {
          "internalType": "bytes32",
          "name": "dataHash",
          "type": "bytes32"
        },
        {
          "internalType": "uint256",
          "name": "afterDelayedMessagesRead",
          "type": "uint256"
        },
        {
          "internalType": "uint256",
          "name": "prevMessageCount",
          "type": "uint256"
        },
        {
          "internalType": "uint256",
          "name": "newMessageCount",
          "type": "uint256"
        }
      ],
      "name": "enqueueSequencerMessage",
      "outputs": [
        {
          "internalType": "uint256",
          "name": "seqMessageIndex",
          "type": "uint256"
        },
        {
          "internalType": "bytes32",
          "name": "beforeAcc",
          "type": "bytes32"
        },
        {
          "internalType": "bytes32",
          "name": "delayedAcc",
          "type": "bytes32"
        },
        {
          "internalType": "bytes32",
          "name": "acc",
          "type": "bytes32"
        }
      ],
      "stateMutability": "nonpayable",
      "type": "function"
    },
    {
      "inputs": [
        {
          "internalType": "address",
          "name": "to",
          "type": "address"
        },
        {
          "internalType": "uint256",
          "name": "value",
          "type": "uint256"
        },
        {
          "internalType": "bytes",
          "name": "data",
          "type": "bytes"
        }
      ],
      "name": "executeCall",
      "outputs": [
        {
          "internalType": "bool",
          "name": "success",
          "type": "bool"
        },
        {
          "internalType": "bytes",
          "name": "returnData",
          "type": "bytes"
        }
      ],
      "stateMutability": "nonpayable",
      "type": "function"
    },
    {
      "inputs": [
        {
          "internalType": "contract IOwnable",
          "name": "rollup_",
          "type": "address"
        }
      ],
      "name": "initialize",
      "outputs": [],
      "stateMutability": "nonpayable",
      "type": "function"
    },
    {
      "inputs": [],
      "name": "nativeToken",
      "outputs": [
        {
          "internalType": "address",
          "name": "",
          "type": "address"
        }
      ],
      "stateMutability": "view",
      "type": "function"
    },
    {
      "inputs": [],
      "name": "nativeTokenDecimals",
      "outputs": [
        {
          "internalType": "uint8",
          "name": "",
          "type": "uint8"
        }
      ],
      "stateMutability": "view",
      "type": "function"
    },
    {
      "inputs": [],
      "name": "rollup",
      "outputs": [
        {
          "internalType": "contract IOwnable",
          "name": "",
          "type": "address"
        }
      ],
      "stateMutability": "view",
      "type": "function"
    },
    {
      "inputs": [],
      "name": "sequencerInbox",
      "outputs": [
        {
          "internalType": "address",
          "name": "",
          "type": "address"
        }
      ],
      "stateMutability": "view",
      "type": "function"
    },
    {
      "inputs": [
        {
          "internalType": "uint256",
          "name": "",
          "type": "uint256"
        }
      ],
      "name": "sequencerInboxAccs",
      "outputs": [
        {
          "internalType": "bytes32",
          "name": "",
          "type": "bytes32"
        }
      ],
      "stateMutability": "view",
      "type": "function"
    },
    {
      "inputs": [],
      "name": "sequencerMessageCount",
      "outputs": [
        {
          "internalType": "uint256",
          "name": "",
          "type": "uint256"
        }
      ],
      "stateMutability": "view",
      "type": "function"
    },
    {
      "inputs": [],
      "name": "sequencerReportedSubMessageCount",
      "outputs": [
        {
          "internalType": "uint256",
          "name": "",
          "type": "uint256"
        }
      ],
      "stateMutability": "view",
      "type": "function"
    },
    {
      "inputs": [
        {
          "internalType": "address",
          "name": "inbox",
          "type": "address"
        },
        {
          "internalType": "bool",
          "name": "enabled",
          "type": "bool"
        }
      ],
      "name": "setDelayedInbox",
      "outputs": [],
      "stateMutability": "nonpayable",
      "type": "function"
    },
    {
      "inputs": [
        {
          "internalType": "address",
          "name": "outbox",
          "type": "address"
        },
        {
          "internalType": "bool",
          "name": "enabled",
          "type": "bool"
        }
      ],
      "name": "setOutbox",
      "outputs": [],
      "stateMutability": "nonpayable",
      "type": "function"
    },
    {
      "inputs": [
        {
          "internalType": "address",
          "name": "_sequencerInbox",
          "type": "address"
        }
      ],
      "name": "setSequencerInbox",
      "outputs": [],
      "stateMutability": "nonpayable",
      "type": "function"
    },
    {
      "inputs": [
        {
          "internalType": "address",
          "name": "batchPoster",
          "type": "address"
        },
        {
          "internalType": "bytes32",
          "name": "dataHash",
          "type": "bytes32"
        }
      ],
      "name": "submitBatchSpendingReport",
      "outputs": [
        {
          "internalType": "uint256",
          "name": "",
          "type": "uint256"
        }
      ],
      "stateMutability": "nonpayable",
      "type": "function"
    },
    {
      "inputs": [
        {
          "internalType": "contract IOwnable",
          "name": "_rollup",
          "type": "address"
        }
      ],
      "name": "updateRollupAddress",
      "outputs": [],
      "stateMutability": "nonpayable",
      "type": "function"
    },
    {
      "stateMutability": "payable",
      "type": "receive"
    }
  ],
  "bytecode": "0x60a08060405234610020573060805261111390816100268239608051815050f35b600080fdfe6080604081815260049182361015610022575b505050361561002057600080fd5b005b600092833560e01c91826284120c14610b955750816316bf557914610b65578163413b35bd14610b2357816347fb24c514610a875781634f61f8501461099b5781635fca4a161461097c5781637a88b1071461095757816386598a561461092a5781638db5993b14610721578163919cc706146106e4578163945e1147146106a45781639e5d4c49146104ac578163ab5d89431461047e578163ad48cb5e14610459578163ae60bd1314610418578163c4d66de814610321578163cb23bcb5146102f8578163cee3d7281461023b578163d5719dc214610202578163e1758bd8146101d9578163e76f5c8d1461019457508063e77145f414610182578063eca067ad146101645763ee35f327146101395780610012565b3461016057816003193601126101605760075490516001600160a01b039091168152602090f35b5080fd5b50346101605781600319360112610160576020906009549051908152f35b82806003193601126101915780f35b80fd5b9050346101d55760203660031901126101d557359160035483101561019157506101bf602092610bfd565b60018060a01b0391549060031b1c169051908152f35b8280fd5b50503461016057816003193601126101605760085490516001600160a01b039091168152602090f35b9050346101d55760203660031901126101d5573591600954831015610191575061022d602092610bb1565b91905490519160031b1c8152f35b839150346101605761024c36610c33565b9160018060a01b03806006541695863303610270575b8561026d8686610f0a565b80f35b8051638da5cb5b60e01b81529160208385818b5afa9283156102ee5787936102be575b5082163303156102625751630739600760e01b81529182916102ba91889033908501610cd5565b0390fd5b6102e091935060203d81116102e7575b6102d88183610c93565b810190610cb6565b9188610293565b503d6102ce565b82513d89823e3d90fd5b50503461016057816003193601126101605760065490516001600160a01b039091168152602090f35b919050346101d55760203660031901126101d5576001600160a01b03823581811692908390036104145784549360ff8560081c16918260001461040a57303b155b156103b057505015928361039f575b5060018060a01b03199081600554161760055560065416176006556103935780f35b805461ff001916815580f35b61ffff191661010117845538610371565b906020608492519162461bcd60e51b8352820152602e60248201527f496e697469616c697a61626c653a20636f6e747261637420697320616c72656160448201526d191e481a5b9a5d1a585b1a5e995960921b6064820152fd5b60ff861615610362565b8480fd5b5050346101605760203660031901126101605760209160ff9060019083906001600160a01b03610446610c18565b1681528286522001541690519015158152f35b50503461016057816003193601126101605760209060ff60085460a01c169051908152f35b50503461016057816003193601126101605760209061049b610cf8565b90516001600160a01b039091168152f35b8284346101915760609182600319360112610160576104c9610c18565b916044356001600160401b03602480359082841161041457366023850112156104145783890135908382116106a05780850194818336920101116106a0573386526020946002865260ff60018989200154161561068c5782151580610683575b610666576005549160018060a01b031990338285161760055588808c8c518887823789818a810185815203925af19c3d15610643573d9788116106325750506000805160206110be833981519152929184918a51976105918a601f19601f840116018a610c93565b88523d8a8a8a013e9c99979c9a98969a5b60018060a01b038094169060055416176005558751958652878d87015281888701528b860137848a8486010152601f19961692898188601f339601168101030190a381519687941515855282818601528551809386015281955b83871061061a5750508394508582601f949501015201168101030190f35b868101820151898801890152958101958895506105fc565b634e487b7160e01b8a526041905288fd5b5050945090826000805160206110be833981519152928b9a98969c99979c6105a2565b50865163b5cf5b8f60e01b81526001600160a01b038916818c0152fd5b50883b15610529565b5086516332ea82ab60e01b815233818c0152fd5b8580fd5b828434610191576020366003190112610191578235925483101561019157506106ce602092610be2565b905491519160018060a01b039160031b1c168152f35b83903461016057602036600319011261016057356001600160a01b0381169081900361016057600680546001600160a01b03191691909117905580f35b838360603660031901126101605782359160ff8316938484036101605760248035916001600160a01b038316908184036104145760443592338652600160205260ff60018888200154161561091557600954875160f89990991b6001600160f81b03191660208a0190815260609690961b6001600160601b03191660218a01524360c090811b6001600160c01b031990811660358c015242821b16603d8b015260458a018290524860658b01526085808b018790528a5290986001600160401b0396918101878111828210176109035789525190208690896108ce575b885160208101918983528a82015289815260608101818110898211176108bb578a5251902092600160401b8a10156108ab575050509686937f5e3c1311ea442664e8b1611bfabef659120ea7a0a2cfc0667700bebc69cbffe19360c09360209a6001880160095561086e88610bb1565b819291549060031b91821b91600019901b19161790558851933385528b850152888401526060830152486080830152421660a0820152a351908152f35b634e487b7160e01b825260419052fd5b5050634e487b7160e01b82525060418352fd5b965060001989018981116108f2576108e590610bb1565b90549060031b1c966107fe565b50634e487b7160e01b815260118352fd5b634e487b7160e01b8952604185528389fd5b9086519063b6c60ea360e01b82523390820152fd5b50503461016057608036600319011261016057816080928251928184528160208501528301526060820152f35b50503461016057806003193601126101605790602091610975610c18565b5051908152f35b505034610160578160031936011261016057602090600b549051908152f35b9050346101d55760203660031901126101d5576109b6610c18565b6006546001600160a01b03929083169033829003610a11575b857f8c1e6003ed33ca6748d4ad3dd4ecc949065c89dceb31fdf546a5289202763c6a602087878716908160018060a01b0319600754161760075551908152a180f35b8451638da5cb5b60e01b81526020818381865afa908115610a7d578791610a5f575b508481163303610a4357506109cf565b6102ba908651938493630739600760e01b855233908501610cd5565b610a77915060203d81116102e7576102d88183610c93565b38610a33565b86513d89823e3d90fd5b8391503461016057610a9836610c33565b9160018060a01b03806006541695863303610ab9575b8561026d8686610d34565b8051638da5cb5b60e01b81529160208385818b5afa9283156102ee578793610b03575b508216330315610aae5751630739600760e01b81529182916102ba91889033908501610cd5565b610b1c91935060203d81116102e7576102d88183610c93565b9188610adc565b5050346101605760203660031901126101605760209160ff9060019083906001600160a01b03610b51610c18565b168152600286522001541690519015158152f35b9050346101d55760203660031901126101d55735600a548110156101d557602083600a8295522001549051908152f35b849034610160578160031936011261016057602090600a548152f35b600954811015610bcc57600960005260206000200190600090565b634e487b7160e01b600052603260045260246000fd5b600454811015610bcc57600460005260206000200190600090565b600354811015610bcc57600360005260206000200190600090565b600435906001600160a01b0382168203610c2e57565b600080fd5b6040906003190112610c2e576004356001600160a01b0381168103610c2e57906024358015158103610c2e5790565b604081019081106001600160401b03821117610c7d57604052565b634e487b7160e01b600052604160045260246000fd5b601f909101601f19168101906001600160401b03821190821017610c7d57604052565b90816020910312610c2e57516001600160a01b0381168103610c2e5790565b6001600160a01b0391821681529181166020830152909116604082015260600190565b6005546001600160a01b03908116908114610d105790565b50600090565b919082549060031b9160018060a01b03809116831b921b1916179055565b9060018060a01b03808316916000928084526001926020928484526040918287209160ff87840154168451867f6675ce8882cb71637de5903a193d218cc0544be9c0650cb83e0955f6aa2bf5218985159384158152a28180610f02575b8215610ee9575b5050610ede5715610e25575050610de5929184918260035494825195610dbd87610c62565b86528086019382855289525286209251835551151591019060ff801983541691151516179055565b60035491600160401b831015610e11575081610e0991610e0f949301600355610bfd565b90610d16565b565b634e487b7160e01b81526041600452602490fd5b9091949596506003549160001992838101908111610eca5782610e4a610e5c92610bfd565b90549060031b1c16610e098354610bfd565b5490610e6782610bfd565b90549060031b1c168752858452848720556003548015610eb6578593929101610ea7610e9282610bfd565b81549060018060a01b039060031b1b19169055565b60035585525282208281550155565b634e487b7160e01b87526031600452602487fd5b634e487b7160e01b89526011600452602489fd5b505050505050505050565b15915081610efa575b503880610d98565b905038610ef2565b839250610d91565b9060018060a01b0390818316600092818452602092600284526040918286209160ff6001840154168451867f49477e7356dbcb654ab85d7534b50126772d938130d1350e23e2540370c8dffa8985159384158152a281806110b5575b821561109c575b50506110925715610fe1575050610fbc9291600191600260045494825195610f9487610c62565b86528086019385855288525285209251835551151591019060ff801983541691151516179055565b60045490600160401b821015610e11575090610e09826001610e0f9401600455610be2565b9091949550600454916000199283810190811161107e5761100461101f91610be2565b9054846110118554610be2565b92909360031b1c1691610d16565b549061102a82610be2565b90549060031b1c1686526002845284862055600454801561106a579160019493916002930161105b610e9282610be2565b60045585525282208281550155565b634e487b7160e01b86526031600452602486fd5b634e487b7160e01b88526011600452602488fd5b5050505050505050565b159150816110ad575b503880610f6d565b9050386110a5565b839250610f6656fe2d9d115ef3e4a606d698913b1eae831a3cdfe20d9a83d48007b0526749c3d466a2646970667358221220ce687baaf9dca17bacb824309a8fc87c9023e0c6d28a4391ee4aa14ba785620464736f6c63430008130033",
  "linkReferences": {},
  "deployedLinkReferences": {}
}