{
  "_format": "hh-sol-artifact-1",
  "contractName": "SequencerInboxStub",
  "sourceName": "src/mocks/SequencerInboxStub.sol",
  "abi": [
    {
      "inputs": [
        {
          "internalType": "contract IBridge",
          "name": "bridge_",
          "type": "address"
        },
        {
          "internalType": "address",
          "name": "sequencer_",
          "type": "address"
        },
        {
          "components": [
            {
              "internalType": "uint256",
              "name": "delayBlocks",
              "type": "uint256"
            },
            {
              "internalType": "uint256",
              "name": "futureBlocks",
              "type": "uint256"
            },
            {
              "internalType": "uint256",
              "name": "delaySeconds",
              "type": "uint256"
            },
            {
              "internalType": "uint256",
              "name": "futureSeconds",
              "type": "uint256"
            }
          ],
          "internalType": "struct ISequencerInbox.MaxTimeVariation",
          "name": "maxTimeVariation_",
          "type": "tuple"
        },
        {
          "internalType": "uint256",
          "name": "maxDataSize_",
          "type": "uint256"
        },
        {
          "internalType": "contract IReader4844",
          "name": "reader4844_",
          "type": "address"
        },
        {
          "internalType": "bool",
          "name": "isUsingFeeToken_",
          "type": "bool"
        }
      ],
      "stateMutability": "nonpayable",
      "type": "constructor"
    },
    {
      "inputs": [],
      "name": "AlreadyInit",
      "type": "error"
    },
    {
      "inputs": [
        {
          "internalType": "bytes32",
          "name": "",
          "type": "bytes32"
        }
      ],
      "name": "AlreadyValidDASKeyset",
      "type": "error"
    },
    {
      "inputs": [],
      "name": "BadMaxTimeVariation",
      "type": "error"
    },
    {
      "inputs": [],
      "name": "BadPostUpgradeInit",
      "type": "error"
    },
    {
      "inputs": [
        {
          "internalType": "uint256",
          "name": "stored",
          "type": "uint256"
        },
        {
          "internalType": "uint256",
          "name": "received",
          "type": "uint256"
        }
      ],
      "name": "BadSequencerNumber",
      "type": "error"
    },
    {
      "inputs": [],
      "name": "DataBlobsNotSupported",
      "type": "error"
    },
    {
      "inputs": [
        {
          "internalType": "uint256",
          "name": "dataLength",
          "type": "uint256"
        },
        {
          "internalType": "uint256",
          "name": "maxDataLength",
          "type": "uint256"
        }
      ],
      "name": "DataTooLarge",
      "type": "error"
    },
    {
      "inputs": [],
      "name": "DelayedBackwards",
      "type": "error"
    },
    {
      "inputs": [],
      "name": "DelayedTooFar",
      "type": "error"
    },
    {
      "inputs": [],
      "name": "Deprecated",
      "type": "error"
    },
    {
      "inputs": [],
      "name": "ForceIncludeBlockTooSoon",
      "type": "error"
    },
    {
      "inputs": [],
      "name": "ForceIncludeTimeTooSoon",
      "type": "error"
    },
    {
      "inputs": [],
      "name": "HadZeroInit",
      "type": "error"
    },
    {
      "inputs": [],
      "name": "IncorrectMessagePreimage",
      "type": "error"
    },
    {
      "inputs": [
        {
          "internalType": "string",
          "name": "name",
          "type": "string"
        }
      ],
      "name": "InitParamZero",
      "type": "error"
    },
    {
      "inputs": [],
      "name": "InvalidCelestiaBatch",
      "type": "error"
    },
    {
      "inputs": [
        {
          "internalType": "bytes1",
          "name": "",
          "type": "bytes1"
        }
      ],
      "name": "InvalidHeaderFlag",
      "type": "error"
    },
    {
      "inputs": [],
      "name": "MissingDataHashes",
      "type": "error"
    },
    {
      "inputs": [],
      "name": "NativeTokenMismatch",
      "type": "error"
    },
    {
      "inputs": [
        {
          "internalType": "bytes32",
          "name": "",
          "type": "bytes32"
        }
      ],
      "name": "NoSuchKeyset",
      "type": "error"
    },
    {
      "inputs": [],
      "name": "NotBatchPoster",
      "type": "error"
    },
    {
      "inputs": [
        {
          "internalType": "address",
          "name": "",
          "type": "address"
        }
      ],
      "name": "NotBatchPosterManager",
      "type": "error"
    },
    {
      "inputs": [],
      "name": "NotForked",
      "type": "error"
    },
    {
      "inputs": [],
      "name": "NotOrigin",
      "type": "error"
    },
    {
      "inputs": [
        {
          "internalType": "address",
          "name": "sender",
          "type": "address"
        },
        {
          "internalType": "address",
          "name": "owner",
          "type": "address"
        }
      ],
      "name": "NotOwner",
      "type": "error"
    },
    {
      "inputs": [],
      "name": "RollupNotChanged",
      "type": "error"
    },
    {
      "anonymous": false,
      "inputs": [
        {
          "indexed": true,
          "internalType": "uint256",
          "name": "messageNum",
          "type": "uint256"
        },
        {
          "indexed": false,
          "internalType": "bytes",
          "name": "data",
          "type": "bytes"
        }
      ],
      "name": "InboxMessageDelivered",
      "type": "event"
    },
    {
      "anonymous": false,
      "inputs": [
        {
          "indexed": true,
          "internalType": "uint256",
          "name": "messageNum",
          "type": "uint256"
        }
      ],
      "name": "InboxMessageDeliveredFromOrigin",
      "type": "event"
    },
    {
      "anonymous": false,
      "inputs": [
        {
          "indexed": true,
          "internalType": "bytes32",
          "name": "keysetHash",
          "type": "bytes32"
        }
      ],
      "name": "InvalidateKeyset",
      "type": "event"
    },
    {
      "anonymous": false,
      "inputs": [
        {
          "indexed": true,
          "internalType": "uint256",
          "name": "id",
          "type": "uint256"
        }
      ],
      "name": "OwnerFunctionCalled",
      "type": "event"
    },
    {
      "anonymous": false,
      "inputs": [
        {
          "indexed": true,
          "internalType": "uint256",
          "name": "batchSequenceNumber",
          "type": "uint256"
        },
        {
          "indexed": false,
          "internalType": "bytes",
          "name": "data",
          "type": "bytes"
        }
      ],
      "name": "SequencerBatchData",
      "type": "event"
    },
    {
      "anonymous": false,
      "inputs": [
        {
          "indexed": true,
          "internalType": "uint256",
          "name": "batchSequenceNumber",
          "type": "uint256"
        },
        {
          "indexed": true,
          "internalType": "bytes32",
          "name": "beforeAcc",
          "type": "bytes32"
        },
        {
          "indexed": true,
          "internalType": "bytes32",
          "name": "afterAcc",
          "type": "bytes32"
        },
        {
          "indexed": false,
          "internalType": "bytes32",
          "name": "delayedAcc",
          "type": "bytes32"
        },
        {
          "indexed": false,
          "internalType": "uint256",
          "name": "afterDelayedMessagesRead",
          "type": "uint256"
        },
        {
          "components": [
            {
              "internalType": "uint64",
              "name": "minTimestamp",
              "type": "uint64"
            },
            {
              "internalType": "uint64",
              "name": "maxTimestamp",
              "type": "uint64"
            },
            {
              "internalType": "uint64",
              "name": "minBlockNumber",
              "type": "uint64"
            },
            {
              "internalType": "uint64",
              "name": "maxBlockNumber",
              "type": "uint64"
            }
          ],
          "indexed": false,
          "internalType": "struct IBridge.TimeBounds",
          "name": "timeBounds",
          "type": "tuple"
        },
        {
          "indexed": false,
          "internalType": "enum IBridge.BatchDataLocation",
          "name": "dataLocation",
          "type": "uint8"
        }
      ],
      "name": "SequencerBatchDelivered",
      "type": "event"
    },
    {
      "anonymous": false,
      "inputs": [
        {
          "indexed": true,
          "internalType": "bytes32",
          "name": "keysetHash",
          "type": "bytes32"
        },
        {
          "indexed": false,
          "internalType": "bytes",
          "name": "keysetBytes",
          "type": "bytes"
        }
      ],
      "name": "SetValidKeyset",
      "type": "event"
    },
    {
      "inputs": [],
      "name": "BLOBSTREAM",
      "outputs": [
        {
          "internalType": "address",
          "name": "",
          "type": "address"
        }
      ],
      "stateMutability": "view",
      "type": "function"
    },
    {
      "inputs": [],
      "name": "BROTLI_MESSAGE_HEADER_FLAG",
      "outputs": [
        {
          "internalType": "bytes1",
          "name": "",
          "type": "bytes1"
        }
      ],
      "stateMutability": "view",
      "type": "function"
    },
    {
      "inputs": [],
      "name": "CELESTIA_MESSAGE_HEADER_FLAG",
      "outputs": [
        {
          "internalType": "bytes1",
          "name": "",
          "type": "bytes1"
        }
      ],
      "stateMutability": "view",
      "type": "function"
    },
    {
      "inputs": [],
      "name": "DAS_MESSAGE_HEADER_FLAG",
      "outputs": [
        {
          "internalType": "bytes1",
          "name": "",
          "type": "bytes1"
        }
      ],
      "stateMutability": "view",
      "type": "function"
    },
    {
      "inputs": [],
      "name": "DATA_AUTHENTICATED_FLAG",
      "outputs": [
        {
          "internalType": "bytes1",
          "name": "",
          "type": "bytes1"
        }
      ],
      "stateMutability": "view",
      "type": "function"
    },
    {
      "inputs": [],
      "name": "DATA_BLOB_HEADER_FLAG",
      "outputs": [
        {
          "internalType": "bytes1",
          "name": "",
          "type": "bytes1"
        }
      ],
      "stateMutability": "view",
      "type": "function"
    },
    {
      "inputs": [],
      "name": "HEADER_LENGTH",
      "outputs": [
        {
          "internalType": "uint256",
          "name": "",
          "type": "uint256"
        }
      ],
      "stateMutability": "view",
      "type": "function"
    },
    {
      "inputs": [],
      "name": "TREE_DAS_MESSAGE_HEADER_FLAG",
      "outputs": [
        {
          "internalType": "bytes1",
          "name": "",
          "type": "bytes1"
        }
      ],
      "stateMutability": "view",
      "type": "function"
    },
    {
      "inputs": [],
      "name": "ZERO_HEAVY_MESSAGE_HEADER_FLAG",
      "outputs": [
        {
          "internalType": "bytes1",
          "name": "",
          "type": "bytes1"
        }
      ],
      "stateMutability": "view",
      "type": "function"
    },
    {
      "inputs": [
        {
          "internalType": "uint256",
          "name": "chainId",
          "type": "uint256"
        }
      ],
      "name": "addInitMessage",
      "outputs": [],
      "stateMutability": "nonpayable",
      "type": "function"
    },
    {
      "inputs": [
        {
          "internalType": "uint256",
          "name": "sequenceNumber",
          "type": "uint256"
        },
        {
          "internalType": "bytes",
          "name": "data",
          "type": "bytes"
        },
        {
          "internalType": "uint256",
          "name": "afterDelayedMessagesRead",
          "type": "uint256"
        },
        {
          "internalType": "contract IGasRefunder",
          "name": "gasRefunder",
          "type": "address"
        },
        {
          "internalType": "uint256",
          "name": "prevMessageCount",
          "type": "uint256"
        },
        {
          "internalType": "uint256",
          "name": "newMessageCount",
          "type": "uint256"
        }
      ],
      "name": "addSequencerL2Batch",
      "outputs": [],
      "stateMutability": "nonpayable",
      "type": "function"
    },
    {
      "inputs": [
        {
          "internalType": "uint256",
          "name": "sequenceNumber",
          "type": "uint256"
        },
        {
          "internalType": "uint256",
          "name": "afterDelayedMessagesRead",
          "type": "uint256"
        },
        {
          "internalType": "contract IGasRefunder",
          "name": "gasRefunder",
          "type": "address"
        },
        {
          "internalType": "uint256",
          "name": "prevMessageCount",
          "type": "uint256"
        },
        {
          "internalType": "uint256",
          "name": "newMessageCount",
          "type": "uint256"
        }
      ],
      "name": "addSequencerL2BatchFromBlobs",
      "outputs": [],
      "stateMutability": "nonpayable",
      "type": "function"
    },
    {
      "inputs": [
        {
          "internalType": "uint256",
          "name": "",
          "type": "uint256"
        },
        {
          "internalType": "bytes",
          "name": "",
          "type": "bytes"
        },
        {
          "internalType": "uint256",
          "name": "",
          "type": "uint256"
        },
        {
          "internalType": "contract IGasRefunder",
          "name": "",
          "type": "address"
        }
      ],
      "name": "addSequencerL2BatchFromOrigin",
      "outputs": [],
      "stateMutability": "pure",
      "type": "function"
    },
    {
      "inputs": [
        {
          "internalType": "uint256",
          "name": "sequenceNumber",
          "type": "uint256"
        },
        {
          "internalType": "bytes",
          "name": "data",
          "type": "bytes"
        },
        {
          "internalType": "uint256",
          "name": "afterDelayedMessagesRead",
          "type": "uint256"
        },
        {
          "internalType": "contract IGasRefunder",
          "name": "gasRefunder",
          "type": "address"
        },
        {
          "internalType": "uint256",
          "name": "prevMessageCount",
          "type": "uint256"
        },
        {
          "internalType": "uint256",
          "name": "newMessageCount",
          "type": "uint256"
        }
      ],
      "name": "addSequencerL2BatchFromOrigin",
      "outputs": [],
      "stateMutability": "nonpayable",
      "type": "function"
    },
    {
      "inputs": [],
      "name": "batchCount",
      "outputs": [
        {
          "internalType": "uint256",
          "name": "",
          "type": "uint256"
        }
      ],
      "stateMutability": "view",
      "type": "function"
    },
    {
      "inputs": [],
      "name": "batchPosterManager",
      "outputs": [
        {
          "internalType": "address",
          "name": "",
          "type": "address"
        }
      ],
      "stateMutability": "view",
      "type": "function"
    },
    {
      "inputs": [],
      "name": "bridge",
      "outputs": [
        {
          "internalType": "contract IBridge",
          "name": "",
          "type": "address"
        }
      ],
      "stateMutability": "view",
      "type": "function"
    },
    {
      "inputs": [
        {
          "internalType": "bytes32",
          "name": "",
          "type": "bytes32"
        }
      ],
      "name": "dasKeySetInfo",
      "outputs": [
        {
          "internalType": "bool",
          "name": "isValidKeyset",
          "type": "bool"
        },
        {
          "internalType": "uint64",
          "name": "creationBlock",
          "type": "uint64"
        }
      ],
      "stateMutability": "view",
      "type": "function"
    },
    {
      "inputs": [
        {
          "internalType": "uint256",
          "name": "_totalDelayedMessagesRead",
          "type": "uint256"
        },
        {
          "internalType": "uint8",
          "name": "kind",
          "type": "uint8"
        },
        {
          "internalType": "uint64[2]",
          "name": "l1BlockAndTime",
          "type": "uint64[2]"
        },
        {
          "internalType": "uint256",
          "name": "baseFeeL1",
          "type": "uint256"
        },
        {
          "internalType": "address",
          "name": "sender",
          "type": "address"
        },
        {
          "internalType": "bytes32",
          "name": "messageDataHash",
          "type": "bytes32"
        }
      ],
      "name": "forceInclusion",
      "outputs": [],
      "stateMutability": "nonpayable",
      "type": "function"
    },
    {
      "inputs": [
        {
          "internalType": "bytes32",
          "name": "ksHash",
          "type": "bytes32"
        }
      ],
      "name": "getKeysetCreationBlock",
      "outputs": [
        {
          "internalType": "uint256",
          "name": "",
          "type": "uint256"
        }
      ],
      "stateMutability": "view",
      "type": "function"
    },
    {
      "inputs": [
        {
          "internalType": "uint256",
          "name": "index",
          "type": "uint256"
        }
      ],
      "name": "inboxAccs",
      "outputs": [
        {
          "internalType": "bytes32",
          "name": "",
          "type": "bytes32"
        }
      ],
      "stateMutability": "view",
      "type": "function"
    },
    {
      "inputs": [
        {
          "internalType": "contract IBridge",
          "name": "bridge_",
          "type": "address"
        },
        {
          "components": [
            {
              "internalType": "uint256",
              "name": "delayBlocks",
              "type": "uint256"
            },
            {
              "internalType": "uint256",
              "name": "futureBlocks",
              "type": "uint256"
            },
            {
              "internalType": "uint256",
              "name": "delaySeconds",
              "type": "uint256"
            },
            {
              "internalType": "uint256",
              "name": "futureSeconds",
              "type": "uint256"
            }
          ],
          "internalType": "struct ISequencerInbox.MaxTimeVariation",
          "name": "maxTimeVariation_",
          "type": "tuple"
        }
      ],
      "name": "initialize",
      "outputs": [],
      "stateMutability": "nonpayable",
      "type": "function"
    },
    {
      "inputs": [
        {
          "internalType": "bytes32",
          "name": "ksHash",
          "type": "bytes32"
        }
      ],
      "name": "invalidateKeysetHash",
      "outputs": [],
      "stateMutability": "nonpayable",
      "type": "function"
    },
    {
      "inputs": [
        {
          "internalType": "address",
          "name": "",
          "type": "address"
        }
      ],
      "name": "isBatchPoster",
      "outputs": [
        {
          "internalType": "bool",
          "name": "",
          "type": "bool"
        }
      ],
      "stateMutability": "view",
      "type": "function"
    },
    {
      "inputs": [
        {
          "internalType": "address",
          "name": "",
          "type": "address"
        }
      ],
      "name": "isSequencer",
      "outputs": [
        {
          "internalType": "bool",
          "name": "",
          "type": "bool"
        }
      ],
      "stateMutability": "view",
      "type": "function"
    },
    {
      "inputs": [],
      "name": "isUsingFeeToken",
      "outputs": [
        {
          "internalType": "bool",
          "name": "",
          "type": "bool"
        }
      ],
      "stateMutability": "view",
      "type": "function"
    },
    {
      "inputs": [
        {
          "internalType": "bytes32",
          "name": "ksHash",
          "type": "bytes32"
        }
      ],
      "name": "isValidKeysetHash",
      "outputs": [
        {
          "internalType": "bool",
          "name": "",
          "type": "bool"
        }
      ],
      "stateMutability": "view",
      "type": "function"
    },
    {
      "inputs": [],
      "name": "maxDataSize",
      "outputs": [
        {
          "internalType": "uint256",
          "name": "",
          "type": "uint256"
        }
      ],
      "stateMutability": "view",
      "type": "function"
    },
    {
      "inputs": [],
      "name": "maxTimeVariation",
      "outputs": [
        {
          "internalType": "uint256",
          "name": "",
          "type": "uint256"
        },
        {
          "internalType": "uint256",
          "name": "",
          "type": "uint256"
        },
        {
          "internalType": "uint256",
          "name": "",
          "type": "uint256"
        },
        {
          "internalType": "uint256",
          "name": "",
          "type": "uint256"
        }
      ],
      "stateMutability": "view",
      "type": "function"
    },
    {
      "inputs": [],
      "name": "postUpgradeInit",
      "outputs": [],
      "stateMutability": "nonpayable",
      "type": "function"
    },
    {
      "inputs": [],
      "name": "reader4844",
      "outputs": [
        {
          "internalType": "contract IReader4844",
          "name": "",
          "type": "address"
        }
      ],
      "stateMutability": "view",
      "type": "function"
    },
    {
      "inputs": [],
      "name": "removeDelayAfterFork",
      "outputs": [],
      "stateMutability": "nonpayable",
      "type": "function"
    },
    {
      "inputs": [],
      "name": "rollup",
      "outputs": [
        {
          "internalType": "contract IOwnable",
          "name": "",
          "type": "address"
        }
      ],
      "stateMutability": "view",
      "type": "function"
    },
    {
      "inputs": [
        {
          "internalType": "address",
          "name": "newBatchPosterManager",
          "type": "address"
        }
      ],
      "name": "setBatchPosterManager",
      "outputs": [],
      "stateMutability": "nonpayable",
      "type": "function"
    },
    {
      "inputs": [
        {
          "internalType": "address",
          "name": "addr",
          "type": "address"
        },
        {
          "internalType": "bool",
          "name": "isBatchPoster_",
          "type": "bool"
        }
      ],
      "name": "setIsBatchPoster",
      "outputs": [],
      "stateMutability": "nonpayable",
      "type": "function"
    },
    {
      "inputs": [
        {
          "internalType": "address",
          "name": "addr",
          "type": "address"
        },
        {
          "internalType": "bool",
          "name": "isSequencer_",
          "type": "bool"
        }
      ],
      "name": "setIsSequencer",
      "outputs": [],
      "stateMutability": "nonpayable",
      "type": "function"
    },
    {
      "inputs": [
        {
          "components": [
            {
              "internalType": "uint256",
              "name": "delayBlocks",
              "type": "uint256"
            },
            {
              "internalType": "uint256",
              "name": "futureBlocks",
              "type": "uint256"
            },
            {
              "internalType": "uint256",
              "name": "delaySeconds",
              "type": "uint256"
            },
            {
              "internalType": "uint256",
              "name": "futureSeconds",
              "type": "uint256"
            }
          ],
          "internalType": "struct ISequencerInbox.MaxTimeVariation",
          "name": "maxTimeVariation_",
          "type": "tuple"
        }
      ],
      "name": "setMaxTimeVariation",
      "outputs": [],
      "stateMutability": "nonpayable",
      "type": "function"
    },
    {
      "inputs": [
        {
          "internalType": "bytes",
          "name": "keysetBytes",
          "type": "bytes"
        }
      ],
      "name": "setValidKeyset",
      "outputs": [],
      "stateMutability": "nonpayable",
      "type": "function"
    },
    {
      "inputs": [],
      "name": "totalDelayedMessagesRead",
      "outputs": [
        {
          "internalType": "uint256",
          "name": "",
          "type": "uint256"
        }
      ],
      "stateMutability": "view",
      "type": "function"
    },
    {
      "inputs": [],
      "name": "updateRollupAddress",
      "outputs": [],
      "stateMutability": "nonpayable",
      "type": "function"
    }
  ],
  "bytecode": "0x61016060409080825234620003315780620035ac803803809162000024828562000336565b833981010391610120808412620003315782516001600160a01b039290838116908190036200033157602080860151858116809103620003315760808098603f190112620003315783516001600160401b0390898101828111828210176200031b57865285890151815260608901518482019081528a8a01519287830193845260a08b0151926060810193845260c08c01519760e08d01519b8c169b8c81036200033157610100809e01519c8d8015150362000331578f8f903090526202000060a0524690528b518a81019b6302881c7960e11b8d52600482528d820191808310888411176200031b578f928f526000809e8192519060645afa913d156200031257503d878111620002fe578f908f8f90918f9251906200014f84601f19601f840116018362000336565b81528091833d92013e5b84620002f2575b505082905260e05215620002a7576200029657916003979593918b9a999795935b60c0526101409d8e5260018060a01b0319908160015416176001553390600254161760025551169068010000000000000000600160801b039051891b16928d600160801b600160c01b039151901b169160018060c01b0319905160c01b1692171717600a5583525220600160ff19825416179055519261325194856200035b863951848181610ef301526125e8015260a051846120ec015260c05184818161153b01528181611d5301528181611db801528181611fe5015281816120370152612093015260e0518481816106cd0152612dba015251838181610e850152612a3e015251828181610b13015281816112a50152611f350152518181816110730152818161146e0152818161228801526126530152f35b8a516386657a5360e01b8152600490fd5b15620002c057916003979593918b9a9997959362000181565b8a516380fc2c0360e01b8152600481018a9052600a60248201526914995859195c8d0e0d0d60b21b6044820152606490fd5b511492508c3862000160565b634e487b7160e01b8e52604160045260248efd5b8c606062000159565b634e487b7160e01b600052604160045260246000fd5b600080fd5b601f909101601f19168101906001600160401b038211908210176200031b5760405256fe608080604052600436101561001357600080fd5b60003560e01c90816302c99275146128315750806306f13056146127b05780631637be481461277f57806316af91a7146127635780631f7a92b2146125af5780631f956632146125015780631ff6479014612424578063258f0495146123a957806327957a491461238d5780632cbf74e51461236d5780633e5aa08214611cf75780635fd9e56d14611cd75780636633ae85146119985780636ae71f12146118775780636c890450146118575780636d46e987146118185780636e7df3e7146117525780636f12b0c9146116fc578063715ea34b146116ba57806371c3e6fe1461167b5780637fa3a40e1461165d578063844208601461156a5780638d910dde146115255780638f111f3c1461109857806392d9f7821461105b57806395fcea7814610ed457806396cc5c7814610e71578063b31761f814610d7e578063cb23bcb514610d55578063cc2a1a0c14610d2c578063d1ce8da814610a12578063d9dd67ab1461098e578063dc3465471461095f578063e0bc972914610739578063e5a358c814610719578063e78cea92146106f0578063e8eb1dc3146106b5578063ebea461d14610671578063f1981578146101fc5763f60a5091146101d757600080fd5b346101f75760003660031901126101f757604051600160ff1b8152602090f35b600080fd5b346101f75760e03660031901126101f75760043560249081359160ff831683036101f757366084116101f7576001600160a01b039260a435919084831683036101f757600054918285111561053057610253612a94565b9161025c612aaa565b60001987019387851161065c57604051916020978884019460ff60f81b9060f81b16855260018060601b03199060601b16602184015260018060c01b0319809260c01b16603584015260c01b16603d820152836045820152608435606582015260c4356085820152608581526102d181612949565b519020926102dd612a94565b600a54976001600160401b0394916102f890868b1690612acd565b85439116101561064a5761031a61030d612aaa565b8660809b8c1c1690612acd565b85429116101561063857600090600189116105b2575b600154169560405192636ab8cee160e11b84526004840152878386818a5afa9283156104e557600093610583575b506040519088820192835260408201526040815261037b81612964565b519020036105715761038b612cc1565b5061039586612ce6565b92908681519101209460405192632fe5250b60e11b84528784600481855afa9384156104e557600094610542575b5088106105305760405163eca067ad60e01b81528781600481855afa9081156104e557600091610503575b5088116104f157879560006084928b95604051998a96879563432cc52b60e11b8752600487015285015280604485015260648401525af19586156104e557600094600096600095600099610494575b5092849260e095606093866000805160206131dc8339815191529997600055604051978852818801528184511660408801528301511683860152836040830151169085015201511660a0820152600260c0820152a4005b975097509450809192935085813d83116104de575b6104b3818361297f565b810103126101f7578451848601516040870151606090970151979096919591949392919060e061043d565b503d6104a9565b6040513d6000823e3d90fd5b60405163925f8bd360e01b8152600490fd5b90508781813d8311610529575b61051a818361297f565b810103126101f757518a6103ee565b503d610510565b604051633eb9f37d60e11b8152600490fd5b9093508781813d831161056a575b61055a818361297f565b810103126101f75751928a6103c3565b503d610550565b6040516313947fd760e01b8152600490fd5b9092508781813d83116105ab575b61059b818361297f565b810103126101f75751918a61035e565b503d610591565b8091506001541660011989018981116106235788908660405180948193636ab8cee160e11b835260048301525afa9081156104e5576000916105f6575b5090610330565b90508781813d831161061c575b61060d818361297f565b810103126101f757518a6105ef565b503d610603565b85634e487b7160e01b60005260116004526000fd5b60405163c76d17e560e01b8152600490fd5b60405163ad3515d960e01b8152600490fd5b83634e487b7160e01b60005260116004526000fd5b346101f75760003660031901126101f757608061068c612a3c565b90926040519360018060401b038094818094168752166020860152166040840152166060820152f35b346101f75760003660031901126101f75760206040517f00000000000000000000000000000000000000000000000000000000000000008152f35b346101f75760003660031901126101f7576001546040516001600160a01b039091168152602090f35b346101f75760003660031901126101f757604051600160fe1b8152602090f35b346101f757610747366128c0565b95929490949391935a95336000526020976003895260ff60406000205416158061094a575b610938576107869161077f848787612da0565b9490612fb5565b9390919296808814158061092c575b61090e57506000805160206131dc83398151915260e07ffe325ca1efe4c5c1062c981c3ee74b781debe4ea9440306a96d2a55759c66c2097969594938c60608b956000546040519485528385015260018060401b038093818351166040870152820151168285015282604082015116608085015201511660a0820152600160c0820152a461082860405192839283612c99565b0390a26001600160a01b03168061083b57005b36601f81018082116108f85760051c9160068302838104600614841517156108f8576108b79461087b610881926108728997612b26565b60091c90612ae6565b90612ae6565b913332146108ee57506108986000925b5a90612ac0565b600060405180968195829463e3db8a4960e01b84523360048501612c7b565b03925af180156104e5576108c8575b005b816108c692903d106108e7575b6108df818361297f565b810190612c63565b503d6108d5565b9161089890610891565b634e487b7160e01b600052601160045260246000fd5b876044916040519163ac7411c960e01b835260048301526024820152fd5b50600019811415610795565b604051632dd9fc9760e01b8152600490fd5b506002546001600160a01b031633141561076c565b346101f75760003660031901126101f757602060405173a8973bdef20fe4112c920582938ef2f022c911f58152f35b346101f7576020806003193601126101f7576001546040516316bf557960e01b81526004803590820152908290829060249082906001600160a01b03165afa9081156104e5576000916109e5575b50604051908152f35b90508181813d8311610a0b575b6109fc818361297f565b810103126101f75751826109dc565b503d6109f2565b346101f7576020806003193601126101f7576001600160401b03906004358281116101f757610a45903690600401612893565b600254604051638da5cb5b60e01b8082529293926001600160a01b039283169290918681600481875afa9081156104e557600091610d0f575b50163303610c9e575050838211610c8857604051610aa5601f8401601f191685018261297f565b8281528381019036848401116101f7578383833760008585830101525190206040519084820190607f60f91b8252602183015260218252610ae582612964565b90519020600160ff1b189362010000831015610c4d57846000526008845260ff60406000205416610c3457437f0000000000000000000000000000000000000000000000000000000000000000610bd6575b60087fabca9b7986bc22ad0160eb0cb88ae75411eacfba4052af0b457a9335ef6557229560405193610b6885612913565b60018552818501931683528760005252610b8a604060002092511515836131aa565b518154610100600160481b03191660089190911b610100600160481b0316179055604051918291610bbc919083612c99565b0390a260026000805160206131fc833981519152600080a2005b5060405163a3b1b31d60e01b815293808560048160645afa9485156104e557600095610c04575b5093610b37565b94508085813d8311610c2d575b610c1b818361297f565b810103126101f7579351936008610bfd565b503d610c11565b604051637d17eeed60e11b815260048101869052602490fd5b60405162461bcd60e51b81526004810185905260136024820152726b657973657420697320746f6f206c6172676560681b6044820152606490fd5b634e487b7160e01b600052604160045260246000fd5b9084809260046040518094819382525afa9081156104e557610cde92600092610ce2575b5050604051631194af8760e11b81529182913360048401612a03565b0390fd5b610d019250803d10610d08575b610cf9818361297f565b810190612a1d565b8280610cc2565b503d610cef565b610d269150873d8911610d0857610cf9818361297f565b88610a7e565b346101f75760003660031901126101f757600b546040516001600160a01b039091168152602090f35b346101f75760003660031901126101f7576002546040516001600160a01b039091168152602090f35b346101f75760803660031901126101f757604051610d9b8161292e565b6004358152602090602435828201526044356040820152606435606082015260018060a01b0380600254169060405190638da5cb5b60e01b918281528581600481875afa9081156104e557600091610e54575b50163303610e1557610dff836130f7565b60006000805160206131fc8339815191528180a2005b8391925060046040518094819382525afa9081156104e557610cde92600092610ce2575050604051631194af8760e11b81529182913360048401612a03565b610e6b9150863d8811610d0857610cf9818361297f565b86610dee565b346101f75760003660031901126101f757467f000000000000000000000000000000000000000000000000000000000000000014610ec2576001600160401b01600160801b01600160c01b01600a55005b604051635180dd8360e11b8152600490fd5b346101f75760003660031901126101f7576001600160a01b03610f1b307f0000000000000000000000000000000000000000000000000000000000000000831614156129a2565b7fb53127684a568b3173ae13b9f8a6016e243e63b6e8ee1178d6a717850b5d610354908116330361103d57600454801580611033575b80611029575b8061101f575b61100d576001600160401b038082118015611002575b8015610ff7575b8015610fec575b610fda57600160401b600160801b0360055460401b16600160801b600160c01b0360065460801b169160018060c01b031960075460c01b169316171717600a556000600455600060055560006006556000600755600080f35b60405163d0afb66160e01b8152600490fd5b508060075411610f81565b508060065411610f7a565b508060055411610f73565b604051633bcd329760e21b8152600490fd5b5060075415610f5d565b5060065415610f57565b5060055415610f51565b604051631194af8760e11b8152908190610cde903360048401612a03565b346101f75760003660031901126101f75760206040517f000000000000000000000000000000000000000000000000000000000000000015158152f35b346101f7576110a6366128c0565b90939194955a963233036115135733600052600360205260ff60406000205416156109385784846110d692612da0565b91909560005486106105305760015460405163eca067ad60e01b81526001600160a01b039091169490602081600481895afa9081156104e5576000916114e1575b5087116104f15760846080926000604051978894859363432cc52b60e11b85528d60048601528c6024860152604485015260648401525af19586156104e557600094600096600095600099611493575b5060005515158061146b575b6112a1575b508084141580611295575b61127757506000805160206131dc8339815191529160e0916000546040519283526020830152606060018060401b0391828151166040850152826020820151168285015282604082015116608085015201511660a0820152600060c0820152a46001600160a01b0316806111f357005b601f36018036116108f85760051c916006830291838304600614841517156108f85761123061089161124f9361087b602096610872600099612b26565b60405194858094819363e3db8a4960e01b835236903360048501612c7b565b03925af180156104e55761125f57005b6108c69060203d6020116108e7576108df818361297f565b836044916040519163ac7411c960e01b835260048301526024820152fd5b50600019811415611183565b60007f0000000000000000000000000000000000000000000000000000000000000000611400575b6001600160401b0381116113c457602060009260405192828401914283523260601b6040860152605485015288607485015248609485015260018060c01b03199060c01b1660b4840152609c835261132083612949565b6001548351909120604051637a88b10760e01b8152326004820152602481019190915293849160449183916001600160a01b03165af19182156104e55760009261138e575b506113856000805160206131bc8339815191529160405191829182612f89565b0390a288611178565b9091506020813d6020116113bc575b816113aa6020938361297f565b810103126101f7575190611385611365565b3d915061139d565b60405162461bcd60e51b8152602060048201526014602482015273115615149057d1d054d7d393d517d55253950d8d60621b6044820152606490fd5b5060405163637bef0760e11b8152602081600481606c5afa80156104e557600090611437575b61143291504890612af3565b6112c9565b506020813d602011611463575b816114516020938361297f565b810103126101f7576114329051611426565b3d9150611444565b507f000000000000000000000000000000000000000000000000000000000000000015611173565b97509750945092506080853d82116114d9575b816114b36080938361297f565b810103126101f7578451926020860151946060604088015197015194959694978b611167565b3d91506114a6565b90506020813d60201161150b575b816114fc6020938361297f565b810103126101f757518b611117565b3d91506114ef565b60405163feb3d07160e01b8152600490fd5b346101f75760003660031901126101f7576040517f00000000000000000000000000000000000000000000000000000000000000006001600160a01b03168152602090f35b346101f7576020806003193601126101f757600254604051638da5cb5b60e01b80825260048035936001600160a01b039081169390918690829081875afa9081156104e557600091611640575b50163303610e15578284816000526008815260ff6040600020541615611628576008908260005252604060002060ff1981541690557f5cb4218b272fd214168ac43e90fb4d05d6c36f0b17ffb4c2dd07c234d744eb2a600080a260036000805160206131fc833981519152600080a2005b60405162f20c5d60e01b815260048101839052602490fd5b6116579150863d8811610d0857610cf9818361297f565b866115b7565b346101f75760003660031901126101f7576020600054604051908152f35b346101f75760203660031901126101f7576001600160a01b0361169c61284e565b166000526003602052602060ff604060002054166040519015158152f35b346101f75760203660031901126101f75760043560009081526008602081815260409283902054835160ff821615158152921c6001600160401b031690820152f35b346101f75760803660031901126101f7576024356001600160401b0381116101f75761172c903690600401612893565b50506064356001600160a01b038116036101f7576040516331cee75f60e21b8152600490fd5b346101f75761176036612864565b600254604051638da5cb5b60e01b81526001600160a01b03916020908290600490829086165afa80156104e55782916000916117fa575b5016331415806117ec575b6117d4576117bd9216600052600360205260406000206131aa565b60016000805160206131fc833981519152600080a2005b6040516333059da160e11b8152336004820152602490fd5b5080600b54163314156117a2565b611812915060203d8111610d0857610cf9818361297f565b85611797565b346101f75760203660031901126101f7576001600160a01b0361183961284e565b166000526009602052602060ff604060002054166040519015158152f35b346101f75760003660031901126101f757604051600160fb1b8152602090f35b346101f75760003660031901126101f757600254604051638da5cb5b60e01b8082526001600160a01b03808416939290916020918281600481895afa80156104e557849160009161197b575b5016330361193f575060048183600154166040519283809263cb23bcb560e01b82525afa9182156104e557600092611922575b505016809214611910576001600160a01b03191617600255005b60405163d054909f60e01b8152600490fd5b6119389250803d10610d0857610cf9818361297f565b84806118f6565b6040519081528181600481885afa9081156104e557610cde92600092610ce2575050604051631194af8760e11b81529182913360048401612a03565b6119929150843d8611610d0857610cf9818361297f565b876118c3565b346101f7576020806003193601126101f7576040519080820160043581528183526119c283612913565b600060018060a01b03938360019360648786541691845190206040519586938492638db5993b60e01b8452600b600485015282602485015260448401525af19182156104e557600092611ca8575b5081611c6c57611a356000805160206131bc8339815191529160405191829182612f89565b0390a2611a40612cc1565b50611a49612cc1565b50611a52612cc1565b9283519383810190815190604081019687519060608301938451604051928a84019460018060c01b0319809481809460c01b16885260c01b16602886015260c01b16603084015260c01b166038820152600160c01b604082015260288152611ab981612964565b6028815103611c5757519020936000548610610530578554169360405163eca067ad60e01b81528781600481895afa9081156104e557600091611c2a575b5086116104f1576000946084608092604051978893849263432cc52b60e11b845260048401528a60248401528160448401528a60648401525af19687156104e55760009560009760009660009a611bdd575b508160005587611ba6579160e09593916000805160206131dc83398151915297959360405196875286015260018060401b038094818094511660408801525116606086015251166080840152511660a0820152600260c0820152a4005b6064906040519062461bcd60e51b82526004820152601060248201526f1053149150511657d4d15457d253925560821b6044820152fd5b98509850955093506080863d8211611c22575b81611bfd6080938361297f565b810103126101f75785519387870151956060604089015198015195969795988a611b49565b3d9150611bf0565b90508781813d8311611c50575b611c41818361297f565b810103126101f7575189611af7565b503d611c37565b86634e487b7160e01b60005260045260246000fd5b60405162461bcd60e51b81526004810185905260146024820152731053149150511657d111531056515117d253925560621b6044820152606490fd5b9091508381813d8311611cd0575b611cc0818361297f565b810103126101f757519085611a10565b503d611cb6565b346101f75760003660031901126101f757604051606360f81b8152602090f35b346101f75760a03660031901126101f7576044356001600160a01b03811681036101f7575a9033600052600360205260ff604060002054161561093857611d3c612cc1565b5060405163741d16c160e11b8152916000836004817f00000000000000000000000000000000000000000000000000000000000000006001600160a01b03165afa9283156104e557600093612350575b5082511561233e57611d9f602435612ce6565b604051631f6d6ef760e01b8152909491906020816004817f00000000000000000000000000000000000000000000000000000000000000006001600160a01b03165afa9081156104e55760009161230c575b50808060111b046202000014811517156108f8578251611e139160111b612b13565b91604051602081019182602082519192019060005b8181106122f65750505081611e4b611e919360219303601f19810183528261297f565b604051938491611e826020611e69818601998a815193849201612d7d565b840191600560fc1b602084015251809386840190612d7d565b0103600181018452018261297f565b5190209048156122ed57611ea6904890612af3565b935b611eba60843560643560243585612fb5565b9293600435851415806122df575b6122bf576000546040805193845260208085019290925282516001600160401b03908116858301529183015182166060808601919091529083015182166080850152909101511660a0820152600360c0820152600435906000805160206131dc8339815191529060e090a47f00000000000000000000000000000000000000000000000000000000000000006122ad57333214948580612285575b612188575b5050506001600160a01b038216611f7b57005b3690601f82018083116108f85760051c906006820291808304600614811517156108f857611faf9261087261087b92612b26565b92611fe25750611fc9916020916108986000925a90612ac0565b03926001600160a01b03165af180156104e55761125f57005b917f00000000000000000000000000000000000000000000000000000000000000006001600160a01b0316612022575b91602091610898611fc994610891565b60405163741d16c160e11b81526000816004817f00000000000000000000000000000000000000000000000000000000000000006001600160a01b03165afa60009181612163575b50612076575b50612012565b80511561207057604051631f6d6ef760e01b8152906020826004817f00000000000000000000000000000000000000000000000000000000000000006001600160a01b03165afa9182156104e557600092612125575b5061211b611fc9959361087b6020969461211661089895519161211148937f000000000000000000000000000000000000000000000000000000000000000090612b13565b612b13565b612af3565b9294505091612070565b9094929391506020813d60201161215b575b816121446020938361297f565b810103126101f7575191939092919061211b6120cc565b3d9150612137565b6121819192503d806000833e612179818361297f565b810190612be8565b908561206a565b6001600160401b0381116113c45760009260209160405193838501924284523260601b60408701526054860152607485015248609485015260018060c01b03199060c01b1660b4840152609c83526121df83612949565b6001548351909120604051637a88b10760e01b8152326004820152602481019190915293849160449183916001600160a01b03165af19182156104e55760009261224f575b506122446000805160206131bc8339815191529160405191829182612f89565b0390a2838080611f68565b9091506020813d60201161227d575b8161226b6020938361297f565b810103126101f7575190612244612224565b3d915061225e565b507f000000000000000000000000000000000000000000000000000000000000000015611f63565b6040516386657a5360e01b8152600490fd5b60405163ac7411c960e01b81526004808201879052356024820152604490fd5b506004356000191415611ec8565b50600093611ea8565b8251845260209384019390920191600101611e28565b90506020813d602011612336575b816123276020938361297f565b810103126101f7575186611df1565b3d915061231a565b604051631e693f5b60e11b8152600490fd5b6123669193503d806000833e612179818361297f565b9183611d8c565b346101f75760003660031901126101f757604051600560fc1b8152602090f35b346101f75760003660031901126101f757602060405160288152f35b346101f75760203660031901126101f7576004358060005260086020526040600020604051906123d882612913565b5460ff81161515825260081c6001600160401b03908116602090920182815290911561240c57602092505116604051908152f35b60405162f20c5d60e01b815260048101849052602490fd5b346101f7576020806003193601126101f75761243e61284e565b600254604051638da5cb5b60e01b8082526001600160a01b0394928516918381600481865afa80156104e55786916000916124e4575b501633036124a7575050501660018060a01b0319600b541617600b5560056000805160206131fc833981519152600080a2005b829060046040518094819382525afa9081156104e557610cde92600092610ce2575050604051631194af8760e11b81529182913360048401612a03565b6124fb9150853d8711610d0857610cf9818361297f565b87612474565b346101f75761250f36612864565b600254604051638da5cb5b60e01b81526001600160a01b03916020908290600490829086165afa80156104e5578291600091612591575b501633141580612583575b6117d45761256c9216600052600960205260406000206131aa565b60046000805160206131fc833981519152600080a2005b5080600b5416331415612551565b6125a9915060203d8111610d0857610cf9818361297f565b85612546565b346101f75760a03660031901126101f7576004356001600160a01b03818116918290036101f75760803660231901126101f757612610817f0000000000000000000000000000000000000000000000000000000000000000163014156129a2565b60015481811661100d57821561275157604051631c2eb17b60e31b815260209290600090829085816004818a5afa60009181612732575b5061271d575b505015157f000000000000000000000000000000000000000000000000000000000000000015150361270b576001600160a01b0319918216841760015560405163cb23bcb560e01b8152938390859060049082905afa80156104e5576108c6946000916126ee575b5016906002541617600255604051906126cd8261292e565b602435825260443590820152606435604082015260843560608201526130f7565b6127059150843d8611610d0857610cf9818361297f565b856126b5565b60405163c3e31f8d60e01b8152600490fd5b1661272a575b818661264d565b506001612723565b61274a919250873d8911610d0857610cf9818361297f565b9088612647565b604051631ad0f74360e01b8152600490fd5b346101f75760003660031901126101f757602060405160008152f35b346101f75760203660031901126101f7576004356000526008602052602060ff604060002054166040519015158152f35b346101f75760003660031901126101f7576001546040516221048360e21b815290602090829060049082906001600160a01b03165afa80156104e5576000906127ff575b602090604051908152f35b506020813d8211612829575b816128186020938361297f565b810103126101f757602090516127f4565b3d915061280b565b346101f75760003660031901126101f757600160fd1b8152602090f35b600435906001600160a01b03821682036101f757565b60409060031901126101f7576004356001600160a01b03811681036101f7579060243580151581036101f75790565b9181601f840112156101f7578235916001600160401b0383116101f757602083818601950101116101f757565b9060c06003198301126101f75760043591602435906001600160401b0382116101f7576128ef91600401612893565b9091604435906064356001600160a01b03811681036101f757906084359060a43590565b604081019081106001600160401b03821117610c8857604052565b608081019081106001600160401b03821117610c8857604052565b60c081019081106001600160401b03821117610c8857604052565b606081019081106001600160401b03821117610c8857604052565b601f909101601f19168101906001600160401b03821190821017610c8857604052565b156129a957565b60405162461bcd60e51b815260206004820152602c60248201527f46756e6374696f6e206d7573742062652063616c6c6564207468726f7567682060448201526b19195b1959d85d1958d85b1b60a21b6064820152608490fd5b6001600160a01b0391821681529116602082015260400190565b908160209103126101f757516001600160a01b03811681036101f75790565b7f00000000000000000000000000000000000000000000000000000000000000004614612a6e57600190819082908390565b600a546001600160401b0380821692604083901c821692608081901c9092169160c01c90565b6044356001600160401b03811681036101f75790565b6064356001600160401b03811681036101f75790565b919082039182116108f857565b6001600160401b0391821690821601919082116108f857565b919082018092116108f857565b8115612afd570490565b634e487b7160e01b600052601260045260246000fd5b818102929181159184041417156108f857565b6000908015612be4578080600114612bdc57600214612bd4576001918261013383101683600b84101617612bc45760028392935b808211612b8757505082600019048211612b7357500290565b634e487b7160e01b81526011600452602490fd5b909380600019048111612bb057818516612ba7575b800293811c90612b5a565b80930292612b9c565b634e487b7160e01b83526011600452602483fd5b929150600283910a92612b735750565b509060049150565b505050600190565b5090565b9060209081838203126101f75782516001600160401b03938482116101f7570181601f820112156101f7578051938411610c88578360051b9060405194612c318584018761297f565b855283808601928201019283116101f7578301905b828210612c54575050505090565b81518152908301908301612c46565b908160209103126101f7575180151581036101f75790565b604091949392606082019560018060a01b0316825260208201520152565b90918060409360208452816020850152848401376000828201840152601f01601f1916010190565b60405190612cce8261292e565b60006060838281528260208201528260408201520152565b90612cef612cc1565b50612cf8612cc1565b9182519060208401519060408501519160608601516040519460018060c01b03199485809481809460c01b1660208a015260c01b16602888015260c01b16603086015260c01b16603884015260c01b16604082015260288152612d5a81612964565b6028815103612d67579190565b634e487b7160e01b600052600160045260246000fd5b60005b838110612d905750506000910152565b8181015183820152602001612d80565b909291612dab612cc1565b5083602801806028116108f8577f0000000000000000000000000000000000000000000000000000000000000000808211612f6b575050612deb90612ce6565b93909181158015612e39575b506020612e32916040519384918184612e19818601998a815193849201612d7d565b840191858301370160008382015203808452018261297f565b5190209190565b80612f09578135906001600160f81b0319821680158015612f5e575b8015612f51575b8015612f44575b8015612f37575b15612f1f5750612f0957600160ff1b8116151580612efe575b612ebd575b606360f81b16151580612eb2575b612ea05738612df7565b604051633a205f0960e11b8152600490fd5b506059821415612e96565b826021116101f757600182013580600052600860205260ff6040600020541615612ee75750612e88565b6024906040519062f20c5d60e01b82526004820152fd5b506021831015612e83565b634e487b7160e01b600052603260045260246000fd5b6024906040519063359999ab60e11b82526004820152fd5b50600160fd1b8114612e6a565b50601160fb1b8114612e63565b50606360f81b8114612e5c565b50600160ff1b8114612e55565b6044925060405191634634691b60e01b835260048301526024820152fd5b60409160208252612fa98151809281602086015260208686019101612d7d565b601f01601f1916010190565b919392909260009485548510610530576001546040805163eca067ad60e01b81529095916001600160a01b031690602081600481855afa9081156130ed5789916130b8575b5087116130a75760809291886084928851978895869463432cc52b60e11b865260048601528b6024860152604485015260648401525af193841561309d57859486948794889261304e575b50509293949555565b955095505091506080833d8211613095575b8161306d6080938361297f565b81010312613091578251916060602085015195850151940151929493923880613045565b8480fd5b3d9150613060565b83513d87823e3d90fd5b855163925f8bd360e01b8152600490fd5b90506020813d82116130e5575b816130d26020938361297f565b810103126130e1575138612ffa565b8880fd5b3d91506130c5565b87513d8b823e3d90fd5b80516001600160401b03908110801561319d575b8015613190575b8015613183575b61317157815160208301516040808501516060909501516001600160c01b031960c09190911b16600160801b600160c01b0360809690961b9590951693909216600160401b600160801b039190921b16171717600a55565b6040516309cfba7560e01b8152600490fd5b5080606083015111613119565b5080604083015111613112565b508060208301511161310b565b9060ff80198354169115151617905556feff64905f73a67fb594e0f940a8075a860db489ad991e032f48c81123eb52d60b7394f4a19a13c7b92b5bb71033245305946ef78452f7b4986ac1390b5df4ebd7ea8787f128d10b2cc0317b0c3960f9ad447f7f6c1ed189db1083ccffd20f456ea2646970667358221220c29f706caa7827e6f82d013982d5da6786b50c8905336d01396648ab4d3d591964736f6c63430008130033",
  "linkReferences": {},
  "deployedLinkReferences": {}
}