{
  "_format": "hh-sol-artifact-1",
  "contractName": "RollupProxy",
  "sourceName": "src/rollup/RollupProxy.sol",
  "abi": [
    {
      "anonymous": false,
      "inputs": [
        {
          "indexed": false,
          "internalType": "address",
          "name": "previousAdmin",
          "type": "address"
        },
        {
          "indexed": false,
          "internalType": "address",
          "name": "newAdmin",
          "type": "address"
        }
      ],
      "name": "AdminChanged",
      "type": "event"
    },
    {
      "anonymous": false,
      "inputs": [
        {
          "indexed": true,
          "internalType": "address",
          "name": "beacon",
          "type": "address"
        }
      ],
      "name": "BeaconUpgraded",
      "type": "event"
    },
    {
      "anonymous": false,
      "inputs": [
        {
          "indexed": true,
          "internalType": "address",
          "name": "implementation",
          "type": "address"
        }
      ],
      "name": "Upgraded",
      "type": "event"
    },
    {
      "anonymous": false,
      "inputs": [
        {
          "indexed": true,
          "internalType": "address",
          "name": "implementation",
          "type": "address"
        }
      ],
      "name": "UpgradedSecondary",
      "type": "event"
    },
    {
      "stateMutability": "payable",
      "type": "fallback"
    },
    {
      "inputs": [
        {
          "components": [
            {
              "internalType": "uint64",
              "name": "confirmPeriodBlocks",
              "type": "uint64"
            },
            {
              "internalType": "uint64",
              "name": "extraChallengeTimeBlocks",
              "type": "uint64"
            },
            {
              "internalType": "address",
              "name": "stakeToken",
              "type": "address"
            },
            {
              "internalType": "uint256",
              "name": "baseStake",
              "type": "uint256"
            },
            {
              "internalType": "bytes32",
              "name": "wasmModuleRoot",
              "type": "bytes32"
            },
            {
              "internalType": "address",
              "name": "owner",
              "type": "address"
            },
            {
              "internalType": "address",
              "name": "loserStakeEscrow",
              "type": "address"
            },
            {
              "internalType": "uint256",
              "name": "chainId",
              "type": "uint256"
            },
            {
              "internalType": "string",
              "name": "chainConfig",
              "type": "string"
            },
            {
              "internalType": "uint64",
              "name": "genesisBlockNum",
              "type": "uint64"
            },
            {
              "components": [
                {
                  "internalType": "uint256",
                  "name": "delayBlocks",
                  "type": "uint256"
                },
                {
                  "internalType": "uint256",
                  "name": "futureBlocks",
                  "type": "uint256"
                },
                {
                  "internalType": "uint256",
                  "name": "delaySeconds",
                  "type": "uint256"
                },
                {
                  "internalType": "uint256",
                  "name": "futureSeconds",
                  "type": "uint256"
                }
              ],
              "internalType": "struct ISequencerInbox.MaxTimeVariation",
              "name": "sequencerInboxMaxTimeVariation",
              "type": "tuple"
            }
          ],
          "internalType": "struct Config",
          "name": "config",
          "type": "tuple"
        },
        {
          "components": [
            {
              "internalType": "contract IBridge",
              "name": "bridge",
              "type": "address"
            },
            {
              "internalType": "contract ISequencerInbox",
              "name": "sequencerInbox",
              "type": "address"
            },
            {
              "internalType": "contract IInboxBase",
              "name": "inbox",
              "type": "address"
            },
            {
              "internalType": "contract IOutbox",
              "name": "outbox",
              "type": "address"
            },
            {
              "internalType": "contract IRollupEventInbox",
              "name": "rollupEventInbox",
              "type": "address"
            },
            {
              "internalType": "contract IChallengeManager",
              "name": "challengeManager",
              "type": "address"
            },
            {
              "internalType": "address",
              "name": "rollupAdminLogic",
              "type": "address"
            },
            {
              "internalType": "contract IRollupUser",
              "name": "rollupUserLogic",
              "type": "address"
            },
            {
              "internalType": "address",
              "name": "validatorUtils",
              "type": "address"
            },
            {
              "internalType": "address",
              "name": "validatorWalletCreator",
              "type": "address"
            }
          ],
          "internalType": "struct ContractDependencies",
          "name": "connectedContracts",
          "type": "tuple"
        }
      ],
      "name": "initializeProxy",
      "outputs": [],
      "stateMutability": "nonpayable",
      "type": "function"
    },
    {
      "stateMutability": "payable",
      "type": "receive"
    }
  ],
  "bytecode": "0x6080806040523461001657610c30908161001c8239f35b600080fdfe60806040526004361015610019575b366103d9575b6103d9565b6000803560e01c636e24369e14610030575061000e565b34610149576003196101603682011261014557600435906001600160401b039081831161013d576101c09083360301126101415761006c61018a565b90610079836004016101ca565b8252610087602484016101ca565b602083015261009860448401610287565b604083015260648301356060830152608483013560808301526100bd60a48401610287565b60a08301526100ce60c48401610287565b60c083015260e483013560e083015261010483013590811161013d5761013a9261010161012592600436918401016102ad565b61010084015261011461012482016101ca565b6101208401526101443691016102f4565b61014082015261013436610340565b906106b2565b80f35b8380fd5b8280fd5b5080fd5b80fd5b634e487b7160e01b600052604160045260246000fd5b601f909101601f19168101906001600160401b0382119082101761018557604052565b61014c565b6040519061016082016001600160401b0381118382101761018557604052565b6040519061014082016001600160401b0381118382101761018557604052565b35906001600160401b03821682036101de57565b600080fd5b6001600160a01b031690565b6001600160a01b038116036101de57565b6024359061020d826101ef565b565b6044359061020d826101ef565b6064359061020d826101ef565b6084359061020d826101ef565b60a4359061020d826101ef565b60c4359061020d826101ef565b60e4359061020d826101ef565b610104359061020d826101ef565b610124359061020d826101ef565b610144359061020d826101ef565b359061020d826101ef565b6001600160401b03811161018557601f01601f191660200190565b81601f820112156101de578035906102c482610292565b926102d26040519485610162565b828452602083830101116101de57816000926020809301838601378301015290565b91908260809103126101de57604051608081016001600160401b038111828210176101855760405260608082948035845260208101356020850152604081013560408501520135910152565b6101409060231901126101de576103556101aa565b9061035e610200565b825261036861020f565b602083015261037561021c565b6040830152610382610229565b606083015261038f610236565b608083015261039c610243565b60a08301526103a9610250565b60c08301526103b661025d565b60e08301526103c361026b565b6101008301526103d1610279565b610120830152565b6004361061046b57600080516020610b9b833981519152546001600160a01b03908116331461045557600080516020610bdb83398151915254165b803b61049e5760405162461bcd60e51b815260206004820152601360248201527215105491d15517d393d517d0d3d395149050d5606a1b6044820152606490fd5b600080516020610bbb8339815191525416610414565b60405162461bcd60e51b815260206004820152600b60248201526a4e4f5f46554e435f53494760a81b6044820152606490fd5b6000808092368280378136915af43d82803e156104b9573d90f35b3d90fd5b6001600160a01b03169052565b919082519283825260005b8481106104f6575050826000602080949584010152601f8019910116010190565b6020818301810151848301820152016104d5565b9061020d9161051a8282516104bd565b61052c602082015160208401906104bd565b61053e604082015160408401906104bd565b610550606082015160608401906104bd565b610562608082015160808401906104bd565b61057460a082015160a08401906104bd565b61058660c082015160c08401906104bd565b61059860e082015160e08401906104bd565b6105ab61010080830151908401906104bd565b610120809101519101906104bd565b61016080825282516001600160401b031690820152929161020d91602090808201516001600160401b03166101808701526105fe60408201516101a08801906104bd565b6106aa61014061066860608401516101c090818b015260808501516101e08b015261063260a08601516102008c01906104bd565b61064560c08601516102208c01906104bd565b60e08501516102408b0152610100850151906102608b01526103208a01906104ca565b6101208401516001600160401b03166102808a015292015180516102a089015260208101516102c089015260408101516102e089015260600151610300880152565b94019061050a565b600080516020610b9b833981519152546001600160a01b03906106d4906101e3565b1615806107b8575b80610796575b1561001457610784826106fb60c061020d9501516101e3565b9261079060a06040519263147f893d60e11b602085015261074061074c61074760e08761072c8a87602484016105ba565b0398610740601f199a8b81018b528a610162565b01516101e3565b6101e3565b9561075a60408401516101e3565b60405163189acdbd60e31b60208201526001600160a01b0390911660248201529788906044820190565b03908101885287610162565b936107da565b506107b2610747600080516020610bdb833981519152546101e3565b156106e2565b506107d4610747600080516020610bbb833981519152546101e3565b156106dc565b600080516020610b9b8339815191528054906040517f7e644d79422f17c01e4894b5f4f588d331ebfa28653d42ae832dc59e38c9798f604060018060a01b03809a81871685521692836020820152a1801561091c576001600160a01b0319928316179055813b156108c15761020d9582169081600080516020610bbb833981519152918254161790557fbc7cd75a20ee27fd9adebab32041f755214dbc6bffa90cc0225b39da2e5c2d3b600080a28151158015906108b9575b61089f575b5050610ab4565b6108b1916108ab610970565b916109c9565b503880610898565b506000610893565b60405162461bcd60e51b815260206004820152602d60248201527f455243313936373a206e657720696d706c656d656e746174696f6e206973206e60448201526c1bdd08184818dbdb9d1c9858dd609a1b6064820152608490fd5b60405162461bcd60e51b815260206004820152602660248201527f455243313936373a206e65772061646d696e20697320746865207a65726f206160448201526564647265737360d01b6064820152608490fd5b60405190606082016001600160401b038111838210176101855760405260278252660819985a5b195960ca1b6040837f416464726573733a206c6f772d6c6576656c2064656c65676174652063616c6c60208201520152565b9190823b15610a1c57600081610a119460208394519201905af43d15610a14573d906109f482610292565b91610a026040519384610162565b82523d6000602084013e610a70565b90565b606090610a70565b60405162461bcd60e51b815260206004820152602660248201527f416464726573733a2064656c65676174652063616c6c20746f206e6f6e2d636f6044820152651b9d1c9858dd60d21b6064820152608490fd5b90919015610a7c575090565b815115610a8c5750805190602001fd5b60405162461bcd60e51b815260206004820152908190610ab09060248301906104ca565b0390fd5b803b15610b3557600080516020610bdb83398151915280546001600160a01b0319166001600160a01b0383169081179091557ff7eed2a7fabbf1bec8d55ed5e785cc76622376dde5df4ff15470551e030b8134600080a2815115801590610b2d575b610b1e575050565b610b2a916108ab610970565b50565b506000610b16565b60405162461bcd60e51b815260206004820152603760248201527f455243313936373a206e6577207365636f6e6461727920696d706c656d656e74604482015276185d1a5bdb881a5cc81b9bdd08184818dbdb9d1c9858dd604a1b6064820152608490fdfeb53127684a568b3173ae13b9f8a6016e243e63b6e8ee1178d6a717850b5d6103360894a13ba1a3210667c828492db98dca3e2076cc3735a920a3ca505d382bbc2b1dbce74324248c222f0ec2d5ed7bd323cfc425b336f0253c5ccfda7265546da26469706673582212208e84fe9577f66a1333401adf058a195c1e7f8e8f04bb3c40d4ae026ae1f9570664736f6c63430008130033",
  "linkReferences": {},
  "deployedLinkReferences": {}
}