{
  "_format": "hh-sol-artifact-1",
  "contractName": "DeployHelper",
  "sourceName": "src/rollup/DeployHelper.sol",
  "abi": [
    {
      "inputs": [],
      "name": "ERC1820_DEPLOYER",
      "outputs": [
        {
          "internalType": "address",
          "name": "",
          "type": "address"
        }
      ],
      "stateMutability": "view",
      "type": "function"
    },
    {
      "inputs": [],
      "name": "ERC1820_PAYLOAD",
      "outputs": [
        {
          "internalType": "bytes",
          "name": "",
          "type": "bytes"
        }
      ],
      "stateMutability": "view",
      "type": "function"
    },
    {
      "inputs": [],
      "name": "ERC1820_VALUE",
      "outputs": [
        {
          "internalType": "uint256",
          "name": "",
          "type": "uint256"
        }
      ],
      "stateMutability": "view",
      "type": "function"
    },
    {
      "inputs": [],
      "name": "ERC2470_DEPLOYER",
      "outputs": [
        {
          "internalType": "address",
          "name": "",
          "type": "address"
        }
      ],
      "stateMutability": "view",
      "type": "function"
    },
    {
      "inputs": [],
      "name": "ERC2470_PAYLOAD",
      "outputs": [
        {
          "internalType": "bytes",
          "name": "",
          "type": "bytes"
        }
      ],
      "stateMutability": "view",
      "type": "function"
    },
    {
      "inputs": [],
      "name": "ERC2470_VALUE",
      "outputs": [
        {
          "internalType": "uint256",
          "name": "",
          "type": "uint256"
        }
      ],
      "stateMutability": "view",
      "type": "function"
    },
    {
      "inputs": [],
      "name": "NICK_CREATE2_DEPLOYER",
      "outputs": [
        {
          "internalType": "address",
          "name": "",
          "type": "address"
        }
      ],
      "stateMutability": "view",
      "type": "function"
    },
    {
      "inputs": [],
      "name": "NICK_CREATE2_PAYLOAD",
      "outputs": [
        {
          "internalType": "bytes",
          "name": "",
          "type": "bytes"
        }
      ],
      "stateMutability": "view",
      "type": "function"
    },
    {
      "inputs": [],
      "name": "NICK_CREATE2_VALUE",
      "outputs": [
        {
          "internalType": "uint256",
          "name": "",
          "type": "uint256"
        }
      ],
      "stateMutability": "view",
      "type": "function"
    },
    {
      "inputs": [],
      "name": "ZOLTU_CREATE2_DEPLOYER",
      "outputs": [
        {
          "internalType": "address",
          "name": "",
          "type": "address"
        }
      ],
      "stateMutability": "view",
      "type": "function"
    },
    {
      "inputs": [],
      "name": "ZOLTU_CREATE2_PAYLOAD",
      "outputs": [
        {
          "internalType": "bytes",
          "name": "",
          "type": "bytes"
        }
      ],
      "stateMutability": "view",
      "type": "function"
    },
    {
      "inputs": [],
      "name": "ZOLTU_VALUE",
      "outputs": [
        {
          "internalType": "uint256",
          "name": "",
          "type": "uint256"
        }
      ],
      "stateMutability": "view",
      "type": "function"
    },
    {
      "inputs": [
        {
          "internalType": "contract IInboxBase",
          "name": "inbox",
          "type": "address"
        },
        {
          "internalType": "uint256",
          "name": "maxFeePerGas",
          "type": "uint256"
        }
      ],
      "name": "getDeploymentTotalCost",
      "outputs": [
        {
          "internalType": "uint256",
          "name": "",
          "type": "uint256"
        }
      ],
      "stateMutability": "view",
      "type": "function"
    },
    {
      "inputs": [
        {
          "internalType": "address",
          "name": "_inbox",
          "type": "address"
        },
        {
          "internalType": "address",
          "name": "_nativeToken",
          "type": "address"
        },
        {
          "internalType": "uint256",
          "name": "_maxFeePerGas",
          "type": "uint256"
        }
      ],
      "name": "perform",
      "outputs": [],
      "stateMutability": "payable",
      "type": "function"
    }
  ],
  "bytecode": "0x6080806040523461001657612191908161001c8239f35b600080fdfe6080604052600436101561001257600080fd5b60003560e01c80631b9a680c146110f1578063290302ce146110c25780632e796641146110a65780634367d652146100ea57806355e34a6b1461107757806375ae22b51461105b57806389cf8ae61461102f5780639ed2c6f01461100d578063acd7d02a14610f32578063d3a3faab14610f03578063d7c641e714610112578063db633c3e146100ef578063dd0c625a146100ea5763ef77e71a146100b657600080fd5b346100e55760003660031901126100e5576020604051733fab184622dc19b6109349b94811493bf2a453628152f35b600080fd5b611e3a565b346100e55760003660031901126100e557602060405167011c37937e0800008152f35b60603660031901126100e5576001600160a01b0360043581811681036100e5576024359082821682036100e557610147611146565b60405163a66b327d60e01b8152600060048201524860248201526020816044818689165afa9081156107c657600091610ed1575b5080662386f26fc100000180662386f26fc10000116108465761520860443581020460443503610846576101b6906044356152080290612106565b84861615610e1a5760405163313ce56760e01b815290806020836004818a8c165afa9283156107c657600093610ddc575b50601260ff84161015610db0575061020661020183612139565b61214a565b801561085c5761021e61020161022492840494612139565b83612113565b10610d9f575b60405191632a4f421360e11b8352733fab184622dc19b6109349b94811493bf2a453626004840152662386f26fc100006024840152604483015233606483015233608483015261520860a483015260443560c483015260e482015261012061010482015260006101248201526020816101448160008988165af180156107c657610d74575b5060206102d1915b6040518093819263b75436bb60e01b835260048301611220565b038160008887165af180156107c657610d49575b506102ee611f21565b60405163a66b327d60e01b8152600060048201524860248201526020816044818689165afa9081156107c657600091610d17575b50806657c084e5f3c000016657c084e5f3c000116108465761035360443561520802826657c084e5f3c00001612106565b84861615610c605760405163313ce56760e01b815290806020836004818a8c165afa9283156107c657600093610c22575b50601260ff84161015610bf6575061039e61020183612139565b801561085c5761021e6102016103b692840494612139565b10610be5575b60405191632a4f421360e11b835273bb6e024b9cffacb947a71991e386681b1cd1477d60048401526657c084e5f3c0006024840152604483015233606483015233608483015261520860a483015260443560c483015260e482015261012061010482015260006101248201526020816101448160008988165af180156107c657610bba575b506020610462916040518093819263b75436bb60e01b835260048301611220565b038160008887165af180156107c657610b8f575b5061047f611e5c565b60405163a66b327d60e01b8152600060048201524860248201526020816044818689165afa9081156107c657600091610b5d575b5080662386f26fc1000001662386f26fc1000011610846576104e46044356152080282662386f26fc1000001612106565b84861615610aa65760405163313ce56760e01b815290806020836004818a8c165afa9283156107c657600093610a68575b50601260ff84161015610a3c575061052f61020183612139565b801561085c5761021e61020161054792840494612139565b10610a2b575b60405191632a4f421360e11b8352734c8d290a1b368ac4728d83a9e8321fc3af2b39b16004840152662386f26fc100006024840152604483015233606483015233608483015261520860a483015260443560c483015260e482015261012061010482015260006101248201526020816101448160008988165af180156107c657610a00575b5060206105f3916040518093819263b75436bb60e01b835260048301611220565b038160008887165af180156107c6576109d5575b50610610611269565b60405163a66b327d60e01b81526000600482015248602482015291906020836044818886165afa9283156107c6576000936109a1575b508267011c37937e0800000167011c37937e080000116108465761067a604435615208028467011c37937e08000001612106565b848616156108e15760405163313ce56760e01b815290806020836004818a8c165afa9283156107c6576000936108a3575b5060ff831660128110156108725750506106c761020183612139565b801561085c5761021e6102016106df92840494612139565b10610835575b60405193632a4f421360e11b855273a990077c3205cbdf861e17fa532eeb069ce9ff96600486015267011c37937e0800006024860152604485015233606485015233608485015261520860a485015260443560c485015260e484015261012061010484015260006101248401526020836101448160008987165af19283156107c6578593610806575b50602091610795915b600060405195868095819463b75436bb60e01b835260048301611220565b0393165af180156107c6576107db575b5016156107ae57005b6000808080478181156107d2575b3390f1156107c657005b6040513d6000823e3d90fd5b506108fc6107bc565b602090813d83116107ff575b6107f1818361110d565b810103126100e557826107a5565b503d6107e7565b6020809294503d831161082e575b61081e818361110d565b810103126100e55783918561076e565b503d610814565b6000198114610846576001016106e5565b634e487b7160e01b600052601160045260246000fd5b634e487b7160e01b600052601260045260246000fd5b60129093919311610885575b50506106e5565b61089c925061020161089691612126565b90612113565b868061087e565b9092506020813d6020116108d9575b816108bf6020938361110d565b810103126100e5575160ff811681036100e55791886106ab565b3d91506108b2565b926020906101246040518096819363679b6ded60e01b835273a990077c3205cbdf861e17fa532eeb069ce9ff96600484015267011c37937e0800006024840152604483015233606483015233608483015261520860a483015260443560c483015261010060e483015260006101048301528987165af19283156107c6578593610972575b5060209161079591610777565b6020809294503d831161099a575b61098a818361110d565b810103126100e557839185610965565b503d610980565b9092506020813d6020116109cd575b816109bd6020938361110d565b810103126100e557519185610646565b3d91506109b0565b602090813d83116109f9575b6109eb818361110d565b810103126100e55783610607565b503d6109e1565b602090813d8311610a24575b610a16818361110d565b810103126100e557846105d2565b503d610a0c565b60001981146108465760010161054d565b91601260ff821611610a50575b505061054d565b610a61925061020161089691612126565b8680610a49565b9092506020813d602011610a9e575b81610a846020938361110d565b810103126100e5575160ff811681036100e5579188610515565b3d9150610a77565b906020906101246040518094819363679b6ded60e01b8352734c8d290a1b368ac4728d83a9e8321fc3af2b39b16004840152662386f26fc100006024840152604483015233606483015233608483015261520860a483015260443560c483015261010060e483015260006101048301528988165af180156107c657610b32575b5060206105f3916102b7565b602090813d8311610b56575b610b48818361110d565b810103126100e55784610b26565b503d610b3e565b90506020813d602011610b87575b81610b786020938361110d565b810103126100e55751856104b3565b3d9150610b6b565b602090813d8311610bb3575b610ba5818361110d565b810103126100e55783610476565b503d610b9b565b602090813d8311610bde575b610bd0818361110d565b810103126100e55784610441565b503d610bc6565b6000198114610846576001016103bc565b91601260ff821611610c0a575b50506103bc565b610c1b925061020161089691612126565b8680610c03565b9092506020813d602011610c58575b81610c3e6020938361110d565b810103126100e5575160ff811681036100e5579188610384565b3d9150610c31565b906020906101246040518094819363679b6ded60e01b835273bb6e024b9cffacb947a71991e386681b1cd1477d60048401526657c084e5f3c0006024840152604483015233606483015233608483015261520860a483015260443560c483015261010060e483015260006101048301528988165af180156107c657610cec575b506020610462916102b7565b602090813d8311610d10575b610d02818361110d565b810103126100e55784610ce0565b503d610cf8565b90506020813d602011610d41575b81610d326020938361110d565b810103126100e5575185610322565b3d9150610d25565b602090813d8311610d6d575b610d5f818361110d565b810103126100e557836102e5565b503d610d55565b602090813d8311610d98575b610d8a818361110d565b810103126100e557846102af565b503d610d80565b60001981146108465760010161022a565b91601260ff821611610dc4575b505061022a565b610dd5925061020161089691612126565b8680610dbd565b9092506020813d602011610e12575b81610df86020938361110d565b810103126100e5575160ff811681036100e55791886101e7565b3d9150610deb565b906020906101246040518094819363679b6ded60e01b8352733fab184622dc19b6109349b94811493bf2a453626004840152662386f26fc100006024840152604483015233606483015233608483015261520860a483015260443560c483015261010060e483015260006101048301528988165af180156107c657610ea6575b5060206102d1916102b7565b602090813d8311610eca575b610ebc818361110d565b810103126100e55784610e9a565b503d610eb2565b90506020813d602011610efb575b81610eec6020938361110d565b810103126100e557518561017b565b3d9150610edf565b346100e55760003660031901126100e5576020604051734c8d290a1b368ac4728d83a9e8321fc3af2b39b18152f35b346100e55760403660031901126100e5576004356001600160a01b038116908190036100e5576044906020602435916040519384809263a66b327d60e01b8252600060048301524860248301525afa9182156107c657600092610fda575b50615208908082029182040361084657610fa991612106565b6001600160fe1b0381168103610846576701bb05fd437dc0009060021b810180911161084657602090604051908152f35b9091506020813d8211611005575b81610ff56020938361110d565b810103126100e557519082610f90565b3d9150610fe8565b346100e55760003660031901126100e55760206040516657c084e5f3c0008152f35b346100e55760003660031901126100e55761105761104b611f21565b60405191829182611220565b0390f35b346100e55760003660031901126100e55761105761104b611e5c565b346100e55760003660031901126100e557602060405173bb6e024b9cffacb947a71991e386681b1cd1477d8152f35b346100e55760003660031901126100e55761105761104b611269565b346100e55760003660031901126100e557602060405173a990077c3205cbdf861e17fa532eeb069ce9ff968152f35b346100e55760003660031901126100e55761105761104b611146565b601f909101601f19168101906001600160401b0382119082101761113057604052565b634e487b7160e01b600052604160045260246000fd5b6040519060e082016001600160401b0381118382101761113057604090815260a883527f04f8a58085174876e800830186a08080b853604580600e600039806000f350fe60208401526001600160ff1b03908301527fe03601600081602082378035828234f58015156039578182fd5b80825250505060608301527f6014600cf31ba02222222222222222222222222222222222222222222222222260808301527f22222222222222a022222222222222222222222222222222222222222222222260a083015267111111111111111160c11b60c0830152565b6020808252825181830181905290939260005b82811061125557505060409293506000838284010152601f8019910116010190565b818101860151848201604001528501611233565b60405190610a6082016001600160401b03811183821017611130576040908152610a3c83527f04f90a388085174876e800830c35008080b909e560806040523480156100105760208401527f600080fd5b506109c5806100206000396000f3fe6080604052348015610010579083015272600080fd5b50600436106100a5576000357c0160681b60608301527090048063a41e7d5111610078578063a41e60808301527f7d51146101d4578063aabbb8ca1461020a578063b705676514610236578063f760a08301527f12f3e814610280576100a5565b806329965a1d146100aa5780633d584063146160c08301527ee25780635df8122f1461012457806365ba36c114610152575b600080fd5b6160e08301527ee0600480360360608110156100c057600080fd5b50600160a060020a0381356101008301527f811691602081013591604090910135166102b6565b005b6101086004803603606101208301527f208110156100f857600080fd5b5035600160a060020a0316610570565b6040806101408301527f51600160a060020a039092168252519081900360200190f35b6100e0600480366101608301527f03604081101561013a57600080fd5b50600160a060020a0381358116916020016101808301527f35166105bc565b6101c26004803603602081101561016857600080fd5b8101906101a08301527f60208101813564010000000081111561018357600080fd5b82018360208201116101c08301527f1561019557600080fd5b803590602001918460018302840111640100000000836101e08301527f1117156101b757600080fd5b5090925090506106b3565b6040805191825251906102008301527f81900360200190f35b6100e0600480360360408110156101ea57600080fd5b506102208301527f8035600160a060020a03169060200135600160e060020a0319166106ee565b616102408301527f01086004803603604081101561022057600080fd5b50600160a060020a0381356102608301527f169060200135610778565b61026c6004803603604081101561024c57600080fd6102808301527f5b508035600160a060020a03169060200135600160e060020a0319166107ef566102a08301527f5b604080519115158252519081900360200190f35b61026c60048036036040816102c08301527f101561029657600080fd5b508035600160a060020a03169060200135600160e06102e08301527f60020a0319166108aa565b6000600160a060020a038416156102cd57836102cf6103008301527f565b335b9050336102db82610570565b600160a060020a0316146103395760406103208301527f805160e560020a62461bcd02815260206004820152600f60248201527f4e6f74610340830152626044826b103a34329036b0b730b3b2b960a11b016103608301527f015290519081900360640190fd5b6103428361092a565b1561039757604080516103808301527f60e560020a62461bcd02815260206004820152601a60248201527f4d757374206103a0830152646044820152740dcdee840c4ca40c2dc408aa486626c6a40d0c2e6d605b1b016103c08301527f90519081900360640190fd5b600160a060020a038216158015906103b85750606103e08301527f0160a060020a0382163314155b156104ff5760405160200180807f45524331386104008301526481525060146e32305f4143434550545f4d4147494360881b016104208301527f0190506040516020818303038152906040528051906020012082600160a06002610440830152750a031663249cb3fa85846040518363ffffffff167c0160501b6104608301526d02815260040180838152602001826104808301527f600160a060020a0316600160a060020a031681526020019250505060206040516104a08301527f8083038186803b15801561047e57600080fd5b505afa158015610492573d60006104c08301527f803e3d6000fd5b505050506040513d60208110156104a857600080fd5b5051146104e08301527f6104ff576040805160e560020a62461bcd0281526020600482018190526024826105008301527f01527f446f6573206e6f7420696d706c656d656e742074686520696e746572666105208301527f616365604482015290519081900360640190fd5b600160a060020a03818116606105408301527e81815260208181526040808320888452909152808220805473ffffffffffff61056083015271e6e96b78e96b7ae86faaae796d6e806c4559196105808301527fefbd2244243bfee6ce4cfdd1d04fc4c0e9a786abd3a41313bd352db15391a4506105a08301527f505050565b600160a060020a03818116600090815260016020526040812054906105c08301527f9116151561059a5750806105b7565b50600160a060020a0380821660009081526105e08301527f60016020526040902054165b919050565b336105c683610570565b600160a0606106008301527f020a031614610624576040805160e560020a62461bcd02815260206004820152610620830152763007b0124100a93fa737ba103a34329036b0b730b3b2b960491b61064083015277604482015290519081900360640190fd5b81600160a060026106608301527f0a031681600160a060020a0316146106435780610646565b60005b600160a0606106808301526001768280e0e04598002060549800580814981020208820151d60421b036106a083015273e6e96a7ae96a6f6ae86f6baa6dae6e7be96d6f6e196106c08301527f7f605c2dbf762e5f7d60a546d42e7205dcb1b011ebc62a61736a57c9089d3a436106e08301527f509190a35050565b6000828260405160200180838380828437808301925050506107008301527f925050506040516020818303038152906040528051906020012090505b9291506107208301527f50565b6106f882826107ef565b610703576000610705565b815b600160a060026107408301527f0a03928316600081815260208181526040808320600160e060020a031996909661076083015260016c05a02114a56094a020c820151d609a1b036107808301527fff191695909716949094179095559081526002845281812092815291909252206107a08301527f805460ff19166001179055565b600080600160a060020a0384161561079057836107c08301527f610792565b335b905061079d8361092a565b156107c357826107ad82826108aa6107e08301527f565b6107b85760006107ba565b815b925050506106e8565b600160a060020a036108008301527f9081166000908152602081815260408083208684529091529020541690509291610820830152705050565b6000808061081d857f01ffc9a760781b6108408301527261094c565b909250905081158061082d5750806108608301527f155b1561083d576000925050506106e8565b61084f85600160e060020a0319616108808301527f094c565b909250905081158061086057508015155b15610870576000925050506108a08301527f6106e8565b61087a858561094c565b909250905060018214801561088f5750806108c08301527f6001145b1561089f576001925050506106e8565b506000949350505050565b606108e08301527f0160a060020a0382166000908152600260209081526040808320600160e060026109008301527f0a03198516845290915281205460ff1615156108f2576108eb83836107ef565b6109208301527f90506106e8565b50600160a060020a03808316600081815260208181526040806109408301527f8320600160e060020a0319871684529091529020549091161492915050565b7b61096083015263e9ea6fa919610980830152685b6040517f01ffc9a760b81b6109a08301527a8082526004820183905260009182919060208160248189617530fa6109c08301527f90519096909550935050505056fea165627a7a72305820377f4a2d4301ede9946109e08301527f9f163f319021a6e9c687c292a5e2b2c4734c126b524e6c00291ba01820182018610a008301527f201820182018201820182018201820182018201820182018201820a018201820610a208301527f1820182018201820182018201820182018201820182018201820182000000000610a40830152565b346100e55760003660031901126100e5576020604051662386f26fc100008152f35b6040519060c082016001600160401b03811183821017611130576040908152608183527f04f87e8085174876e800830186a08080ad601f80600e600039806000f350fe6060208401527e3681823780368234f58015156014578182fd5b80825250506014600cf31ba0908301527f222222222222222222222222222222222222222222222222222222222222222260608301527fa0222222222222222222222222222222222222222222222222222222222222226080830152601160f91b60a0830152565b604051906101a082016001600160401b0381118382101761113057604090815261017083527f04f9016c8085174876e8008303c4d88080b9015460806040523480156100105760208401527f600080fd5b50610134806100206000396000f3fe6080604052348015600f5760908301527e80fd5b506004361060285760003560e01c80634af63f0214602d575b60008060608301527ffd5b60cf60048036036040811015604157600080fd5b8101906020810181356460808301527f0100000000811115605b57600080fd5b820183602082011115606c57600080fd60a08301527f5b80359060200191846001830284011164010000000083111715608d5760008060c08301527ffd5b91908080601f01602080910402602001604051908101604052809392919060e08301527f818152602001838380828437600092019190915250929550509135925060eb916101008301527f5050565b604080516001600160a01b039092168252519081900360200190f35b6101208301527f6000818351602085016000f5939250505056fea26469706673582212206b44f86101408301527fa82cb6b156bfcc3dc6aadd6df4eefd204bc928a4397fd15dacf6d5320564736f6101608301526f06c634300060200331b832470008224760841b610180830152565b9190820180921161084657565b8181029291811591840414171561084657565b60ff6011199116019060ff821161084657565b60ff166012039060ff821161084657565b60ff16604d811161084657600a0a9056fea26469706673582212205cf1aa8018069a33c6bbafae44d01b6dcad096659fba1f251e57b9bbb0a52a0c64736f6c63430008130033",
  "linkReferences": {},
  "deployedLinkReferences": {}
}