{
  "_format": "hh-sol-artifact-1",
  "contractName": "SequencerInbox",
  "sourceName": "src/bridge/SequencerInbox.sol",
  "abi": [
    {
      "inputs": [
        {
          "internalType": "uint256",
          "name": "_maxDataSize",
          "type": "uint256"
        },
        {
          "internalType": "contract IReader4844",
          "name": "reader4844_",
          "type": "address"
        },
        {
          "internalType": "bool",
          "name": "_isUsingFeeToken",
          "type": "bool"
        }
      ],
      "stateMutability": "nonpayable",
      "type": "constructor"
    },
    {
      "inputs": [],
      "name": "AlreadyInit",
      "type": "error"
    },
    {
      "inputs": [
        {
          "internalType": "bytes32",
          "name": "",
          "type": "bytes32"
        }
      ],
      "name": "AlreadyValidDASKeyset",
      "type": "error"
    },
    {
      "inputs": [],
      "name": "BadMaxTimeVariation",
      "type": "error"
    },
    {
      "inputs": [],
      "name": "BadPostUpgradeInit",
      "type": "error"
    },
    {
      "inputs": [
        {
          "internalType": "uint256",
          "name": "stored",
          "type": "uint256"
        },
        {
          "internalType": "uint256",
          "name": "received",
          "type": "uint256"
        }
      ],
      "name": "BadSequencerNumber",
      "type": "error"
    },
    {
      "inputs": [],
      "name": "DataBlobsNotSupported",
      "type": "error"
    },
    {
      "inputs": [
        {
          "internalType": "uint256",
          "name": "dataLength",
          "type": "uint256"
        },
        {
          "internalType": "uint256",
          "name": "maxDataLength",
          "type": "uint256"
        }
      ],
      "name": "DataTooLarge",
      "type": "error"
    },
    {
      "inputs": [],
      "name": "DelayedBackwards",
      "type": "error"
    },
    {
      "inputs": [],
      "name": "DelayedTooFar",
      "type": "error"
    },
    {
      "inputs": [],
      "name": "Deprecated",
      "type": "error"
    },
    {
      "inputs": [],
      "name": "ForceIncludeBlockTooSoon",
      "type": "error"
    },
    {
      "inputs": [],
      "name": "ForceIncludeTimeTooSoon",
      "type": "error"
    },
    {
      "inputs": [],
      "name": "HadZeroInit",
      "type": "error"
    },
    {
      "inputs": [],
      "name": "IncorrectMessagePreimage",
      "type": "error"
    },
    {
      "inputs": [
        {
          "internalType": "string",
          "name": "name",
          "type": "string"
        }
      ],
      "name": "InitParamZero",
      "type": "error"
    },
    {
      "inputs": [],
      "name": "InvalidCelestiaBatch",
      "type": "error"
    },
    {
      "inputs": [
        {
          "internalType": "bytes1",
          "name": "",
          "type": "bytes1"
        }
      ],
      "name": "InvalidHeaderFlag",
      "type": "error"
    },
    {
      "inputs": [],
      "name": "MissingDataHashes",
      "type": "error"
    },
    {
      "inputs": [],
      "name": "NativeTokenMismatch",
      "type": "error"
    },
    {
      "inputs": [
        {
          "internalType": "bytes32",
          "name": "",
          "type": "bytes32"
        }
      ],
      "name": "NoSuchKeyset",
      "type": "error"
    },
    {
      "inputs": [],
      "name": "NotBatchPoster",
      "type": "error"
    },
    {
      "inputs": [
        {
          "internalType": "address",
          "name": "",
          "type": "address"
        }
      ],
      "name": "NotBatchPosterManager",
      "type": "error"
    },
    {
      "inputs": [],
      "name": "NotForked",
      "type": "error"
    },
    {
      "inputs": [],
      "name": "NotOrigin",
      "type": "error"
    },
    {
      "inputs": [
        {
          "internalType": "address",
          "name": "sender",
          "type": "address"
        },
        {
          "internalType": "address",
          "name": "owner",
          "type": "address"
        }
      ],
      "name": "NotOwner",
      "type": "error"
    },
    {
      "inputs": [],
      "name": "RollupNotChanged",
      "type": "error"
    },
    {
      "anonymous": false,
      "inputs": [
        {
          "indexed": true,
          "internalType": "uint256",
          "name": "messageNum",
          "type": "uint256"
        },
        {
          "indexed": false,
          "internalType": "bytes",
          "name": "data",
          "type": "bytes"
        }
      ],
      "name": "InboxMessageDelivered",
      "type": "event"
    },
    {
      "anonymous": false,
      "inputs": [
        {
          "indexed": true,
          "internalType": "uint256",
          "name": "messageNum",
          "type": "uint256"
        }
      ],
      "name": "InboxMessageDeliveredFromOrigin",
      "type": "event"
    },
    {
      "anonymous": false,
      "inputs": [
        {
          "indexed": true,
          "internalType": "bytes32",
          "name": "keysetHash",
          "type": "bytes32"
        }
      ],
      "name": "InvalidateKeyset",
      "type": "event"
    },
    {
      "anonymous": false,
      "inputs": [
        {
          "indexed": true,
          "internalType": "uint256",
          "name": "id",
          "type": "uint256"
        }
      ],
      "name": "OwnerFunctionCalled",
      "type": "event"
    },
    {
      "anonymous": false,
      "inputs": [
        {
          "indexed": true,
          "internalType": "uint256",
          "name": "batchSequenceNumber",
          "type": "uint256"
        },
        {
          "indexed": false,
          "internalType": "bytes",
          "name": "data",
          "type": "bytes"
        }
      ],
      "name": "SequencerBatchData",
      "type": "event"
    },
    {
      "anonymous": false,
      "inputs": [
        {
          "indexed": true,
          "internalType": "uint256",
          "name": "batchSequenceNumber",
          "type": "uint256"
        },
        {
          "indexed": true,
          "internalType": "bytes32",
          "name": "beforeAcc",
          "type": "bytes32"
        },
        {
          "indexed": true,
          "internalType": "bytes32",
          "name": "afterAcc",
          "type": "bytes32"
        },
        {
          "indexed": false,
          "internalType": "bytes32",
          "name": "delayedAcc",
          "type": "bytes32"
        },
        {
          "indexed": false,
          "internalType": "uint256",
          "name": "afterDelayedMessagesRead",
          "type": "uint256"
        },
        {
          "components": [
            {
              "internalType": "uint64",
              "name": "minTimestamp",
              "type": "uint64"
            },
            {
              "internalType": "uint64",
              "name": "maxTimestamp",
              "type": "uint64"
            },
            {
              "internalType": "uint64",
              "name": "minBlockNumber",
              "type": "uint64"
            },
            {
              "internalType": "uint64",
              "name": "maxBlockNumber",
              "type": "uint64"
            }
          ],
          "indexed": false,
          "internalType": "struct IBridge.TimeBounds",
          "name": "timeBounds",
          "type": "tuple"
        },
        {
          "indexed": false,
          "internalType": "enum IBridge.BatchDataLocation",
          "name": "dataLocation",
          "type": "uint8"
        }
      ],
      "name": "SequencerBatchDelivered",
      "type": "event"
    },
    {
      "anonymous": false,
      "inputs": [
        {
          "indexed": true,
          "internalType": "bytes32",
          "name": "keysetHash",
          "type": "bytes32"
        },
        {
          "indexed": false,
          "internalType": "bytes",
          "name": "keysetBytes",
          "type": "bytes"
        }
      ],
      "name": "SetValidKeyset",
      "type": "event"
    },
    {
      "inputs": [],
      "name": "BROTLI_MESSAGE_HEADER_FLAG",
      "outputs": [
        {
          "internalType": "bytes1",
          "name": "",
          "type": "bytes1"
        }
      ],
      "stateMutability": "view",
      "type": "function"
    },
    {
      "inputs": [],
      "name": "CELESTIA_MESSAGE_HEADER_FLAG",
      "outputs": [
        {
          "internalType": "bytes1",
          "name": "",
          "type": "bytes1"
        }
      ],
      "stateMutability": "view",
      "type": "function"
    },
    {
      "inputs": [],
      "name": "DAS_MESSAGE_HEADER_FLAG",
      "outputs": [
        {
          "internalType": "bytes1",
          "name": "",
          "type": "bytes1"
        }
      ],
      "stateMutability": "view",
      "type": "function"
    },
    {
      "inputs": [],
      "name": "DATA_AUTHENTICATED_FLAG",
      "outputs": [
        {
          "internalType": "bytes1",
          "name": "",
          "type": "bytes1"
        }
      ],
      "stateMutability": "view",
      "type": "function"
    },
    {
      "inputs": [],
      "name": "DATA_BLOB_HEADER_FLAG",
      "outputs": [
        {
          "internalType": "bytes1",
          "name": "",
          "type": "bytes1"
        }
      ],
      "stateMutability": "view",
      "type": "function"
    },
    {
      "inputs": [],
      "name": "HEADER_LENGTH",
      "outputs": [
        {
          "internalType": "uint256",
          "name": "",
          "type": "uint256"
        }
      ],
      "stateMutability": "view",
      "type": "function"
    },
    {
      "inputs": [],
      "name": "TREE_DAS_MESSAGE_HEADER_FLAG",
      "outputs": [
        {
          "internalType": "bytes1",
          "name": "",
          "type": "bytes1"
        }
      ],
      "stateMutability": "view",
      "type": "function"
    },
    {
      "inputs": [],
      "name": "ZERO_HEAVY_MESSAGE_HEADER_FLAG",
      "outputs": [
        {
          "internalType": "bytes1",
          "name": "",
          "type": "bytes1"
        }
      ],
      "stateMutability": "view",
      "type": "function"
    },
    {
      "inputs": [
        {
          "internalType": "uint256",
          "name": "sequenceNumber",
          "type": "uint256"
        },
        {
          "internalType": "bytes",
          "name": "data",
          "type": "bytes"
        },
        {
          "internalType": "uint256",
          "name": "afterDelayedMessagesRead",
          "type": "uint256"
        },
        {
          "internalType": "contract IGasRefunder",
          "name": "gasRefunder",
          "type": "address"
        },
        {
          "internalType": "uint256",
          "name": "prevMessageCount",
          "type": "uint256"
        },
        {
          "internalType": "uint256",
          "name": "newMessageCount",
          "type": "uint256"
        }
      ],
      "name": "addSequencerL2Batch",
      "outputs": [],
      "stateMutability": "nonpayable",
      "type": "function"
    },
    {
      "inputs": [
        {
          "internalType": "uint256",
          "name": "sequenceNumber",
          "type": "uint256"
        },
        {
          "internalType": "uint256",
          "name": "afterDelayedMessagesRead",
          "type": "uint256"
        },
        {
          "internalType": "contract IGasRefunder",
          "name": "gasRefunder",
          "type": "address"
        },
        {
          "internalType": "uint256",
          "name": "prevMessageCount",
          "type": "uint256"
        },
        {
          "internalType": "uint256",
          "name": "newMessageCount",
          "type": "uint256"
        }
      ],
      "name": "addSequencerL2BatchFromBlobs",
      "outputs": [],
      "stateMutability": "nonpayable",
      "type": "function"
    },
    {
      "inputs": [
        {
          "internalType": "uint256",
          "name": "",
          "type": "uint256"
        },
        {
          "internalType": "bytes",
          "name": "",
          "type": "bytes"
        },
        {
          "internalType": "uint256",
          "name": "",
          "type": "uint256"
        },
        {
          "internalType": "contract IGasRefunder",
          "name": "",
          "type": "address"
        }
      ],
      "name": "addSequencerL2BatchFromOrigin",
      "outputs": [],
      "stateMutability": "pure",
      "type": "function"
    },
    {
      "inputs": [
        {
          "internalType": "uint256",
          "name": "sequenceNumber",
          "type": "uint256"
        },
        {
          "internalType": "bytes",
          "name": "data",
          "type": "bytes"
        },
        {
          "internalType": "uint256",
          "name": "afterDelayedMessagesRead",
          "type": "uint256"
        },
        {
          "internalType": "contract IGasRefunder",
          "name": "gasRefunder",
          "type": "address"
        },
        {
          "internalType": "uint256",
          "name": "prevMessageCount",
          "type": "uint256"
        },
        {
          "internalType": "uint256",
          "name": "newMessageCount",
          "type": "uint256"
        }
      ],
      "name": "addSequencerL2BatchFromOrigin",
      "outputs": [],
      "stateMutability": "nonpayable",
      "type": "function"
    },
    {
      "inputs": [],
      "name": "batchCount",
      "outputs": [
        {
          "internalType": "uint256",
          "name": "",
          "type": "uint256"
        }
      ],
      "stateMutability": "view",
      "type": "function"
    },
    {
      "inputs": [],
      "name": "batchPosterManager",
      "outputs": [
        {
          "internalType": "address",
          "name": "",
          "type": "address"
        }
      ],
      "stateMutability": "view",
      "type": "function"
    },
    {
      "inputs": [],
      "name": "bridge",
      "outputs": [
        {
          "internalType": "contract IBridge",
          "name": "",
          "type": "address"
        }
      ],
      "stateMutability": "view",
      "type": "function"
    },
    {
      "inputs": [
        {
          "internalType": "bytes32",
          "name": "",
          "type": "bytes32"
        }
      ],
      "name": "dasKeySetInfo",
      "outputs": [
        {
          "internalType": "bool",
          "name": "isValidKeyset",
          "type": "bool"
        },
        {
          "internalType": "uint64",
          "name": "creationBlock",
          "type": "uint64"
        }
      ],
      "stateMutability": "view",
      "type": "function"
    },
    {
      "inputs": [
        {
          "internalType": "uint256",
          "name": "_totalDelayedMessagesRead",
          "type": "uint256"
        },
        {
          "internalType": "uint8",
          "name": "kind",
          "type": "uint8"
        },
        {
          "internalType": "uint64[2]",
          "name": "l1BlockAndTime",
          "type": "uint64[2]"
        },
        {
          "internalType": "uint256",
          "name": "baseFeeL1",
          "type": "uint256"
        },
        {
          "internalType": "address",
          "name": "sender",
          "type": "address"
        },
        {
          "internalType": "bytes32",
          "name": "messageDataHash",
          "type": "bytes32"
        }
      ],
      "name": "forceInclusion",
      "outputs": [],
      "stateMutability": "nonpayable",
      "type": "function"
    },
    {
      "inputs": [
        {
          "internalType": "bytes32",
          "name": "ksHash",
          "type": "bytes32"
        }
      ],
      "name": "getKeysetCreationBlock",
      "outputs": [
        {
          "internalType": "uint256",
          "name": "",
          "type": "uint256"
        }
      ],
      "stateMutability": "view",
      "type": "function"
    },
    {
      "inputs": [
        {
          "internalType": "uint256",
          "name": "index",
          "type": "uint256"
        }
      ],
      "name": "inboxAccs",
      "outputs": [
        {
          "internalType": "bytes32",
          "name": "",
          "type": "bytes32"
        }
      ],
      "stateMutability": "view",
      "type": "function"
    },
    {
      "inputs": [
        {
          "internalType": "contract IBridge",
          "name": "bridge_",
          "type": "address"
        },
        {
          "components": [
            {
              "internalType": "uint256",
              "name": "delayBlocks",
              "type": "uint256"
            },
            {
              "internalType": "uint256",
              "name": "futureBlocks",
              "type": "uint256"
            },
            {
              "internalType": "uint256",
              "name": "delaySeconds",
              "type": "uint256"
            },
            {
              "internalType": "uint256",
              "name": "futureSeconds",
              "type": "uint256"
            }
          ],
          "internalType": "struct ISequencerInbox.MaxTimeVariation",
          "name": "maxTimeVariation_",
          "type": "tuple"
        }
      ],
      "name": "initialize",
      "outputs": [],
      "stateMutability": "nonpayable",
      "type": "function"
    },
    {
      "inputs": [
        {
          "internalType": "bytes32",
          "name": "ksHash",
          "type": "bytes32"
        }
      ],
      "name": "invalidateKeysetHash",
      "outputs": [],
      "stateMutability": "nonpayable",
      "type": "function"
    },
    {
      "inputs": [
        {
          "internalType": "address",
          "name": "",
          "type": "address"
        }
      ],
      "name": "isBatchPoster",
      "outputs": [
        {
          "internalType": "bool",
          "name": "",
          "type": "bool"
        }
      ],
      "stateMutability": "view",
      "type": "function"
    },
    {
      "inputs": [
        {
          "internalType": "address",
          "name": "",
          "type": "address"
        }
      ],
      "name": "isSequencer",
      "outputs": [
        {
          "internalType": "bool",
          "name": "",
          "type": "bool"
        }
      ],
      "stateMutability": "view",
      "type": "function"
    },
    {
      "inputs": [],
      "name": "isUsingFeeToken",
      "outputs": [
        {
          "internalType": "bool",
          "name": "",
          "type": "bool"
        }
      ],
      "stateMutability": "view",
      "type": "function"
    },
    {
      "inputs": [
        {
          "internalType": "bytes32",
          "name": "ksHash",
          "type": "bytes32"
        }
      ],
      "name": "isValidKeysetHash",
      "outputs": [
        {
          "internalType": "bool",
          "name": "",
          "type": "bool"
        }
      ],
      "stateMutability": "view",
      "type": "function"
    },
    {
      "inputs": [],
      "name": "maxDataSize",
      "outputs": [
        {
          "internalType": "uint256",
          "name": "",
          "type": "uint256"
        }
      ],
      "stateMutability": "view",
      "type": "function"
    },
    {
      "inputs": [],
      "name": "maxTimeVariation",
      "outputs": [
        {
          "internalType": "uint256",
          "name": "",
          "type": "uint256"
        },
        {
          "internalType": "uint256",
          "name": "",
          "type": "uint256"
        },
        {
          "internalType": "uint256",
          "name": "",
          "type": "uint256"
        },
        {
          "internalType": "uint256",
          "name": "",
          "type": "uint256"
        }
      ],
      "stateMutability": "view",
      "type": "function"
    },
    {
      "inputs": [],
      "name": "postUpgradeInit",
      "outputs": [],
      "stateMutability": "nonpayable",
      "type": "function"
    },
    {
      "inputs": [],
      "name": "reader4844",
      "outputs": [
        {
          "internalType": "contract IReader4844",
          "name": "",
          "type": "address"
        }
      ],
      "stateMutability": "view",
      "type": "function"
    },
    {
      "inputs": [],
      "name": "removeDelayAfterFork",
      "outputs": [],
      "stateMutability": "nonpayable",
      "type": "function"
    },
    {
      "inputs": [],
      "name": "rollup",
      "outputs": [
        {
          "internalType": "contract IOwnable",
          "name": "",
          "type": "address"
        }
      ],
      "stateMutability": "view",
      "type": "function"
    },
    {
      "inputs": [
        {
          "internalType": "address",
          "name": "newBatchPosterManager",
          "type": "address"
        }
      ],
      "name": "setBatchPosterManager",
      "outputs": [],
      "stateMutability": "nonpayable",
      "type": "function"
    },
    {
      "inputs": [
        {
          "internalType": "address",
          "name": "addr",
          "type": "address"
        },
        {
          "internalType": "bool",
          "name": "isBatchPoster_",
          "type": "bool"
        }
      ],
      "name": "setIsBatchPoster",
      "outputs": [],
      "stateMutability": "nonpayable",
      "type": "function"
    },
    {
      "inputs": [
        {
          "internalType": "address",
          "name": "addr",
          "type": "address"
        },
        {
          "internalType": "bool",
          "name": "isSequencer_",
          "type": "bool"
        }
      ],
      "name": "setIsSequencer",
      "outputs": [],
      "stateMutability": "nonpayable",
      "type": "function"
    },
    {
      "inputs": [
        {
          "components": [
            {
              "internalType": "uint256",
              "name": "delayBlocks",
              "type": "uint256"
            },
            {
              "internalType": "uint256",
              "name": "futureBlocks",
              "type": "uint256"
            },
            {
              "internalType": "uint256",
              "name": "delaySeconds",
              "type": "uint256"
            },
            {
              "internalType": "uint256",
              "name": "futureSeconds",
              "type": "uint256"
            }
          ],
          "internalType": "struct ISequencerInbox.MaxTimeVariation",
          "name": "maxTimeVariation_",
          "type": "tuple"
        }
      ],
      "name": "setMaxTimeVariation",
      "outputs": [],
      "stateMutability": "nonpayable",
      "type": "function"
    },
    {
      "inputs": [
        {
          "internalType": "bytes",
          "name": "keysetBytes",
          "type": "bytes"
        }
      ],
      "name": "setValidKeyset",
      "outputs": [],
      "stateMutability": "nonpayable",
      "type": "function"
    },
    {
      "inputs": [],
      "name": "totalDelayedMessagesRead",
      "outputs": [
        {
          "internalType": "uint256",
          "name": "",
          "type": "uint256"
        }
      ],
      "stateMutability": "view",
      "type": "function"
    },
    {
      "inputs": [],
      "name": "updateRollupAddress",
      "outputs": [],
      "stateMutability": "nonpayable",
      "type": "function"
    }
  ],
  "bytecode": "0x610160604090808252346200023e57606081620031e4803803809162000026828562000243565b8339810103126200023e578051906020928382015160018060a01b038116928382036200023e578201519283151584036200023e57306080526202000060a0524661010090815283516302881c7960e11b818901908152600482529197916001600160401b03918087018381118282101762000228578752600080928192519060645afa913d156200021d573d90811162000209578651849291620000d5601f8201601f191685018362000243565b81528091833d92013e5b82620001fd575b505061012081815260e09790975215620001be5750620001ad575b60c0526101409182525191612f7c9384620002688539608051848181610eae01526122a0015260a05184611d8f015260c05184818161151f015281816119f801528181611a5d01528181611c8801528181611cda0152611d36015260e0518481816106b70152612b11015251838181610e4001526126f6015251828181610ace015281816112610152611bd801525181818161102e0152818161145201528181611f41015261230b0152f35b81516386657a5360e01b8152600490fd5b9015620001cc575062000101565b6064908351906380fc2c0360e01b82526004820152600a60248201526914995859195c8d0e0d0d60b21b6044820152fd5b511490508138620000e6565b634e487b7160e01b82526041600452602482fd5b5050816060620000df565b634e487b7160e01b600052604160045260246000fd5b600080fd5b601f909101601f19168101906001600160401b03821190821017620002285760405256fe608080604052600436101561001357600080fd5b60003560e01c90816302c99275146124e95750806306f13056146124685780631637be481461243757806316af91a71461241b5780631f7a92b2146122675780631f956632146121b95780631ff64790146120dc578063258f04951461206157806327957a49146120455780632cbf74e5146120255780633e5aa0821461199c5780635fd9e56d1461197c5780636ae71f121461185b5780636c8904501461183b5780636d46e987146117fc5780636e7df3e7146117365780636f12b0c9146116e0578063715ea34b1461169e57806371c3e6fe1461165f5780637fa3a40e14611641578063844208601461154e5780638d910dde146115095780638f111f3c1461105357806392d9f7821461101657806395fcea7814610e8f57806396cc5c7814610e2c578063b31761f814610d39578063cb23bcb514610d10578063cc2a1a0c14610ce7578063d1ce8da8146109cd578063d9dd67ab14610949578063e0bc972914610723578063e5a358c814610703578063e78cea92146106da578063e8eb1dc31461069f578063ebea461d1461065b578063f1981578146101e65763f60a5091146101c157600080fd5b346101e15760003660031901126101e157604051600160ff1b8152602090f35b600080fd5b346101e15760e03660031901126101e15760043560249081359160ff831683036101e157366084116101e1576001600160a01b039260a435919084831683036101e157600054918285111561051a5761023d61274c565b91610246612762565b60001987019387851161064657604051916020978884019460ff60f81b9060f81b16855260018060601b03199060601b16602184015260018060c01b0319809260c01b16603584015260c01b16603d820152836045820152608435606582015260c4356085820152608581526102bb81612601565b519020926102c761274c565b600a54976001600160401b0394916102e290868b1690612785565b854391161015610634576103046102f7612762565b8660809b8c1c1690612785565b854291161015610622576000906001891161059c575b600154169560405192636ab8cee160e11b84526004840152878386818a5afa9283156104cf5760009361056d575b50604051908882019283526040820152604081526103658161261c565b5190200361055b57610375612979565b5061037f8661299e565b92908681519101209460405192632fe5250b60e11b84528784600481855afa9384156104cf5760009461052c575b50881061051a5760405163eca067ad60e01b81528781600481855afa9081156104cf576000916104ed575b5088116104db57879560006084928b95604051998a96879563432cc52b60e11b8752600487015285015280604485015260648401525af19586156104cf5760009460009660009560009961047e575b5092849260e09560609386600080516020612f078339815191529997600055604051978852818801528184511660408801528301511683860152836040830151169085015201511660a0820152600260c0820152a4005b975097509450809192935085813d83116104c8575b61049d8183612637565b810103126101e1578451848601516040870151606090970151979096919591949392919060e0610427565b503d610493565b6040513d6000823e3d90fd5b60405163925f8bd360e01b8152600490fd5b90508781813d8311610513575b6105048183612637565b810103126101e157518a6103d8565b503d6104fa565b604051633eb9f37d60e11b8152600490fd5b9093508781813d8311610554575b6105448183612637565b810103126101e15751928a6103ad565b503d61053a565b6040516313947fd760e01b8152600490fd5b9092508781813d8311610595575b6105858183612637565b810103126101e15751918a610348565b503d61057b565b80915060015416600119890189811161060d5788908660405180948193636ab8cee160e11b835260048301525afa9081156104cf576000916105e0575b509061031a565b90508781813d8311610606575b6105f78183612637565b810103126101e157518a6105d9565b503d6105ed565b85634e487b7160e01b60005260116004526000fd5b60405163c76d17e560e01b8152600490fd5b60405163ad3515d960e01b8152600490fd5b83634e487b7160e01b60005260116004526000fd5b346101e15760003660031901126101e15760806106766126f4565b90926040519360018060401b038094818094168752166020860152166040840152166060820152f35b346101e15760003660031901126101e15760206040517f00000000000000000000000000000000000000000000000000000000000000008152f35b346101e15760003660031901126101e1576001546040516001600160a01b039091168152602090f35b346101e15760003660031901126101e157604051600160fe1b8152602090f35b346101e15761073136612578565b95929490949391935a95336000526020976003895260ff604060002054161580610934575b6109225761077091610769848787612af7565b9490612ce0565b93909192968088141580610916575b6108f85750600080516020612f0783398151915260e07ffe325ca1efe4c5c1062c981c3ee74b781debe4ea9440306a96d2a55759c66c2097969594938c60608b956000546040519485528385015260018060401b038093818351166040870152820151168285015282604082015116608085015201511660a0820152600160c0820152a461081260405192839283612951565b0390a26001600160a01b03168061082557005b36601f81018082116108e25760051c9160068302838104600614841517156108e2576108a19461086561086b9261085c89976127de565b60091c9061279e565b9061279e565b913332146108d857506108826000925b5a90612778565b600060405180968195829463e3db8a4960e01b84523360048501612933565b03925af180156104cf576108b2575b005b816108b092903d106108d1575b6108c98183612637565b81019061291b565b503d6108bf565b916108829061087b565b634e487b7160e01b600052601160045260246000fd5b876044916040519163ac7411c960e01b835260048301526024820152fd5b5060001981141561077f565b604051632dd9fc9760e01b8152600490fd5b506002546001600160a01b0316331415610756565b346101e1576020806003193601126101e1576001546040516316bf557960e01b81526004803590820152908290829060249082906001600160a01b03165afa9081156104cf576000916109a0575b50604051908152f35b90508181813d83116109c6575b6109b78183612637565b810103126101e1575182610997565b503d6109ad565b346101e1576020806003193601126101e1576001600160401b03906004358281116101e157610a0090369060040161254b565b600254604051638da5cb5b60e01b8082529293926001600160a01b039283169290918681600481875afa9081156104cf57600091610cca575b50163303610c59575050838211610c4357604051610a60601f8401601f1916850182612637565b8281528381019036848401116101e1578383833760008585830101525190206040519084820190607f60f91b8252602183015260218252610aa08261261c565b90519020600160ff1b189362010000831015610c0857846000526008845260ff60406000205416610bef57437f0000000000000000000000000000000000000000000000000000000000000000610b91575b60087fabca9b7986bc22ad0160eb0cb88ae75411eacfba4052af0b457a9335ef6557229560405193610b23856125cb565b60018552818501931683528760005252610b4560406000209251151583612ed5565b518154610100600160481b03191660089190911b610100600160481b0316179055604051918291610b77919083612951565b0390a26002600080516020612f27833981519152600080a2005b5060405163a3b1b31d60e01b815293808560048160645afa9485156104cf57600095610bbf575b5093610af2565b94508085813d8311610be8575b610bd68183612637565b810103126101e1579351936008610bb8565b503d610bcc565b604051637d17eeed60e11b815260048101869052602490fd5b60405162461bcd60e51b81526004810185905260136024820152726b657973657420697320746f6f206c6172676560681b6044820152606490fd5b634e487b7160e01b600052604160045260246000fd5b9084809260046040518094819382525afa9081156104cf57610c9992600092610c9d575b5050604051631194af8760e11b815291829133600484016126bb565b0390fd5b610cbc9250803d10610cc3575b610cb48183612637565b8101906126d5565b8280610c7d565b503d610caa565b610ce19150873d8911610cc357610cb48183612637565b88610a39565b346101e15760003660031901126101e157600b546040516001600160a01b039091168152602090f35b346101e15760003660031901126101e1576002546040516001600160a01b039091168152602090f35b346101e15760803660031901126101e157604051610d56816125e6565b6004358152602090602435828201526044356040820152606435606082015260018060a01b0380600254169060405190638da5cb5b60e01b918281528581600481875afa9081156104cf57600091610e0f575b50163303610dd057610dba83612e22565b6000600080516020612f278339815191528180a2005b8391925060046040518094819382525afa9081156104cf57610c9992600092610c9d575050604051631194af8760e11b815291829133600484016126bb565b610e269150863d8811610cc357610cb48183612637565b86610da9565b346101e15760003660031901126101e157467f000000000000000000000000000000000000000000000000000000000000000014610e7d576001600160401b01600160801b01600160c01b01600a55005b604051635180dd8360e11b8152600490fd5b346101e15760003660031901126101e1576001600160a01b03610ed6307f00000000000000000000000000000000000000000000000000000000000000008316141561265a565b7fb53127684a568b3173ae13b9f8a6016e243e63b6e8ee1178d6a717850b5d6103549081163303610ff857600454801580610fee575b80610fe4575b80610fda575b610fc8576001600160401b038082118015610fbd575b8015610fb2575b8015610fa7575b610f9557600160401b600160801b0360055460401b16600160801b600160c01b0360065460801b169160018060c01b031960075460c01b169316171717600a556000600455600060055560006006556000600755600080f35b60405163d0afb66160e01b8152600490fd5b508060075411610f3c565b508060065411610f35565b508060055411610f2e565b604051633bcd329760e21b8152600490fd5b5060075415610f18565b5060065415610f12565b5060055415610f0c565b604051631194af8760e11b8152908190610c999033600484016126bb565b346101e15760003660031901126101e15760206040517f000000000000000000000000000000000000000000000000000000000000000015158152f35b346101e15761106136612578565b90939194955a963233036114f75733600052600360205260ff604060002054161561092257848461109192612af7565b919095600054861061051a5760015460405163eca067ad60e01b81526001600160a01b039091169490602081600481895afa9081156104cf576000916114c5575b5087116104db5760846080926000604051978894859363432cc52b60e11b85528d60048601528c6024860152604485015260648401525af19586156104cf57600094600096600095600099611477575b5060005515158061144f575b61125c575b508084141580611250575b6112325750600080516020612f078339815191529160e0916000546040519283526020830152606060018060401b0391828151166040850152826020820151168285015282604082015116608085015201511660a0820152600060c0820152a46001600160a01b0316806111ae57005b601f36018036116108e25760051c916006830291838304600614841517156108e2576111eb61087b61120a9361086560209661085c6000996127de565b60405194858094819363e3db8a4960e01b835236903360048501612933565b03925af180156104cf5761121a57005b6108b09060203d6020116108d1576108c98183612637565b836044916040519163ac7411c960e01b835260048301526024820152fd5b5060001981141561113e565b6000907f00000000000000000000000000000000000000000000000000000000000000006113e1575b6001600160401b0382116113a557600091604051914260208401523260601b6040840152605483015286607483015248609483015260018060c01b03199060c01b1660b4820152609c81526112d981612601565b602060018060a01b036001541660448351838501206040519586938492637a88b10760e01b845232600485015260248401525af19182156104cf57600092611363575b50600080516020612ee783398151915290604080518092602082526113508151809281602086015260208686019101612ad4565b601f01601f19168101030190a288611133565b9091506020813d60201161139d575b8161137f60209383612637565b810103126101e1575190600080516020612ee783398151915261131c565b3d9150611372565b60405162461bcd60e51b8152602060048201526014602482015273115615149057d1d054d7d393d517d55253950d8d60621b6044820152606490fd5b60405163637bef0760e11b8152909150602081600481606c5afa80156104cf5760009061141b575b611415915048906127ab565b90611285565b506020813d602011611447575b8161143560209383612637565b810103126101e1576114159051611409565b3d9150611428565b507f00000000000000000000000000000000000000000000000000000000000000001561112e565b97509750945092506080853d82116114bd575b8161149760809383612637565b810103126101e1578451926020860151946060604088015197015194959694978b611122565b3d915061148a565b90506020813d6020116114ef575b816114e060209383612637565b810103126101e157518b6110d2565b3d91506114d3565b60405163feb3d07160e01b8152600490fd5b346101e15760003660031901126101e1576040517f00000000000000000000000000000000000000000000000000000000000000006001600160a01b03168152602090f35b346101e1576020806003193601126101e157600254604051638da5cb5b60e01b80825260048035936001600160a01b039081169390918690829081875afa9081156104cf57600091611624575b50163303610dd0578284816000526008815260ff604060002054161561160c576008908260005252604060002060ff1981541690557f5cb4218b272fd214168ac43e90fb4d05d6c36f0b17ffb4c2dd07c234d744eb2a600080a26003600080516020612f27833981519152600080a2005b60405162f20c5d60e01b815260048101839052602490fd5b61163b9150863d8811610cc357610cb48183612637565b8661159b565b346101e15760003660031901126101e1576020600054604051908152f35b346101e15760203660031901126101e1576001600160a01b03611680612506565b166000526003602052602060ff604060002054166040519015158152f35b346101e15760203660031901126101e15760043560009081526008602081815260409283902054835160ff821615158152921c6001600160401b031690820152f35b346101e15760803660031901126101e1576024356001600160401b0381116101e15761171090369060040161254b565b50506064356001600160a01b038116036101e1576040516331cee75f60e21b8152600490fd5b346101e1576117443661251c565b600254604051638da5cb5b60e01b81526001600160a01b03916020908290600490829086165afa80156104cf5782916000916117de575b5016331415806117d0575b6117b8576117a1921660005260036020526040600020612ed5565b6001600080516020612f27833981519152600080a2005b6040516333059da160e11b8152336004820152602490fd5b5080600b5416331415611786565b6117f6915060203d8111610cc357610cb48183612637565b8561177b565b346101e15760203660031901126101e1576001600160a01b0361181d612506565b166000526009602052602060ff604060002054166040519015158152f35b346101e15760003660031901126101e157604051600160fb1b8152602090f35b346101e15760003660031901126101e157600254604051638da5cb5b60e01b8082526001600160a01b03808416939290916020918281600481895afa80156104cf57849160009161195f575b50163303611923575060048183600154166040519283809263cb23bcb560e01b82525afa9182156104cf57600092611906575b5050168092146118f4576001600160a01b03191617600255005b60405163d054909f60e01b8152600490fd5b61191c9250803d10610cc357610cb48183612637565b84806118da565b6040519081528181600481885afa9081156104cf57610c9992600092610c9d575050604051631194af8760e11b815291829133600484016126bb565b6119769150843d8611610cc357610cb48183612637565b876118a7565b346101e15760003660031901126101e157604051606360f81b8152602090f35b346101e15760a03660031901126101e1576044356001600160a01b03811681036101e1575a9033600052600360205260ff6040600020541615610922576119e1612979565b5060405163741d16c160e11b8152916000836004817f00000000000000000000000000000000000000000000000000000000000000006001600160a01b03165afa9283156104cf57600093612008575b50825115611ff657611a4460243561299e565b604051631f6d6ef760e01b8152909491906020816004817f00000000000000000000000000000000000000000000000000000000000000006001600160a01b03165afa9081156104cf57600091611fc4575b50808060111b046202000014811517156108e2578251611ab89160111b6127cb565b91604051602081019182602082519192019060005b818110611fae5750505081611af0611b369360219303601f198101835282612637565b604051938491611b276020611b0e818601998a815193849201612ad4565b840191600560fc1b602084015251809386840190612ad4565b01036001810184520182612637565b519020904815611fa657611b4b9048906127ab565b611b5d60843560643560243585612ce0565b929760043589141580611f98575b611f78576000546040805193845260208085019290925282516001600160401b03908116858301529183015182166060808601919091529083015182166080850152909101511660a0820152600360c082015260043590600080516020612f078339815191529060e090a47f0000000000000000000000000000000000000000000000000000000000000000611f6657333214948580611f3e575b611e2b575b5050506001600160a01b038216611c1e57005b3690601f82018083116108e25760051c906006820291808304600614811517156108e257611c529261085c610865926127de565b92611c855750611c6c916020916108826000925a90612778565b03926001600160a01b03165af180156104cf5761121a57005b917f00000000000000000000000000000000000000000000000000000000000000006001600160a01b0316611cc5575b91602091610882611c6c9461087b565b60405163741d16c160e11b81526000816004817f00000000000000000000000000000000000000000000000000000000000000006001600160a01b03165afa60009181611e06575b50611d19575b50611cb5565b805115611d1357604051631f6d6ef760e01b8152906020826004817f00000000000000000000000000000000000000000000000000000000000000006001600160a01b03165afa9182156104cf57600092611dc8575b50611dbe611c6c959361086560209694611db9610882955191611db448937f0000000000000000000000000000000000000000000000000000000000000000906127cb565b6127cb565b6127ab565b9294505091611d13565b9094929391506020813d602011611dfe575b81611de760209383612637565b810103126101e15751919390929190611dbe611d6f565b3d9150611dda565b611e249192503d806000833e611e1c8183612637565b8101906128a0565b9085611d0d565b6001600160401b0382116113a5576000916040519160208301944286523260601b60408501526054840152607483015248609483015260018060c01b03199060c01b1660b4820152609c8152611e8081612601565b602060018060a01b03600154166044835186206040519586938492637a88b10760e01b845232600485015260248401525af19182156104cf57600092611f09575b506040611ef491600080516020612ee7833981519152939482519384926020845251809281602086015285850190612ad4565b601f01601f19168101030190a2838080611c0b565b91506020823d602011611f36575b81611f2460209383612637565b810103126101e1579051906040611ec1565b3d9150611f17565b507f000000000000000000000000000000000000000000000000000000000000000015611c06565b6040516386657a5360e01b8152600490fd5b60405163ac7411c960e01b815260048082018b9052356024820152604490fd5b506004356000191415611b6b565b506000611b4b565b8251845260209384019390920191600101611acd565b90506020813d602011611fee575b81611fdf60209383612637565b810103126101e1575186611a96565b3d9150611fd2565b604051631e693f5b60e11b8152600490fd5b61201e9193503d806000833e611e1c8183612637565b9183611a31565b346101e15760003660031901126101e157604051600560fc1b8152602090f35b346101e15760003660031901126101e157602060405160288152f35b346101e15760203660031901126101e157600435806000526008602052604060002060405190612090826125cb565b5460ff81161515825260081c6001600160401b0390811660209092018281529091156120c457602092505116604051908152f35b60405162f20c5d60e01b815260048101849052602490fd5b346101e1576020806003193601126101e1576120f6612506565b600254604051638da5cb5b60e01b8082526001600160a01b0394928516918381600481865afa80156104cf57869160009161219c575b5016330361215f575050501660018060a01b0319600b541617600b556005600080516020612f27833981519152600080a2005b829060046040518094819382525afa9081156104cf57610c9992600092610c9d575050604051631194af8760e11b815291829133600484016126bb565b6121b39150853d8711610cc357610cb48183612637565b8761212c565b346101e1576121c73661251c565b600254604051638da5cb5b60e01b81526001600160a01b03916020908290600490829086165afa80156104cf578291600091612249575b50163314158061223b575b6117b857612224921660005260096020526040600020612ed5565b6004600080516020612f27833981519152600080a2005b5080600b5416331415612209565b612261915060203d8111610cc357610cb48183612637565b856121fe565b346101e15760a03660031901126101e1576004356001600160a01b03818116918290036101e15760803660231901126101e1576122c8817f00000000000000000000000000000000000000000000000000000000000000001630141561265a565b600154818116610fc857821561240957604051631c2eb17b60e31b815260209290600090829085816004818a5afa600091816123ea575b506123d5575b505015157f00000000000000000000000000000000000000000000000000000000000000001515036123c3576001600160a01b0319918216841760015560405163cb23bcb560e01b8152938390859060049082905afa80156104cf576108b0946000916123a6575b501690600254161760025560405190612385826125e6565b60243582526044359082015260643560408201526084356060820152612e22565b6123bd9150843d8611610cc357610cb48183612637565b8561236d565b60405163c3e31f8d60e01b8152600490fd5b166123e2575b8186612305565b5060016123db565b612402919250873d8911610cc357610cb48183612637565b90886122ff565b604051631ad0f74360e01b8152600490fd5b346101e15760003660031901126101e157602060405160008152f35b346101e15760203660031901126101e1576004356000526008602052602060ff604060002054166040519015158152f35b346101e15760003660031901126101e1576001546040516221048360e21b815290602090829060049082906001600160a01b03165afa80156104cf576000906124b7575b602090604051908152f35b506020813d82116124e1575b816124d060209383612637565b810103126101e157602090516124ac565b3d91506124c3565b346101e15760003660031901126101e157600160fd1b8152602090f35b600435906001600160a01b03821682036101e157565b60409060031901126101e1576004356001600160a01b03811681036101e1579060243580151581036101e15790565b9181601f840112156101e1578235916001600160401b0383116101e157602083818601950101116101e157565b9060c06003198301126101e15760043591602435906001600160401b0382116101e1576125a79160040161254b565b9091604435906064356001600160a01b03811681036101e157906084359060a43590565b604081019081106001600160401b03821117610c4357604052565b608081019081106001600160401b03821117610c4357604052565b60c081019081106001600160401b03821117610c4357604052565b606081019081106001600160401b03821117610c4357604052565b601f909101601f19168101906001600160401b03821190821017610c4357604052565b1561266157565b60405162461bcd60e51b815260206004820152602c60248201527f46756e6374696f6e206d7573742062652063616c6c6564207468726f7567682060448201526b19195b1959d85d1958d85b1b60a21b6064820152608490fd5b6001600160a01b0391821681529116602082015260400190565b908160209103126101e157516001600160a01b03811681036101e15790565b7f0000000000000000000000000000000000000000000000000000000000000000461461272657600190819082908390565b600a546001600160401b0380821692604083901c821692608081901c9092169160c01c90565b6044356001600160401b03811681036101e15790565b6064356001600160401b03811681036101e15790565b919082039182116108e257565b6001600160401b0391821690821601919082116108e257565b919082018092116108e257565b81156127b5570490565b634e487b7160e01b600052601260045260246000fd5b818102929181159184041417156108e257565b600090801561289c5780806001146128945760021461288c576001918261013383101683600b8410161761287c5760028392935b80821161283f5750508260001904821161282b57500290565b634e487b7160e01b81526011600452602490fd5b9093806000190481116128685781851661285f575b800293811c90612812565b80930292612854565b634e487b7160e01b83526011600452602483fd5b929150600283910a9261282b5750565b509060049150565b505050600190565b5090565b9060209081838203126101e15782516001600160401b03938482116101e1570181601f820112156101e1578051938411610c43578360051b90604051946128e985840187612637565b855283808601928201019283116101e1578301905b82821061290c575050505090565b815181529083019083016128fe565b908160209103126101e1575180151581036101e15790565b604091949392606082019560018060a01b0316825260208201520152565b90918060409360208452816020850152848401376000828201840152601f01601f1916010190565b60405190612986826125e6565b60006060838281528260208201528260408201520152565b906129a7612979565b506129b0612979565b50612a0a6129bc612979565b926129c56126f4565b92946001600160401b03949390929185916129ee9183908181164211612aa5575b504216612785565b958160208a01971687528181164311612a8c575b504316612785565b9182166060860152845192516040860151926040519460018060c01b03199485809481809460c01b1660208a015260c01b16602888015260c01b16603086015260c01b16603884015260c01b16604082015260288152612a698161261c565b6028815103612a76579190565b634e487b7160e01b600052600160045260246000fd5b612a9890824316612abb565b1660408801528338612a02565b612ab190824216612abb565b168a5282386129e6565b6001600160401b0391821690821603919082116108e257565b60005b838110612ae75750506000910152565b8181015183820152602001612ad7565b909291612b02612979565b5083602801806028116108e2577f0000000000000000000000000000000000000000000000000000000000000000808211612cc2575050612b429061299e565b93909181158015612b90575b506020612b89916040519384918184612b70818601998a815193849201612ad4565b8401918583013701600083820152038084520182612637565b5190209190565b80612c60578135906001600160f81b0319821680158015612cb5575b8015612ca8575b8015612c9b575b8015612c8e575b15612c765750612c6057600160ff1b8116151580612c55575b612c14575b606360f81b16151580612c09575b612bf75738612b4e565b604051633a205f0960e11b8152600490fd5b506059821415612bed565b826021116101e157600182013580600052600860205260ff6040600020541615612c3e5750612bdf565b6024906040519062f20c5d60e01b82526004820152fd5b506021831015612bda565b634e487b7160e01b600052603260045260246000fd5b6024906040519063359999ab60e11b82526004820152fd5b50600160fd1b8114612bc1565b50601160fb1b8114612bba565b50606360f81b8114612bb3565b50600160ff1b8114612bac565b6044925060405191634634691b60e01b835260048301526024820152fd5b91939290926000948554851061051a576001546040805163eca067ad60e01b81529095916001600160a01b031690602081600481855afa908115612e18578991612de3575b508711612dd25760809291886084928851978895869463432cc52b60e11b865260048601528b6024860152604485015260648401525af1938415612dc8578594869487948892612d79575b50509293949555565b955095505091506080833d8211612dc0575b81612d9860809383612637565b81010312612dbc578251916060602085015195850151940151929493923880612d70565b8480fd5b3d9150612d8b565b83513d87823e3d90fd5b855163925f8bd360e01b8152600490fd5b90506020813d8211612e10575b81612dfd60209383612637565b81010312612e0c575138612d25565b8880fd5b3d9150612df0565b87513d8b823e3d90fd5b80516001600160401b039081108015612ec8575b8015612ebb575b8015612eae575b612e9c57815160208301516040808501516060909501516001600160c01b031960c09190911b16600160801b600160c01b0360809690961b9590951693909216600160401b600160801b039190921b16171717600a55565b6040516309cfba7560e01b8152600490fd5b5080606083015111612e44565b5080604083015111612e3d565b5080602083015111612e36565b9060ff80198354169115151617905556feff64905f73a67fb594e0f940a8075a860db489ad991e032f48c81123eb52d60b7394f4a19a13c7b92b5bb71033245305946ef78452f7b4986ac1390b5df4ebd7ea8787f128d10b2cc0317b0c3960f9ad447f7f6c1ed189db1083ccffd20f456ea2646970667358221220748ca7ea5c5b06aa34312d908314fcc14b3e2af4c66546063ed0431bb4275eae64736f6c63430008130033",
  "linkReferences": {},
  "deployedLinkReferences": {}
}