{
  "_format": "hh-sol-artifact-1",
  "contractName": "OneStepProverMemory",
  "sourceName": "src/osp/OneStepProverMemory.sol",
  "abi": [
    {
      "inputs": [
        {
          "components": [
            {
              "internalType": "uint256",
              "name": "maxInboxMessagesRead",
              "type": "uint256"
            },
            {
              "internalType": "contract IBridge",
              "name": "bridge",
              "type": "address"
            }
          ],
          "internalType": "struct ExecutionContext",
          "name": "",
          "type": "tuple"
        },
        {
          "components": [
            {
              "internalType": "enum MachineStatus",
              "name": "status",
              "type": "uint8"
            },
            {
              "components": [
                {
                  "components": [
                    {
                      "components": [
                        {
                          "internalType": "enum ValueType",
                          "name": "valueType",
                          "type": "uint8"
                        },
                        {
                          "internalType": "uint256",
                          "name": "contents",
                          "type": "uint256"
                        }
                      ],
                      "internalType": "struct Value[]",
                      "name": "inner",
                      "type": "tuple[]"
                    }
                  ],
                  "internalType": "struct ValueArray",
                  "name": "proved",
                  "type": "tuple"
                },
                {
                  "internalType": "bytes32",
                  "name": "remainingHash",
                  "type": "bytes32"
                }
              ],
              "internalType": "struct ValueStack",
              "name": "valueStack",
              "type": "tuple"
            },
            {
              "components": [
                {
                  "internalType": "bytes32",
                  "name": "inactiveStackHash",
                  "type": "bytes32"
                },
                {
                  "internalType": "bytes32",
                  "name": "remainingHash",
                  "type": "bytes32"
                }
              ],
              "internalType": "struct MultiStack",
              "name": "valueMultiStack",
              "type": "tuple"
            },
            {
              "components": [
                {
                  "components": [
                    {
                      "components": [
                        {
                          "internalType": "enum ValueType",
                          "name": "valueType",
                          "type": "uint8"
                        },
                        {
                          "internalType": "uint256",
                          "name": "contents",
                          "type": "uint256"
                        }
                      ],
                      "internalType": "struct Value[]",
                      "name": "inner",
                      "type": "tuple[]"
                    }
                  ],
                  "internalType": "struct ValueArray",
                  "name": "proved",
                  "type": "tuple"
                },
                {
                  "internalType": "bytes32",
                  "name": "remainingHash",
                  "type": "bytes32"
                }
              ],
              "internalType": "struct ValueStack",
              "name": "internalStack",
              "type": "tuple"
            },
            {
              "components": [
                {
                  "components": [
                    {
                      "components": [
                        {
                          "internalType": "enum ValueType",
                          "name": "valueType",
                          "type": "uint8"
                        },
                        {
                          "internalType": "uint256",
                          "name": "contents",
                          "type": "uint256"
                        }
                      ],
                      "internalType": "struct Value",
                      "name": "returnPc",
                      "type": "tuple"
                    },
                    {
                      "internalType": "bytes32",
                      "name": "localsMerkleRoot",
                      "type": "bytes32"
                    },
                    {
                      "internalType": "uint32",
                      "name": "callerModule",
                      "type": "uint32"
                    },
                    {
                      "internalType": "uint32",
                      "name": "callerModuleInternals",
                      "type": "uint32"
                    }
                  ],
                  "internalType": "struct StackFrame[]",
                  "name": "proved",
                  "type": "tuple[]"
                },
                {
                  "internalType": "bytes32",
                  "name": "remainingHash",
                  "type": "bytes32"
                }
              ],
              "internalType": "struct StackFrameWindow",
              "name": "frameStack",
              "type": "tuple"
            },
            {
              "components": [
                {
                  "internalType": "bytes32",
                  "name": "inactiveStackHash",
                  "type": "bytes32"
                },
                {
                  "internalType": "bytes32",
                  "name": "remainingHash",
                  "type": "bytes32"
                }
              ],
              "internalType": "struct MultiStack",
              "name": "frameMultiStack",
              "type": "tuple"
            },
            {
              "internalType": "bytes32",
              "name": "globalStateHash",
              "type": "bytes32"
            },
            {
              "internalType": "uint32",
              "name": "moduleIdx",
              "type": "uint32"
            },
            {
              "internalType": "uint32",
              "name": "functionIdx",
              "type": "uint32"
            },
            {
              "internalType": "uint32",
              "name": "functionPc",
              "type": "uint32"
            },
            {
              "internalType": "bytes32",
              "name": "recoveryPc",
              "type": "bytes32"
            },
            {
              "internalType": "bytes32",
              "name": "modulesRoot",
              "type": "bytes32"
            }
          ],
          "internalType": "struct Machine",
          "name": "startMach",
          "type": "tuple"
        },
        {
          "components": [
            {
              "internalType": "bytes32",
              "name": "globalsMerkleRoot",
              "type": "bytes32"
            },
            {
              "components": [
                {
                  "internalType": "uint64",
                  "name": "size",
                  "type": "uint64"
                },
                {
                  "internalType": "uint64",
                  "name": "maxSize",
                  "type": "uint64"
                },
                {
                  "internalType": "bytes32",
                  "name": "merkleRoot",
                  "type": "bytes32"
                }
              ],
              "internalType": "struct ModuleMemory",
              "name": "moduleMemory",
              "type": "tuple"
            },
            {
              "internalType": "bytes32",
              "name": "tablesMerkleRoot",
              "type": "bytes32"
            },
            {
              "internalType": "bytes32",
              "name": "functionsMerkleRoot",
              "type": "bytes32"
            },
            {
              "internalType": "bytes32",
              "name": "extraHash",
              "type": "bytes32"
            },
            {
              "internalType": "uint32",
              "name": "internalsOffset",
              "type": "uint32"
            }
          ],
          "internalType": "struct Module",
          "name": "startMod",
          "type": "tuple"
        },
        {
          "components": [
            {
              "internalType": "uint16",
              "name": "opcode",
              "type": "uint16"
            },
            {
              "internalType": "uint256",
              "name": "argumentData",
              "type": "uint256"
            }
          ],
          "internalType": "struct Instruction",
          "name": "inst",
          "type": "tuple"
        },
        {
          "internalType": "bytes",
          "name": "proof",
          "type": "bytes"
        }
      ],
      "name": "executeOneStep",
      "outputs": [
        {
          "components": [
            {
              "internalType": "enum MachineStatus",
              "name": "status",
              "type": "uint8"
            },
            {
              "components": [
                {
                  "components": [
                    {
                      "components": [
                        {
                          "internalType": "enum ValueType",
                          "name": "valueType",
                          "type": "uint8"
                        },
                        {
                          "internalType": "uint256",
                          "name": "contents",
                          "type": "uint256"
                        }
                      ],
                      "internalType": "struct Value[]",
                      "name": "inner",
                      "type": "tuple[]"
                    }
                  ],
                  "internalType": "struct ValueArray",
                  "name": "proved",
                  "type": "tuple"
                },
                {
                  "internalType": "bytes32",
                  "name": "remainingHash",
                  "type": "bytes32"
                }
              ],
              "internalType": "struct ValueStack",
              "name": "valueStack",
              "type": "tuple"
            },
            {
              "components": [
                {
                  "internalType": "bytes32",
                  "name": "inactiveStackHash",
                  "type": "bytes32"
                },
                {
                  "internalType": "bytes32",
                  "name": "remainingHash",
                  "type": "bytes32"
                }
              ],
              "internalType": "struct MultiStack",
              "name": "valueMultiStack",
              "type": "tuple"
            },
            {
              "components": [
                {
                  "components": [
                    {
                      "components": [
                        {
                          "internalType": "enum ValueType",
                          "name": "valueType",
                          "type": "uint8"
                        },
                        {
                          "internalType": "uint256",
                          "name": "contents",
                          "type": "uint256"
                        }
                      ],
                      "internalType": "struct Value[]",
                      "name": "inner",
                      "type": "tuple[]"
                    }
                  ],
                  "internalType": "struct ValueArray",
                  "name": "proved",
                  "type": "tuple"
                },
                {
                  "internalType": "bytes32",
                  "name": "remainingHash",
                  "type": "bytes32"
                }
              ],
              "internalType": "struct ValueStack",
              "name": "internalStack",
              "type": "tuple"
            },
            {
              "components": [
                {
                  "components": [
                    {
                      "components": [
                        {
                          "internalType": "enum ValueType",
                          "name": "valueType",
                          "type": "uint8"
                        },
                        {
                          "internalType": "uint256",
                          "name": "contents",
                          "type": "uint256"
                        }
                      ],
                      "internalType": "struct Value",
                      "name": "returnPc",
                      "type": "tuple"
                    },
                    {
                      "internalType": "bytes32",
                      "name": "localsMerkleRoot",
                      "type": "bytes32"
                    },
                    {
                      "internalType": "uint32",
                      "name": "callerModule",
                      "type": "uint32"
                    },
                    {
                      "internalType": "uint32",
                      "name": "callerModuleInternals",
                      "type": "uint32"
                    }
                  ],
                  "internalType": "struct StackFrame[]",
                  "name": "proved",
                  "type": "tuple[]"
                },
                {
                  "internalType": "bytes32",
                  "name": "remainingHash",
                  "type": "bytes32"
                }
              ],
              "internalType": "struct StackFrameWindow",
              "name": "frameStack",
              "type": "tuple"
            },
            {
              "components": [
                {
                  "internalType": "bytes32",
                  "name": "inactiveStackHash",
                  "type": "bytes32"
                },
                {
                  "internalType": "bytes32",
                  "name": "remainingHash",
                  "type": "bytes32"
                }
              ],
              "internalType": "struct MultiStack",
              "name": "frameMultiStack",
              "type": "tuple"
            },
            {
              "internalType": "bytes32",
              "name": "globalStateHash",
              "type": "bytes32"
            },
            {
              "internalType": "uint32",
              "name": "moduleIdx",
              "type": "uint32"
            },
            {
              "internalType": "uint32",
              "name": "functionIdx",
              "type": "uint32"
            },
            {
              "internalType": "uint32",
              "name": "functionPc",
              "type": "uint32"
            },
            {
              "internalType": "bytes32",
              "name": "recoveryPc",
              "type": "bytes32"
            },
            {
              "internalType": "bytes32",
              "name": "modulesRoot",
              "type": "bytes32"
            }
          ],
          "internalType": "struct Machine",
          "name": "mach",
          "type": "tuple"
        },
        {
          "components": [
            {
              "internalType": "bytes32",
              "name": "globalsMerkleRoot",
              "type": "bytes32"
            },
            {
              "components": [
                {
                  "internalType": "uint64",
                  "name": "size",
                  "type": "uint64"
                },
                {
                  "internalType": "uint64",
                  "name": "maxSize",
                  "type": "uint64"
                },
                {
                  "internalType": "bytes32",
                  "name": "merkleRoot",
                  "type": "bytes32"
                }
              ],
              "internalType": "struct ModuleMemory",
              "name": "moduleMemory",
              "type": "tuple"
            },
            {
              "internalType": "bytes32",
              "name": "tablesMerkleRoot",
              "type": "bytes32"
            },
            {
              "internalType": "bytes32",
              "name": "functionsMerkleRoot",
              "type": "bytes32"
            },
            {
              "internalType": "bytes32",
              "name": "extraHash",
              "type": "bytes32"
            },
            {
              "internalType": "uint32",
              "name": "internalsOffset",
              "type": "uint32"
            }
          ],
          "internalType": "struct Module",
          "name": "mod",
          "type": "tuple"
        }
      ],
      "stateMutability": "pure",
      "type": "function"
    }
  ],
  "bytecode": "0x6080806040523461001657611977908161001c8239f35b600080fdfe6080604052600436101561001257600080fd5b60003560e01c633604366f1461002757600080fd5b3461082c5736600319016101c0811261082c5760401361082c576001600160401b036044351161082c576101c06044353603600319011261082c5761010036606319011261082c5760403661016319011261082c576001600160401b036101a4351161082c573660236101a43501121561082c576001600160401b0360046101a43501351161082c573660246101a435600401356101a43501011161082c576100d06080610935565b60006080526100dd6109e0565b60a0526040516100ec81610951565b6000808252602082015260c0526101016109e0565b60e05260405161011081610951565b60608152600060208201526101005260405161012b81610951565b600080825260208201819052610120919091526101408190526101608190526101808190526101a08190526101c08190526101e081905260405160a0906101718161096c565b82815260405161018081610987565b838152836020820152836040820152602082015282604082015282606082015282608082015201526040516101b481610935565b6004604435810135101561082c57604435600481013582526001600160401b036024909101351161082c576101f436604435602481013501600401610a51565b6020820152610207366044803501610b26565b60408201526001600160401b03604435608401351161082c5761023536604435608481013501600401610a51565b606082015260443560a401356001600160401b03811161082c57604060443582013603600319011261082c576040519061026e82610951565b6044358101600401356001600160401b03811161082c573660238284604435010101121561082c576004818360443501010135906102ab82610a08565b916102b960405193846109bd565b808352602083019136602460a084028388604435010101011161082c579160248386604435010101925b602460a0840282886044350101010184106108315787876024888883526044350101356020820152608082015261031f3660c460443501610b26565b60a0820152610104604435013560c082015261034061012460443501610b4e565b60e082015261035461014460443501610b4e565b61010082015261036961016460443501610b4e565b6101208201526044356101848101356101408301526101a40135610160820152604051906103968261096c565b6064358252606036608319011261082c576040516103b381610987565b6084356001600160401b038116900361082c57608435815260a4356001600160401b038116900361082c5760a435602082015260c4356040820152602083015260e435604083015261010435606083015261012435608083015263ffffffff6101443516610144350361082c576101443560a08301526101643561ffff8116810361082c57602861ffff821610158061081d575b1561078f575060045b80600414610775578060031461075b578060021461073a5760011461048557634e487b7160e01b600052605160045260246000fd5b63ffffffff60208301515160101c166104b863ffffffff6104b16104ac6020860151611794565b6116d9565b1682610b5f565b60208481015101519091906001600160401b031682116106f657818060101b046201000014821517156106e05761050f9160018060401b039060101b16602085015152610509602084015191611760565b906118c3565b604051906101208252805160048110156106ca5761012083015261054560208201516101c06101408501526102e08401906108d8565b90602060408201518051610160860152015161018084015261057b60608201519261011f199384868303016101a08701526108d8565b608082015192848203016101c08501528251926040825260408201845180915260206060840195019060005b818110610683575050509461016063ffffffff9360a093602080899a015191015260208482015180516101e08a0152015161020088015260c08101516102208801528460e082015116610240880152846101008201511661026088015284610120820151166102808801526101408101516102a088015201516102c08601528051602086015260406020820151600180831b0381511682880152600180831b03602082015116606088015201516080860152604081015182860152606081015160c0860152608081015160e08601520151166101008301520390f35b909195602060a060019263ffffffff60608b516106a18482516108c0565b8581015160408501528260408201511682850152015116608082015201970191019190916105a7565b634e487b7160e01b600052602160045260246000fd5b634e487b7160e01b600052601160045260246000fd5b505061073560208201516000602060405161071081610951565b82815201526040519061072282610951565b6000825263ffffffff60208301526118c3565b61050f565b5061073563ffffffff60208401515160101c16610509602084015191611760565b506107356101a4356004013560246101a435018484610f19565b506107356101a4356004013560246101a435018484610b6c565b603661ffff821610158061080e575b156107ab57506003610450565b61ffff8116603f036107bf57506002610450565b61ffff166040036107d1576001610450565b60405162461bcd60e51b8152602060048201526015602482015274494e56414c49445f4d454d4f52595f4f50434f444560581b6044820152606490fd5b50603e61ffff8216111561079e565b50603561ffff82161115610447565b600080fd5b60a08436031261082c576040516001600160401b0360808201908111908211176108aa5760a0602060249483608084950160405261086f368a610a1f565b815260408901358382015261088660608a01610b4e565b604082015261089760808a01610b4e565b60608201528152019501949250506102e3565b634e487b7160e01b600052604160045260246000fd5b805160078110156106ca578252602090810151910152565b908151604092838352606083019151936020928382860152855180915283608086019601916000905b828210610915575050505081015191015290565b909192968582826109296001948c516108c0565b01980193920190610901565b61018081019081106001600160401b038211176108aa57604052565b604081019081106001600160401b038211176108aa57604052565b60c081019081106001600160401b038211176108aa57604052565b606081019081106001600160401b038211176108aa57604052565b602081019081106001600160401b038211176108aa57604052565b601f909101601f19168101906001600160401b038211908210176108aa57604052565b604051906109ed82610951565b60006020836040516109fe816109a2565b6060815281520152565b6001600160401b0381116108aa5760051b60200190565b919082604091031261082c57604051610a3781610951565b80928035600781101561082c578252602090810135910152565b60409291818103841361082c57835191610a6a83610951565b829481359260018060401b039384811161082c57830191602094858484031261082c57815193610a99856109a2565b803591821161082c570182601f8201121561082c578035610ab981610a08565b93610ac6845195866109bd565b818552878086019260061b8401019281841161082c579088809897969594939201915b838310610b00575050505050815284520135910152565b978495969798610b14838596979495610a1f565b81520192019088979695949392610ae9565b919082604091031261082c57604051610b3e81610951565b6020808294803584520135910152565b359063ffffffff8216820361082c57565b919082018092116106e057565b9092916000936101643561ffff95868216809203610f07575060288103610d7d5750600094600490610bcb87965b60208701958463ffffffff966020610bc389610bb96104ac8d51611794565b1661018435610b5f565b9101516115ae565b509590610d7057506001600160401b0385811696909590610c16575b50505050519060405192610bfa84610951565b60078510156106ca57610c149484521660208301526118c3565b565b90859394969291600192838114808091610d5b575b15610c4957505050505060ff91501660000b16915b38808080610be7565b80610d45575b15610c67575050505060ff1660000b16929050610c40565b9294919392600281148080610d30575b15610c8a575050505016900b1691610c40565b9296919280610d1a575b15610ca65750505016900b1691610c40565b91955093925060049150149081610d07575b5015610cca571660030b811691610c40565b60405162461bcd60e51b815260206004820152601560248201527410905117d491505117d096551154d7d4d251d39151605a1b6044820152606490fd5b905060078610156106ca57851438610cb8565b50955060078910156106ca578695858a14610c94565b50925060078a10156106ca5787928a15610c77565b50945060078910156106ca578694838a14610c4f565b50955060078a10156106ca5787958a15610c2b565b6002905250505050505050565b60298103610d975750600194600890610bcb600096610b9a565b602a8103610db15750600294600490610bcb600096610b9a565b602b8103610dcb5750600394600890610bcb600096610b9a565b602c8103610de45750600094600190610bcb8296610b9a565b602d8103610dfd5750600094600190610bcb8796610b9a565b602e8103610e175750600094600290610bcb600196610b9a565b602f8103610e305750600094600290610bcb8796610b9a565b60308103610e4857506001948590610bcb8796610b9a565b60318103610e6157506001948590610bcb600096610b9a565b60328103610e7a5750600194600290610bcb8796610b9a565b60338103610e945750600194600290610bcb600096610b9a565b60348103610ead5750600194600490610bcb8796610b9a565b603503610ec557600194600490610bcb600096610b9a565b60405162461bcd60e51b815260206004820152601a602482015279494e56414c49445f4d454d4f52595f4c4f41445f4f50434f444560301b6044820152606490fd5b80fd5b60001981146106e05760010190565b9290916101643561ffff811680910361082c57603681036111845750600460005b60209081870190610f4b8251611794565b90815160078110156106ca5760078210156106ca570361114e578201516001600160401b0397600894808a16948a8416949093909187871061110b575b505063ffffffff610bb96104ac610f9f9351611794565b9782610fab868b610b5f565b9101998a515116106110fd57509493956000939291939560001996604051610fd2816109a2565b6060815296819982945b868610610fff5750505050505050505091610ff991604093611262565b91510152565b90919293949596979a6110128783610b5f565b8d8160051c908d82036110b8575b5050601f168681101561107b5761103690611254565b908160031b918083048b14901517156106e05761106d9166ffffffffffffff918e60ff809116831b921b1916179c8a1c1696610f0a565b949392919097969597610fdc565b60405162461bcd60e51b81526004810188905260156024820152740848288bea68aa8be988a828cbe84b2a88abe9288b605b1b6044820152606490fd5b818691601f99949f9e89949f966110dc9760001981036110e6575b505050516113fd565b9a9b90958e611020565b6110ef92611262565b6040825101523880806110d3565b600290525050505050505050565b9194509060031b6008600160401b038116906008600160431b031681036106e0576001901b8a16600019018a81116106e0571689169263ffffffff610bb9610f88565b60405162461bcd60e51b815260048101849052600e60248201526d4241445f53544f52455f5459504560901b6044820152606490fd5b60378103611196575060086001610f3a565b603881036111a8575060046002610f3a565b603981036111ba575060086003610f3a565b603a81036111cc575060016000610f3a565b603b81036111de575060026000610f3a565b603c81036111ef5750600180610f3a565b603d8103611201575060026001610f3a565b603e036112115760046001610f3a565b60405162461bcd60e51b815260206004820152601b60248201527a494e56414c49445f4d454d4f52595f53544f52455f4f50434f444560281b6044820152606490fd5b601f0390601f82116106e057565b92604091825193602094858101916b26b2b6b7b93c903632b0b31d60a11b8352602c820152602c815261129481610987565b519020928051916112a483610951565b601383527226b2b6b7b93c9036b2b935b632903a3932b29d60691b86840152936000945b8751918251871015611357579061132691600193888584161560001461132c5761130c91506112fb61131a918d5161139e565b5187519283918d8301958b876113c8565b03601f1981018352826109bd565b519020925b1c95610f0a565b946112c8565b61133c61134e9161130c9361139e565b519287519283918d8301958b876113c8565b5190209261131f565b96955092505091945061136957505090565b60649250519062461bcd60e51b82526004820152600f60248201526e141493d3d197d513d3d7d4d213d495608a1b6044820152fd5b80518210156113b25760209160051b010190565b634e487b7160e01b600052603260045260246000fd5b9392909384519060005b8281106113ea57500191825260208201526040019150565b80602080928901015181840152016113d2565b91929490939460409160608351611413816109a2565b526000969560005b6020811061156a57509161145b9695939188959360ff999160608551611440816109a2565b5261144c8985896115a2565b359460f895861c9a8b9a610f0a565b966114658b610a08565b9961147283519b8c6109bd565b8b8b52601f196114818d610a08565b60209a9101368d8c013760009e8f5b169d8e10156115005760009060005b898d8d83106114d3575050506114b6909e8d61139e565b5260ff809e169d8e146106e057600160ff9e019d9c8c9d8f611490565b936114e7846114f5936114fb9596976115a2565b358d1c9060081b1793610f0a565b91610f0a565b61149f565b939a9b50939b50955095965061152a929a508593508351986115218a6109a2565b89529888611262565b91015103611536575050565b60649250519062461bcd60e51b82526004820152600e60248201526d15d493d391d7d3515357d493d3d560921b6044820152fd5b959396929761159061159691611581868c896115a2565b3560f81c9060081b1794610f0a565b96610f0a565b9792979693959661141b565b908210156113b2570190565b94929190946000946115c08388610b5f565b82516001600160401b0316106116cc5791906000969396198693879888965b8588106115f55750505050505050506000929190565b90919293949596996116078b83610b5f565b8060051c8681036116ae575b50601f16602080821015611671575061162b90611254565b9060039180831b926008918085048314901517156106e0578d901b908d8204148d1517156106e05760ff8a611665941c16901b179a610f0a565b969594939291906115df565b6064906040519062461bcd60e51b8252600482015260166024820152750848288bea0aa9898be988a828cbe84b2a88abe9288b60531b6044820152fd5b985094506116c1601f9a85858b8a6113fd565b509a90989590611613565b5050505091506001918190565b6020810151905160078110156106ca5761173157600160201b8110156117025763ffffffff1690565b60405162461bcd60e51b81526020600482015260076024820152662120a22fa4999960c91b6044820152606490fd5b60405162461bcd60e51b81526020600482015260076024820152662727aa2fa4999960c91b6044820152606490fd5b6000602060405161177081610951565b828152015263ffffffff6040519161178783610951565b6000835216602082015290565b906020916040516117a481610951565b6000938185809352015251918060206040516117bf81610951565b828152015282518051600019939184820191821161184e57906117e19161139e565b519284515190810190811161183a576117f990611862565b915b8251811015611834578061181361182f92875161139e565b5161181e828661139e565b52611829818561139e565b50610f0a565b6117fb565b50925290565b634e487b7160e01b83526011600452602483fd5b634e487b7160e01b84526011600452602484fd5b9061186c82610a08565b60409061187b825191826109bd565b838152809361188c601f1991610a08565b0191600090815b8481106118a1575050505050565b60209082516118af81610951565b848152828581830152828701015201611893565b51805151916001928381018091116106e0576118de90611862565b926000815b611906575b5050815151611902916118fb828661139e565b528361139e565b5052565b8351805182101561193b579061191f816119359361139e565b5161192a828861139e565b52611829818761139e565b816118e3565b506118e856fea26469706673582212200f6a00d339a1381a35def869b8898333456b15999e68c35e80f5acda2452769a64736f6c63430008130033",
  "linkReferences": {},
  "deployedLinkReferences": {}
}