{
  "_format": "hh-sol-artifact-1",
  "contractName": "UpgradeExecutorMock",
  "sourceName": "src/mocks/UpgradeExecutorMock.sol",
  "abi": [
    {
      "inputs": [],
      "stateMutability": "nonpayable",
      "type": "constructor"
    },
    {
      "anonymous": false,
      "inputs": [
        {
          "indexed": true,
          "internalType": "bytes32",
          "name": "role",
          "type": "bytes32"
        },
        {
          "indexed": true,
          "internalType": "bytes32",
          "name": "previousAdminRole",
          "type": "bytes32"
        },
        {
          "indexed": true,
          "internalType": "bytes32",
          "name": "newAdminRole",
          "type": "bytes32"
        }
      ],
      "name": "RoleAdminChanged",
      "type": "event"
    },
    {
      "anonymous": false,
      "inputs": [
        {
          "indexed": true,
          "internalType": "bytes32",
          "name": "role",
          "type": "bytes32"
        },
        {
          "indexed": true,
          "internalType": "address",
          "name": "account",
          "type": "address"
        },
        {
          "indexed": true,
          "internalType": "address",
          "name": "sender",
          "type": "address"
        }
      ],
      "name": "RoleGranted",
      "type": "event"
    },
    {
      "anonymous": false,
      "inputs": [
        {
          "indexed": true,
          "internalType": "bytes32",
          "name": "role",
          "type": "bytes32"
        },
        {
          "indexed": true,
          "internalType": "address",
          "name": "account",
          "type": "address"
        },
        {
          "indexed": true,
          "internalType": "address",
          "name": "sender",
          "type": "address"
        }
      ],
      "name": "RoleRevoked",
      "type": "event"
    },
    {
      "anonymous": false,
      "inputs": [
        {
          "indexed": true,
          "internalType": "address",
          "name": "target",
          "type": "address"
        },
        {
          "indexed": false,
          "internalType": "uint256",
          "name": "value",
          "type": "uint256"
        },
        {
          "indexed": false,
          "internalType": "bytes",
          "name": "data",
          "type": "bytes"
        }
      ],
      "name": "TargetCallExecuted",
      "type": "event"
    },
    {
      "anonymous": false,
      "inputs": [
        {
          "indexed": true,
          "internalType": "address",
          "name": "upgrade",
          "type": "address"
        },
        {
          "indexed": false,
          "internalType": "uint256",
          "name": "value",
          "type": "uint256"
        },
        {
          "indexed": false,
          "internalType": "bytes",
          "name": "data",
          "type": "bytes"
        }
      ],
      "name": "UpgradeExecuted",
      "type": "event"
    },
    {
      "inputs": [],
      "name": "ADMIN_ROLE",
      "outputs": [
        {
          "internalType": "bytes32",
          "name": "",
          "type": "bytes32"
        }
      ],
      "stateMutability": "view",
      "type": "function"
    },
    {
      "inputs": [],
      "name": "DEFAULT_ADMIN_ROLE",
      "outputs": [
        {
          "internalType": "bytes32",
          "name": "",
          "type": "bytes32"
        }
      ],
      "stateMutability": "view",
      "type": "function"
    },
    {
      "inputs": [],
      "name": "EXECUTOR_ROLE",
      "outputs": [
        {
          "internalType": "bytes32",
          "name": "",
          "type": "bytes32"
        }
      ],
      "stateMutability": "view",
      "type": "function"
    },
    {
      "inputs": [
        {
          "internalType": "address",
          "name": "upgrade",
          "type": "address"
        },
        {
          "internalType": "bytes",
          "name": "upgradeCallData",
          "type": "bytes"
        }
      ],
      "name": "execute",
      "outputs": [],
      "stateMutability": "payable",
      "type": "function"
    },
    {
      "inputs": [
        {
          "internalType": "address",
          "name": "target",
          "type": "address"
        },
        {
          "internalType": "bytes",
          "name": "targetCallData",
          "type": "bytes"
        }
      ],
      "name": "executeCall",
      "outputs": [],
      "stateMutability": "payable",
      "type": "function"
    },
    {
      "inputs": [
        {
          "internalType": "bytes32",
          "name": "role",
          "type": "bytes32"
        }
      ],
      "name": "getRoleAdmin",
      "outputs": [
        {
          "internalType": "bytes32",
          "name": "",
          "type": "bytes32"
        }
      ],
      "stateMutability": "view",
      "type": "function"
    },
    {
      "inputs": [
        {
          "internalType": "bytes32",
          "name": "role",
          "type": "bytes32"
        },
        {
          "internalType": "address",
          "name": "account",
          "type": "address"
        }
      ],
      "name": "grantRole",
      "outputs": [],
      "stateMutability": "nonpayable",
      "type": "function"
    },
    {
      "inputs": [
        {
          "internalType": "bytes32",
          "name": "role",
          "type": "bytes32"
        },
        {
          "internalType": "address",
          "name": "account",
          "type": "address"
        }
      ],
      "name": "hasRole",
      "outputs": [
        {
          "internalType": "bool",
          "name": "",
          "type": "bool"
        }
      ],
      "stateMutability": "view",
      "type": "function"
    },
    {
      "inputs": [
        {
          "internalType": "address",
          "name": "admin",
          "type": "address"
        },
        {
          "internalType": "address[]",
          "name": "executors",
          "type": "address[]"
        }
      ],
      "name": "initialize",
      "outputs": [],
      "stateMutability": "nonpayable",
      "type": "function"
    },
    {
      "inputs": [
        {
          "internalType": "bytes32",
          "name": "role",
          "type": "bytes32"
        },
        {
          "internalType": "address",
          "name": "account",
          "type": "address"
        }
      ],
      "name": "renounceRole",
      "outputs": [],
      "stateMutability": "nonpayable",
      "type": "function"
    },
    {
      "inputs": [
        {
          "internalType": "bytes32",
          "name": "role",
          "type": "bytes32"
        },
        {
          "internalType": "address",
          "name": "account",
          "type": "address"
        }
      ],
      "name": "revokeRole",
      "outputs": [],
      "stateMutability": "nonpayable",
      "type": "function"
    },
    {
      "inputs": [
        {
          "internalType": "bytes4",
          "name": "interfaceId",
          "type": "bytes4"
        }
      ],
      "name": "supportsInterface",
      "outputs": [
        {
          "internalType": "bool",
          "name": "",
          "type": "bool"
        }
      ],
      "stateMutability": "view",
      "type": "function"
    }
  ],
  "bytecode": "0x608080604052346100cf5760016097556000549060ff8260081c1690816000146100c557303b155b1561006c575015908161005a575b5061004a575b6040516111e190816100d58239f35b61ff00196000541660005561003b565b61ffff19166101011760005538610035565b62461bcd60e51b815260206004820152602e60248201527f496e697469616c697a61626c653a20636f6e747261637420697320616c72656160448201526d191e481a5b9a5d1a585b1a5e995960921b6064820152608490fd5b60ff831615610027565b600080fdfe6080604052600436101561001257600080fd5b60003560e01c806301ffc9a7146100d757806307bd0265146100d25780631cff79cd146100cd578063248a9ca3146100c85780632f2ff15d146100c357806336568abe146100be57806375b238fc146100b957806391d14854146100b4578063946d9204146100af578063a217fddf146100aa578063bca8c7b5146100a55763d547741f146100a057600080fd5b61076f565b610653565b610637565b61059d565b61055d565b610534565b6104a2565b610403565b6103d4565b61028c565b610132565b3461012d57602036600319011261012d5760043563ffffffff60e01b811680910361012d57602090637965db0b60e01b811490811561011c575b506040519015158152f35b6301ffc9a760e01b14905038610111565b600080fd5b3461012d57600036600319011261012d57602060405160008051602061116c8339815191528152f35b602435906001600160a01b038216820361012d57565b600435906001600160a01b038216820361012d57565b35906001600160a01b038216820361012d57565b634e487b7160e01b600052604160045260246000fd5b606081019081106001600160401b038211176101cc57604052565b61019b565b601f909101601f19168101906001600160401b038211908210176101cc57604052565b6001600160401b0381116101cc57601f01601f191660200190565b90604060031983011261012d576004356001600160a01b038116810361012d57916024356001600160401b03811161012d578160238201121561012d5780600401359061025b826101f4565b9261026960405194856101d1565b8284526024838301011161012d5781600092602460209301838601378301015290565b6102953661020f565b9061029f3361083a565b6102ae60026097541415610fec565b60026097556040516102bf816101b1565b603a81527f557067726164654578656375746f723a20696e6e65722064656c65676174652060208201527931b0b636103330b4b632b2103bb4ba3437baba103932b0b9b7b760311b6040820152813b15610380577f49f6851d1cd01a518db5bdea5cffbbe90276baa2595f74250b7472b96806302e9161035661037192600080875160208901865af461035061104f565b9061107f565b506040516001600160a01b0390911693909182913483611038565b0390a261037e6001609755565b005b60405162461bcd60e51b815260206004820152602660248201527f416464726573733a2064656c65676174652063616c6c20746f206e6f6e2d636f6044820152651b9d1c9858dd60d21b6064820152608490fd5b3461012d57602036600319011261012d5760043560005260656020526020600160406000200154604051908152f35b3461012d57604036600319011261012d5760043561041f61015b565b600091808352606560205261043c600160408520015433906109a2565b808352606560205260ff61045383604086206107b0565b54161561045e578280f35b808352606560205261047382604085206107b0565b805460ff1916600117905533916001600160a01b03169060008051602061110c8339815191528480a438808280f35b3461012d57604036600319011261012d576104bb61015b565b336001600160a01b038216036104d75761037e90600435610b10565b60405162461bcd60e51b815260206004820152602f60248201527f416363657373436f6e74726f6c3a2063616e206f6e6c792072656e6f756e636560448201526e103937b632b9903337b91039b2b63360891b6064820152608490fd5b3461012d57600036600319011261012d57602060405160008051602061118c8339815191528152f35b3461012d57604036600319011261012d57602060ff61059161057d61015b565b6004356000526065845260406000206107b0565b54166040519015158152f35b3461012d57604036600319011261012d576105b6610171565b6024356001600160401b0380821161012d573660238301121561012d5781600401359081116101cc578060051b91604051926020926105f7848301866101d1565b84526024838501918301019136831161012d57602401905b8282106106205761037e8587610d56565b83809161062c84610187565b81520191019061060f565b3461012d57600036600319011261012d57602060405160008152f35b61065c3661020f565b906106663361083a565b61067560026097541415610fec565b6002609755604051610686816101b1565b603181527f557067726164654578656375746f723a20696e6e65722063616c6c206661696c60208201527032b2103bb4ba3437baba103932b0b9b7b760791b604082015234471061071b5781610356610371926107067f4d7dbdcc249630ec373f584267f10abf44938de920c32562f5aee93959c25258953b15156110bf565b60008087516020890134875af161035061104f565b60405162461bcd60e51b815260206004820152602660248201527f416464726573733a20696e73756666696369656e742062616c616e636520666f6044820152651c8818d85b1b60d21b6064820152608490fd5b3461012d57604036600319011261012d5761037e60043561078e61015b565b908060005260656020526107ab60016040600020015433906109a2565b610b10565b9060018060a01b0316600052602052604060002090565b60005b8381106107da5750506000910152565b81810151838201526020016107ca565b906107fd602092828151948592016107c7565b0190565b9060209161081a815180928185528580860191016107c7565b601f01601f1916010190565b906020610837928181520190610801565b90565b60008051602061116c833981519152600081905260656020529060ff61086e8260008051602061114c8339815191526107b0565b541615610879575050565b61088b906001600160a01b0316610c66565b610893610b9a565b91603061089f84610bdb565b5360786108ab84610be8565b5360415b6001811161095b57610957603761093f85610931886108ce8815610c1b565b61092b60405195869476020b1b1b2b9b9a1b7b73a3937b61d1030b1b1b7bab73a1604d1b602087015261090a815180926020858a0191016107c7565b8501016011907001034b99036b4b9b9b4b733903937b6329607d1b81520190565b906107ea565b03601f1981018352826101d1565b60405162461bcd60e51b815291829160048301610826565b0390fd5b90600f811690601082101561099d57610998916f181899199a1a9b1b9c1cb0b131b232b360811b901a61098e8487610bf8565b5360041c91610c09565b6108af565b610bc5565b9081600052606560205260ff6109bc8260406000206107b0565b5416156109c7575050565b61093f610957926109316109ed6109e760489560018060a01b0316610c66565b92610ce6565b60405194859376020b1b1b2b9b9a1b7b73a3937b61d1030b1b1b7bab73a1604d1b6020860152610a278151809260206037890191016107c7565b84017001034b99036b4b9b9b4b733903937b6329607d1b603782015201906107ea565b60008051602061118c833981519152600081815260656020529060ff610a90847f2c01dc0041dfb6d4238a91e5a638996136aed16f837d5beb45610732cf9bf4b06107b0565b541615610a9c57505050565b8082526065602052610ab183604084206107b0565b805460ff1916600117905533926001600160a01b03169160008051602061110c8339815191529080a4565b60008051602061116c833981519152600081815260656020529060ff610a908460008051602061114c8339815191526107b0565b600090808252606560205260ff610b2a84604085206107b0565b5416610b3557505050565b8082526065602052610b4a83604084206107b0565b805460ff1916905533926001600160a01b0316917ff6391f5c32d9c69d2a47ea670b442974b53935d1edc7fd64eb21e047a839171b9080a4565b634e487b7160e01b600052601160045260246000fd5b60405190608082016001600160401b038111838210176101cc57604052604282526060366020840137565b634e487b7160e01b600052603260045260246000fd5b80511561099d5760200190565b80516001101561099d5760210190565b90815181101561099d570160200190565b8015610c16576000190190565b610b84565b15610c2257565b606460405162461bcd60e51b815260206004820152602060248201527f537472696e67733a20686578206c656e67746820696e73756666696369656e746044820152fd5b60405190610c73826101b1565b602a825260403660208401376030610c8a83610bdb565b536078610c9683610be8565b536029905b60018211610cae57610837915015610c1b565b600f811690601082101561099d57610ce0916f181899199a1a9b1b9c1cb0b131b232b360811b901a61098e8486610bf8565b90610c9b565b610cee610b9a565b906030610cfa83610bdb565b536078610d0683610be8565b536041905b60018211610d1e57610837915015610c1b565b600f811690601082101561099d57610d50916f181899199a1a9b1b9c1cb0b131b232b360811b901a61098e8486610bf8565b90610d0b565b906000549060ff8260081c169182600014610e245750303b155b15610dc857610d8591159283610d9d57610e50565b610d8b57565b610d9b61ff001960005416600055565b565b610db161010061ff00196000541617600055565b610dc3600160ff196000541617600055565b610e50565b60405162461bcd60e51b815260206004820152602e60248201527f496e697469616c697a61626c653a20636f6e747261637420697320616c72656160448201526d191e481a5b9a5d1a585b1a5e995960921b6064820152608490fd5b60ff1615610d70565b6000198114610c165760010190565b805182101561099d5760209160051b010190565b9091906001600160a01b03811615610f235760ff60005460081c1615610eca57610e8990610e7c610f66565b610e84610fa1565b610a4a565b60005b8251811015610ec55780610ebb610eb6610ea9610ec09487610e3c565b516001600160a01b031690565b610adc565b610e2d565b610e8c565b509050565b60405162461bcd60e51b815260206004820152602b60248201527f496e697469616c697a61626c653a20636f6e7472616374206973206e6f74206960448201526a6e697469616c697a696e6760a81b6064820152608490fd5b60405162461bcd60e51b815260206004820152601b60248201527a2ab833b930b232a2bc32b1baba37b91d103d32b9379030b236b4b760291b6044820152606490fd5b60008051602061118c833981519152806000526065602052600160406000200181815491558160008051602061112c833981519152600080a4565b60008051602061116c83398151915280600052606560205260016040600020019081549060008051602061118c83398151915280935560008051602061112c833981519152600080a4565b15610ff357565b60405162461bcd60e51b815260206004820152601f60248201527f5265656e7472616e637947756172643a207265656e7472616e742063616c6c006044820152606490fd5b604090610837939281528160208201520190610801565b3d1561107a573d90611060826101f4565b9161106e60405193846101d1565b82523d6000602084013e565b606090565b9091901561108b575090565b81511561109b5750805190602001fd5b60405162461bcd60e51b815260206004820152908190610957906024830190610801565b156110c657565b60405162461bcd60e51b815260206004820152601d60248201527f416464726573733a2063616c6c20746f206e6f6e2d636f6e74726163740000006044820152606490fdfe2f8788117e7eff1d82e926ec794901d17c78024a50270940304540a733656f0dbd79b86ffe0ab8e8776151514217cd7cacd52c909f66475c3af44e129f0b00ff7dc9f88e569f94faad6fa0d44dd44858caf3f34f1bd1c985800aedf5793aad8bd8aa0f3194971a2a116679f7c2090f6939c8d4e01a2a8d7e41d55e5351469e63a49807205ce4d355092ef5a8a18f56e8913cf4a201fbe287825b095693c21775a264697066735822122047f8d3f7958d42d4a814737edbb22a04893241dd1126a8248fb09e541266473f64736f6c63430008130033",
  "linkReferences": {},
  "deployedLinkReferences": {}
}