{
  "_format": "hh-sol-artifact-1",
  "contractName": "RollupEventInbox",
  "sourceName": "src/rollup/RollupEventInbox.sol",
  "abi": [
    {
      "inputs": [],
      "stateMutability": "nonpayable",
      "type": "constructor"
    },
    {
      "inputs": [],
      "name": "AlreadyInit",
      "type": "error"
    },
    {
      "inputs": [],
      "name": "HadZeroInit",
      "type": "error"
    },
    {
      "inputs": [
        {
          "internalType": "address",
          "name": "sender",
          "type": "address"
        },
        {
          "internalType": "address",
          "name": "owner",
          "type": "address"
        }
      ],
      "name": "NotOwner",
      "type": "error"
    },
    {
      "inputs": [],
      "name": "RollupNotChanged",
      "type": "error"
    },
    {
      "anonymous": false,
      "inputs": [
        {
          "indexed": true,
          "internalType": "uint256",
          "name": "messageNum",
          "type": "uint256"
        },
        {
          "indexed": false,
          "internalType": "bytes",
          "name": "data",
          "type": "bytes"
        }
      ],
      "name": "InboxMessageDelivered",
      "type": "event"
    },
    {
      "anonymous": false,
      "inputs": [
        {
          "indexed": true,
          "internalType": "uint256",
          "name": "messageNum",
          "type": "uint256"
        }
      ],
      "name": "InboxMessageDeliveredFromOrigin",
      "type": "event"
    },
    {
      "inputs": [],
      "name": "bridge",
      "outputs": [
        {
          "internalType": "contract IBridge",
          "name": "",
          "type": "address"
        }
      ],
      "stateMutability": "view",
      "type": "function"
    },
    {
      "inputs": [
        {
          "internalType": "contract IBridge",
          "name": "_bridge",
          "type": "address"
        }
      ],
      "name": "initialize",
      "outputs": [],
      "stateMutability": "nonpayable",
      "type": "function"
    },
    {
      "inputs": [],
      "name": "rollup",
      "outputs": [
        {
          "internalType": "address",
          "name": "",
          "type": "address"
        }
      ],
      "stateMutability": "view",
      "type": "function"
    },
    {
      "inputs": [
        {
          "internalType": "uint256",
          "name": "chainId",
          "type": "uint256"
        },
        {
          "internalType": "string",
          "name": "chainConfig",
          "type": "string"
        }
      ],
      "name": "rollupInitialized",
      "outputs": [],
      "stateMutability": "nonpayable",
      "type": "function"
    },
    {
      "inputs": [],
      "name": "updateRollupAddress",
      "outputs": [],
      "stateMutability": "nonpayable",
      "type": "function"
    }
  ],
  "bytecode": "0x60a080604052346100235730608052610735908161002982396080518161041b0152f35b600080fdfe608060408181526004918236101561001657600080fd5b600092833560e01c9182636ae71f121461054557508163c4d66de8146103ed578163cb23bcb5146103c4578163cf8d56d614610086575063e78cea921461005c57600080fd5b34610082578160031936011261008257905490516001600160a01b039091168152602090f35b5080fd5b839150346100825782600319360112610082576024926001600160401b0391843590838211610271573660238301121561027157818101358481116103c057368782850101116103c0576001546001600160a01b0391908216330361039057801561035957489385519688602098898101906302881c7960e11b825287815289810181811085821117610347578a5251829160645afa903d15610333573d90811161032157928a88938a979693888d9e9d9787519061014e83601f19601f84011601836106a2565b81523d898383013e5b82610316575b5050610286575b60618884879560649997956101aa95600b9c9a519e8f958601998c358b52600160f81b90870152604186015201848401378101868382015203604181018b5201896106a2565b82541690875190208289519b8c978896638db5993b60e01b885287015285015260448401525af193841561027c578594610249575b508151928084528151918282860152865b83811061023657505050908282868383957fff64905f73a67fb594e0f940a8075a860db489ad991e032f48c81123eb52d60b97010152601f80199101168101030190a280f35b81810183015186820186015282016101f0565b9093508281813d8311610275575b61026181836106a2565b81010312610271575192856101df565b8480fd5b503d610257565b82513d87823e3d90fd5b9793929596505092505163f5d6ded760e01b815287818681606c5afa90811561030c578a916102db575b5081018091116102c95793869392899287928a90610164565b634e487b7160e01b8952601184528789fd5b90508781813d8311610305575b6102f281836106a2565b8101031261030157518a6102b0565b8980fd5b503d6102e8565b87513d8c823e3d90fd5b51149050888f61015d565b634e487b7160e01b8a52604186528a8afd5b5092889998928988938a9796886060610157565b634e487b7160e01b8452604189528d84fd5b845162461bcd60e51b81526020818501526012818a015271454d5054595f434841494e5f434f4e46494760701b6044820152606490fd5b845162461bcd60e51b8152602081850152600b818a01526a04f4e4c595f524f4c4c55560ac1b6044820152606490fd5b8580fd5b50503461008257816003193601126100825760015490516001600160a01b039091168152602090f35b905034610541576020366003190112610541576001600160a01b0381358181169391929084900361027157827f00000000000000000000000000000000000000000000000000000000000000001630146104ea578454938385166104db5780156104cc576001600160a01b031994851681178655825163cb23bcb560e01b81529160209183919082905afa9182156104c357508491610495575b501690600154161760015580f35b6104b6915060203d81116104bc575b6104ae81836106a2565b8101906106db565b38610487565b503d6104a4565b513d86823e3d90fd5b509051631ad0f74360e01b8152fd5b509051633bcd329760e21b8152fd5b6020608492519162461bcd60e51b8352820152602c60248201527f46756e6374696f6e206d7573742062652063616c6c6564207468726f7567682060448201526b19195b1959d85d1958d85b1b60a21b6064820152fd5b8280fd5b9291503461069e578360031936011261069e57600154638da5cb5b60e01b8085526001600160a01b03808316959294929091602091828187818b5afa908115610694579084918a91610677575b50163303610612575083818389541685519283809263cb23bcb560e01b82525afa9182156106085788926105eb575b5050168094146105de5750506001600160a01b0319161760015580f35b5163d054909f60e01b8152fd5b6106019250803d106104bc576104ae81836106a2565b38806105c1565b84513d8a823e3d90fd5b8482959793965084518094819382525afa92831561066d576044969361064e575b50505192631194af8760e11b84523390840152166024820152fd5b610665929350803d106104bc576104ae81836106a2565b903880610633565b82513d88823e3d90fd5b61068e9150843d86116104bc576104ae81836106a2565b38610592565b85513d8b823e3d90fd5b8380fd5b601f909101601f19168101906001600160401b038211908210176106c557604052565b634e487b7160e01b600052604160045260246000fd5b908160209103126106fa57516001600160a01b03811681036106fa5790565b600080fdfea2646970667358221220f25e4bd78bd6bc331e1dfba88e51eddc2068f41e2837bf3ce03194b55796f76864736f6c63430008130033",
  "linkReferences": {},
  "deployedLinkReferences": {}
}