{
  "_format": "hh-sol-artifact-1",
  "contractName": "ValidatorUtils",
  "sourceName": "src/rollup/ValidatorUtils.sol",
  "abi": [
    {
      "inputs": [
        {
          "internalType": "contract IRollupCore",
          "name": "rollup",
          "type": "address"
        }
      ],
      "name": "areUnresolvedNodesLinear",
      "outputs": [
        {
          "internalType": "bool",
          "name": "",
          "type": "bool"
        }
      ],
      "stateMutability": "view",
      "type": "function"
    },
    {
      "inputs": [
        {
          "internalType": "contract IRollupUserAbs",
          "name": "rollup",
          "type": "address"
        }
      ],
      "name": "checkDecidableNextNode",
      "outputs": [
        {
          "internalType": "enum ValidatorUtils.ConfirmType",
          "name": "",
          "type": "uint8"
        }
      ],
      "stateMutability": "view",
      "type": "function"
    },
    {
      "inputs": [
        {
          "internalType": "contract IRollupCore",
          "name": "rollup",
          "type": "address"
        },
        {
          "internalType": "uint64",
          "name": "node1",
          "type": "uint64"
        },
        {
          "internalType": "uint64",
          "name": "node2",
          "type": "uint64"
        },
        {
          "internalType": "uint256",
          "name": "maxDepth",
          "type": "uint256"
        }
      ],
      "name": "findNodeConflict",
      "outputs": [
        {
          "components": [
            {
              "internalType": "enum ValidatorUtils.NodeConflictType",
              "name": "ty",
              "type": "uint8"
            },
            {
              "internalType": "uint64",
              "name": "node1",
              "type": "uint64"
            },
            {
              "internalType": "uint64",
              "name": "node2",
              "type": "uint64"
            }
          ],
          "internalType": "struct ValidatorUtils.NodeConflict",
          "name": "",
          "type": "tuple"
        }
      ],
      "stateMutability": "view",
      "type": "function"
    },
    {
      "inputs": [
        {
          "internalType": "contract IRollupCore",
          "name": "rollup",
          "type": "address"
        },
        {
          "internalType": "address",
          "name": "staker1",
          "type": "address"
        },
        {
          "internalType": "address",
          "name": "staker2",
          "type": "address"
        },
        {
          "internalType": "uint256",
          "name": "maxDepth",
          "type": "uint256"
        }
      ],
      "name": "findStakerConflict",
      "outputs": [
        {
          "components": [
            {
              "internalType": "enum ValidatorUtils.NodeConflictType",
              "name": "ty",
              "type": "uint8"
            },
            {
              "internalType": "uint64",
              "name": "node1",
              "type": "uint64"
            },
            {
              "internalType": "uint64",
              "name": "node2",
              "type": "uint64"
            }
          ],
          "internalType": "struct ValidatorUtils.NodeConflict",
          "name": "",
          "type": "tuple"
        }
      ],
      "stateMutability": "view",
      "type": "function"
    },
    {
      "inputs": [
        {
          "internalType": "contract IRollupCore",
          "name": "rollup",
          "type": "address"
        },
        {
          "internalType": "uint64",
          "name": "startIndex",
          "type": "uint64"
        },
        {
          "internalType": "uint64",
          "name": "max",
          "type": "uint64"
        }
      ],
      "name": "getStakers",
      "outputs": [
        {
          "internalType": "address[]",
          "name": "",
          "type": "address[]"
        },
        {
          "internalType": "bool",
          "name": "hasMore",
          "type": "bool"
        }
      ],
      "stateMutability": "view",
      "type": "function"
    },
    {
      "inputs": [
        {
          "internalType": "contract IRollupCore",
          "name": "rollup",
          "type": "address"
        },
        {
          "internalType": "address",
          "name": "staker",
          "type": "address"
        }
      ],
      "name": "latestStaked",
      "outputs": [
        {
          "internalType": "uint64",
          "name": "",
          "type": "uint64"
        },
        {
          "components": [
            {
              "internalType": "bytes32",
              "name": "stateHash",
              "type": "bytes32"
            },
            {
              "internalType": "bytes32",
              "name": "challengeHash",
              "type": "bytes32"
            },
            {
              "internalType": "bytes32",
              "name": "confirmData",
              "type": "bytes32"
            },
            {
              "internalType": "uint64",
              "name": "prevNum",
              "type": "uint64"
            },
            {
              "internalType": "uint64",
              "name": "deadlineBlock",
              "type": "uint64"
            },
            {
              "internalType": "uint64",
              "name": "noChildConfirmedBeforeBlock",
              "type": "uint64"
            },
            {
              "internalType": "uint64",
              "name": "stakerCount",
              "type": "uint64"
            },
            {
              "internalType": "uint64",
              "name": "childStakerCount",
              "type": "uint64"
            },
            {
              "internalType": "uint64",
              "name": "firstChildBlock",
              "type": "uint64"
            },
            {
              "internalType": "uint64",
              "name": "latestChildNumber",
              "type": "uint64"
            },
            {
              "internalType": "uint64",
              "name": "createdAtBlock",
              "type": "uint64"
            },
            {
              "internalType": "bytes32",
              "name": "nodeHash",
              "type": "bytes32"
            }
          ],
          "internalType": "struct Node",
          "name": "",
          "type": "tuple"
        }
      ],
      "stateMutability": "view",
      "type": "function"
    },
    {
      "inputs": [
        {
          "internalType": "contract IRollupCore",
          "name": "rollup",
          "type": "address"
        }
      ],
      "name": "refundableStakers",
      "outputs": [
        {
          "internalType": "address[]",
          "name": "",
          "type": "address[]"
        }
      ],
      "stateMutability": "view",
      "type": "function"
    },
    {
      "inputs": [
        {
          "internalType": "contract IRollupUserAbs",
          "name": "rollup",
          "type": "address"
        }
      ],
      "name": "requireConfirmable",
      "outputs": [],
      "stateMutability": "view",
      "type": "function"
    },
    {
      "inputs": [
        {
          "internalType": "contract IRollupCore",
          "name": "rollup",
          "type": "address"
        }
      ],
      "name": "requireRejectable",
      "outputs": [],
      "stateMutability": "view",
      "type": "function"
    },
    {
      "inputs": [
        {
          "internalType": "contract IRollupCore",
          "name": "rollup",
          "type": "address"
        },
        {
          "internalType": "address",
          "name": "staker",
          "type": "address"
        }
      ],
      "name": "stakedNodes",
      "outputs": [
        {
          "internalType": "uint64[]",
          "name": "",
          "type": "uint64[]"
        }
      ],
      "stateMutability": "view",
      "type": "function"
    },
    {
      "inputs": [
        {
          "internalType": "contract IRollupCore",
          "name": "rollup",
          "type": "address"
        },
        {
          "internalType": "uint64",
          "name": "startIndex",
          "type": "uint64"
        },
        {
          "internalType": "uint64",
          "name": "max",
          "type": "uint64"
        }
      ],
      "name": "timedOutChallenges",
      "outputs": [
        {
          "internalType": "uint64[]",
          "name": "",
          "type": "uint64[]"
        },
        {
          "internalType": "bool",
          "name": "hasMore",
          "type": "bool"
        }
      ],
      "stateMutability": "view",
      "type": "function"
    }
  ],
  "bytecode": "0x6080806040523461001657611d79908161001c8239f35b600080fdfe6080604052600436101561001257600080fd5b60003560e01c806301d9717d146100c75780630a46c1b5146100c25780631fc43bb6146100bd5780633400b5fa146100b857806371229340146100b35780637464ae06146100ae5780637988ad37146100a957806382f50e2d146100a4578063aea2f06e1461009f578063c308eaaf1461009a5763f36e18cc1461009557600080fd5b6111c0565b611056565b611014565b610fcf565b610ec0565b610c5c565b6109bb565b610789565b6103af565b610372565b6101f3565b6001600160a01b038116036100dd57565b600080fd5b60409060031901126100dd576004356100fa816100cc565b90602435610107816100cc565b90565b6001600160401b031690565b6001600160401b03169052565b909291610180906101a083019460018060401b0316835280516020840152602081015160408401526040810151606084015261016760608201516080850190610116565b610179608082015160a0850190610116565b61018b60a082015160c0850190610116565b61019d60c082015160e0850190610116565b60e08101516101b26101009182860190610116565b8101516101c56101209182860190610116565b8101516101d86101409182860190610116565b810151906101ec6101609283860190610116565b0151910152565b346100dd57610201366100e2565b9061020a6116e6565b50604051631f4b2bb760e11b81526001600160a01b03919091169160209081908390819061023b90600483016112db565b0381865afa9182156102dc5760009261033d575b506001600160401b038216156102e1575b506040516324b204d360e21b815261018092839082908180610285876004830161146f565b03915afa9283156102dc576000936102ad575b50506102a960405192839283610123565b0390f35b6102cd929350803d106102d5575b6102c58183611228565b8101906113a9565b903880610298565b503d6102bb565b6112ee565b6040516365f7f80d60e01b81529091508181600481865afa9182156102dc57600092610310575b505038610260565b61032f9250803d10610336575b6103278183611228565b8101906112c6565b3880610308565b503d61031d565b816103559293503d8411610336576103278183611228565b903861024f565b634e487b7160e01b600052602160045260246000fd5b346100dd5760203660031901126100dd57610397600435610392816100cc565b611305565b60405160038210156103aa576020918152f35b61035c565b346100dd576020806003193601126100dd5760049081356103cf816100cc565b6001600160a01b0316803b156100dd576040516367425daf60e01b81526000939084818381865afa80156102dc576106d0575b5060405163dff6978760e01b81529083828281865afa9182156102dc5785926106b1575b506001600160401b039161043d9083161515611556565b60405163d735e21d60e01b81529284848381845afa9384156102dc578694610692575b50604051936324b204d360e21b808652610180918287806104838489830161146f565b0381875afa9687156102dc578997610673575b506104a08761161e565b60608701926104af845161010a565b6040516365f7f80d60e01b815290938a8289818a5afa9182156102dc5761050a958a808f958f946104ed95899892610656575b50501691161461158f565b6104f7865161010a565b90604051958692839283528a830161146f565b0381885afa9283156102dc5789918b94610631575b5050610538839461053261055195611509565b5161010a565b60405180948192633684685160e11b835289830161146f565b0381875afa9384156102dc5788928a9561060e575b506105879394956040518095819482936317185fa560e21b8452830161146f565b03915afa9586156102dc5760c06105c260e06105ba6105dc9a6105d4986105cf976105ca978f936105df575b50506115c2565b95015161010a565b96015161010a565b61010a565b6115d4565b9116146115e1565b80f35b6105ff929350803d10610607575b6105f78183611228565b8101906114c0565b9038806105b3565b503d6105ed565b61058794955061062a90843d8611610607576105f78183611228565b9493610566565b6105519450610538918161065092903d106102d5576102c58183611228565b9361051f565b61066c9250803d10610336576103278183611228565b8f806104e2565b61068b919750833d85116102d5576102c58183611228565b9538610496565b6106aa919450853d8711610336576103278183611228565b9238610460565b6106c9919250843d8611610336576103278183611228565b9038610426565b806106dd6106e392611210565b806112fa565b38610402565b6001600160401b038116036100dd57565b60609060031901126100dd57600435610712816100cc565b9060243561071f816106e9565b90604435610107816106e9565b90815180825260208080930193019160005b82811061074c575050505090565b83516001600160401b03168552938101939281019260010161073e565b9061078160209194939460408452604084019061072c565b931515910152565b346100dd576107a361079a366106fa565b90829392611a96565b90916107af835161164e565b6040805163011d4b7f60e11b81526020956000946001600160a01b03908116949392918883600481895afa9283156102dc57879361099c575b50865b815181101561098b5761080e61080182846116ad565b516001600160a01b031690565b908551631a7f494760e21b81528b818061082b86600483016112db565b03818c5afa9081156102dc5760009161096e575b506001600160401b038116151580610908575b8061088f575b610868935061086d575b506116d7565b6107eb565b6108899061088461087d8c6116d7565b9b8a6116ad565b61179a565b38610862565b5086516323a9ef2360e01b81528c81806108ac856004830161146f565b0381898b165afa9081156102dc576108689487918f6000946108d5575b50508116911614610858565b8392945090816108f992903d10610901575b6108f18183611228565b810190611698565b92908f6108c9565b503d6108e7565b508651639ede42b960e01b81528c8180610925856004830161146f565b0381898b165afa9081156102dc57600091610941575b50610852565b61096191508d803d10610967575b6109598183611228565b810190611782565b3861093b565b503d61094f565b61098591508c8d3d10610336576103278183611228565b3861083f565b8786528451806102a98b8983610769565b6109b4919350893d8b11610901576108f18183611228565b91386107e8565b346100dd576020806003193601126100dd5760049081356109db816100cc565b6001600160a01b031691823b156100dd57604080516367425daf60e01b8152600094919085818581865afa80156102dc57610bfb575b50805163d735e21d60e01b81529284848281865afa9384156102dc578694610bdc575b508151936324b204d360e21b9384865261018092838780610a578685830161146f565b0381855afa9687156102dc578997610bbd575b506060870195610a7a875161010a565b86516365f7f80d60e01b815297908a898581885afa9889156102dc578c99610b9e575b506001600160401b0398891690891614610ab5578a80f35b610aeb91610ad98792610532610ad16105ca60808f015161010a565b431015611482565b9088519384928392835286830161146f565b0381865afa9081156102dc57610b3598610b15610b1c9360c0938d998f92610b81575b5050611509565b015161010a565b94518097819482936317185fa560e21b8452830161146f565b03915afa9283156102dc57610b54948694610b62575b505016146114cf565b388080808080808080808a80f35b610b79929450803d10610607576105f78183611228565b913880610b4b565b610b979250803d106102d5576102c58183611228565b3880610b0e565b610bb69199508b3d8d11610336576103278183611228565b9738610a9d565b610bd5919750843d86116102d5576102c58183611228565b9538610a6a565b610bf4919450853d8711610336576103278183611228565b9238610a34565b806106dd610c0892611210565b38610a11565b90815180825260208080930193019160005b828110610c2e575050505090565b83516001600160a01b031685529381019392810192600101610c20565b906020610107928181520190610c0e565b346100dd576020806003193601126100dd5760048035610c7b816100cc565b6040805163dff6978760e01b81529290916001600160a01b031684848381845afa9384156102dc57600094610e6f575b506001600160401b0393841690610cc18261164e565b9484516365f7f80d60e01b815287818681865afa80156102dc578291600091610e52575b501691600094855b8584821610610d06578689528751806102a98b82610c4b565b8751631b774dd160e21b81528a8180610d218587830161146f565b0381875afa9081156102dc57600091610e35575b508851631f4b2bb760e11b81528b8180610d51858883016112db565b0381885afa80156102dc578688918d938f600092610e18575b505016111580610dbc575b610d8a575b5050610d8590611680565b610ced565b97610daf610db492610da083610d85969c6116ad565b6001600160a01b039091169052565b6116d7565b969089610d7a565b50508851631a7f494760e21b81528b8180610dd9858883016112db565b0381885afa9081156102dc578b9187918e600092610dfb575b50501615610d75565b610e119250803d10610336576103278183611228565b388e610df2565b610e2e9250803d10610336576103278183611228565b388f610d6a565b610e4c91508b3d8d11610901576108f18183611228565b38610d35565b610e699150893d8b11610336576103278183611228565b38610ce5565b610e87919450853d8711610336576103278183611228565b9238610cab565b815160608201939260048210156103aa57604091835281600180821b0391826020820151166020860152015116910152565b346100dd5760803660031901126100dd57600435610edd816100cc565b610f3060243591610eed836100cc565b604435610ef9816100cc565b610f0161128a565b50604051631f4b2bb760e11b808252946020946001600160a01b038516939186918491829190600483016112db565b0381865afa9283156102dc57610f5f968693600095610fb0575b506040518098819482938352600483016112db565b03915afa9081156102dc576102a994610f8594600093610f91575b5050606435926117a9565b60405191829182610e8e565b610fa8929350803d10610336576103278183611228565b903880610f7a565b610fc8919550843d8611610336576103278183611228565b9338610f4a565b346100dd5760803660031901126100dd576102a9610f85600435610ff2816100cc565b602435610ffe816106e9565b6044359061100b826106e9565b606435926117a9565b346100dd5760203660031901126100dd57602061103b600435611036816100cc565b611bf2565b6040519015158152f35b90602061010792818152019061072c565b346100dd57611064366100e2565b9061106d611751565b604080516365f7f80d60e01b8152909260209260009290916001600160a01b03169060049085818381865afa9081156102dc5785916111a3575b505b8651633dd4a9a560e11b815286818481875afa9081156102dc57600091611186575b506001600160401b039081169082161161117657865163154cb5e960e31b81526001600160401b0382168382019081526001600160a01b038a1660208201528790829081906040010381875afa9081156102dc57600091611159575b5061113b575b61113690611680565b6110a9565b9361115181610daf8761088461113695896116ad565b94905061112d565b6111709150873d8911610967576109598183611228565b38611127565b8484528651806102a98682611045565b61119d9150873d8911610336576103278183611228565b386110cb565b6111ba9150863d8811610336576103278183611228565b386110a7565b346100dd576111ee6111da6111d4366106fa565b91611a96565b604051928392604084526040840190610c0e565b90151560208301520390f35b634e487b7160e01b600052604160045260246000fd5b6001600160401b03811161122357604052565b6111fa565b601f909101601f19168101906001600160401b0382119082101761122357604052565b6040519061018082016001600160401b0381118382101761122357604052565b60405190606082016001600160401b0381118382101761122357604052565b60405190606082016001600160401b038111838210176112235760405260006040838281528260208201520152565b51906112c4826106e9565b565b908160209103126100dd5751610107816106e9565b6001600160a01b03909116815260200190565b6040513d6000823e3d90fd5b60009103126100dd57565b303b156100dd57604051630fe21ddb60e11b81526000818061132a85600483016112db565b0381305afa9081611396575b5061139057303b156100dd57600061136291604051809381926301c48a4d60e61b8352600483016112db565b0381305afa908161137d575b5061137857600090565b600290565b806106dd61138a92611210565b3861136e565b50600190565b806106dd6113a392611210565b38611336565b90816101809103126100dd576113bd61124b565b908051825260208101516020830152604081015160408301526113e2606082016112b9565b60608301526113f3608082016112b9565b608083015261140460a082016112b9565b60a083015261141560c082016112b9565b60c083015261142660e082016112b9565b60e08301526101006114398183016112b9565b9083015261012061144b8183016112b9565b9083015261014061145d8183016112b9565b90830152610160809101519082015290565b6001600160401b03909116815260200190565b1561148957565b60405162461bcd60e51b815260206004820152600f60248201526e4245464f52455f444541444c494e4560881b6044820152606490fd5b908160209103126100dd575190565b156114d657565b60405162461bcd60e51b815260206004820152600b60248201526a4841535f5354414b45525360a81b6044820152606490fd5b60a001516001600160401b0316431061151e57565b60405162461bcd60e51b815260206004820152601060248201526f10d212531117d513d3d7d49150d1539560821b6044820152606490fd5b1561155d57565b60405162461bcd60e51b815260206004820152600a6024820152694e4f5f5354414b45525360b01b6044820152606490fd5b1561159657565b634e487b7160e01b600052600160045260246000fd5b634e487b7160e01b600052601160045260246000fd5b919082039182116115cf57565b6115ac565b919082018092116115cf57565b156115e857565b60405162461bcd60e51b815260206004820152600e60248201526d1393d517d0531317d4d51052d15160921b6044820152606490fd5b608001516112c4906001600160401b0316431015611482565b6001600160401b0381116112235760051b60200190565b9061165882611637565b6116656040519182611228565b8281528092611676601f1991611637565b0190602036910137565b6001600160401b039081169081146115cf5760010190565b908160209103126100dd5751610107816100cc565b80518210156116c15760209160051b010190565b634e487b7160e01b600052603260045260246000fd5b60001981146115cf5760010190565b6040519061018082016001600160401b0381118382101761122357604052816101606000918281528260208201528260408201528260608201528260808201528260a08201528260c08201528260e08201528261010082015282610120820152826101408201520152565b604051906230d42082016001600160401b0381118382101761122357604052620186a082526230d400366020840137565b908160209103126100dd575180151581036100dd5790565b6001600160401b039091169052565b9290926117b461128a565b506040805163d735e21d60e01b8152602095919460049493909291906001600160a01b031687828781845afa9182156102dc57600092611a5e575b5086516324b204d360e21b9081815261018095868280611811898d830161146f565b0381875afa9586156102dc578a92600097611a3f575b5061184d88838c61183c6060809c015161010a565b965193849283928a8452830161146f565b0381895afa9081156102dc57611873918991600091611a22575b5097929397015161010a565b6000965b8a88106118a5575050505050505050505050506000908161189661126b565b60038152935b84015282015290565b6001600160401b03848116828216146119f85780831690808716908282146119c557851680821090816119bb575b5061199757918e959493918c9310600014611951575090818d61190193965193849283928b8452830161146f565b03818a5afa80156102dc57896119259161192b93600091611934575b50015161010a565b976116d7565b96909192611877565b61194b91508d803d106102d5576102c58183611228565b3861191d565b949350979490818d61196e93955193849283928b8452830161146f565b03818a5afa80156102dc57896119919161192b936000916119345750015161010a565b946116d7565b5050505050505050505050505050600090816119b161126b565b600281529361189c565b90508210386118d3565b5050509a5050509450505050506101079492506119f191506119e561126b565b6001815295860161179a565b830161179a565b509a5050509450505050506101079492506119f19150611a1661126b565b9560008752860161179a565b611a3991508b3d8d116102d5576102c58183611228565b38611867565b611a57919750883d8a116102d5576102c58183611228565b9538611827565b611a76919250883d8a11610336576103278183611228565b90386117ef565b6001600160401b0391821690821601919082116115cf57565b60405163dff6978760e01b81526004929060009060208186816001600160a01b0388165afa9081156102dc57600091611bba575b506001600160401b0390811695908690611ae48386611a7d565b161115611ba0575b50611af68561164e565b9560005b6001600160401b038116871115611b9657806020611b1b611b349387611a7d565b60405180948192631b774dd160e21b83528b830161146f565b03816001600160a01b038a165afa9182156102dc57611b7292611b6d91600091611b77575b50610da06001600160401b0384168c6116ad565b611680565b611afa565b611b90915060203d602011610901576108f18183611228565b38611b59565b5090945092505050565b82611bb19396506105ca9250611a7d565b92600138611aec565b611bd3915060203d602011610336576103278183611228565b38611aca565b6001600160401b0390811660001901919082116115cf57565b60408051633dd4a9a560e11b81526004926001600160a01b0316602080838681855afa9283156102dc57600093611d24575b50835163d735e21d60e01b81526001600160401b03938416919081818881875afa9182156102dc57600092611d07575b50505b838116828111611cfb57151580611c86575b611c7b57611c7690611680565b611c57565b505050505050600090565b5084516324b204d360e21b8152610180808280611ca5868c830161146f565b0381885afa80156102dc57611cc892606092600092611cde575b5050015161010a565b84611cd56105ca84611bd9565b91161415611c69565b611cf49250803d106102d5576102c58183611228565b3880611cbf565b50505050505050600190565b611d1d9250803d10610336576103278183611228565b3880611c54565b81611d3c9294503d8511610336576103278183611228565b9138611c2456fea26469706673582212206d2d12ae6ebb7e621765fe023618e0ef0809a2cfc0dc623b0315e76d11f90bdf64736f6c63430008130033",
  "linkReferences": {},
  "deployedLinkReferences": {}
}