{
  "_format": "hh-sol-artifact-1",
  "contractName": "ValidatorWallet",
  "sourceName": "src/rollup/ValidatorWallet.sol",
  "abi": [
    {
      "inputs": [
        {
          "internalType": "uint256",
          "name": "expected",
          "type": "uint256"
        },
        {
          "internalType": "uint256",
          "name": "actual",
          "type": "uint256"
        }
      ],
      "name": "BadArrayLength",
      "type": "error"
    },
    {
      "inputs": [
        {
          "internalType": "address",
          "name": "actual",
          "type": "address"
        }
      ],
      "name": "NotExecutorOrOwner",
      "type": "error"
    },
    {
      "inputs": [
        {
          "internalType": "address",
          "name": "expected",
          "type": "address"
        },
        {
          "internalType": "address",
          "name": "actual",
          "type": "address"
        },
        {
          "internalType": "address",
          "name": "destination",
          "type": "address"
        }
      ],
      "name": "OnlyOwnerDestination",
      "type": "error"
    },
    {
      "inputs": [
        {
          "internalType": "address",
          "name": "destination",
          "type": "address"
        }
      ],
      "name": "WithdrawEthFail",
      "type": "error"
    },
    {
      "anonymous": false,
      "inputs": [
        {
          "indexed": true,
          "internalType": "address",
          "name": "destination",
          "type": "address"
        },
        {
          "indexed": false,
          "internalType": "bool",
          "name": "isSet",
          "type": "bool"
        }
      ],
      "name": "AllowedExecutorDestinationsUpdated",
      "type": "event"
    },
    {
      "anonymous": false,
      "inputs": [
        {
          "indexed": true,
          "internalType": "address",
          "name": "executor",
          "type": "address"
        },
        {
          "indexed": false,
          "internalType": "bool",
          "name": "isExecutor",
          "type": "bool"
        }
      ],
      "name": "ExecutorUpdated",
      "type": "event"
    },
    {
      "anonymous": false,
      "inputs": [
        {
          "indexed": true,
          "internalType": "address",
          "name": "previousOwner",
          "type": "address"
        },
        {
          "indexed": true,
          "internalType": "address",
          "name": "newOwner",
          "type": "address"
        }
      ],
      "name": "OwnershipTransferred",
      "type": "event"
    },
    {
      "inputs": [
        {
          "internalType": "address",
          "name": "",
          "type": "address"
        }
      ],
      "name": "allowedExecutorDestinations",
      "outputs": [
        {
          "internalType": "bool",
          "name": "",
          "type": "bool"
        }
      ],
      "stateMutability": "view",
      "type": "function"
    },
    {
      "inputs": [
        {
          "internalType": "bytes",
          "name": "data",
          "type": "bytes"
        },
        {
          "internalType": "address",
          "name": "destination",
          "type": "address"
        },
        {
          "internalType": "uint256",
          "name": "amount",
          "type": "uint256"
        }
      ],
      "name": "executeTransaction",
      "outputs": [],
      "stateMutability": "payable",
      "type": "function"
    },
    {
      "inputs": [
        {
          "internalType": "contract IGasRefunder",
          "name": "gasRefunder",
          "type": "address"
        },
        {
          "internalType": "bytes",
          "name": "data",
          "type": "bytes"
        },
        {
          "internalType": "address",
          "name": "destination",
          "type": "address"
        },
        {
          "internalType": "uint256",
          "name": "amount",
          "type": "uint256"
        }
      ],
      "name": "executeTransactionWithGasRefunder",
      "outputs": [],
      "stateMutability": "payable",
      "type": "function"
    },
    {
      "inputs": [
        {
          "internalType": "bytes[]",
          "name": "data",
          "type": "bytes[]"
        },
        {
          "internalType": "address[]",
          "name": "destination",
          "type": "address[]"
        },
        {
          "internalType": "uint256[]",
          "name": "amount",
          "type": "uint256[]"
        }
      ],
      "name": "executeTransactions",
      "outputs": [],
      "stateMutability": "payable",
      "type": "function"
    },
    {
      "inputs": [
        {
          "internalType": "contract IGasRefunder",
          "name": "gasRefunder",
          "type": "address"
        },
        {
          "internalType": "bytes[]",
          "name": "data",
          "type": "bytes[]"
        },
        {
          "internalType": "address[]",
          "name": "destination",
          "type": "address[]"
        },
        {
          "internalType": "uint256[]",
          "name": "amount",
          "type": "uint256[]"
        }
      ],
      "name": "executeTransactionsWithGasRefunder",
      "outputs": [],
      "stateMutability": "payable",
      "type": "function"
    },
    {
      "inputs": [
        {
          "internalType": "address",
          "name": "",
          "type": "address"
        }
      ],
      "name": "executors",
      "outputs": [
        {
          "internalType": "bool",
          "name": "",
          "type": "bool"
        }
      ],
      "stateMutability": "view",
      "type": "function"
    },
    {
      "inputs": [
        {
          "internalType": "address",
          "name": "_executor",
          "type": "address"
        },
        {
          "internalType": "address",
          "name": "_owner",
          "type": "address"
        },
        {
          "internalType": "address[]",
          "name": "initialExecutorAllowedDests",
          "type": "address[]"
        }
      ],
      "name": "initialize",
      "outputs": [],
      "stateMutability": "nonpayable",
      "type": "function"
    },
    {
      "inputs": [],
      "name": "owner",
      "outputs": [
        {
          "internalType": "address",
          "name": "",
          "type": "address"
        }
      ],
      "stateMutability": "view",
      "type": "function"
    },
    {
      "inputs": [],
      "name": "renounceOwnership",
      "outputs": [],
      "stateMutability": "nonpayable",
      "type": "function"
    },
    {
      "inputs": [
        {
          "internalType": "address[]",
          "name": "destinations",
          "type": "address[]"
        },
        {
          "internalType": "bool[]",
          "name": "isSet",
          "type": "bool[]"
        }
      ],
      "name": "setAllowedExecutorDestinations",
      "outputs": [],
      "stateMutability": "nonpayable",
      "type": "function"
    },
    {
      "inputs": [
        {
          "internalType": "address[]",
          "name": "newExecutors",
          "type": "address[]"
        },
        {
          "internalType": "bool[]",
          "name": "isExecutor",
          "type": "bool[]"
        }
      ],
      "name": "setExecutor",
      "outputs": [],
      "stateMutability": "nonpayable",
      "type": "function"
    },
    {
      "inputs": [
        {
          "internalType": "contract IChallengeManager",
          "name": "manager",
          "type": "address"
        },
        {
          "internalType": "uint64[]",
          "name": "challenges",
          "type": "uint64[]"
        }
      ],
      "name": "timeoutChallenges",
      "outputs": [],
      "stateMutability": "nonpayable",
      "type": "function"
    },
    {
      "inputs": [
        {
          "internalType": "contract IGasRefunder",
          "name": "gasRefunder",
          "type": "address"
        },
        {
          "internalType": "contract IChallengeManager",
          "name": "manager",
          "type": "address"
        },
        {
          "internalType": "uint64[]",
          "name": "challenges",
          "type": "uint64[]"
        }
      ],
      "name": "timeoutChallengesWithGasRefunder",
      "outputs": [],
      "stateMutability": "nonpayable",
      "type": "function"
    },
    {
      "inputs": [
        {
          "internalType": "address",
          "name": "newOwner",
          "type": "address"
        }
      ],
      "name": "transferOwnership",
      "outputs": [],
      "stateMutability": "nonpayable",
      "type": "function"
    },
    {
      "inputs": [
        {
          "internalType": "address",
          "name": "destination",
          "type": "address"
        }
      ],
      "name": "validateExecuteTransaction",
      "outputs": [],
      "stateMutability": "view",
      "type": "function"
    },
    {
      "inputs": [
        {
          "internalType": "uint256",
          "name": "amount",
          "type": "uint256"
        },
        {
          "internalType": "address",
          "name": "destination",
          "type": "address"
        }
      ],
      "name": "withdrawEth",
      "outputs": [],
      "stateMutability": "nonpayable",
      "type": "function"
    },
    {
      "stateMutability": "payable",
      "type": "receive"
    }
  ],
  "bytecode": "0x60c0806040523461003057306080526202000060a0526113ec9081610036823960805181610b8e015260a051815050f35b600080fdfe6080604052600436101561001b575b361561001957600080fd5b005b60003560e01c8063097da1f81461011b5780630a2435f814610116578063193c8edd146101115780633a7c721a1461010c578063715018a61461010757806372f458661461010257806377a24f36146100fd5780638da5cb5b146100f85780639ac2a011146100f35780639be7bbd2146100ee578063a158657c146100e9578063af1b9a07146100e4578063c179f1d9146100df578063ce1d571f146100da578063d327821a146100d55763f2fde38b0361000e576109d8565b610954565b6108dd565b610835565b6107bd565b61074d565b610728565b6106e6565b6106bd565b6105a0565b610501565b6104af565b6103c9565b610387565b61027b565b610163565b6001600160a01b0381160361013157565b600080fd5b9181601f84011215610131578235916001600160401b038311610131576020838186019501011161013157565b60803660031901126101315760043561017b81610120565b6024356001600160401b0381116101315761019a903690600401610136565b604492919235906101aa82610120565b33600052606560205260ff6040600020541615806101ec575b6101d45761001993606435936111f8565b60405163f26aea8b60e01b8152336004820152602490fd5b506033546001600160a01b03163314156101c3565b9181601f84011215610131578235916001600160401b038311610131576020808501948460051b01011161013157565b6040600319820112610131576001600160401b0391600435838111610131578261025d91600401610201565b939093926024359182116101315761027791600401610201565b9091565b346101315761028936610231565b90919260018060a01b03906102a382603354163314610a72565b82850361034d5760005b6001600160401b03811686811015610019576103016102d56102d083888a610b46565b610b65565b6102f06102eb6102e6858c89610b46565b610b72565b61036d565b9060ff801983541691151516179055565b6000805160206113778339815191528461032d6102d06103256102e6868d8a610b46565b94898b610b46565b6040519015158152921691602090a26001016001600160401b03166102ad565b60405163088253c360e11b815280610369858860048401610b1f565b0390fd5b6001600160a01b0316600090815260656020526040902090565b34610131576020366003190112610131576004356103a481610120565b60018060a01b03166000526066602052602060ff604060002054166040519015158152f35b34610131576103d736610231565b9160018060a01b036103ee81603354163314610a72565b8382036104885760005b82811061040157005b806104476104126001938888610b46565b3561041c81610b5b565b6102f061042d6102e685898d610b46565b6001600160a01b0316600090815260666020526040902090565b6104556102e682868a610b46565b600080516020611357833981519152846104736102d0858b8b610b46565b6040519015158152921691602090a2016103f8565b60405163088253c360e11b815280610369868560048401610b1f565b600091031261013157565b34610131576000806003193601126104fe5760335481906001600160a01b038116906104dc338314610a72565b6001600160a01b0319166033556000805160206113978339815191528280a380f35b80fd5b6060366003190112610131576001600160401b036004358181116101315761052d903690600401610201565b60249291923582811161013157610548903690600401610201565b909260443590811161013157610562903690600401610201565b93909233600052606560205260ff60406000205416158061058b575b6101d457610019956110ea565b506033546001600160a01b031633141561057e565b34610131576060366003190112610131576004356105bd81610120565b6024356105c981610120565b6044356001600160401b038111610131576105e8903690600401610201565b906000549260ff8460081c1693846000146106b45750303b155b15610658576106179315948561062d57610b7c565b61061d57005b61001961ff001960005416600055565b61064161010061ff00196000541617600055565b610653600160ff196000541617600055565b610b7c565b60405162461bcd60e51b815260206004820152602e60248201527f496e697469616c697a61626c653a20636f6e747261637420697320616c72656160448201526d191e481a5b9a5d1a585b1a5e995960921b6064820152608490fd5b60ff1615610602565b34610131576000366003190112610131576033546040516001600160a01b039091168152602090f35b346101315760203660031901126101315760043561070381610120565b60018060a01b03166000526065602052602060ff604060002054166040519015158152f35b346101315760203660031901126101315761001960043561074881610120565b610d56565b346101315760403660031901126101315760243561076a81610120565b6033546001600160a01b0391906107849083163314610a72565b60009182808080600435865af16107996110ab565b50156107a3578280f35b604051630fdb769360e31b81529116600482015260249150fd5b34610131576040366003190112610131576004356107da81610120565b6024356001600160401b038111610131576107f9903690600401610201565b9033600052606560205260ff604060002054161580610820575b6101d457610019926112a5565b506033546001600160a01b0316331415610813565b60803660031901126101315760043561084d81610120565b6001600160401b036024358181116101315761086d903690600401610201565b9160443581811161013157610886903690600401610201565b916064359081116101315761089f903690600401610201565b94909333600052606560205260ff6040600020541615806108c8575b6101d45761001996610f13565b506033546001600160a01b03163314156108bb565b6060366003190112610131576004356001600160401b03811161013157610908903690600401610136565b9060243561091581610120565b33600052606560205260ff60406000205416158061093f575b6101d4576100199260443592611203565b506033546001600160a01b031633141561092e565b346101315760603660031901126101315760043561097181610120565b60243561097d81610120565b6044356001600160401b0381116101315761099c903690600401610201565b9133600052606560205260ff6040600020541615806109c3575b6101d45761001993611258565b506033546001600160a01b03163314156109b6565b34610131576020366003190112610131576004356109f581610120565b6033546001600160a01b0390610a0e9082163314610a72565b811615610a1e5761001990610ae8565b60405162461bcd60e51b815260206004820152602660248201527f4f776e61626c653a206e6577206f776e657220697320746865207a65726f206160448201526564647265737360d01b6064820152608490fd5b15610a7957565b606460405162461bcd60e51b815260206004820152602060248201527f4f776e61626c653a2063616c6c6572206973206e6f7420746865206f776e65726044820152fd5b6033546001600160a01b0390610ad69082163314610a72565b811615610a1e57610ae690610ae8565b565b603380546001600160a01b039283166001600160a01b031982168117909255909116600080516020611397833981519152600080a3565b908152602081019190915260400190565b634e487b7160e01b600052603260045260246000fd5b9190811015610b565760051b0190565b610b30565b8015150361013157565b35610b6f81610b5b565b90565b35610b6f81610120565b91936001600160a01b039390929091307f0000000000000000000000000000000000000000000000000000000000000000861614610c9c57610be090610bd260ff60005460081c16610bcd81610cf6565b610cf6565b610bdb33610ae8565b610abd565b610bf9610bec8261036d565b805460ff19166001179055565b600080516020611377833981519152604094855192169180610c2081906001602083019252565b0390a260005b6001600160401b03811682811015610c9457610c5d6102e682610c56610bec61042d6102e6610c69978a8e610b46565b8589610b46565b6001600160a01b031690565b84516001815260008051602061135783398151915290602090a26001016001600160401b0316610c26565b505050915050565b60405162461bcd60e51b815260206004820152602c60248201527f46756e6374696f6e206d7573742062652063616c6c6564207468726f7567682060448201526b19195b1959d85d1958d85b1b60a21b6064820152608490fd5b15610cfd57565b60405162461bcd60e51b815260206004820152602b60248201527f496e697469616c697a61626c653a20636f6e7472616374206973206e6f74206960448201526a6e697469616c697a696e6760a81b6064820152608490fd5b6001600160a01b0390811660008181526066602052604090205490919060ff161580610dae575b610d85575050565b606492506033541690604051916320fe37c560e11b835260048301523360248301526044820152fd5b508060335416331415610d7d565b634e487b7160e01b600052601160045260246000fd5b90601f8201809211610de057565b610dbc565b91908201809211610de057565b90600682029180830460061490151715610de057565b8015610e8e578080600114610e8757600214610e81576001908161013382101682600b83101617610e7957906002815b808211610e5057505081600019048111610de0570290565b909280600019048111610de057818416610e70575b800292811c90610e38565b80920291610e65565b600291500a90565b50600490565b5050600190565b50600090565b634e487b7160e01b600052604160045260246000fd5b6001600160401b038111610ebd57604052565b610e94565b601f909101601f19168101906001600160401b03821190821017610ebd57604052565b6040513d6000823e3d90fd5b91908203918211610de057565b908160209103126101315751610b6f81610b5b565b949192610f24949196935a976110ea565b6001600160a01b031680610f36575050565b610fc591602091610f783692610f72610f57610f5186610dd2565b60051c90565b610f72610f6c610f6683610df2565b92610e08565b60091c90565b90610de5565b913332146110055750610f8f6000925b5a90610ef1565b60405163e3db8a4960e01b8152336004820152602481019190915260448101929092529092839190829060009082906064820190565b03925af1801561100057610fd65750565b610ff69060203d8111610ff9575b610fee8183610ec2565b810190610efe565b50565b503d610fe4565b610ee5565b91610f8f90610f88565b6000198114610de05760010190565b9190811015610b565760051b81013590601e19813603018212156101315701803591906001600160401b038311610131576020018236038113610131579190565b1561106657565b60405162461bcd60e51b815260206004820152600f60248201526e2727afa1a7a222afa0aa2fa0a2222960891b6044820152606490fd5b908092918237016000815290565b3d156110e5573d906001600160401b038211610ebd57604051916110d9601f8201601f191660200184610ec2565b82523d6000602084013e565b606090565b92949391938582036111dc578082036111bf57600095865b838110611113575050505050505050565b61111e81858861101e565b905061119b575b6111366107486102e683858b610b46565b6111446102e682848a610b46565b888061115184878a610b46565b359261115e85898c61101e565b909460409561117187518094819361109d565b03925af161117d6110ab565b5015611192575061118d9061100f565b611102565b513d90818a823efd5b6111ba6111b56111af6102e684868c610b46565b3b151590565b61105f565b611125565b60405163088253c360e11b81529182916103699160048401610b1f565b60405163088253c360e11b815280610369888560048401610b1f565b92610f24929491945a955b9060009384939282611247575b61121984610d56565b826040519384928337810185815203925af16112336110ab565b501561123b57565b6040513d90816000823efd5b611253843b151561105f565b611210565b9192610f2491935a946112a5565b356001600160401b03811681036101315790565b60405162461bcd60e51b815260206004820152600360248201526247415360e81b6044820152606490fd5b9160005b8181106112b65750505050565b6001600160a01b0384166112d36112ce838587610b46565b611266565b90803b1561013157604051630da2e43560e11b81526001600160401b039290921660048301526000908290602490829084905af1908161133d575b506113345761131b6110ab565b511561132f5761132a9061100f565b6112a9565b61127a565b61132a9061100f565b8061134a61135092610eaa565b806104a4565b3861130e56feab063fe575c4df359aaf3733bcf10706bacfdd24557e670a2c1cba126ae4d8a49fdbc2d48b8a0db2f62663bf9312ad02f5b1f6414ad600b55a247d09aeec3ea28be0079c531659141344cd1fd0a4f28419497f9722a3daafe3b4186f6b6457e0a2646970667358221220665640d29cb237e747eb330c5830203f9427e4d61aeccb075a82cd2ca9b284d764736f6c63430008130033",
  "linkReferences": {},
  "deployedLinkReferences": {}
}