{
  "_format": "hh-sol-artifact-1",
  "contractName": "CacheManager",
  "sourceName": "src/chain/CacheManager.sol",
  "abi": [
    {
      "inputs": [
        {
          "internalType": "bytes32",
          "name": "codehash",
          "type": "bytes32"
        }
      ],
      "name": "AlreadyCached",
      "type": "error"
    },
    {
      "inputs": [
        {
          "internalType": "uint256",
          "name": "asm",
          "type": "uint256"
        },
        {
          "internalType": "uint256",
          "name": "queueSize",
          "type": "uint256"
        },
        {
          "internalType": "uint256",
          "name": "cacheSize",
          "type": "uint256"
        }
      ],
      "name": "AsmTooLarge",
      "type": "error"
    },
    {
      "inputs": [
        {
          "internalType": "uint256",
          "name": "bid",
          "type": "uint256"
        }
      ],
      "name": "BidTooLarge",
      "type": "error"
    },
    {
      "inputs": [
        {
          "internalType": "uint192",
          "name": "bid",
          "type": "uint192"
        },
        {
          "internalType": "uint192",
          "name": "min",
          "type": "uint192"
        }
      ],
      "name": "BidTooSmall",
      "type": "error"
    },
    {
      "inputs": [],
      "name": "BidsArePaused",
      "type": "error"
    },
    {
      "inputs": [
        {
          "internalType": "uint64",
          "name": "size",
          "type": "uint64"
        },
        {
          "internalType": "uint64",
          "name": "limit",
          "type": "uint64"
        }
      ],
      "name": "MakeSpaceTooLarge",
      "type": "error"
    },
    {
      "inputs": [
        {
          "internalType": "address",
          "name": "sender",
          "type": "address"
        }
      ],
      "name": "NotChainOwner",
      "type": "error"
    },
    {
      "anonymous": false,
      "inputs": [
        {
          "indexed": true,
          "internalType": "bytes32",
          "name": "codehash",
          "type": "bytes32"
        },
        {
          "indexed": false,
          "internalType": "uint192",
          "name": "bid",
          "type": "uint192"
        },
        {
          "indexed": false,
          "internalType": "uint64",
          "name": "size",
          "type": "uint64"
        }
      ],
      "name": "DeleteBid",
      "type": "event"
    },
    {
      "anonymous": false,
      "inputs": [
        {
          "indexed": true,
          "internalType": "bytes32",
          "name": "codehash",
          "type": "bytes32"
        },
        {
          "indexed": false,
          "internalType": "address",
          "name": "program",
          "type": "address"
        },
        {
          "indexed": false,
          "internalType": "uint192",
          "name": "bid",
          "type": "uint192"
        },
        {
          "indexed": false,
          "internalType": "uint64",
          "name": "size",
          "type": "uint64"
        }
      ],
      "name": "InsertBid",
      "type": "event"
    },
    {
      "anonymous": false,
      "inputs": [],
      "name": "Pause",
      "type": "event"
    },
    {
      "anonymous": false,
      "inputs": [
        {
          "indexed": false,
          "internalType": "uint64",
          "name": "size",
          "type": "uint64"
        }
      ],
      "name": "SetCacheSize",
      "type": "event"
    },
    {
      "anonymous": false,
      "inputs": [
        {
          "indexed": false,
          "internalType": "uint64",
          "name": "decay",
          "type": "uint64"
        }
      ],
      "name": "SetDecayRate",
      "type": "event"
    },
    {
      "anonymous": false,
      "inputs": [],
      "name": "Unpause",
      "type": "event"
    },
    {
      "inputs": [],
      "name": "cacheSize",
      "outputs": [
        {
          "internalType": "uint64",
          "name": "",
          "type": "uint64"
        }
      ],
      "stateMutability": "view",
      "type": "function"
    },
    {
      "inputs": [],
      "name": "decay",
      "outputs": [
        {
          "internalType": "uint64",
          "name": "",
          "type": "uint64"
        }
      ],
      "stateMutability": "view",
      "type": "function"
    },
    {
      "inputs": [
        {
          "internalType": "uint256",
          "name": "",
          "type": "uint256"
        }
      ],
      "name": "entries",
      "outputs": [
        {
          "internalType": "bytes32",
          "name": "code",
          "type": "bytes32"
        },
        {
          "internalType": "uint64",
          "name": "size",
          "type": "uint64"
        },
        {
          "internalType": "uint192",
          "name": "bid",
          "type": "uint192"
        }
      ],
      "stateMutability": "view",
      "type": "function"
    },
    {
      "inputs": [],
      "name": "evictAll",
      "outputs": [],
      "stateMutability": "nonpayable",
      "type": "function"
    },
    {
      "inputs": [
        {
          "internalType": "uint256",
          "name": "count",
          "type": "uint256"
        }
      ],
      "name": "evictPrograms",
      "outputs": [],
      "stateMutability": "nonpayable",
      "type": "function"
    },
    {
      "inputs": [],
      "name": "getEntries",
      "outputs": [
        {
          "components": [
            {
              "internalType": "bytes32",
              "name": "code",
              "type": "bytes32"
            },
            {
              "internalType": "uint64",
              "name": "size",
              "type": "uint64"
            },
            {
              "internalType": "uint192",
              "name": "bid",
              "type": "uint192"
            }
          ],
          "internalType": "struct CacheManager.Entry[]",
          "name": "",
          "type": "tuple[]"
        }
      ],
      "stateMutability": "view",
      "type": "function"
    },
    {
      "inputs": [
        {
          "internalType": "address",
          "name": "program",
          "type": "address"
        }
      ],
      "name": "getMinBid",
      "outputs": [
        {
          "internalType": "uint192",
          "name": "min",
          "type": "uint192"
        }
      ],
      "stateMutability": "view",
      "type": "function"
    },
    {
      "inputs": [
        {
          "internalType": "bytes32",
          "name": "codehash",
          "type": "bytes32"
        }
      ],
      "name": "getMinBid",
      "outputs": [
        {
          "internalType": "uint192",
          "name": "min",
          "type": "uint192"
        }
      ],
      "stateMutability": "view",
      "type": "function"
    },
    {
      "inputs": [
        {
          "internalType": "uint64",
          "name": "size",
          "type": "uint64"
        }
      ],
      "name": "getMinBid",
      "outputs": [
        {
          "internalType": "uint192",
          "name": "min",
          "type": "uint192"
        }
      ],
      "stateMutability": "view",
      "type": "function"
    },
    {
      "inputs": [
        {
          "internalType": "uint256",
          "name": "k",
          "type": "uint256"
        }
      ],
      "name": "getSmallestEntries",
      "outputs": [
        {
          "components": [
            {
              "internalType": "bytes32",
              "name": "code",
              "type": "bytes32"
            },
            {
              "internalType": "uint64",
              "name": "size",
              "type": "uint64"
            },
            {
              "internalType": "uint192",
              "name": "bid",
              "type": "uint192"
            }
          ],
          "internalType": "struct CacheManager.Entry[]",
          "name": "result",
          "type": "tuple[]"
        }
      ],
      "stateMutability": "view",
      "type": "function"
    },
    {
      "inputs": [
        {
          "internalType": "uint64",
          "name": "initCacheSize",
          "type": "uint64"
        },
        {
          "internalType": "uint64",
          "name": "initDecay",
          "type": "uint64"
        }
      ],
      "name": "initialize",
      "outputs": [],
      "stateMutability": "nonpayable",
      "type": "function"
    },
    {
      "inputs": [],
      "name": "isPaused",
      "outputs": [
        {
          "internalType": "bool",
          "name": "",
          "type": "bool"
        }
      ],
      "stateMutability": "view",
      "type": "function"
    },
    {
      "inputs": [
        {
          "internalType": "uint64",
          "name": "size",
          "type": "uint64"
        }
      ],
      "name": "makeSpace",
      "outputs": [
        {
          "internalType": "uint64",
          "name": "space",
          "type": "uint64"
        }
      ],
      "stateMutability": "payable",
      "type": "function"
    },
    {
      "inputs": [],
      "name": "paused",
      "outputs": [],
      "stateMutability": "nonpayable",
      "type": "function"
    },
    {
      "inputs": [
        {
          "internalType": "address",
          "name": "program",
          "type": "address"
        }
      ],
      "name": "placeBid",
      "outputs": [],
      "stateMutability": "payable",
      "type": "function"
    },
    {
      "inputs": [],
      "name": "queueSize",
      "outputs": [
        {
          "internalType": "uint64",
          "name": "",
          "type": "uint64"
        }
      ],
      "stateMutability": "view",
      "type": "function"
    },
    {
      "inputs": [
        {
          "internalType": "uint64",
          "name": "newSize",
          "type": "uint64"
        }
      ],
      "name": "setCacheSize",
      "outputs": [],
      "stateMutability": "nonpayable",
      "type": "function"
    },
    {
      "inputs": [
        {
          "internalType": "uint64",
          "name": "newDecay",
          "type": "uint64"
        }
      ],
      "name": "setDecayRate",
      "outputs": [],
      "stateMutability": "nonpayable",
      "type": "function"
    },
    {
      "inputs": [],
      "name": "sweepFunds",
      "outputs": [],
      "stateMutability": "nonpayable",
      "type": "function"
    },
    {
      "inputs": [],
      "name": "unpause",
      "outputs": [],
      "stateMutability": "nonpayable",
      "type": "function"
    }
  ],
  "bytecode": "0x60a080604052346100235730608052611b659081610029823960805181610a9b0152f35b600080fdfe6080604052600436101561001257600080fd5b60003560e01c806317be85c31461015757806320f2f345146101525780632dd4f5661461014d57806332052a9b146101485780633f4ba83a1461014357806354fac9191461013e5780635c32e943146101395780635c975abb14610134578063674a64e01461012f578063a8d6fe041461012a578063b187bd2614610125578063b30906d414610120578063bae6c2ad1461011b578063c1c013c414610116578063c565a20814610111578063c77ed13e1461010c578063cadb43e214610107578063d29b303e14610102578063e4940157146100fd5763e9c1bc0f146100f857600080fd5b610a72565b6109c4565b6109a6565b6108e4565b61086b565b61084a565b6107a5565b61077a565b610731565b6106bf565b61061f565b6105f6565b610586565b610516565b6104e9565b610476565b610434565b610376565b61027f565b6101de565b600091031261016757565b600080fd5b6001600160401b031690565b60208082019080835283518092528060408094019401926000905b8382106101a257505050505090565b845180518752808401516001600160401b0316878501528101516001600160c01b03168682015260609095019493820193600190910190610193565b34610167576000806003193601126102505760028054906101fe82611060565b9261020c6040519485610bc1565b82845281815260208082208186015b85841061023457604051806102308982610178565b0390f35b848360019261024285611077565b81520192019301929061021b565b80fd5b600435906001600160401b038216820361016757565b602435906001600160401b038216820361016757565b3461016757604036600319011261016757610298610253565b6102a0610269565b6000549060ff8260081c16918260001461036d5750303b155b15610311576102ce911592836102e657610a97565b6102d457005b6102e461ff001960005416600055565b005b6102fa61010061ff00196000541617600055565b61030c600160ff196000541617600055565b610a97565b60405162461bcd60e51b815260206004820152602e60248201527f496e697469616c697a61626c653a20636f6e747261637420697320616c72656160448201526d191e481a5b9a5d1a585b1a5e995960921b6064820152608490fd5b60ff16156102b9565b346101675760203660031901126101675761038f610253565b6040516304ddefed60e31b8152602081806103ad3360048301610bfc565b0381606b5afa90811561041e576000916103f0575b50156103d1576102e490610c1b565b604051639531eff160e01b8152806103ec3360048301610bfc565b0390fd5b610411915060203d8111610417575b6104098183610bc1565b810190610be4565b386103c2565b503d6103ff565b610c0f565b6001600160a01b0381160361016757565b3461016757602036600319011261016757602061046461045f60043561045981610423565b3f611a83565b6113b9565b6040516001600160c01b039091168152f35b3461016757600080600319360112610250576040516304ddefed60e31b8152602081806104a63360048301610bfc565b0381606b5afa90811561041e5782916104cb575b50156103d1576104c8610ce1565b80f35b6104e3915060203d8111610417576104098183610bc1565b386104ba565b346101675760003660031901126101675760035460405160809190911c6001600160401b03168152602090f35b3461016757600080600319360112610250576040516304ddefed60e31b8152602081806105463360048301610bfc565b0381606b5afa90811561041e578291610568575b50156103d1576104c8610da9565b610580915060203d8111610417576104098183610bc1565b3861055a565b3461016757600080600319360112610250576040516304ddefed60e31b8152602081806105b63360048301610bfc565b0381606b5afa90811561041e5782916105d8575b50156103d1576104c8610ca7565b6105f0915060203d8111610417576104098183610bc1565b386105ca565b34610167576000366003190112610167576003546040516001600160401b039091168152602090f35b346101675760008060031936011261025057604051632d9125e960e01b8152602081600481606b5afa90811561041e5782918291829161067c575b5081809147905af161066a611528565b9015610674575080f35b602081519101fd5b9150506020813d82116106b7575b8161069760209383610bc1565b810103126106b45781808092516106ad81610423565b915061065a565b50fd5b3d915061068a565b3461016757600036600319011261016757602060ff60035460c01c166040519015158152f35b60209060031901126101675760043590565b634e487b7160e01b600052603260045260246000fd5b60025481101561072c57600260005260206000209060011b0190600090565b6106f7565b346101675761073f366106e5565b6002548110156101675761075460609161070d565b506001815491015460405191825260018060401b038116602083015260401c6040820152f35b34610167576000366003190112610167576003546040805191901c6001600160401b03168152602090f35b6020366003190112610167576107b9610253565b60ff60035460c01c16610838576001600160401b03908082166250000080821161081a57610230610800856107ed866115a1565b505060035490808260401c169116611567565b6040516001600160401b0390911681529081906020820190565b604492506040519163e6b801f360e01b835260048301526024820152fd5b6040516323d5725b60e21b8152600490fd5b3461016757602036600319011261016757602061046461045f600435611a83565b3461016757602036600319011261016757610884610253565b6040516304ddefed60e31b8152602081806108a23360048301610bfc565b0381606b5afa90811561041e576000916108c6575b50156103d1576102e490610c67565b6108de915060203d8111610417576104098183610bc1565b386108b7565b34610167576108f2366106e5565b60409081516304ddefed60e31b8152336004820152602081602481606b5afa90811561041e57600091610988575b5015610971575b600154151580610968575b156102e457610955610942610f66565b6001600160401b0381169150841c61199d565b600019810190811115610927575b610d15565b50801515610932565b8151639531eff160e01b8152336004820152602490fd5b6109a0915060203d8111610417576104098183610bc1565b38610920565b3461016757602036600319011261016757602061046461045f610253565b6020366003190112610167576004356109dc81610423565b60ff60035460c01c1661083857803f9060405163a72f179b60e01b815282600482015260208160248160725afa90811561041e57600091610a54575b50610a3b5781610a2a6102e493611a83565b90610a34826115a1565b9390611737565b60405163c7e2d8e560e01b815260048101839052602490fd5b610a6c915060203d8111610417576104098183610bc1565b38610a18565b3461016757610230610a8b610a86366106e5565b611131565b60405191829182610178565b90307f00000000000000000000000000000000000000000000000000000000000000006001600160a01b031614610af357600380546001600160401b0319166001600160401b0390931692909217909155610af190610b4d565b565b60405162461bcd60e51b815260206004820152602c60248201527f46756e6374696f6e206d7573742062652063616c6c6564207468726f7567682060448201526b19195b1959d85d1958d85b1b60a21b6064820152608490fd5b60038054600160801b600160c01b03191660809290921b600160801b600160c01b0316919091179055565b634e487b7160e01b600052604160045260246000fd5b606081019081106001600160401b03821117610ba957604052565b610b78565b6001600160401b038111610ba957604052565b601f909101601f19168101906001600160401b03821190821017610ba957604052565b90816020910312610167575180151581036101675790565b6001600160a01b03909116815260200190565b6040513d6000823e3d90fd5b600380546001600160401b0319166001600160401b0390921691821790556040519081527fca22875e098f3b9c06ff3950c0cded621c968253a16623e890165451094c183990602090a1565b60207fd5ad38a519f54c97117f5a79fa7e82b03f32d2719f3ce4a27d4b561217cfea0c91610c9481610b4d565b6040516001600160401b039091168152a1565b6003805460ff60c01b1916600160c01b1790557f6985a02210a168e66602d3235cb6db0e70f92b3ba4d376a33c0f3d9434bff625600080a1565b6003805460ff60c01b191690557f7805862f689e2f13df9f062ff482ad3ad112aca9e0847911ed832e158c525b33600080a1565b634e487b7160e01b600052601160045260246000fd5b634e487b7160e01b600052600060045260246000fd5b90610d525760018160008093550155565b610d2b565b60028054600080835581610d6a57505050565b6001600160ff1b0382168203610963578281526020812091600190811b8301925b838110610d99575050505050565b8083869255838382015501610d8b565b604080516304ddefed60e31b8152336004820152602081602481606b5afa90811561041e57600091610e36575b5015610e20576000195b600154151580610e17575b15610e0d57610dfb610942610f66565b600019810190811115610de057610d15565b5050610af1610d57565b50801515610deb565b51639531eff160e01b8152336004820152602490fd5b610e4e915060203d8111610417576104098183610bc1565b38610dd6565b60001981019190821161096357565b9190820391821161096357565b6001805460008281529182918291600080516020611b108339815191529160001990610f24565b84905b808310610ee757505b610ebe575b01610eb4575b50505090565b0155388080610eae565b926000198101821c90818401549081871015610ede578401559283610ea3565b94915050610ea8565b9180915084019485549184808201970154928381108589101115610f18575b50508401558184811b01908490610e9a565b90965091503880610f06565b95509350848015610f595760001990810180835595830101549384908615610f525750508154948190610e97565b9095610e97565b63a6ca772e84526004601cfd5b60009060009081806001805490808352806020842092846000199261100c575b5084905b808310610fcf57505b610fa6575b01610fa257505050565b0155565b926000198101821c90818401549081871015610fc6578401559283610f93565b94915050610f98565b9180915084019485549184808201970154928381108589101115611000575b50508401558184811b01908490610f8a565b90965091503880610fee565b97508091955096811561104657506000199081018083559683010154938490871561103e575050815495819038610f86565b909638610f86565b63a6ca772e90526004601cfd5b60405190610af182610b8e565b6001600160401b038111610ba95760051b60200190565b9060405161108481610b8e565b825481526001909201546001600160401b0381166020840152604090811c90830152565b906110b282611060565b6040906110c182519182610bc1565b83815280936110d2601f1991611060565b0191600091825b8481106110e7575050505050565b60209083516110f581610b8e565b85815282868183015286868301528285010152016110d9565b60001981146109635760010190565b805182101561072c5760209160051b010190565b9060018054928084106112bc575b604080519483600052602080600020918188019481811090821802811860051b88019082820190611177855483600091815260200152565b828601948783141594855b61121b575b50505050505050601f198583030160051c8552526111a583516110a8565b926000825b6111b357505050565b815181101561121657806111f56111ef6111e86111d3611210958761111d565b51604081901c916001600160401b0390911690565b905061070d565b50611077565b6111ff828861111d565b5261120a818761111d565b5061110e565b826111aa565b505050565b90919293949597845181528101978489146112b757898151811b8181019086821015611290576112548187019284840154908c8b61131b565b600280910191878303611274575b50505050865b95949392919096611182565b0154929891926112859183896112d4565b019589388080611262565b505050956000190195866112b28160061b88018a85820151910151838961131b565b611268565b611187565b508261113f565b9092919260061b0190815260200152565b905b6000198101600581901b603f19168301805191929082871082021561130c57602001516113049291856112c3565b60011c6112d6565b50915050610af19392916112c3565b6001949392916000919086905b80821061133c575050610af19495506112d4565b909261136d90600694838a8201108101861b85015181871b860151110180951b8401908151916020015190856112c3565b82871b870190611328565b6001600160401b03918216908216019190821161096357565b90611000820180921161096357565b6001600160c01b03918216908216039190821161096357565b6003546000916001600160401b03808316918181168381116114f8576113fc926113f79290916110009081116114f05750905b604095861c16611378565b61016c565b90808211156114e75761140e91610e63565b9261142c610a8661142661142187611391565b610e54565b600c1c90565b906000945b82518610156114dd57602061145c6113f78261144d8a8861111d565b5101516001600160401b031690565b82111561148d576114879161147b6113f76114819361144d8b8961111d565b90610e63565b9561110e565b94611431565b5050936114ad935061149e9161111d565b5101516001600160c01b031690565b6114b5611580565b906001600160c01b0380821683116114d5576114d29216906113a0565b90565b505050600090565b50935050506114ad565b50505050600090565b9050906113ec565b60405163bcc27c3760e01b81526001600160401b0383811660048301526000602483015285166044820152606490fd5b3d15611562573d906001600160401b038211610ba95760405191611556601f8201601f191660200184610bc1565b82523d6000602084013e565b606090565b6001600160401b03918216908216039190821161096357565b60018060401b0360035460801c168042029042820414421517156109635790565b906115aa611580565b340190813411610963576001600160c01b0391828111611693579180939216926115d560025461016c565b9060006003926115e86113f7855461016c565b915b8454839061160e906113f7908a9060401c6001600160401b0316611378565b611378565b111561165857505061160e6113f76116099661163f61162b610e70565b604081901c916001600160401b0390911690565b98909661164c8a8961199d565b969250509691506115ea565b9350945050811684106116685750565b604051631be6e1c960e31b81526001600160c01b038581166004830152919091166024820152604490fd5b60249060405190631edd0da560e31b82526004820152fd5b9190610d525780518255602081015160409182015190911b6001600160401b0319166001600160401b0390911617600190910155565b600254600160401b811015610ba957600181018060025581101561072c576001906002600052602060002090821b019180518355818060401b036020820151169060408380821b031991015160401b1617910155565b60035492949390926001600160401b03919060409080821c84169084908161175f8685611378565b911691829116116118d6575050611774611053565b8781526001600160401b0383166020820152956001600160c01b0386168783015260723b1561016757815163739d64f960e11b815296600088806117bb8960048301610bfc565b03818360725af194851561041e577fb9271ce6a232cb5e0010e10fc10b38fe5d25dd27f8c03beef068a581cfc21bec986118a1966118bd575b50821661180e88851b6001600160401b0319168217611906565b6003546118579061182c90879060401c6001600160401b0316611378565b60038054600160401b600160801b03191660409290921b600160401b600160801b0316919091179055565b600254036118a65761186991506116e1565b516001600160a01b0390931683526001600160c01b0390931660208301526001600160401b0390921660408201529081906060820190565b0390a2565b6118b26118b89261070d565b906116ab565b611869565b806118ca6118d092610bae565b8061015c565b386117f4565b915163bcc27c3760e01b81526001600160401b039384166004820152908316602482015291166044820152606490fd5b600180546000829052808201825590600080516020611b10833981519152908183805b80831061196057505b6119405701610fa257505050565b926000198101821c90818401549081871015610fc6578401559283611932565b9180915084019485549184808201970154928381108589101115611991575b50508401558184811b01908490611929565b9096509150388061197f565b906119aa6111ef8261070d565b9081519160723b156101675760405163ce97201360e01b815260048101939093526000836024818360725af1801561041e57610af194611a6a947f65905594d332f592fa6d4b86efc250c300a286b9d4f07f2ae89c3147dc4f39e792611a70575b50611a406020840193611a3861182c611a24875161016c565b60035460401c6001600160401b0316611567565b51935161016c565b604080516001600160c01b039390931683526001600160401b0391909116602083015290a261070d565b90610d41565b806118ca611a7d92610bae565b38611a0b565b60405190634089267f60e01b8252600482015260208160248160715afa90811561041e57600091611ac9575b5063ffffffff16611000808210611ac4575090565b905090565b6020813d8211611b07575b81611ae160209383610bc1565b81010312611b0357519063ffffffff82168203610250575063ffffffff611aaf565b5080fd5b3d9150611ad456feb10e2d527612073b26eecdfd717e6a320cf44b4afac2b0732d9fcbe2b7fa0cf6a2646970667358221220c9eb50ba52dea3b07ea7628485320e659a2d59194b29be9ef926c3c77dca0cd364736f6c63430008130033",
  "linkReferences": {},
  "deployedLinkReferences": {}
}