{
  "_format": "hh-sol-artifact-1",
  "contractName": "OneStepProverHostIoCelestiaMock",
  "sourceName": "src/mocks/OneStepProverHostIoCelestiaMock.sol",
  "abi": [
    {
      "inputs": [],
      "name": "BLOBSTREAM",
      "outputs": [
        {
          "internalType": "address",
          "name": "",
          "type": "address"
        }
      ],
      "stateMutability": "view",
      "type": "function"
    },
    {
      "inputs": [],
      "name": "CELESTIA_MESSAGE_HEADER_FLAG",
      "outputs": [
        {
          "internalType": "bytes1",
          "name": "",
          "type": "bytes1"
        }
      ],
      "stateMutability": "view",
      "type": "function"
    },
    {
      "inputs": [
        {
          "components": [
            {
              "internalType": "uint256",
              "name": "maxInboxMessagesRead",
              "type": "uint256"
            },
            {
              "internalType": "contract IBridge",
              "name": "bridge",
              "type": "address"
            }
          ],
          "internalType": "struct ExecutionContext",
          "name": "execCtx",
          "type": "tuple"
        },
        {
          "components": [
            {
              "internalType": "enum MachineStatus",
              "name": "status",
              "type": "uint8"
            },
            {
              "components": [
                {
                  "components": [
                    {
                      "components": [
                        {
                          "internalType": "enum ValueType",
                          "name": "valueType",
                          "type": "uint8"
                        },
                        {
                          "internalType": "uint256",
                          "name": "contents",
                          "type": "uint256"
                        }
                      ],
                      "internalType": "struct Value[]",
                      "name": "inner",
                      "type": "tuple[]"
                    }
                  ],
                  "internalType": "struct ValueArray",
                  "name": "proved",
                  "type": "tuple"
                },
                {
                  "internalType": "bytes32",
                  "name": "remainingHash",
                  "type": "bytes32"
                }
              ],
              "internalType": "struct ValueStack",
              "name": "valueStack",
              "type": "tuple"
            },
            {
              "components": [
                {
                  "internalType": "bytes32",
                  "name": "inactiveStackHash",
                  "type": "bytes32"
                },
                {
                  "internalType": "bytes32",
                  "name": "remainingHash",
                  "type": "bytes32"
                }
              ],
              "internalType": "struct MultiStack",
              "name": "valueMultiStack",
              "type": "tuple"
            },
            {
              "components": [
                {
                  "components": [
                    {
                      "components": [
                        {
                          "internalType": "enum ValueType",
                          "name": "valueType",
                          "type": "uint8"
                        },
                        {
                          "internalType": "uint256",
                          "name": "contents",
                          "type": "uint256"
                        }
                      ],
                      "internalType": "struct Value[]",
                      "name": "inner",
                      "type": "tuple[]"
                    }
                  ],
                  "internalType": "struct ValueArray",
                  "name": "proved",
                  "type": "tuple"
                },
                {
                  "internalType": "bytes32",
                  "name": "remainingHash",
                  "type": "bytes32"
                }
              ],
              "internalType": "struct ValueStack",
              "name": "internalStack",
              "type": "tuple"
            },
            {
              "components": [
                {
                  "components": [
                    {
                      "components": [
                        {
                          "internalType": "enum ValueType",
                          "name": "valueType",
                          "type": "uint8"
                        },
                        {
                          "internalType": "uint256",
                          "name": "contents",
                          "type": "uint256"
                        }
                      ],
                      "internalType": "struct Value",
                      "name": "returnPc",
                      "type": "tuple"
                    },
                    {
                      "internalType": "bytes32",
                      "name": "localsMerkleRoot",
                      "type": "bytes32"
                    },
                    {
                      "internalType": "uint32",
                      "name": "callerModule",
                      "type": "uint32"
                    },
                    {
                      "internalType": "uint32",
                      "name": "callerModuleInternals",
                      "type": "uint32"
                    }
                  ],
                  "internalType": "struct StackFrame[]",
                  "name": "proved",
                  "type": "tuple[]"
                },
                {
                  "internalType": "bytes32",
                  "name": "remainingHash",
                  "type": "bytes32"
                }
              ],
              "internalType": "struct StackFrameWindow",
              "name": "frameStack",
              "type": "tuple"
            },
            {
              "components": [
                {
                  "internalType": "bytes32",
                  "name": "inactiveStackHash",
                  "type": "bytes32"
                },
                {
                  "internalType": "bytes32",
                  "name": "remainingHash",
                  "type": "bytes32"
                }
              ],
              "internalType": "struct MultiStack",
              "name": "frameMultiStack",
              "type": "tuple"
            },
            {
              "internalType": "bytes32",
              "name": "globalStateHash",
              "type": "bytes32"
            },
            {
              "internalType": "uint32",
              "name": "moduleIdx",
              "type": "uint32"
            },
            {
              "internalType": "uint32",
              "name": "functionIdx",
              "type": "uint32"
            },
            {
              "internalType": "uint32",
              "name": "functionPc",
              "type": "uint32"
            },
            {
              "internalType": "bytes32",
              "name": "recoveryPc",
              "type": "bytes32"
            },
            {
              "internalType": "bytes32",
              "name": "modulesRoot",
              "type": "bytes32"
            }
          ],
          "internalType": "struct Machine",
          "name": "startMach",
          "type": "tuple"
        },
        {
          "components": [
            {
              "internalType": "bytes32",
              "name": "globalsMerkleRoot",
              "type": "bytes32"
            },
            {
              "components": [
                {
                  "internalType": "uint64",
                  "name": "size",
                  "type": "uint64"
                },
                {
                  "internalType": "uint64",
                  "name": "maxSize",
                  "type": "uint64"
                },
                {
                  "internalType": "bytes32",
                  "name": "merkleRoot",
                  "type": "bytes32"
                }
              ],
              "internalType": "struct ModuleMemory",
              "name": "moduleMemory",
              "type": "tuple"
            },
            {
              "internalType": "bytes32",
              "name": "tablesMerkleRoot",
              "type": "bytes32"
            },
            {
              "internalType": "bytes32",
              "name": "functionsMerkleRoot",
              "type": "bytes32"
            },
            {
              "internalType": "bytes32",
              "name": "extraHash",
              "type": "bytes32"
            },
            {
              "internalType": "uint32",
              "name": "internalsOffset",
              "type": "uint32"
            }
          ],
          "internalType": "struct Module",
          "name": "startMod",
          "type": "tuple"
        },
        {
          "components": [
            {
              "internalType": "uint16",
              "name": "opcode",
              "type": "uint16"
            },
            {
              "internalType": "uint256",
              "name": "argumentData",
              "type": "uint256"
            }
          ],
          "internalType": "struct Instruction",
          "name": "inst",
          "type": "tuple"
        },
        {
          "internalType": "bytes",
          "name": "proof",
          "type": "bytes"
        }
      ],
      "name": "executeOneStep",
      "outputs": [
        {
          "components": [
            {
              "internalType": "enum MachineStatus",
              "name": "status",
              "type": "uint8"
            },
            {
              "components": [
                {
                  "components": [
                    {
                      "components": [
                        {
                          "internalType": "enum ValueType",
                          "name": "valueType",
                          "type": "uint8"
                        },
                        {
                          "internalType": "uint256",
                          "name": "contents",
                          "type": "uint256"
                        }
                      ],
                      "internalType": "struct Value[]",
                      "name": "inner",
                      "type": "tuple[]"
                    }
                  ],
                  "internalType": "struct ValueArray",
                  "name": "proved",
                  "type": "tuple"
                },
                {
                  "internalType": "bytes32",
                  "name": "remainingHash",
                  "type": "bytes32"
                }
              ],
              "internalType": "struct ValueStack",
              "name": "valueStack",
              "type": "tuple"
            },
            {
              "components": [
                {
                  "internalType": "bytes32",
                  "name": "inactiveStackHash",
                  "type": "bytes32"
                },
                {
                  "internalType": "bytes32",
                  "name": "remainingHash",
                  "type": "bytes32"
                }
              ],
              "internalType": "struct MultiStack",
              "name": "valueMultiStack",
              "type": "tuple"
            },
            {
              "components": [
                {
                  "components": [
                    {
                      "components": [
                        {
                          "internalType": "enum ValueType",
                          "name": "valueType",
                          "type": "uint8"
                        },
                        {
                          "internalType": "uint256",
                          "name": "contents",
                          "type": "uint256"
                        }
                      ],
                      "internalType": "struct Value[]",
                      "name": "inner",
                      "type": "tuple[]"
                    }
                  ],
                  "internalType": "struct ValueArray",
                  "name": "proved",
                  "type": "tuple"
                },
                {
                  "internalType": "bytes32",
                  "name": "remainingHash",
                  "type": "bytes32"
                }
              ],
              "internalType": "struct ValueStack",
              "name": "internalStack",
              "type": "tuple"
            },
            {
              "components": [
                {
                  "components": [
                    {
                      "components": [
                        {
                          "internalType": "enum ValueType",
                          "name": "valueType",
                          "type": "uint8"
                        },
                        {
                          "internalType": "uint256",
                          "name": "contents",
                          "type": "uint256"
                        }
                      ],
                      "internalType": "struct Value",
                      "name": "returnPc",
                      "type": "tuple"
                    },
                    {
                      "internalType": "bytes32",
                      "name": "localsMerkleRoot",
                      "type": "bytes32"
                    },
                    {
                      "internalType": "uint32",
                      "name": "callerModule",
                      "type": "uint32"
                    },
                    {
                      "internalType": "uint32",
                      "name": "callerModuleInternals",
                      "type": "uint32"
                    }
                  ],
                  "internalType": "struct StackFrame[]",
                  "name": "proved",
                  "type": "tuple[]"
                },
                {
                  "internalType": "bytes32",
                  "name": "remainingHash",
                  "type": "bytes32"
                }
              ],
              "internalType": "struct StackFrameWindow",
              "name": "frameStack",
              "type": "tuple"
            },
            {
              "components": [
                {
                  "internalType": "bytes32",
                  "name": "inactiveStackHash",
                  "type": "bytes32"
                },
                {
                  "internalType": "bytes32",
                  "name": "remainingHash",
                  "type": "bytes32"
                }
              ],
              "internalType": "struct MultiStack",
              "name": "frameMultiStack",
              "type": "tuple"
            },
            {
              "internalType": "bytes32",
              "name": "globalStateHash",
              "type": "bytes32"
            },
            {
              "internalType": "uint32",
              "name": "moduleIdx",
              "type": "uint32"
            },
            {
              "internalType": "uint32",
              "name": "functionIdx",
              "type": "uint32"
            },
            {
              "internalType": "uint32",
              "name": "functionPc",
              "type": "uint32"
            },
            {
              "internalType": "bytes32",
              "name": "recoveryPc",
              "type": "bytes32"
            },
            {
              "internalType": "bytes32",
              "name": "modulesRoot",
              "type": "bytes32"
            }
          ],
          "internalType": "struct Machine",
          "name": "mach",
          "type": "tuple"
        },
        {
          "components": [
            {
              "internalType": "bytes32",
              "name": "globalsMerkleRoot",
              "type": "bytes32"
            },
            {
              "components": [
                {
                  "internalType": "uint64",
                  "name": "size",
                  "type": "uint64"
                },
                {
                  "internalType": "uint64",
                  "name": "maxSize",
                  "type": "uint64"
                },
                {
                  "internalType": "bytes32",
                  "name": "merkleRoot",
                  "type": "bytes32"
                }
              ],
              "internalType": "struct ModuleMemory",
              "name": "moduleMemory",
              "type": "tuple"
            },
            {
              "internalType": "bytes32",
              "name": "tablesMerkleRoot",
              "type": "bytes32"
            },
            {
              "internalType": "bytes32",
              "name": "functionsMerkleRoot",
              "type": "bytes32"
            },
            {
              "internalType": "bytes32",
              "name": "extraHash",
              "type": "bytes32"
            },
            {
              "internalType": "uint32",
              "name": "internalsOffset",
              "type": "uint32"
            }
          ],
          "internalType": "struct Module",
          "name": "mod",
          "type": "tuple"
        }
      ],
      "stateMutability": "view",
      "type": "function"
    }
  ],
  "bytecode": "0x6080806040523461001657613333908161001c8239f35b600080fdfe60a080604052600436101561001357600080fd5b60003560e01c9081633604366f14610094575080635fd9e56d146100745763dc3465471461004057600080fd5b3461006f57600036600319011261006f576020604051738f0febb820c4858e3c815f87391bde38e62b4a8a8152f35b600080fd5b3461006f57600036600319011261006f57604051606360f81b8152602090f35b3461006f5736600319016101c0811261006f5760401361006f576001600160401b036044351161006f576101c06044353603600319011261006f5761010036606319011261006f5760403661016319011261006f576001600160401b036101a4351161006f573660236101a43501121561006f576001600160401b0360046101a43501351161006f573660246101a435600401356101a43501011161006f5761016081610142600093610b61565b82815261014d610bf1565b602082015260405161015e81610b2b565b8381528360208201526040820152610174610bf1565b606082015260405161018581610b2b565b6060815283602082015260808201526040516101a081610b2b565b83815283602082015260a08201528260c08201528260e08201528261010082015282610120820152826101408201520152600060a06040516101e181610b7d565b8281526040516101f081610b98565b8381528360208201528360408201526020820152826040820152826060820152826080820152015260405161022481610b61565b6004604435810135101561006f57604435600481013582526001600160401b036024909101351161006f5761026436604435602481013501600401610c62565b6020820152610277366044803501610d37565b60408201526001600160401b03604435608401351161006f576102a536604435608481013501600401610c62565b60608201526001600160401b0360443560a401351161006f57604060443560a4810135013603600319011261006f576040516102e081610b2b565b60443560a481013501600401356001600160401b03811161006f573660443560a4810135018201602301121561006f5760443560a4810135018101600401359061032982610c19565b916103376040519384610bce565b80835260208301913660443560a481013501820160a08402016024011161006f5760443560a481013501810160240192905b60443560a481013501810160a08402016024018410610a2757505050508152602460a46044350135604435010135602082015260808201526103b03660c460443501610d37565b60a0820152610104604435013560c08201526103d161012460443501610d5f565b60e08201526103e561014460443501610d5f565b6101008201526103fa61016460443501610d5f565b6101208201526044356101848101356101408301526101a401356101608201526040519061042782610b7d565b6064358252606036608319011261006f5760405161044481610b98565b6084356001600160401b038116900361006f57608435815260a4356001600160401b038116900361006f5760a435602082015260c4356040820152602083015260e435604083015261010435606083015261012435608083015263ffffffff6101443516610144350361006f576101443560a083015261ffff6101643516610164350361006f5761801061ffff6101643516101580610a14575b156109925760045b806003146109785780600214610959578060011461094f5760041461051b57634e487b7160e01b600052605160045260246000fd5b610523612a80565b5061052c612a80565b5060006040519261053c84610b2b565b60403685376040519061054e82610b2b565b60403683376000925b600260ff851610156105995761057e610593916101a4356004013560246101a43501612cd6565b949061058d60ff831689612ab9565b52612d0e565b92610557565b909250939092936000915b600260ff8416101561063557600093845b6008861015610603576105f66105fc9167ffffffffffffff006105e6876101a4356004013560246101a43501610da1565b3560f81c9160081b161794610dc3565b95610dc3565b94926105b5565b94509261062c9196929461061a60ff831688612ab9565b6001600160401b039091169052612d0e565b919290946105a4565b60405193959491925061064784610b2b565b8352602083015261065782612d1f565b60c0840151036109175761801061ffff6101643516148015610905575b1561088657906106aa6106a16106af936101a43560040135906101a4356004013560246101a43501610e27565b90838787612aca565b612d1f565b60c08201525b60405190610120825280516004811015610870576101208301526106eb60208201516101c06101408501526102e0840190610ace565b90602060408201518051610160860152015161018084015261072160608201519261011f199384868303016101a0870152610ace565b608082015192848203016101c08501528251926040825260408201845180915260206060840195019060005b818110610829575050509461016063ffffffff9360a093602080899a015191015260208482015180516101e08a0152015161020088015260c08101516102208801528460e082015116610240880152846101008201511661026088015284610120820151166102808801526101408101516102a088015201516102c08601528051602086015260406020820151600180831b0381511682880152600180831b03602082015116606088015201516080860152604081015182860152606081015160c0860152608081015160e08601520151166101008301520390f35b909195602060a060019263ffffffff60608b51610847848251610ab6565b85810151604085015282604082015116828501520151166080820152019701910191909161074d565b634e487b7160e01b600052602160045260246000fd5b506101643561ffff16618012036108a557806106aa6106af9284612c10565b6101643561ffff16618013036108c357806106aa6106af9284612c89565b60405162461bcd60e51b815260206004820152601a602482015279494e56414c49445f474c4f42414c53544154455f4f50434f444560301b6044820152606490fd5b5061801161ffff610164351614610674565b60405162461bcd60e51b815260206004820152601060248201526f4241445f474c4f42414c5f535441544560801b6044820152606490fd5b50600181526106b5565b506109736101a4356004013560246101a4350184846115e5565b6106b5565b506109736101a4356004013560246101a435018484610f0f565b6101643561ffff16618020036109a95760036104e6565b6101643561ffff16618021036109c05760026104e6565b6101643561ffff16618022036109d75760016104e6565b60405162461bcd60e51b8152602060048201526015602482015274494e56414c49445f4d454d4f52595f4f50434f444560581b6044820152606490fd5b5061801361ffff610164351611156104de565b60a08436031261006f576040516001600160401b036080820190811190821117610aa05760a06020602494836080849501604052610a65368a610c30565b8152604089013583820152610a7c60608a01610d5f565b6040820152610a8d60808a01610d5f565b6060820152815201950194925050610369565b634e487b7160e01b600052604160045260246000fd5b80516007811015610870578252602090810151910152565b908151604092838352606083019151936020928382860152855180915283608086019601916000905b828210610b0b575050505081015191015290565b90919296858282610b1f6001948c51610ab6565b01980193920190610af7565b604081019081106001600160401b03821117610aa057604052565b602081019081106001600160401b03821117610aa057604052565b61018081019081106001600160401b03821117610aa057604052565b60c081019081106001600160401b03821117610aa057604052565b606081019081106001600160401b03821117610aa057604052565b608081019081106001600160401b03821117610aa057604052565b601f909101601f19168101906001600160401b03821190821017610aa057604052565b60405190610bfe82610b2b565b6000602083604051610c0f81610b46565b6060815281520152565b6001600160401b038111610aa05760051b60200190565b919082604091031261006f57604051610c4881610b2b565b80928035600781101561006f578252602090810135910152565b60409291818103841361006f57835191610c7b83610b2b565b829481359260018060401b039384811161006f57830191602094858484031261006f57815193610caa85610b46565b803591821161006f570182601f8201121561006f578035610cca81610c19565b93610cd784519586610bce565b818552878086019260061b8401019281841161006f579088809897969594939201915b838310610d11575050505050815284520135910152565b978495969798610d25838596979495610c30565b81520192019088979695949392610cfa565b919082604091031261006f57604051610d4f81610b2b565b6020808294803584520135910152565b359063ffffffff8216820361006f57565b6001019081600111610d7e57565b634e487b7160e01b600052601160045260246000fd5b91908201809211610d7e57565b90821015610dad570190565b634e487b7160e01b600052603260045260246000fd5b6000198114610d7e5760010190565b6060906020815260166020820152752aa725a727aba72fa82922a4a6a0a3a2afa82927a7a360511b60408201520190565b15610e0a57565b60405162461bcd60e51b815280610e2360048201610dd2565b0390fd5b9093929384831161006f57841161006f578101920390565b6001600160401b038111610aa057601f01601f191660200190565b3d15610e85573d90610e6b82610e3f565b91610e796040519384610bce565b82523d6000602084013e565b606090565b81810292918115918404141715610d7e57565b929192610ea982610e3f565b91610eb76040519384610bce565b82948184528183011161006f578281602093846000960137010152565b15610edb57565b60405162461bcd60e51b815260206004820152600c60248201526b4241445f505245494d41474560a01b6044820152606490fd5b9193602092838101610f29610f248251613150565b613008565b610f36610f248351613150565b63ffffffff93848216601f84161590811591611520575b508015611514575b611504575060409060608251610f6a81610b46565b52876307ffffff809260051c16970192610f878a8c8a8751612ee8565b9b9193909c849d6060610fa5610f9e838786610da1565b3592610dc3565b93610184358061108e5750505060f81c6110765782610fe59594928a94610fcb93610e27565b949093610fd9368787610e9d565b8d815191012014610ed4565b1689810190818111610d7e57836110059361100c95841161106d57610e27565b3691610e9d565b955b6000995b87518b101561103e57611032611038918c8b818c01015160f81c9161156d565b9a610dc3565b99611012565b9061105892939495969a5061106597985061106b99612d89565b915101525192511661311c565b9061327f565b565b92508092610e27565b855162461bcd60e51b815280610e2360048201610dd2565b9697966001908082036111165750505050928092916110b36110b89560f81c15610e03565b610e27565b9290918a600086518686823780878101838152039060025afa1561110b57906110e5889260005114610ed4565b1689810190818111610d7e57836110059361110595841161106d57610e27565b9561100e565b84513d6000823e3d90fd5b929e98949196939095926002146000146114c857918f979695949380926110b36111439560f81c15610e03565b809591961161006f5785350361148d57600080885186888237808781018381520390600a5afa91611172610e5a565b92156114555782511561141857878380518101031261006f57878e840151930151937f73eda753299d7d483339d80809a1d80553bda402fffe5bfeffffffff0000000185036113df57908e918460051b85159386820414841715610d7e578d8516106111e6575b505050505050505061100e565b60009e989e9360051c1690805b8582106113b8575050506113a25761121091600160201b04610e8a565b8551918c8301918d83528d888501528d878501527f16a2a19edfe81f20d09b681922c813b4b63683508c2280b93829971f439f0d2b608085015260a084015260c083015260c0825260e082019082821060018060401b03831117610aa05760009283928852519060055afa611283610e5a565b901561136e578a815103611334578a8151910151908b8110611323575b5081851161006f578a830135036112eb57821161006f578251916112c383610b2b565b898352369082011161006f5782899101818301376000828201529538808080808080806111d9565b835162461bcd60e51b8152600481018b9052601160248201527025ad23afa82927a7a32faba927a723afad60791b6044820152606490fd5b600019908c0360031b1b16386112a0565b845162461bcd60e51b8152600481018c9052601360248201527209a9e888ab0a0beaea49e9c8ebe988a9c8ea89606b1b6044820152606490fd5b845162461bcd60e51b8152600481018c9052600d60248201526c1353d111561417d19052531151609a1b6044820152606490fd5b634e487b7160e01b600052601260045260246000fd5b909193811b938482808316146113d5575b50811c91811b906111f3565b82179450386113c9565b60648f8a519062461bcd60e51b825260048201526013602482015272554e4b4e4f574e5f424c535f4d4f44554c555360681b6044820152fd5b875162461bcd60e51b8152600481018f905260166024820152754b5a475f505245434f4d50494c455f4d495353494e4760501b6044820152606490fd5b875162461bcd60e51b8152600481018f9052601160248201527024a72b20a624a22fa5ad23afa82927a7a360791b6044820152606490fd5b865162461bcd60e51b8152600481018e90526014602482015273096b48ebea0a49e9e8cbeaea49e9c8ebe9082a6960631b6044820152606490fd5b5060648f8a519062461bcd60e51b825260048201526015602482015274554e4b4e4f574e5f505245494d4147455f5459504560581b6044820152fd5b9650505050509350506002915052565b50601f82161515610f55565b9050888101809111610d7e5787890151516001600160401b03161038610f4d565b90610100918203918211610d7e57565b600019810191908211610d7e57565b91908203918211610d7e57565b909160208310156115a85782601f0392601f8411610d7e578360031b93840460081490601f141715610d7e5760ff809116831b921b19161790565b60405162461bcd60e51b81526020600482015260156024820152740848288bea68aa8be988a828cbe84b2a88abe9288b605b1b6044820152606490fd5b9392909363ffffffff6115fe610f246020840151613150565b1661160f610f246020840151613150565b9463ffffffff86169260018060401b0361163461162f6020840151613150565b61308f565b16976101843515948580611f86575b611f775760208101809111610d7e576020820151516001600160401b0316108015611f6b575b611f5d57606060405161167b81610b46565b5261169586886307ffffff8b60051c166020850151612ee8565b919a906001600160f81b03196116ac828b8d610da1565b3516611f22576116bb90610dc3565b96889015611efa57600690602889018911610d7e57606360f81b6116e360288b018c8e610da1565b3516611df4575b6116f7905b898b8d610e27565b9091600081600614611ace575060051461172157634e487b7160e01b600052605160045260246000fd5b60718110611a9557600091836119eb575b8160711161006f5761174c36607019840160718401610e9d565b602081519101208215610dad5760009260019060005b602081106119b9575050506050602160405193602085019560ff60f81b823516875260018060601b03199060601b16828601520160358401376085820152608581526117ad81610b7d565b51902060405190602082019283526040820152604081526117cd81610b98565b5190206024356001600160a01b038116929083900361006f57602090602460405180958193636ab8cee160e11b835260048301525afa9182156119ad57600092611976575b500361193b5760015b1561192c578587106118f3576118318688611560565b9860009a5b602063ffffffff8d16108b8d826118d9575b50501561189e576118888c63ffffffff928361187c8e8e6118768f8f61187190878a1692610d94565b610d94565b91610da1565b3560f81c92169061156d565b9b1663ffffffff8114610d7e576001019a611836565b9061106b9a50602097508793959b995061106598506040949650916307ffffff6118cc9360051c1690612d89565b920151015201519161311c565b6118eb91925063ffffffff1689610d94565b108b8d611848565b60405162461bcd60e51b81526020600482015260116024820152702120a22fa6a2a9a9a0a3a2afa82927a7a360791b6044820152606490fd5b50506002905295505050505050565b60405162461bcd60e51b81526020600482015260136024820152724241445f44454c415945445f4d45535341474560681b6044820152606490fd5b90916020823d6020116119a5575b8161199160209383610bce565b810103126119a25750519038611812565b80fd5b3d9150611984565b6040513d6000823e3d90fd5b9091946119dd6119e3916119ce888689610da1565b3560f81c9060081b1796610dc3565b91610dc3565b919091611762565b916024356001600160a01b0381168103611a91576020611a0a86611f92565b604051636ab8cee160e11b81526001600160401b03909116600482015291829060249082906001600160a01b03165afa918215611a85578092611a50575b505091611732565b9091506020823d602011611a7d575b81611a6c60209383610bce565b810103126119a25750513880611a48565b3d9150611a5f565b604051903d90823e3d90fd5b5080fd5b60405162461bcd60e51b81526020600482015260116024820152702120a22fa222a620aca2a22fa82927a7a360791b6044820152606490fd5b9c989490506028829e9a96929c98949c9b97939b10611dba5760089b8d9e9d8060206080529d8e5b1015611b4857908e9f9160089f9067ffffffffffffff008f611b1f90611b3d9460805191610da1565b3560f81c9160081b16179e611b35608051610dc3565b608052610dc3565b9d90919f9e8e611af6565b92969a9e94989c5092969a611b619195999d3691610e9d565b602081519101208391849084611d18575b6001600160401b038116611c6e575b5060405191602083019384526040830152606082015260608152611ba481610bb3565b519020906024356001600160a01b0381169190829003611c6a576020906024604051809481936316bf557960e01b835260048301525afa928315611a85578093611c33575b505003611bf757600161181b565b60405162461bcd60e51b81526020600482015260146024820152734241445f534551494e424f585f4d45535341474560601b6044820152606490fd5b909192506020823d602011611c62575b81611c5060209383610bce565b810103126119a2575051903880611be9565b3d9150611c43565b8380fd5b60243591506001600160a01b0382168203611d1457611c8e602091611f92565b604051636ab8cee160e11b81526001600160401b03909116600482015291829060249082906001600160a01b03165afa908115611d09578591611cd3575b5038611b81565b90506020813d602011611d01575b81611cee60209383610bce565b81010312611cfd575138611ccc565b8480fd5b3d9150611ce1565b6040513d87823e3d90fd5b8580fd5b92506024356001600160a01b0381168103611d14576020611d3886611f92565b6040516316bf557960e01b81526001600160401b03909116600482015291829060249082906001600160a01b03165afa908115611daf578691611d7d575b5092611b72565b90506020813d602011611da7575b81611d9860209383610bce565b81010312611d14575138611d76565b3d9150611d8b565b6040513d88823e3d90fd5b60405162461bcd60e51b81526020600482015260126024820152712120a22fa9a2a8a4a72127ac2fa82927a7a360711b6044820152606490fd5b50611e048960288a01818d610e27565b906000918015611ee6578135606360f81b16611e22575b50506116ea565b80600111611ee257906001611e3c926000190191016120c0565b611e4581611fab565b60028114611ea657611e5681611fab565b60018114611e9b575b611e6881611fab565b15611e75575b3880611e1b565b50608188018060288a011115611e6e57634e487b7160e01b600052601160045260246000fd5b60288a019150611e5f565b60405162461bcd60e51b8152602060048201526014602482015273109313d094d51491505357d553911150d251115160621b6044820152606490fd5b8280fd5b634e487b7160e01b83526032600452602483fd5b61018435600103611f10576116f76005916116ef565b50505050945095505050506002915052565b60405162461bcd60e51b81526020600482015260136024820152722aa725a727aba72fa4a72127ac2fa82927a7a360691b6044820152606490fd5b506002905295505050505050565b50601f88161515611669565b50506003905295505050505050565b506004358a1015611643565b6001600160401b039081166000190191908211610d7e57565b6003111561087057565b9081602091031261006f57516001600160401b038116810361006f5790565b919082604091031261006f57604051611fec81610b2b565b9182908035906001600160f81b03198216820361006f57908252602001359063ffffffff198216820361006f5760200152565b91909160608184031261006f576040519061203982610b98565b909283919081356001600160401b03811161006f5782019080601f8301121561006f5781359061206882610c19565b916120766040519384610bce565b808352602093848085019260051b82010192831161006f578401905b8282106120b15750505083528082013590830152604090810135910152565b81358152908401908401612092565b8160081161006f57803560c01c906040908151926303f16d4b60e11b928385526020600494738f0febb820c4858e3c815f87391bde38e62b4a8a9082888881855afa97881561110b576000986123f4575b506001600160401b039788166103e8018881116123df57881685116123d15782908785518094819382525afa9081156123c657908791600091612399575b5016831161238d578660581161006f578387018481039360571993916101008587011261006f5760588701356001600160a01b0381160361006f5760a06077198097011261006f578251946121a386610b98565b6121b08260788a01611fd4565b86526121bf8260b88a01611fd4565b8587015260f8880135848701526101188801358a811161006f578260586121e8928b010161201f565b966101388901358b811161006f5789019060808285039384011261006f57859081519361221485610b98565b60588401358552011261006f5784519661222d88610b2b565b6078820135885260988201358789015286830197885260b88201358c811161006f57612284946058612262928c95010161201f565b86840152600086805161227481610b98565b60608152828a8201520152612413565b50935190838251920151941561235a5703612323575050603883013503612319576122ae9061258f565b50938415612319578060101161006f5760181161006f576008601082013560c01c91013560c01c019082821161230457506122eb6122f291611f92565b9280610e8a565b911610156122ff57600090565b600190565b601190634e487b7160e01b6000525260246000fd5b5050505050600190565b5162461bcd60e51b81528086019190915260116024820152704d69736d6174636865644865696768747360781b6044820152606490fd5b825162461bcd60e51b8152808901859052600d60248201526c24a72b20a624a22fa82927a7a360991b6044820152606490fd5b50505050505050600290565b6123b99150833d85116123bf575b6123b18183610bce565b810190611fb5565b3861214f565b503d6123a7565b83513d6000823e3d90fd5b505050505050505050600190565b601188634e487b7160e01b6000525260246000fd5b61240c919850833d85116123bf576123b18183610bce565b9638612111565b9082519260209081808201956040875193015182604051948593631f3302a960e01b8552600485015280516024850152015160448301526080606483015260e482019080519160606084850152825180915284610104850193019060005b818110612510575050508381015160a48401526040015160c483015281900381738f0febb820c4858e3c815f87391bde38e62b4a8a5afa9081156119ad576000916124da575b50156124ce576124ca9351015191612529565b9091565b50505050600090600490565b8281813d8311612509575b6124ef8183610bce565b81010312611a9157519081151582036119a25750386124b7565b503d6124e5565b8251855288968896509485019490920191600101612471565b906125799261253883516125ad565b604061254760208601516125ad565b940151906040519462ffffff19809216602087015216603d850152605a840152605a835261257483610bb3565b612620565b501561258757600190600090565b600090600390565b60400151600381166125a45760021c90600090565b50600090600890565b80516020918201516040516001600160f81b031990921692820192835263ffffffff19166021820152601d81526125e381610b2b565b51905162ffffff19918282169190601d8110612601575b5050905090565b83919250601d0360031b1b16168038806125fa565b6006111561087057565b6040820180519394936001811161271f5750825151612712575b60208301908151815111156127045760206040519661269682890189612685602160009c8d96878652612675815180928b8686019101612a1b565b8101036001810184520182610bce565b604051928392839251928391612a1b565b8101039060025afa15611d095785519351918251156126ed57906126bf9394915190519061280d565b60068110156126d957806126d35750149190565b92915050565b634e487b7160e01b85526021600452602485fd5b50516001141590506126fe57149190565b50508190565b505050509050600090600290565b5050509050600090600190565b612730845151916020860151612742565b1461263a575050509050600090600190565b90600190818111156127f15760005b8183821b106127d057610100908103908111610d7e5761277090611541565b928261277b85611551565b1b9061278682611551565b8111612793575050505090565b92935090918382036127a55750505090565b6127c49350906127b8816127be93611560565b92611560565b90612742565b6127cd90610d70565b90565b8281018091111561275157634e487b7160e01b600052601160045260246000fd5b505050600090565b8051821015610dad5760209160051b010190565b93929381156128f457600182146128df578451156128d4578261282f836128ff565b61284261283c8851611551565b88612975565b9281811061289f57816127b8612862969361285c93611560565b9061280d565b909161286d82612616565b8161289857505061288c83612886612892949551611551565b906127f9565b51612a3e565b90600090565b9350919050565b6128a9945061280d565b90916128b482612616565b816128985750506128cd83612886612892949551611551565b5190612a3e565b505090915090600590565b50509091516128ee5790600090565b90600490565b505090915090600390565b600180821061006f57600082805b61293057506000198101908111610d7e5781901b91821461292c575090565b1c90565b9061293a90610dc3565b90821c8061290d565b9061294d82610c19565b61295a6040519182610bce565b828152809261296b601f1991610c19565b0190602036910137565b9190825181116129be5761298881612943565b9060005b81811061299a575090925050565b806129a86129b992876127f9565b516129b382866127f9565b52610dc3565b61298c565b60405162461bcd60e51b815260206004820152602f60248201527f496e76616c69642072616e67653a205f626567696e206f72205f656e6420617260448201526e65206f7574206f6620626f756e647360881b6064820152608490fd5b60005b838110612a2e5750506000910152565b8181015183820152602001612a1e565b612a6d6000916020936040519085820192600160f81b8452602183015260418201526041815261268581610bb3565b8101039060025afa156119ad5760005190565b60405190612a8d82610b2b565b81604051612a9a81610b2b565b60403682378152602060405191612ab083610b2b565b60403684370152565b906002811015610dad5760051b0190565b939291926020850194612ae0610f248751613150565b9063ffffffff612af6610f248285169951613150565b16936002851015612c035760208801809811610d7e576020019660018060401b0388515116108015612bf7575b612beb5750906307ffffff612b4e9260051c16936060604051612b4581610b46565b52848751612ee8565b949190506101643561ffff811680910361006f576180108103612b8c57505091612b7f60409492612b869451612ab9565b5191612d89565b91510152565b919450945061801191925014600014612bac57612ba99151612ab9565b52565b60405162461bcd60e51b81526020600482015260176024820152764241445f474c4f42414c5f53544154455f4f50434f444560481b6044820152606490fd5b60029052505050505050565b50601f82161515612b23565b5060029052505050505050565b602081019163ffffffff612c27610f248551613150565b16916002831015612c805750612c4d61106b935192602060018060401b03930151612ab9565b51169060006020604051612c6081610b2b565b828152015260405191612c7283610b2b565b60018352602083015261327f565b60029052505050565b602081019163ffffffff612cad610f24612ca661162f8751613150565b9551613150565b16916002831015612c805750906020612cc7920151612ab9565b6001600160401b039091169052565b600093918491905b60208310612ceb57505050565b90919394612d01612d07916119ce888587610da1565b94610dc3565b9190612cde565b60ff1660ff8114610d7e5760010190565b8051906020808351930151910151602081519101516040519260208401946c23b637b130b61039ba30ba329d60991b8652602d850152604d84015260018060c01b0319809260c01b16606d84015260c01b166075820152605d8152612d8381610bb3565b51902090565b92604091825193602094858101916b26b2b6b7b93c903632b0b31d60a11b8352602c820152602c8152612dbb81610b98565b51902092805191612dcb83610b2b565b601383527226b2b6b7b93c9036b2b935b632903a3932b29d60691b86840152936000945b8751918251871015612e7e5790612e4d916001938885841615600014612e5357612e339150612e22612e41918d516127f9565b5187519283918d8301958b87612ec5565b03601f198101835282610bce565b519020925b1c95610dc3565b94612def565b612e63612e7591612e33936127f9565b519287519283918d8301958b87612ec5565b51902092612e46565b969550925050919450612e9057505090565b60649250519062461bcd60e51b82526004820152600f60248201526e141493d3d197d513d3d7d4d213d495608a1b6044820152fd5b602090612edb6040959382815194859201612a1b565b0191825260208201520190565b91929390936060604051612efb81610b46565b52600093600095865b60208110612fda575085906060604051612f1d81610b46565b52612f36612f2c898686610da1565b3560f81c98610dc3565b94612f4089612943565b9660005b60ff8116978b891015612f72579061058d612f63612f6d938a8a612cd6565b9190919a8c6127f9565b612f44565b929750509450612f9a92985060409350969096835196612f9188610b46565b87529686612d89565b91015103612fa457565b60405162461bcd60e51b815260206004820152600e60248201526d15d493d391d7d3515357d493d3d560921b6044820152606490fd5b9695612ffd61300391612fee898787610da1565b3560f81c9060081b1797610dc3565b97610dc3565b612f04565b6020810151905160078110156108705761306057600160201b8110156130315763ffffffff1690565b60405162461bcd60e51b81526020600482015260076024820152662120a22fa4999960c91b6044820152606490fd5b60405162461bcd60e51b81526020600482015260076024820152662727aa2fa4999960c91b6044820152606490fd5b602081015190516007811015610870576001036130ed57600160401b8110156130be576001600160401b031690565b60405162461bcd60e51b815260206004820152600760248201526610905117d24d8d60ca1b6044820152606490fd5b60405162461bcd60e51b81526020600482015260076024820152661393d517d24d8d60ca1b6044820152606490fd5b6000602060405161312c81610b2b565b828152015263ffffffff6040519161314383610b2b565b6000835216602082015290565b9060209160405161316081610b2b565b60009381858093520152519180602060405161317b81610b2b565b828152015282518051600019939184820191821161320a579061319d916127f9565b51928451519081019081116131f6576131b59061321e565b915b82518110156131f057806131cf6131eb9287516127f9565b516131da82866127f9565b526131e581856127f9565b50610dc3565b6131b7565b50925290565b634e487b7160e01b83526011600452602483fd5b634e487b7160e01b84526011600452602484fd5b9061322882610c19565b60409061323782519182610bce565b8381528093613248601f1991610c19565b0191600090815b84811061325d575050505050565b602090825161326b81610b2b565b84815282858183015282870101520161324f565b5180515191600192838101809111610d7e5761329a9061321e565b926000815b6132c2575b50508151516132be916132b782866127f9565b52836127f9565b5052565b835180518210156132f757906132db816132f1936127f9565b516132e682886127f9565b526131e581876127f9565b8161329f565b506132a456fea26469706673582212200b1b40b3e40e968a6d820b8cba5bb75e57d85ca722eff9bd9a9791923cf2edb864736f6c63430008130033",
  "linkReferences": {},
  "deployedLinkReferences": {}
}