{
  "_format": "hh-sol-artifact-1",
  "contractName": "Outbox",
  "sourceName": "src/bridge/Outbox.sol",
  "abi": [
    {
      "inputs": [],
      "name": "AlreadyInit",
      "type": "error"
    },
    {
      "inputs": [
        {
          "internalType": "uint256",
          "name": "index",
          "type": "uint256"
        }
      ],
      "name": "AlreadySpent",
      "type": "error"
    },
    {
      "inputs": [],
      "name": "BadPostUpgradeInit",
      "type": "error"
    },
    {
      "inputs": [],
      "name": "BridgeCallFailed",
      "type": "error"
    },
    {
      "inputs": [],
      "name": "HadZeroInit",
      "type": "error"
    },
    {
      "inputs": [
        {
          "internalType": "uint256",
          "name": "actualLength",
          "type": "uint256"
        },
        {
          "internalType": "uint256",
          "name": "maxProofLength",
          "type": "uint256"
        }
      ],
      "name": "MerkleProofTooLong",
      "type": "error"
    },
    {
      "inputs": [
        {
          "internalType": "address",
          "name": "sender",
          "type": "address"
        },
        {
          "internalType": "address",
          "name": "owner",
          "type": "address"
        }
      ],
      "name": "NotOwner",
      "type": "error"
    },
    {
      "inputs": [
        {
          "internalType": "address",
          "name": "sender",
          "type": "address"
        },
        {
          "internalType": "address",
          "name": "rollup",
          "type": "address"
        }
      ],
      "name": "NotRollup",
      "type": "error"
    },
    {
      "inputs": [
        {
          "internalType": "uint256",
          "name": "index",
          "type": "uint256"
        },
        {
          "internalType": "uint256",
          "name": "maxIndex",
          "type": "uint256"
        }
      ],
      "name": "PathNotMinimal",
      "type": "error"
    },
    {
      "inputs": [
        {
          "internalType": "uint256",
          "name": "proofLength",
          "type": "uint256"
        }
      ],
      "name": "ProofTooLong",
      "type": "error"
    },
    {
      "inputs": [],
      "name": "RollupNotChanged",
      "type": "error"
    },
    {
      "inputs": [],
      "name": "SimulationOnlyEntrypoint",
      "type": "error"
    },
    {
      "inputs": [
        {
          "internalType": "bytes32",
          "name": "root",
          "type": "bytes32"
        }
      ],
      "name": "UnknownRoot",
      "type": "error"
    },
    {
      "anonymous": false,
      "inputs": [
        {
          "indexed": true,
          "internalType": "address",
          "name": "to",
          "type": "address"
        },
        {
          "indexed": true,
          "internalType": "address",
          "name": "l2Sender",
          "type": "address"
        },
        {
          "indexed": true,
          "internalType": "uint256",
          "name": "zero",
          "type": "uint256"
        },
        {
          "indexed": false,
          "internalType": "uint256",
          "name": "transactionIndex",
          "type": "uint256"
        }
      ],
      "name": "OutBoxTransactionExecuted",
      "type": "event"
    },
    {
      "anonymous": false,
      "inputs": [
        {
          "indexed": true,
          "internalType": "bytes32",
          "name": "outputRoot",
          "type": "bytes32"
        },
        {
          "indexed": true,
          "internalType": "bytes32",
          "name": "l2BlockHash",
          "type": "bytes32"
        }
      ],
      "name": "SendRootUpdated",
      "type": "event"
    },
    {
      "inputs": [],
      "name": "OUTBOX_VERSION",
      "outputs": [
        {
          "internalType": "uint128",
          "name": "",
          "type": "uint128"
        }
      ],
      "stateMutability": "view",
      "type": "function"
    },
    {
      "inputs": [],
      "name": "bridge",
      "outputs": [
        {
          "internalType": "contract IBridge",
          "name": "",
          "type": "address"
        }
      ],
      "stateMutability": "view",
      "type": "function"
    },
    {
      "inputs": [
        {
          "internalType": "address",
          "name": "l2Sender",
          "type": "address"
        },
        {
          "internalType": "address",
          "name": "to",
          "type": "address"
        },
        {
          "internalType": "uint256",
          "name": "l2Block",
          "type": "uint256"
        },
        {
          "internalType": "uint256",
          "name": "l1Block",
          "type": "uint256"
        },
        {
          "internalType": "uint256",
          "name": "l2Timestamp",
          "type": "uint256"
        },
        {
          "internalType": "uint256",
          "name": "value",
          "type": "uint256"
        },
        {
          "internalType": "bytes",
          "name": "data",
          "type": "bytes"
        }
      ],
      "name": "calculateItemHash",
      "outputs": [
        {
          "internalType": "bytes32",
          "name": "",
          "type": "bytes32"
        }
      ],
      "stateMutability": "pure",
      "type": "function"
    },
    {
      "inputs": [
        {
          "internalType": "bytes32[]",
          "name": "proof",
          "type": "bytes32[]"
        },
        {
          "internalType": "uint256",
          "name": "path",
          "type": "uint256"
        },
        {
          "internalType": "bytes32",
          "name": "item",
          "type": "bytes32"
        }
      ],
      "name": "calculateMerkleRoot",
      "outputs": [
        {
          "internalType": "bytes32",
          "name": "",
          "type": "bytes32"
        }
      ],
      "stateMutability": "pure",
      "type": "function"
    },
    {
      "inputs": [
        {
          "internalType": "bytes32[]",
          "name": "proof",
          "type": "bytes32[]"
        },
        {
          "internalType": "uint256",
          "name": "index",
          "type": "uint256"
        },
        {
          "internalType": "address",
          "name": "l2Sender",
          "type": "address"
        },
        {
          "internalType": "address",
          "name": "to",
          "type": "address"
        },
        {
          "internalType": "uint256",
          "name": "l2Block",
          "type": "uint256"
        },
        {
          "internalType": "uint256",
          "name": "l1Block",
          "type": "uint256"
        },
        {
          "internalType": "uint256",
          "name": "l2Timestamp",
          "type": "uint256"
        },
        {
          "internalType": "uint256",
          "name": "value",
          "type": "uint256"
        },
        {
          "internalType": "bytes",
          "name": "data",
          "type": "bytes"
        }
      ],
      "name": "executeTransaction",
      "outputs": [],
      "stateMutability": "nonpayable",
      "type": "function"
    },
    {
      "inputs": [
        {
          "internalType": "uint256",
          "name": "index",
          "type": "uint256"
        },
        {
          "internalType": "address",
          "name": "l2Sender",
          "type": "address"
        },
        {
          "internalType": "address",
          "name": "to",
          "type": "address"
        },
        {
          "internalType": "uint256",
          "name": "l2Block",
          "type": "uint256"
        },
        {
          "internalType": "uint256",
          "name": "l1Block",
          "type": "uint256"
        },
        {
          "internalType": "uint256",
          "name": "l2Timestamp",
          "type": "uint256"
        },
        {
          "internalType": "uint256",
          "name": "value",
          "type": "uint256"
        },
        {
          "internalType": "bytes",
          "name": "data",
          "type": "bytes"
        }
      ],
      "name": "executeTransactionSimulation",
      "outputs": [],
      "stateMutability": "nonpayable",
      "type": "function"
    },
    {
      "inputs": [
        {
          "internalType": "contract IBridge",
          "name": "_bridge",
          "type": "address"
        }
      ],
      "name": "initialize",
      "outputs": [],
      "stateMutability": "nonpayable",
      "type": "function"
    },
    {
      "inputs": [
        {
          "internalType": "uint256",
          "name": "index",
          "type": "uint256"
        }
      ],
      "name": "isSpent",
      "outputs": [
        {
          "internalType": "bool",
          "name": "",
          "type": "bool"
        }
      ],
      "stateMutability": "view",
      "type": "function"
    },
    {
      "inputs": [],
      "name": "l2ToL1BatchNum",
      "outputs": [
        {
          "internalType": "uint256",
          "name": "",
          "type": "uint256"
        }
      ],
      "stateMutability": "pure",
      "type": "function"
    },
    {
      "inputs": [],
      "name": "l2ToL1Block",
      "outputs": [
        {
          "internalType": "uint256",
          "name": "",
          "type": "uint256"
        }
      ],
      "stateMutability": "view",
      "type": "function"
    },
    {
      "inputs": [],
      "name": "l2ToL1EthBlock",
      "outputs": [
        {
          "internalType": "uint256",
          "name": "",
          "type": "uint256"
        }
      ],
      "stateMutability": "view",
      "type": "function"
    },
    {
      "inputs": [],
      "name": "l2ToL1OutputId",
      "outputs": [
        {
          "internalType": "bytes32",
          "name": "",
          "type": "bytes32"
        }
      ],
      "stateMutability": "view",
      "type": "function"
    },
    {
      "inputs": [],
      "name": "l2ToL1Sender",
      "outputs": [
        {
          "internalType": "address",
          "name": "",
          "type": "address"
        }
      ],
      "stateMutability": "view",
      "type": "function"
    },
    {
      "inputs": [],
      "name": "l2ToL1Timestamp",
      "outputs": [
        {
          "internalType": "uint256",
          "name": "",
          "type": "uint256"
        }
      ],
      "stateMutability": "view",
      "type": "function"
    },
    {
      "inputs": [],
      "name": "postUpgradeInit",
      "outputs": [],
      "stateMutability": "nonpayable",
      "type": "function"
    },
    {
      "inputs": [],
      "name": "rollup",
      "outputs": [
        {
          "internalType": "address",
          "name": "",
          "type": "address"
        }
      ],
      "stateMutability": "view",
      "type": "function"
    },
    {
      "inputs": [
        {
          "internalType": "bytes32",
          "name": "",
          "type": "bytes32"
        }
      ],
      "name": "roots",
      "outputs": [
        {
          "internalType": "bytes32",
          "name": "",
          "type": "bytes32"
        }
      ],
      "stateMutability": "view",
      "type": "function"
    },
    {
      "inputs": [
        {
          "internalType": "uint256",
          "name": "",
          "type": "uint256"
        }
      ],
      "name": "spent",
      "outputs": [
        {
          "internalType": "bytes32",
          "name": "",
          "type": "bytes32"
        }
      ],
      "stateMutability": "view",
      "type": "function"
    },
    {
      "inputs": [],
      "name": "updateRollupAddress",
      "outputs": [],
      "stateMutability": "nonpayable",
      "type": "function"
    },
    {
      "inputs": [
        {
          "internalType": "bytes32",
          "name": "root",
          "type": "bytes32"
        },
        {
          "internalType": "bytes32",
          "name": "l2BlockHash",
          "type": "bytes32"
        }
      ],
      "name": "updateSendRoot",
      "outputs": [],
      "stateMutability": "nonpayable",
      "type": "function"
    }
  ],
  "bytecode": "0x60a0806040523461002a57306080526111829081610030823960805181818161065901526108a50152f35b600080fdfe6080604052600436101561001257600080fd5b60003560e01c80627436d31461015657806308635a9514610151578063119852711461014c578063288e5b101461014757806346547790146101425780635a129efe1461013d5780636ae71f121461013857806372f2a8c71461013357806380648b021461012e5780638515bc6a1461012957806395fcea78146101245780639f0c04bf1461011f578063a04cee601461011a578063ae6dead714610115578063b0f3053714610110578063c4d66de81461010b578063c75184df14610106578063cb23bcb514610101578063d5b5cc23146100fc5763e78cea92146100f757600080fd5b610a4c565b610a20565b6109f7565b6109db565b61087a565b61085f565b610833565b6107b1565b61074a565b610639565b61061e565b6105f1565b6105d6565b610466565b610437565b61041c565b61039f565b610383565b6102ec565b610239565b634e487b7160e01b600052604160045260246000fd5b60c081019081106001600160401b0382111761018c57604052565b61015b565b604081019081106001600160401b0382111761018c57604052565b601f909101601f19168101906001600160401b0382119082101761018c57604052565b604051906101dc82610171565b565b9092916001600160401b03841161018c578360051b6040519260208094610207828501826101ac565b809781520191810192831161023457905b8282106102255750505050565b81358152908301908301610218565b600080fd5b34610234576060366003190112610234576004356001600160401b03811161023457366023820112156102345761028c61027f60209236906024816004013591016101de565b604435906024359061107c565b604051908152f35b6001600160a01b0381160361023457565b604435906101dc82610294565b606435906101dc82610294565b9181601f84011215610234578235916001600160401b038311610234576020838186019501011161023457565b3461023457610120366003190112610234576001600160401b036004358181116102345736602382011215610234578060040135828111610234573660248260051b840101116102345761033e6102a5565b6103466102b2565b9061010435948511610234576103636103819536906004016102bf565b94909360e4359360c4359360a4359360843593602480359201610c04565b005b3461023457600036600319011261023457602060405160008152f35b3461023457610100366003190112610234576024356103bd81610294565b6044356103c981610294565b60e4356001600160401b038111610234576103e89036906004016102bf565b913361040a576103819360c4359160a435916084359160643591600435610d73565b604051630e13b69d60e01b8152600490fd5b3461023457600036600319011261023457602061028c610baf565b346102345760203660031901126102345760206001610457600435610e7f565b604051911c9092161515825250f35b34610234576000806003193601126105d3578054604051638da5cb5b60e01b8082526001600160a01b039283169291602091908281600481885afa801561055257849187916105b6575b50163303610557575060015460049082906104db906001600160a01b03165b6001600160a01b031690565b60405163cb23bcb560e01b815292839182905afa918215610552578592610525575b5050168091146105135761051090610ad6565b80f35b60405163d054909f60e01b8152600490fd5b6105449250803d1061054b575b61053c81836101ac565b810190610b53565b38806104fd565b503d610532565b610b6b565b8193925060046040518094819382525afa918215610552576105959392610599575b5050604051631194af8760e11b81529182913360048401610b77565b0390fd5b6105af9250803d1061054b5761053c81836101ac565b3880610579565b6105cd9150843d861161054b5761053c81836101ac565b386104b0565b80fd5b3461023457600036600319011261023457602061028c610bf5565b3461023457600036600319011261023457602061060c610b91565b6040516001600160a01b039091168152f35b3461023457600036600319011261023457602061028c610bc7565b34610234576000806003193601126105d3576001600160a01b03610681307f000000000000000000000000000000000000000000000000000000000000000083161415610a75565b7fb53127684a568b3173ae13b9f8a6016e243e63b6e8ee1178d6a717850b5d610354908116330361072c57506004546001600160801b03166002600160801b03190161071a576105106040516106d681610171565b6001600160801b0381526001600160801b03602082015260001960408201526001600160a01b0360608201526001600160601b0360808201528260a0820152610af8565b60405163d0afb66160e01b8152600490fd5b604051631194af8760e11b8152908190610595903360048401610b77565b346102345760e03660031901126102345760043561076781610294565b60243561077381610294565b60c435906001600160401b0382116102345760209261079961028c9336906004016102bf565b92909160a43591608435916064359160443591611014565b34610234576040366003190112610234576000805460243590600435906001600160a01b031633819003610815575080835260036020528160408420557fb4df3847300f076a369cd76d2314b470a1194d9e8a6bb97f1860aee88a5f67488380a380f35b604051630e4cf1bf60e21b8152908190610595903360048401610b77565b346102345760203660031901126102345760043560005260036020526020604060002054604051908152f35b3461023457600036600319011261023457602061028c610bde565b346102345760203660031901126102345760043561089781610294565b6001600160a01b036108cd307f000000000000000000000000000000000000000000000000000000000000000083161415610a75565b8082169182156109c9576001546108ee906104cf906001600160a01b031681565b6109b75760049261096c60209261094a6109066101cf565b6001600160801b0381526001600160801b038187015260001960408201526001600160a01b0360608201526001600160601b036080820152600060a0820152610af8565b600180546001600160a01b0319166001600160a01b0392909216919091179055565b60405163cb23bcb560e01b815293849182905afa80156105525761038192600091610999575b5016610ad6565b6109b1915060203d811161054b5761053c81836101ac565b38610992565b604051633bcd329760e21b8152600490fd5b604051631ad0f74360e01b8152600490fd5b3461023457600036600319011261023457602060405160028152f35b34610234576000366003190112610234576000546040516001600160a01b039091168152602090f35b346102345760203660031901126102345760043560005260026020526020604060002054604051908152f35b34610234576000366003190112610234576001546040516001600160a01b039091168152602090f35b15610a7c57565b60405162461bcd60e51b815260206004820152602c60248201527f46756e6374696f6e206d7573742062652063616c6c6564207468726f7567682060448201526b19195b1959d85d1958d85b1b60a21b6064820152608490fd5b600080546001600160a01b0319166001600160a01b0392909216919091179055565b805160208201516001600160801b039091166001600160801b0319608092831b161760045560408201516005556060820151908201516001600160a01b039091166001600160a01b031960a092831b16176006550151600755565b908160209103126102345751610b6881610294565b90565b6040513d6000823e3d90fd5b6001600160a01b0391821681529116602082015260400190565b6006546001600160a01b03908116908114610ba95790565b50600090565b6004546001600160801b03908116908114610ba95790565b60065460a01c6001600160601b038114610ba95790565b60045460801c6001600160801b038114610ba95790565b6005546000198114610ba95790565b610c2b909b9a99989796959493929b610c238b8b8b8b8b8b8b8b611014565b9236916101de565b8051610100811015610d07575080610c448d9251610e9d565b821015610cde5790610c56929161107c565b610c6a816000526003602052604060002090565b5415610cc45750610c7a8a610e7f565b9b919060018d821c16610cab576101dc9b9c6001610ca5921b17916000526002602052604060002090565b55610d73565b604051639715b8d360e01b815260048101849052602490fd5b6040516310e61af960e31b81526004810191909152602490fd5b610ce89051610e9d565b604051630b8a724b60e01b815260048101929092526024820152604490fd5b60405163ab6a068360e01b81526004810191909152602490fd5b6001600160401b03811161018c57601f01601f191660200190565b929192610d4882610d21565b91610d5660405193846101ac565b829481845281830111610234578281602093846000960137010152565b979391969497604051818152600160a01b6001900390818416828b167f20af7f3bbfe38132b8900ae295cd9c8d1914be7052d061a511f3f728dab189646020600094a460405199610dc38b610171565b6004546001600160801b038082168d5260809190911c60208d015260055460408d01526006549283166001600160a01b031660608d01529160a01c60808c015260075460a08c015281610e146101cf565b96166001600160801b03168652166001600160801b0316602085015260408401526001600160a01b031660608301526001600160601b03166080820152600060a0820152610e6190610af8565b3690610e6c92610d3c565b90610e7692610f54565b6101dc90610af8565b9060ff82049081600052600260205260ff6040600020549293069190565b60ff8111610eac576001901b90565b634e487b7160e01b600052601160045260246000fd5b60005b838110610ed55750506000910152565b8181015183820152602001610ec5565b9190604083820312610234578251801515810361023457602084015190936001600160401b038211610234570181601f82011215610234578051610f2881610d21565b92610f3660405194856101ac565b8184526020828401011161023457610b689160208085019101610ec2565b9060009160018060a01b0383608482600154169360405197889687958693639e5d4c4960e01b8552166004840152602483015260606044830152610fa78151809281606486015260208686019101610ec2565b601f01601f191681010301925af1908115610552576000908192610ff0575b5015610fcf5750565b805115610fde57805190602001fd5b604051631bb7daad60e11b8152600490fd5b9061100d92503d8091833e61100581836101ac565b810190610ee5565b9038610fc6565b92956110769560c895899498999399604051998a97602089019c8d60018060601b0319809360601b16905260601b16603489015260488801526068870152608886015260a88501528484013781016000838201520360a88101845201826101ac565b51902090565b91604080519160209283810191825283815261109781610191565b51902091845192610100808511611105575094939291906000945b8386106110c25750505050505090565b9091929394956110d28783611122565b5160019182891b88166110f557600052835283600020965b0194939291906110b2565b90600052835283600020966110ea565b84604491855191637ed6198f60e11b835260048301526024820152fd5b80518210156111365760209160051b010190565b634e487b7160e01b600052603260045260246000fdfea2646970667358221220a67ee37aa7c3de9f1925624da017a33546e639caca980b6f68bd33f37141761764736f6c63430008130033",
  "linkReferences": {},
  "deployedLinkReferences": {}
}