{
  "_format": "hh-sol-artifact-1",
  "contractName": "OneStepProverHostIo",
  "sourceName": "src/osp/OneStepProverHostIo.sol",
  "abi": [
    {
      "inputs": [],
      "name": "BLOBSTREAM",
      "outputs": [
        {
          "internalType": "address",
          "name": "",
          "type": "address"
        }
      ],
      "stateMutability": "view",
      "type": "function"
    },
    {
      "inputs": [],
      "name": "CELESTIA_MESSAGE_HEADER_FLAG",
      "outputs": [
        {
          "internalType": "bytes1",
          "name": "",
          "type": "bytes1"
        }
      ],
      "stateMutability": "view",
      "type": "function"
    },
    {
      "inputs": [
        {
          "components": [
            {
              "internalType": "uint256",
              "name": "maxInboxMessagesRead",
              "type": "uint256"
            },
            {
              "internalType": "contract IBridge",
              "name": "bridge",
              "type": "address"
            }
          ],
          "internalType": "struct ExecutionContext",
          "name": "execCtx",
          "type": "tuple"
        },
        {
          "components": [
            {
              "internalType": "enum MachineStatus",
              "name": "status",
              "type": "uint8"
            },
            {
              "components": [
                {
                  "components": [
                    {
                      "components": [
                        {
                          "internalType": "enum ValueType",
                          "name": "valueType",
                          "type": "uint8"
                        },
                        {
                          "internalType": "uint256",
                          "name": "contents",
                          "type": "uint256"
                        }
                      ],
                      "internalType": "struct Value[]",
                      "name": "inner",
                      "type": "tuple[]"
                    }
                  ],
                  "internalType": "struct ValueArray",
                  "name": "proved",
                  "type": "tuple"
                },
                {
                  "internalType": "bytes32",
                  "name": "remainingHash",
                  "type": "bytes32"
                }
              ],
              "internalType": "struct ValueStack",
              "name": "valueStack",
              "type": "tuple"
            },
            {
              "components": [
                {
                  "internalType": "bytes32",
                  "name": "inactiveStackHash",
                  "type": "bytes32"
                },
                {
                  "internalType": "bytes32",
                  "name": "remainingHash",
                  "type": "bytes32"
                }
              ],
              "internalType": "struct MultiStack",
              "name": "valueMultiStack",
              "type": "tuple"
            },
            {
              "components": [
                {
                  "components": [
                    {
                      "components": [
                        {
                          "internalType": "enum ValueType",
                          "name": "valueType",
                          "type": "uint8"
                        },
                        {
                          "internalType": "uint256",
                          "name": "contents",
                          "type": "uint256"
                        }
                      ],
                      "internalType": "struct Value[]",
                      "name": "inner",
                      "type": "tuple[]"
                    }
                  ],
                  "internalType": "struct ValueArray",
                  "name": "proved",
                  "type": "tuple"
                },
                {
                  "internalType": "bytes32",
                  "name": "remainingHash",
                  "type": "bytes32"
                }
              ],
              "internalType": "struct ValueStack",
              "name": "internalStack",
              "type": "tuple"
            },
            {
              "components": [
                {
                  "components": [
                    {
                      "components": [
                        {
                          "internalType": "enum ValueType",
                          "name": "valueType",
                          "type": "uint8"
                        },
                        {
                          "internalType": "uint256",
                          "name": "contents",
                          "type": "uint256"
                        }
                      ],
                      "internalType": "struct Value",
                      "name": "returnPc",
                      "type": "tuple"
                    },
                    {
                      "internalType": "bytes32",
                      "name": "localsMerkleRoot",
                      "type": "bytes32"
                    },
                    {
                      "internalType": "uint32",
                      "name": "callerModule",
                      "type": "uint32"
                    },
                    {
                      "internalType": "uint32",
                      "name": "callerModuleInternals",
                      "type": "uint32"
                    }
                  ],
                  "internalType": "struct StackFrame[]",
                  "name": "proved",
                  "type": "tuple[]"
                },
                {
                  "internalType": "bytes32",
                  "name": "remainingHash",
                  "type": "bytes32"
                }
              ],
              "internalType": "struct StackFrameWindow",
              "name": "frameStack",
              "type": "tuple"
            },
            {
              "components": [
                {
                  "internalType": "bytes32",
                  "name": "inactiveStackHash",
                  "type": "bytes32"
                },
                {
                  "internalType": "bytes32",
                  "name": "remainingHash",
                  "type": "bytes32"
                }
              ],
              "internalType": "struct MultiStack",
              "name": "frameMultiStack",
              "type": "tuple"
            },
            {
              "internalType": "bytes32",
              "name": "globalStateHash",
              "type": "bytes32"
            },
            {
              "internalType": "uint32",
              "name": "moduleIdx",
              "type": "uint32"
            },
            {
              "internalType": "uint32",
              "name": "functionIdx",
              "type": "uint32"
            },
            {
              "internalType": "uint32",
              "name": "functionPc",
              "type": "uint32"
            },
            {
              "internalType": "bytes32",
              "name": "recoveryPc",
              "type": "bytes32"
            },
            {
              "internalType": "bytes32",
              "name": "modulesRoot",
              "type": "bytes32"
            }
          ],
          "internalType": "struct Machine",
          "name": "startMach",
          "type": "tuple"
        },
        {
          "components": [
            {
              "internalType": "bytes32",
              "name": "globalsMerkleRoot",
              "type": "bytes32"
            },
            {
              "components": [
                {
                  "internalType": "uint64",
                  "name": "size",
                  "type": "uint64"
                },
                {
                  "internalType": "uint64",
                  "name": "maxSize",
                  "type": "uint64"
                },
                {
                  "internalType": "bytes32",
                  "name": "merkleRoot",
                  "type": "bytes32"
                }
              ],
              "internalType": "struct ModuleMemory",
              "name": "moduleMemory",
              "type": "tuple"
            },
            {
              "internalType": "bytes32",
              "name": "tablesMerkleRoot",
              "type": "bytes32"
            },
            {
              "internalType": "bytes32",
              "name": "functionsMerkleRoot",
              "type": "bytes32"
            },
            {
              "internalType": "bytes32",
              "name": "extraHash",
              "type": "bytes32"
            },
            {
              "internalType": "uint32",
              "name": "internalsOffset",
              "type": "uint32"
            }
          ],
          "internalType": "struct Module",
          "name": "startMod",
          "type": "tuple"
        },
        {
          "components": [
            {
              "internalType": "uint16",
              "name": "opcode",
              "type": "uint16"
            },
            {
              "internalType": "uint256",
              "name": "argumentData",
              "type": "uint256"
            }
          ],
          "internalType": "struct Instruction",
          "name": "inst",
          "type": "tuple"
        },
        {
          "internalType": "bytes",
          "name": "proof",
          "type": "bytes"
        }
      ],
      "name": "executeOneStep",
      "outputs": [
        {
          "components": [
            {
              "internalType": "enum MachineStatus",
              "name": "status",
              "type": "uint8"
            },
            {
              "components": [
                {
                  "components": [
                    {
                      "components": [
                        {
                          "internalType": "enum ValueType",
                          "name": "valueType",
                          "type": "uint8"
                        },
                        {
                          "internalType": "uint256",
                          "name": "contents",
                          "type": "uint256"
                        }
                      ],
                      "internalType": "struct Value[]",
                      "name": "inner",
                      "type": "tuple[]"
                    }
                  ],
                  "internalType": "struct ValueArray",
                  "name": "proved",
                  "type": "tuple"
                },
                {
                  "internalType": "bytes32",
                  "name": "remainingHash",
                  "type": "bytes32"
                }
              ],
              "internalType": "struct ValueStack",
              "name": "valueStack",
              "type": "tuple"
            },
            {
              "components": [
                {
                  "internalType": "bytes32",
                  "name": "inactiveStackHash",
                  "type": "bytes32"
                },
                {
                  "internalType": "bytes32",
                  "name": "remainingHash",
                  "type": "bytes32"
                }
              ],
              "internalType": "struct MultiStack",
              "name": "valueMultiStack",
              "type": "tuple"
            },
            {
              "components": [
                {
                  "components": [
                    {
                      "components": [
                        {
                          "internalType": "enum ValueType",
                          "name": "valueType",
                          "type": "uint8"
                        },
                        {
                          "internalType": "uint256",
                          "name": "contents",
                          "type": "uint256"
                        }
                      ],
                      "internalType": "struct Value[]",
                      "name": "inner",
                      "type": "tuple[]"
                    }
                  ],
                  "internalType": "struct ValueArray",
                  "name": "proved",
                  "type": "tuple"
                },
                {
                  "internalType": "bytes32",
                  "name": "remainingHash",
                  "type": "bytes32"
                }
              ],
              "internalType": "struct ValueStack",
              "name": "internalStack",
              "type": "tuple"
            },
            {
              "components": [
                {
                  "components": [
                    {
                      "components": [
                        {
                          "internalType": "enum ValueType",
                          "name": "valueType",
                          "type": "uint8"
                        },
                        {
                          "internalType": "uint256",
                          "name": "contents",
                          "type": "uint256"
                        }
                      ],
                      "internalType": "struct Value",
                      "name": "returnPc",
                      "type": "tuple"
                    },
                    {
                      "internalType": "bytes32",
                      "name": "localsMerkleRoot",
                      "type": "bytes32"
                    },
                    {
                      "internalType": "uint32",
                      "name": "callerModule",
                      "type": "uint32"
                    },
                    {
                      "internalType": "uint32",
                      "name": "callerModuleInternals",
                      "type": "uint32"
                    }
                  ],
                  "internalType": "struct StackFrame[]",
                  "name": "proved",
                  "type": "tuple[]"
                },
                {
                  "internalType": "bytes32",
                  "name": "remainingHash",
                  "type": "bytes32"
                }
              ],
              "internalType": "struct StackFrameWindow",
              "name": "frameStack",
              "type": "tuple"
            },
            {
              "components": [
                {
                  "internalType": "bytes32",
                  "name": "inactiveStackHash",
                  "type": "bytes32"
                },
                {
                  "internalType": "bytes32",
                  "name": "remainingHash",
                  "type": "bytes32"
                }
              ],
              "internalType": "struct MultiStack",
              "name": "frameMultiStack",
              "type": "tuple"
            },
            {
              "internalType": "bytes32",
              "name": "globalStateHash",
              "type": "bytes32"
            },
            {
              "internalType": "uint32",
              "name": "moduleIdx",
              "type": "uint32"
            },
            {
              "internalType": "uint32",
              "name": "functionIdx",
              "type": "uint32"
            },
            {
              "internalType": "uint32",
              "name": "functionPc",
              "type": "uint32"
            },
            {
              "internalType": "bytes32",
              "name": "recoveryPc",
              "type": "bytes32"
            },
            {
              "internalType": "bytes32",
              "name": "modulesRoot",
              "type": "bytes32"
            }
          ],
          "internalType": "struct Machine",
          "name": "mach",
          "type": "tuple"
        },
        {
          "components": [
            {
              "internalType": "bytes32",
              "name": "globalsMerkleRoot",
              "type": "bytes32"
            },
            {
              "components": [
                {
                  "internalType": "uint64",
                  "name": "size",
                  "type": "uint64"
                },
                {
                  "internalType": "uint64",
                  "name": "maxSize",
                  "type": "uint64"
                },
                {
                  "internalType": "bytes32",
                  "name": "merkleRoot",
                  "type": "bytes32"
                }
              ],
              "internalType": "struct ModuleMemory",
              "name": "moduleMemory",
              "type": "tuple"
            },
            {
              "internalType": "bytes32",
              "name": "tablesMerkleRoot",
              "type": "bytes32"
            },
            {
              "internalType": "bytes32",
              "name": "functionsMerkleRoot",
              "type": "bytes32"
            },
            {
              "internalType": "bytes32",
              "name": "extraHash",
              "type": "bytes32"
            },
            {
              "internalType": "uint32",
              "name": "internalsOffset",
              "type": "uint32"
            }
          ],
          "internalType": "struct Module",
          "name": "mod",
          "type": "tuple"
        }
      ],
      "stateMutability": "view",
      "type": "function"
    }
  ],
  "bytecode": "0x60808060405234610016576141aa908161001c8239f35b600080fdfe60a0604052600436101561001257600080fd5b60003560e01c80633604366f146100915780635fd9e56d146100715763dc3465471461003d57600080fd5b3461006c57600036600319011261006c57602060405173c3e209eb245fd59c8586777b499d6a665df3abd28152f35b600080fd5b3461006c57600036600319011261006c57604051606360f81b8152602090f35b3461006c5736600319016101c0811261006c5760401361006c576001600160401b036044351161006c576101c06044353603600319011261006c5761010036606319011261006c5760403661016319011261006c576001600160401b036101a4351161006c573660236101a43501121561006c576001600160401b0360046101a43501351161006c573660246101a435600401356101a43501011161006c5761013a60a0610f95565b600060a052610147611040565b60c05260405161015681610f5f565b6000808252602082015260e05261016b611040565b6101005260405161017b81610f5f565b60608152600060208201526101205260405161019681610f5f565b600080825260208201819052610140919091526101608190526101808190526101a08190526101c08190526101e0819052610200526101d3611087565b506040516101e081610f95565b6004604435810135101561006c57604435600481013582526001600160401b036024909101351161006c5761022036604435602481013501600401611108565b60208201526102333660448035016111dd565b60408201526001600160401b03604435608401351161006c5761026136604435608481013501600401611108565b60608201526001600160401b0360443560a401351161006c57604060443560a4810135013603600319011261006c5760405161029c81610f5f565b60443560a481013501600401356001600160401b03811161006c573660443560a4810135018201602301121561006c5760443560a481013501810160040135906102e5826110bf565b916102f3604051938461101d565b80835260208301913660443560a481013501820160a08402016024011161006c5760443560a481013501810160240192905b60443560a481013501810160a08402016024018410610e5b57505050508152602460a460443501356044350101356020820152608082015261036c3660c4604435016111dd565b60a0820152610104604435013560c082015261038d61012460443501611205565b60e08201526103a161014460443501611205565b6101008201526103b661016460443501611205565b6101208201526044356101848101356101408301526101a40135610160820152604051906103e382610fcc565b6064358252606036608319011261006c5760405161040081610fb1565b6084356001600160401b038116900361006c57608435815260a4356001600160401b038116900361006c5760a435602082015260c4356040820152602083015260e435604083015261010435606083015261012435608083015263ffffffff6101443516610144350361006c576101443560a08301526101643561ffff8116810361006c5761801061ffff8216101580610e4b575b15610d6e5760095b9081600814610d535781600714610d385781600614610d2d5781600514610d12578160041461091957816009146106fe5750806003146106f457806002146106d6576001146104fc57634e487b7160e01b600052605160045260246000fd5b6105058161371b565b604051906101208252805160048110156106c05761012083015261053b60208201516101c06101408501526102e0840190610f02565b90602060408201518051610160860152015161018084015261057160608201519261011f199384868303016101a0870152610f02565b608082015192848203016101c08501528251926040825260408201845180915260206060840195019060005b818110610679575050509461016063ffffffff9360a093602080899a015191015260208482015180516101e08a0152015161020088015260c08101516102208801528460e082015116610240880152846101008201511661026088015284610120820151166102808801526101408101516102a088015201516102c08601528051602086015260406020820151600180831b0381511682880152600180831b03602082015116606088015201516080860152604081015182860152606081015160c0860152608081015160e08601520151166101008301520390f35b909195602060a060019263ffffffff60608b51610697848251610eea565b85810151604085015282604082015116828501520151166080820152019701910191909161059d565b634e487b7160e01b600052602160045260246000fd5b506106ef6101a4356004013560246101a43501836135ab565b610505565b506106ef8161357e565b9050610708613344565b50610711613344565b5060006040519161072183610f5f565b604036843760405161073281610f5f565b60403682376000925b600260ff8516101561077d57610762610777916101a4356004013560246101a43501613850565b949061077160ff83168861337d565b52613882565b9261073b565b9250929390936000925b600260ff851610156107d5576107ae6107cf916101a4356004013560246101a435016137ce565b94906107bd60ff83168861337d565b6001600160401b039091169052613882565b92610787565b925092939093604051936107e885610f5f565b845260208401526107f883613913565b60c0850151036108e15761801061ffff82161480156108d2575b1561085857509061084961084061084e936101a43560040135906101a4356004013560246101a435016112b7565b9083878761338e565b613913565b60c0820152610505565b905061ffff81166180120361087657508061084961084e92846134b8565b61ffff1661801303610890578061084961084e9284613531565b60405162461bcd60e51b815260206004820152601a602482015279494e56414c49445f474c4f42414c53544154455f4f50434f444560301b6044820152606490fd5b5061801161ffff821614610812565b60405162461bcd60e51b815260206004820152601060248201526f4241445f474c4f42414c5f535441544560801b6044820152606490fd5b5050610923612f03565b60405161092f81610f7a565b6060905260405161093f81610f7a565b6060905261094b612f03565b906101608301519161095b611087565b50610964611087565b5061096d611068565b50826109846101a43560048101359060240161381a565b61098f959195611068565b506109a6906101a4356004810135906024016137ce565b6109bc906101a4356004810135906024016137ce565b6109d2906101a435600481013590602401613850565b91604051936109e085610fb1565b6001600160401b0390811685521660208401526040830152610a0e906101a435600481013590602401613850565b909190610a27906101a435600481013590602401613850565b610a3d906101a435600481013590602401613850565b909190610a56906101a435600481013590602401613781565b9490936040519a610a668c610fcc565b8b5260208b015260408a01526060890152608088015263ffffffff1660a0870152610a9d906101a435600481013590602401613781565b909390610ab6906101a435600481013590602401613893565b93909680519060208101518051602082015191604001516040519160208301936626b2b6b7b93c9d60c91b8552600160c01b6001900319809260c01b16602785015260c01b16602f830152603782015260378152610b1381610fb1565b51902090604081015190606081015160808201519160a00151926040519460208601966626b7b23ab6329d60c91b8852602787015260478601526067850152608784015260a783015263ffffffff60e01b9060e01b1660c782015260ab8152610b7b81610fe7565b519020610b86612f03565b610b979163ffffffff88168a613d23565b03610cd757600163ffffffff851601928363ffffffff861611610c1057610bbd84613324565b15610c745750505060018451511b03610c42575b610be063ffffffff8216613324565b15610c265750505180519081600019810111610c1057610c04916000190190612c7c565b51610160820152610505565b634e487b7160e01b600052601160045260246000fd5b9163ffffffff610c37931690613c51565b610160820152610505565b60405162461bcd60e51b815260206004820152600a6024820152692ba927a723afa622a0a360b11b6044820152606490fd5b92610c91610c9793946101a4356004013560246101a43501613893565b50613c51565b14610bd15760405162461bcd60e51b815260206004820152601360248201527257524f4e475f524f4f545f464f525f5a45524f60681b6044820152606490fd5b60405162461bcd60e51b81526020600482015260136024820152722ba927a723afa927a7aa2fa327a92fa622a0a360691b6044820152606490fd5b50506106ef6101a4356004013560246101a435018484612f32565b505060018152610505565b50506106ef6101a4356004013560246101a435018484611a68565b50506106ef6101a4356004013560246101a43501848461139f565b61ffff811661802003610d8257600861049d565b61ffff811661802103610d9657600761049d565b61ffff811661802203610daa57600661049d565b61ffff811661802303610dbe57600561049d565b61ffff811661802403610dd257600461049d565b61ffff811661803003610de657600361049d565b61ffff811661803103610dfa57600261049d565b61ffff811661803203610e0e57600161049d565b60405162461bcd60e51b8152602060048201526015602482015274494e56414c49445f4d454d4f52595f4f50434f444560581b6044820152606490fd5b5061801361ffff82161115610495565b60a08436031261006c576040516001600160401b036080820190811190821117610ed45760a06020602494836080849501604052610e99368a6110d6565b8152604089013583820152610eb060608a01611205565b6040820152610ec160808a01611205565b6060820152815201950194925050610325565b634e487b7160e01b600052604160045260246000fd5b805160078110156106c0578252602090810151910152565b908151604092838352606083019151936020928382860152855180915283608086019601916000905b828210610f3f575050505081015191015290565b90919296858282610f536001948c51610eea565b01980193920190610f2b565b604081019081106001600160401b03821117610ed457604052565b602081019081106001600160401b03821117610ed457604052565b61018081019081106001600160401b03821117610ed457604052565b606081019081106001600160401b03821117610ed457604052565b60c081019081106001600160401b03821117610ed457604052565b60e081019081106001600160401b03821117610ed457604052565b608081019081106001600160401b03821117610ed457604052565b601f909101601f19168101906001600160401b03821190821017610ed457604052565b6040519061104d82610f5f565b600060208360405161105e81610f7a565b6060815281520152565b6040519061107582610fb1565b60006040838281528260208201520152565b6040519061109482610fcc565b600060a0838281526110a4611068565b60208201528260408201528260608201528260808201520152565b6001600160401b038111610ed45760051b60200190565b919082604091031261006c576040516110ee81610f5f565b80928035600781101561006c578252602090810135910152565b60409291818103841361006c5783519161112183610f5f565b829481359260018060401b039384811161006c57830191602094858484031261006c5781519361115085610f7a565b803591821161006c570182601f8201121561006c578035611170816110bf565b9361117d8451958661101d565b818552878086019260061b8401019281841161006c579088809897969594939201915b8383106111b7575050505050815284520135910152565b9784959697986111cb8385969794956110d6565b815201920190889796959493926111a0565b919082604091031261006c576040516111f581610f5f565b6020808294803584520135910152565b359063ffffffff8216820361006c57565b6001019081600111610c1057565b91908201809211610c1057565b9082101561123d570190565b634e487b7160e01b600052603260045260246000fd5b6000198114610c105760010190565b6060906020815260166020820152752aa725a727aba72fa82922a4a6a0a3a2afa82927a7a360511b60408201520190565b1561129a57565b60405162461bcd60e51b8152806112b360048201611262565b0390fd5b9093929384831161006c57841161006c578101920390565b6001600160401b038111610ed457601f01601f191660200190565b3d15611315573d906112fb826112cf565b91611309604051938461101d565b82523d6000602084013e565b606090565b81810292918115918404141715610c1057565b929192611339826112cf565b91611347604051938461101d565b82948184528183011161006c578281602093846000960137010152565b1561136b57565b60405162461bcd60e51b815260206004820152600c60248201526b4241445f505245494d41474560a01b6044820152606490fd5b91936020928381016113b96113b48251613fc7565b613e7f565b6113c66113b48351613fc7565b63ffffffff93848216601f841615908115916119a3575b508015611997575b6119875750604090606082516113fa81610f7a565b52876307ffffff809260051c169701926114178a8c8a8751613d65565b9b9193909c849d606061143561142e838786611231565b3592611253565b93610184358061151e5750505060f81c61150657826114759594928a9461145b936112b7565b94909361146936878761132d565b8d815191012014611364565b1689810190818111610c1057836114959361149c9584116114fd576112b7565b369161132d565b955b6000995b87518b10156114ce576114c26114c8918c8b818c01015160f81c916119f0565b9a611253565b996114a2565b906114e892939495969a506114f59798506114fb99613bc7565b9151015251925116613f93565b906140f6565b565b925080926112b7565b855162461bcd60e51b8152806112b360048201611262565b9697966001908082036115a65750505050928092916115436115489560f81c15611293565b6112b7565b9290918a600086518686823780878101838152039060025afa1561159b5790611575889260005114611364565b1689810190818111610c105783611495936115959584116114fd576112b7565b9561149e565b84513d6000823e3d90fd5b929e989491969390959260021460001461194b57918f979695949380926115436115d39560f81c15611293565b809591961161006c5785350361191057600080885186888237808781018381520390600a5afa916116026112ea565b92156118d85782511561189b57878380518101031261006c57878e840151930151937f73eda753299d7d483339d80809a1d80553bda402fffe5bfeffffffff00000001850361186257908e918460051b85159386820414841715610c10578d851610611676575b505050505050505061149e565b60009e989e9360051c1690805b85821061183b575050506118255760009283928e926116a791600160201b0461131a565b9088519183830193808552808b850152898401527f16a2a19edfe81f20d09b681922c813b4b63683508c2280b93829971f439f0d2b608084015260a083015260c082015260c081526116f881610fe7565b519060055afa6117066112ea565b90156117f1578a8151036117b7578a8151910151908b81106117a6575b5081851161006c578a8301350361176e57821161006c5782519161174683610f5f565b898352369082011161006c578289910181830137600082820152953880808080808080611669565b835162461bcd60e51b8152600481018b9052601160248201527025ad23afa82927a7a32faba927a723afad60791b6044820152606490fd5b600019908c0360031b1b1638611723565b845162461bcd60e51b8152600481018c9052601360248201527209a9e888ab0a0beaea49e9c8ebe988a9c8ea89606b1b6044820152606490fd5b845162461bcd60e51b8152600481018c9052600d60248201526c1353d111561417d19052531151609a1b6044820152606490fd5b634e487b7160e01b600052601260045260246000fd5b909193811b93848280831614611858575b50811c91811b90611683565b821794503861184c565b60648f8a519062461bcd60e51b825260048201526013602482015272554e4b4e4f574e5f424c535f4d4f44554c555360681b6044820152fd5b875162461bcd60e51b8152600481018f905260166024820152754b5a475f505245434f4d50494c455f4d495353494e4760501b6044820152606490fd5b875162461bcd60e51b8152600481018f9052601160248201527024a72b20a624a22fa5ad23afa82927a7a360791b6044820152606490fd5b865162461bcd60e51b8152600481018e90526014602482015273096b48ebea0a49e9e8cbeaea49e9c8ebe9082a6960631b6044820152606490fd5b5060648f8a519062461bcd60e51b825260048201526015602482015274554e4b4e4f574e5f505245494d4147455f5459504560581b6044820152fd5b9650505050509350506002915052565b50601f821615156113e5565b9050888101809111610c105787890151516001600160401b031610386113dd565b90610100918203918211610c1057565b600019810191908211610c1057565b91908203918211610c1057565b90916020831015611a2b5782601f0392601f8411610c10578360031b93840460081490601f141715610c105760ff809116831b921b19161790565b60405162461bcd60e51b81526020600482015260156024820152740848288bea68aa8be988a828cbe84b2a88abe9288b605b1b6044820152606490fd5b9392909363ffffffff611a816113b46020840151613fc7565b16611a926113b46020840151613fc7565b9463ffffffff86169260018060401b03611ab7611ab26020840151613fc7565b613f06565b16976101843515948580612409575b6123fa5760208101809111610c10576020820151516001600160401b03161080156123ee575b6123e0576060604051611afe81610f7a565b52611b1886886307ffffff8b60051c166020850151613d65565b919a906001600160f81b0319611b2f828b8d611231565b35166123a557611b3e90611253565b9688901561237d57600b90602889018911610c1057606360f81b611b6660288b018c8e611231565b3516612277575b611b7a905b898b8d6112b7565b9091600081600b14611f515750600a14611ba457634e487b7160e01b600052605160045260246000fd5b60718110611f185760009183611e6e575b8160711161006c57611bcf3660701984016071840161132d565b60208151910120821561123d5760009260019060005b60208110611e3c575050506050602160405193602085019560ff60f81b823516875260018060601b03199060601b1682860152016035840137608582015260858152611c3081610fcc565b5190206040519060208201928352604082015260408152611c5081610fb1565b5190206024356001600160a01b038116929083900361006c57602090602460405180958193636ab8cee160e11b835260048301525afa918215611e3057600092611df9575b5003611dbe5760015b15611daf57858710611d7657611cb486886119e3565b9860009a5b602063ffffffff8d16108b8d82611d5c575b505015611d2157611d0b8c63ffffffff9283611cff8e8e611cf98f8f611cf490878a1692611224565b611224565b91611231565b3560f81c9216906119f0565b9b1663ffffffff8114610c10576001019a611cb9565b906114fb9a50602097508793959b99506114f598506040949650916307ffffff611d4f9360051c1690613bc7565b9201510152015191613f93565b611d6e91925063ffffffff1689611224565b108b8d611ccb565b60405162461bcd60e51b81526020600482015260116024820152702120a22fa6a2a9a9a0a3a2afa82927a7a360791b6044820152606490fd5b50506002905295505050505050565b60405162461bcd60e51b81526020600482015260136024820152724241445f44454c415945445f4d45535341474560681b6044820152606490fd5b90916020823d602011611e28575b81611e146020938361101d565b81010312611e255750519038611c95565b80fd5b3d9150611e07565b6040513d6000823e3d90fd5b909194611e60611e6691611e51888689611231565b3560f81c9060081b1796611253565b91611253565b919091611be5565b916024356001600160a01b0381168103611f14576020611e8d86612415565b604051636ab8cee160e11b81526001600160401b03909116600482015291829060249082906001600160a01b03165afa918215611f08578092611ed3575b505091611bb5565b9091506020823d602011611f00575b81611eef6020938361101d565b81010312611e255750513880611ecb565b3d9150611ee2565b604051903d90823e3d90fd5b5080fd5b60405162461bcd60e51b81526020600482015260116024820152702120a22fa222a620aca2a22fa82927a7a360791b6044820152606490fd5b9c989490506028829e9a96929c98949c9b97939b1061223d5760089b8d9e9d8060206080529d8e5b1015611fcb57908e9f9160089f9067ffffffffffffff008f611fa290611fc09460805191611231565b3560f81c9160081b16179e611fb8608051611253565b608052611253565b9d90919f9e8e611f79565b92969a9e94989c5092969a611fe49195999d369161132d565b60208151910120839184908461219b575b6001600160401b0381166120f1575b506040519160208301938452604083015260608201526060815261202781611002565b519020906024356001600160a01b03811691908290036120ed576020906024604051809481936316bf557960e01b835260048301525afa928315611f085780936120b6575b50500361207a576001611c9e565b60405162461bcd60e51b81526020600482015260146024820152734241445f534551494e424f585f4d45535341474560601b6044820152606490fd5b909192506020823d6020116120e5575b816120d36020938361101d565b81010312611e2557505190388061206c565b3d91506120c6565b8380fd5b60243591506001600160a01b038216820361219757612111602091612415565b604051636ab8cee160e11b81526001600160401b03909116600482015291829060249082906001600160a01b03165afa90811561218c578591612156575b5038612004565b90506020813d602011612184575b816121716020938361101d565b8101031261218057513861214f565b8480fd5b3d9150612164565b6040513d87823e3d90fd5b8580fd5b92506024356001600160a01b03811681036121975760206121bb86612415565b6040516316bf557960e01b81526001600160401b03909116600482015291829060249082906001600160a01b03165afa908115612232578691612200575b5092611ff5565b90506020813d60201161222a575b8161221b6020938361101d565b810103126121975751386121f9565b3d915061220e565b6040513d88823e3d90fd5b60405162461bcd60e51b81526020600482015260126024820152712120a22fa9a2a8a4a72127ac2fa82927a7a360711b6044820152606490fd5b506122878960288a01818d6112b7565b906000918015612369578135606360f81b166122a5575b5050611b6d565b80600111612365579060016122bf92600019019101612543565b6122c88161242e565b60028114612329576122d98161242e565b6001811461231e575b6122eb8161242e565b156122f8575b388061229e565b50608188018060288a0111156122f157634e487b7160e01b600052601160045260246000fd5b60288a0191506122e2565b60405162461bcd60e51b8152602060048201526014602482015273109313d094d51491505357d553911150d251115160621b6044820152606490fd5b8280fd5b634e487b7160e01b83526032600452602483fd5b6101843560010361239357611b7a600a91611b72565b50505050945095505050506002915052565b60405162461bcd60e51b81526020600482015260136024820152722aa725a727aba72fa4a72127ac2fa82927a7a360691b6044820152606490fd5b506002905295505050505050565b50601f88161515611aec565b50506003905295505050505050565b506004358a1015611ac6565b6001600160401b039081166000190191908211610c1057565b600311156106c057565b9081602091031261006c57516001600160401b038116810361006c5790565b919082604091031261006c5760405161246f81610f5f565b9182908035906001600160f81b03198216820361006c57908252602001359063ffffffff198216820361006c5760200152565b91909160608184031261006c57604051906124bc82610fb1565b909283919081356001600160401b03811161006c5782019080601f8301121561006c578135906124eb826110bf565b916124f9604051938461101d565b808352602093848085019260051b82010192831161006c578401905b8282106125345750505083528082013590830152604090810135910152565b81358152908401908401612515565b8160081161006c57803560c01c906040908151926303f16d4b60e11b92838552602060049473c3e209eb245fd59c8586777b499d6a665df3abd29082888881855afa97881561159b57600098612877575b506001600160401b039788166103e80188811161286257881685116128545782908785518094819382525afa9081156128495790879160009161281c575b50168311612810578660581161006c578387018481039360571993916101008587011261006c5760588701356001600160a01b0381160361006c5760a06077198097011261006c5782519461262686610fb1565b6126338260788a01612457565b86526126428260b88a01612457565b8587015260f8880135848701526101188801358a811161006c5782605861266b928b01016124a2565b966101388901358b811161006c5789019060808285039384011261006c57859081519361269785610fb1565b60588401358552011261006c578451966126b088610f5f565b6078820135885260988201358789015286830197885260b88201358c811161006c576127079460586126e5928c9501016124a2565b8684015260008680516126f781610fb1565b60608152828a8201520152612896565b5093519083825192015194156127dd57036127a657505060388301350361279c5761273190612a12565b5093841561279c578060101161006c5760181161006c576008601082013560c01c91013560c01c0190828211612787575061276e61277591612415565b928061131a565b9116101561278257600090565b600190565b601190634e487b7160e01b6000525260246000fd5b5050505050600190565b5162461bcd60e51b81528086019190915260116024820152704d69736d6174636865644865696768747360781b6044820152606490fd5b825162461bcd60e51b8152808901859052600d60248201526c24a72b20a624a22fa82927a7a360991b6044820152606490fd5b50505050505050600290565b61283c9150833d8511612842575b612834818361101d565b810190612438565b386125d2565b503d61282a565b83513d6000823e3d90fd5b505050505050505050600190565b601188634e487b7160e01b6000525260246000fd5b61288f919850833d851161284257612834818361101d565b9638612594565b9082519260209081808201956040875193015182604051948593631f3302a960e01b8552600485015280516024850152015160448301526080606483015260e482019080519160606084850152825180915284610104850193019060005b818110612993575050508381015160a48401526040015160c48301528190038173c3e209eb245fd59c8586777b499d6a665df3abd25afa908115611e305760009161295d575b50156129515761294d93510151916129ac565b9091565b50505050600090600490565b8281813d831161298c575b612972818361101d565b81010312611f145751908115158203611e2557503861293a565b503d612968565b82518552889688965094850194909201916001016128f4565b906129fc926129bb8351612a30565b60406129ca6020860151612a30565b940151906040519462ffffff19809216602087015216603d850152605a840152605a83526129f783611002565b612aa3565b5015612a0a57600190600090565b600090600390565b6040015160038116612a275760021c90600090565b50600090600890565b80516020918201516040516001600160f81b031990921692820192835263ffffffff19166021820152601d8152612a6681610f5f565b51905162ffffff19918282169190601d8110612a84575b5050905090565b83919250601d0360031b1b1616803880612a7d565b600611156106c057565b60408201805193949360018111612ba25750825151612b95575b6020830190815181511115612b8757602060405196612b1982890189612b08602160009c8d96878652612af8815180928b8686019101612e9e565b810103600181018452018261101d565b604051928392839251928391612e9e565b8101039060025afa1561218c578551935191825115612b705790612b4293949151905190612c90565b6006811015612b5c5780612b565750149190565b92915050565b634e487b7160e01b85526021600452602485fd5b5051600114159050612b8157149190565b50508190565b505050509050600090600290565b5050509050600090600190565b612bb3845151916020860151612bc5565b14612abd575050509050600090600190565b9060019081811115612c745760005b8183821b10612c5357610100908103908111610c1057612bf3906119c4565b9282612bfe856119d4565b1b90612c09826119d4565b8111612c16575050505090565b9293509091838203612c285750505090565b612c47935090612c3b81612c41936119e3565b926119e3565b90612bc5565b612c5090611216565b90565b82810180911115612bd457634e487b7160e01b600052601160045260246000fd5b505050600090565b805182101561123d5760209160051b010190565b9392938115612d775760018214612d6257845115612d575782612cb283612d82565b612cc5612cbf88516119d4565b88612df8565b92818110612d225781612c3b612ce59693612cdf936119e3565b90612c90565b9091612cf082612a99565b81612d1b575050612d0f83612d09612d159495516119d4565b90612c7c565b51612ec1565b90600090565b9350919050565b612d2c9450612c90565b9091612d3782612a99565b81612d1b575050612d5083612d09612d159495516119d4565b5190612ec1565b505090915090600590565b5050909151612d715790600090565b90600490565b505090915090600390565b600180821061006c57600082805b612db357506000198101908111610c105781901b918214612daf575090565b1c90565b90612dbd90611253565b90821c80612d90565b90612dd0826110bf565b612ddd604051918261101d565b8281528092612dee601f19916110bf565b0190602036910137565b919082518111612e4157612e0b81612dc6565b9060005b818110612e1d575090925050565b80612e2b612e3c9287612c7c565b51612e368286612c7c565b52611253565b612e0f565b60405162461bcd60e51b815260206004820152602f60248201527f496e76616c69642072616e67653a205f626567696e206f72205f656e6420617260448201526e65206f7574206f6620626f756e647360881b6064820152608490fd5b60005b838110612eb15750506000910152565b8181015183820152602001612ea1565b612ef06000916020936040519085820192600160f81b84526021830152604182015260418152612b0881611002565b8101039060025afa15611e305760005190565b60405190612f1082610f5f565b601382527226b7b23ab6329036b2b935b632903a3932b29d60691b6020830152565b90612f3b612f03565b90610160830151906020612f546113b482870151613fc7565b9101612f6763ffffffff83168251613dde565b1561331757858791519260051c6307ffffff16612f8393613d65565b509190604051612f9281610f7a565b60609052604051612fa281610f7a565b606081529587612fb0612f03565b6101608801518096612fc0611087565b50612fc9611087565b50612fd2611068565b50612fde908486613850565b612fe9949194611068565b50612ff59082876137ce565b6130009083886137ce565b61300e908489949394613850565b916040519361301c85610fb1565b6001600160401b039182168552166020840152604083015261303f908388613850565b61304d908489959395613850565b61305890838a613850565b61306391938a613781565b949093604051986130738a610fcc565b8952602089015260408801526060870152608086015263ffffffff1660a085015261309f908c86613781565b6130ad908d879a939a613893565b91909480519060208101518051602082015191604001516040519160208301936626b2b6b7b93c9d60c91b8552600160c01b6001900319809260c01b16602785015260c01b16602f83015260378201526037815261310a81610fb1565b51902090604081015190606081015160808201519160a00151926040519460208601966626b7b23ab6329d60c91b8852602787015260478601526067850152608784015260a783015263ffffffff60e01b9060e01b1660c782015260ab815261317281610fe7565b51902061317d612f03565b61318e9163ffffffff8c1688613d23565b03610cd75763ffffffff9b600198898e8216019d8e911611610c10578c956131b587613324565b156132b9575050505050849051511b03610c42575b600095876131d781613324565b1561329d57505085610c105791869060005b818311613240575050509061321d602094939261320f6040519384928884019687613c2e565b03601f19810183528261101d565b5190206101608201525b015190610c10576114f563ffffffff6114fb9316613f93565b60405194856132558360208301938a85613c2e565b0395613269601f199788810183528261101d565b5190209461329160405191826132856020820195808c88613c2e565b0390810183528261101d565b51902091811c916131e9565b602096956132ae9550935090613d23565b610160820152613227565b90919295506132ce939b506132d79450613893565b50978989613c51565b146131ca5760405162461bcd60e51b815260206004820152601360248201527257524f4e475f524f4f545f464f525f5a45524f60681b6044820152606490fd5b5050505090506002915052565b8015159081613331575090565b60001981019150808211610c1057161590565b6040519061335182610f5f565b8160405161335e81610f5f565b6040368237815260206040519161337483610f5f565b60403684370152565b90600281101561123d5760051b0190565b936113b49493929360208101906133a86113b48351613fc7565b916133ba63ffffffff98899251613fc7565b169360028510156134ab5760206133d691019783168851613dde565b1561349f5750906307ffffff6134029260051c169360606040516133f981610f7a565b52848751613d65565b949190506101643561ffff811680910361006c576180108103613440575050916134336040949261343a945161337d565b5191613bc7565b91510152565b9194509450618011919250146000146134605761345d915161337d565b52565b60405162461bcd60e51b81526020600482015260176024820152764241445f474c4f42414c5f53544154455f4f50434f444560481b6044820152606490fd5b60029052505050505050565b5060029052505050505050565b602081019163ffffffff6134cf6113b48551613fc7565b1691600283101561352857506134f56114fb935192602060018060401b0393015161337d565b5116906000602060405161350881610f5f565b82815201526040519161351a83610f5f565b6001835260208301526140f6565b60029052505050565b602081019163ffffffff6135556113b461354e611ab28751613fc7565b9551613fc7565b16916002831015613528575090602061356f92015161337d565b6001600160401b039091169052565b6101408101516001016135a55760408161359e60a06114fb940151613e09565b0151613e09565b60029052565b6000199081610140820151036135285760a08101918251511461352857838360406135d7930151613657565b518260401161006c576114fb92603f19019160400190613657565b90916049926831b7ba343932b0b21d60b91b8352600983015260298201520190565b1561361b57565b60405162461bcd60e51b815260206004820152601460248201527357524f4e475f434f5448524541445f454d50545960601b6044820152606490fd5b90600092600091825b602081106136fc5750906136749291613850565b50600019830361369e576136888115613614565b613696602083015115613614565b602082015252565b60405160208101906136b58161320f8588866135f2565b5190206020830151146136965760405162461bcd60e51b8152602060048201526012602482015271057524f4e475f434f5448524541445f504f560741b6044820152606490fd5b929461371061371691611e51888686611231565b93611253565b613660565b600019908160a0820151511461377a57610184358061375557506101408101918083511461374d576114fb925261397d565b506002915052565b916101408201510361377a5761377463ffffffff6114fb931682613b5b565b5061397d565b6002915052565b600093918491905b6004831061379657505050565b909193946137c16137c79163ffffff006137b1898688611231565b3560f81c9160081b161796611253565b94611253565b9190613789565b9192600091825b600890818510156138115761380a9167ffffffffffffff00613710926137fc8a878b611231565b3560f81c921b161796611253565b92946137d5565b95945050509050565b90916000926000926000915b6020831061383357505050565b909193946137c161384991611e51888587611231565b9190613826565b600093918491905b6020831061386557505050565b909193946137c161387b91611e51888587611231565b9190613858565b60ff1660ff8114610c105760010190565b9092919260606040516138a581610f7a565b526138be6138b4858385611231565b3560f81c94611253565b906138c885612dc6565b9260005b60ff811693878510156138fa57906107716138eb6138f5938686613850565b9190919688612c7c565b6138cc565b959650505050506040519061390e82610f7a565b815291565b8051906020808351930151910151602081519101516040519260208401946c23b637b130b61039ba30ba329d60991b8652602d850152604d84015260018060c01b0319809260c01b16606d84015260c01b166075820152605d815261397781611002565b51902090565b604080820180515160a0840180515194959091600019808714908115613b51575b50613b45576080870193845196602095868901519960009a5b8a5180518d1015613a7f57906139d08d613a7993612c7c565b518a6139dc8251613e40565b918d828201516060828401519301519151938401946b29ba30b1b590333930b6b29d60a11b8652602c850152604c84015263ffffffff60e01b918260e091821b16606c8501521b16607082015260548152613a3681611002565b519020908b51908b8201927129ba30b1b590333930b6b29039ba30b1b59d60711b84526032830152605290818301528152613a7081611002565b5190209b611253565b9a6139b7565b50919497995091949950889295515201928351908782015191805151516000915b898b838510613ad457505050505090606093929151525190868201525251928301525190613acd82610f7a565b6060825252565b613afe8584959698936000613b0494613b3e97519251613af381610f5f565b828152015251612c7c565b51613e40565b908b51908d8201926b2b30b63ab29039ba30b1b59d60a11b8452602c830152604c90818301528152613b3581611002565b51902094611253565b9190613aa0565b50600290955250505050565b905081143861399e565b61014081019160001980845103613bbe576101209163ffffffff60401b60e085015160401b1663ffffffff60201b61010086015160201b16179363ffffffff80948192015116911601828111610c1057821601818111610c105716179052600190565b50505050600090565b90612c509260405160208101916b26b2b6b7b93c903632b0b31d60a11b8352602c820152602c8152613bf881610fb1565b5190209060405192613c0984610f5f565b601384527226b2b6b7b93c9036b2b935b632903a3932b29d60691b6020850152613d23565b602090613c446040959382815194859201612e9e565b0191825260208201520190565b91926000936000925b8451958651851015613cdf5790613cac916001978689841615600014613cb25761320f9150613c8d613ca0918a51612c7c565b5160405192839160208301958987613c2e565b519020965b1c93611253565b92613c5a565b613cc2613cd69161320f93612c7c565b519260405192839160208301958987613c2e565b51902096613ca5565b95509250509150613cec57565b60405162461bcd60e51b815260206004820152600f60248201526e141493d3d197d513d3d7d4d213d495608a1b6044820152606490fd5b92939091936000925b8451958651851015613cdf5790613d5f916001978689841615600014613cb25761320f9150613c8d613ca0918a51612c7c565b92613d2c565b93909291936060604051613d7881610f7a565b526040613d9e613d94613d8b868961381a565b90968799613893565b9590959686613bc7565b91015103613da857565b60405162461bcd60e51b815260206004820152600e60248201526d15d493d391d7d3515357d493d3d560921b6044820152606490fd5b6020820190818311610c1057516001600160401b031610159081613e00575090565b601f9150161590565b600090805182198103613e1a575052565b602082019061320f613e3883516040519283916020830195866135f2565b519020905252565b80519060078210156106c05760200151604051906020820192652b30b63ab29d60d11b845260f81b602683015260278201526027815261397781610fb1565b6020810151905160078110156106c057613ed757600160201b811015613ea85763ffffffff1690565b60405162461bcd60e51b81526020600482015260076024820152662120a22fa4999960c91b6044820152606490fd5b60405162461bcd60e51b81526020600482015260076024820152662727aa2fa4999960c91b6044820152606490fd5b6020810151905160078110156106c057600103613f6457600160401b811015613f35576001600160401b031690565b60405162461bcd60e51b815260206004820152600760248201526610905117d24d8d60ca1b6044820152606490fd5b60405162461bcd60e51b81526020600482015260076024820152661393d517d24d8d60ca1b6044820152606490fd5b60006020604051613fa381610f5f565b828152015263ffffffff60405191613fba83610f5f565b6000835216602082015290565b90602091604051613fd781610f5f565b600093818580935201525191806020604051613ff281610f5f565b8281520152825180516000199391848201918211614081579061401491612c7c565b519284515190810190811161406d5761402c90614095565b915b82518110156140675780614046614062928751612c7c565b516140518286612c7c565b5261405c8185612c7c565b50611253565b61402e565b50925290565b634e487b7160e01b83526011600452602483fd5b634e487b7160e01b84526011600452602484fd5b9061409f826110bf565b6040906140ae8251918261101d565b83815280936140bf601f19916110bf565b0191600090815b8481106140d4575050505050565b60209082516140e281610f5f565b8481528285818301528287010152016140c6565b5180515191600192838101809111610c105761411190614095565b926000815b614139575b50508151516141359161412e8286612c7c565b5283612c7c565b5052565b8351805182101561416e57906141528161416893612c7c565b5161415d8288612c7c565b5261405c8187612c7c565b81614116565b5061411b56fea26469706673582212205614817fc2b20b1111c64b22052f183dda7460fcefa1bae5e556c783f79c433064736f6c63430008130033",
  "linkReferences": {},
  "deployedLinkReferences": {}
}