{
  "_format": "hh-sol-artifact-1",
  "contractName": "OutboxWithoutOptTester",
  "sourceName": "src/test-helpers/OutboxWithoutOptTester.sol",
  "abi": [
    {
      "inputs": [],
      "name": "AlreadyInit",
      "type": "error"
    },
    {
      "inputs": [
        {
          "internalType": "uint256",
          "name": "index",
          "type": "uint256"
        }
      ],
      "name": "AlreadySpent",
      "type": "error"
    },
    {
      "inputs": [],
      "name": "BridgeCallFailed",
      "type": "error"
    },
    {
      "inputs": [
        {
          "internalType": "uint256",
          "name": "actualLength",
          "type": "uint256"
        },
        {
          "internalType": "uint256",
          "name": "maxProofLength",
          "type": "uint256"
        }
      ],
      "name": "MerkleProofTooLong",
      "type": "error"
    },
    {
      "inputs": [
        {
          "internalType": "address",
          "name": "sender",
          "type": "address"
        },
        {
          "internalType": "address",
          "name": "owner",
          "type": "address"
        }
      ],
      "name": "NotOwner",
      "type": "error"
    },
    {
      "inputs": [
        {
          "internalType": "uint256",
          "name": "index",
          "type": "uint256"
        },
        {
          "internalType": "uint256",
          "name": "maxIndex",
          "type": "uint256"
        }
      ],
      "name": "PathNotMinimal",
      "type": "error"
    },
    {
      "inputs": [
        {
          "internalType": "uint256",
          "name": "proofLength",
          "type": "uint256"
        }
      ],
      "name": "ProofTooLong",
      "type": "error"
    },
    {
      "inputs": [
        {
          "internalType": "bytes32",
          "name": "root",
          "type": "bytes32"
        }
      ],
      "name": "UnknownRoot",
      "type": "error"
    },
    {
      "anonymous": false,
      "inputs": [
        {
          "indexed": true,
          "internalType": "address",
          "name": "to",
          "type": "address"
        },
        {
          "indexed": true,
          "internalType": "address",
          "name": "l2Sender",
          "type": "address"
        },
        {
          "indexed": true,
          "internalType": "uint256",
          "name": "zero",
          "type": "uint256"
        },
        {
          "indexed": false,
          "internalType": "uint256",
          "name": "transactionIndex",
          "type": "uint256"
        }
      ],
      "name": "OutBoxTransactionExecuted",
      "type": "event"
    },
    {
      "anonymous": false,
      "inputs": [
        {
          "indexed": true,
          "internalType": "bytes32",
          "name": "outputRoot",
          "type": "bytes32"
        },
        {
          "indexed": true,
          "internalType": "bytes32",
          "name": "l2BlockHash",
          "type": "bytes32"
        }
      ],
      "name": "SendRootUpdated",
      "type": "event"
    },
    {
      "inputs": [],
      "name": "OUTBOX_VERSION",
      "outputs": [
        {
          "internalType": "uint128",
          "name": "",
          "type": "uint128"
        }
      ],
      "stateMutability": "view",
      "type": "function"
    },
    {
      "inputs": [],
      "name": "bridge",
      "outputs": [
        {
          "internalType": "contract IBridge",
          "name": "",
          "type": "address"
        }
      ],
      "stateMutability": "view",
      "type": "function"
    },
    {
      "inputs": [
        {
          "internalType": "address",
          "name": "l2Sender",
          "type": "address"
        },
        {
          "internalType": "address",
          "name": "to",
          "type": "address"
        },
        {
          "internalType": "uint256",
          "name": "l2Block",
          "type": "uint256"
        },
        {
          "internalType": "uint256",
          "name": "l1Block",
          "type": "uint256"
        },
        {
          "internalType": "uint256",
          "name": "l2Timestamp",
          "type": "uint256"
        },
        {
          "internalType": "uint256",
          "name": "value",
          "type": "uint256"
        },
        {
          "internalType": "bytes",
          "name": "data",
          "type": "bytes"
        }
      ],
      "name": "calculateItemHash",
      "outputs": [
        {
          "internalType": "bytes32",
          "name": "",
          "type": "bytes32"
        }
      ],
      "stateMutability": "pure",
      "type": "function"
    },
    {
      "inputs": [
        {
          "internalType": "bytes32[]",
          "name": "proof",
          "type": "bytes32[]"
        },
        {
          "internalType": "uint256",
          "name": "path",
          "type": "uint256"
        },
        {
          "internalType": "bytes32",
          "name": "item",
          "type": "bytes32"
        }
      ],
      "name": "calculateMerkleRoot",
      "outputs": [
        {
          "internalType": "bytes32",
          "name": "",
          "type": "bytes32"
        }
      ],
      "stateMutability": "pure",
      "type": "function"
    },
    {
      "inputs": [
        {
          "internalType": "bytes32[]",
          "name": "proof",
          "type": "bytes32[]"
        },
        {
          "internalType": "uint256",
          "name": "index",
          "type": "uint256"
        },
        {
          "internalType": "address",
          "name": "l2Sender",
          "type": "address"
        },
        {
          "internalType": "address",
          "name": "to",
          "type": "address"
        },
        {
          "internalType": "uint256",
          "name": "l2Block",
          "type": "uint256"
        },
        {
          "internalType": "uint256",
          "name": "l1Block",
          "type": "uint256"
        },
        {
          "internalType": "uint256",
          "name": "l2Timestamp",
          "type": "uint256"
        },
        {
          "internalType": "uint256",
          "name": "value",
          "type": "uint256"
        },
        {
          "internalType": "bytes",
          "name": "data",
          "type": "bytes"
        }
      ],
      "name": "executeTransaction",
      "outputs": [],
      "stateMutability": "nonpayable",
      "type": "function"
    },
    {
      "inputs": [
        {
          "internalType": "uint256",
          "name": "",
          "type": "uint256"
        },
        {
          "internalType": "address",
          "name": "",
          "type": "address"
        },
        {
          "internalType": "address",
          "name": "",
          "type": "address"
        },
        {
          "internalType": "uint256",
          "name": "",
          "type": "uint256"
        },
        {
          "internalType": "uint256",
          "name": "",
          "type": "uint256"
        },
        {
          "internalType": "uint256",
          "name": "",
          "type": "uint256"
        },
        {
          "internalType": "uint256",
          "name": "",
          "type": "uint256"
        },
        {
          "internalType": "bytes",
          "name": "",
          "type": "bytes"
        }
      ],
      "name": "executeTransactionSimulation",
      "outputs": [],
      "stateMutability": "pure",
      "type": "function"
    },
    {
      "inputs": [
        {
          "internalType": "contract IBridge",
          "name": "_bridge",
          "type": "address"
        }
      ],
      "name": "initialize",
      "outputs": [],
      "stateMutability": "nonpayable",
      "type": "function"
    },
    {
      "inputs": [
        {
          "internalType": "uint256",
          "name": "",
          "type": "uint256"
        }
      ],
      "name": "isSpent",
      "outputs": [
        {
          "internalType": "bool",
          "name": "",
          "type": "bool"
        }
      ],
      "stateMutability": "view",
      "type": "function"
    },
    {
      "inputs": [],
      "name": "l2ToL1BatchNum",
      "outputs": [
        {
          "internalType": "uint256",
          "name": "",
          "type": "uint256"
        }
      ],
      "stateMutability": "pure",
      "type": "function"
    },
    {
      "inputs": [],
      "name": "l2ToL1Block",
      "outputs": [
        {
          "internalType": "uint256",
          "name": "",
          "type": "uint256"
        }
      ],
      "stateMutability": "view",
      "type": "function"
    },
    {
      "inputs": [],
      "name": "l2ToL1EthBlock",
      "outputs": [
        {
          "internalType": "uint256",
          "name": "",
          "type": "uint256"
        }
      ],
      "stateMutability": "view",
      "type": "function"
    },
    {
      "inputs": [],
      "name": "l2ToL1OutputId",
      "outputs": [
        {
          "internalType": "bytes32",
          "name": "",
          "type": "bytes32"
        }
      ],
      "stateMutability": "view",
      "type": "function"
    },
    {
      "inputs": [],
      "name": "l2ToL1Sender",
      "outputs": [
        {
          "internalType": "address",
          "name": "",
          "type": "address"
        }
      ],
      "stateMutability": "view",
      "type": "function"
    },
    {
      "inputs": [],
      "name": "l2ToL1Timestamp",
      "outputs": [
        {
          "internalType": "uint256",
          "name": "",
          "type": "uint256"
        }
      ],
      "stateMutability": "view",
      "type": "function"
    },
    {
      "inputs": [],
      "name": "postUpgradeInit",
      "outputs": [],
      "stateMutability": "nonpayable",
      "type": "function"
    },
    {
      "inputs": [],
      "name": "rollup",
      "outputs": [
        {
          "internalType": "address",
          "name": "",
          "type": "address"
        }
      ],
      "stateMutability": "view",
      "type": "function"
    },
    {
      "inputs": [
        {
          "internalType": "bytes32",
          "name": "",
          "type": "bytes32"
        }
      ],
      "name": "roots",
      "outputs": [
        {
          "internalType": "bytes32",
          "name": "",
          "type": "bytes32"
        }
      ],
      "stateMutability": "view",
      "type": "function"
    },
    {
      "inputs": [
        {
          "internalType": "uint256",
          "name": "",
          "type": "uint256"
        }
      ],
      "name": "spent",
      "outputs": [
        {
          "internalType": "bytes32",
          "name": "",
          "type": "bytes32"
        }
      ],
      "stateMutability": "pure",
      "type": "function"
    },
    {
      "inputs": [],
      "name": "updateRollupAddress",
      "outputs": [],
      "stateMutability": "nonpayable",
      "type": "function"
    },
    {
      "inputs": [
        {
          "internalType": "bytes32",
          "name": "root",
          "type": "bytes32"
        },
        {
          "internalType": "bytes32",
          "name": "l2BlockHash",
          "type": "bytes32"
        }
      ],
      "name": "updateSendRoot",
      "outputs": [],
      "stateMutability": "nonpayable",
      "type": "function"
    }
  ],
  "bytecode": "0x60a080604052346100235730608052610eef908161002982396080518161048d0152f35b600080fdfe6080604052600436101561001257600080fd5b60003560e01c80627436d31461015657806308635a9514610151578063119852711461014c578063288e5b101461014757806346547790146101425780635a129efe1461013d5780636ae71f121461013857806372f2a8c71461013357806380648b021461012e5780638515bc6a1461012957806395fcea78146101245780639f0c04bf1461011f578063a04cee601461011a578063ae6dead714610115578063b0f3053714610110578063c4d66de81461010b578063c75184df14610106578063cb23bcb514610101578063d5b5cc23146100fc5763e78cea92146100f757600080fd5b6108a9565b610862565b610839565b61081d565b610752565b610729565b6106fd565b6106ae565b610647565b610634565b610613565b6105ea565b6105cc565b610470565b61043f565b610416565b610396565b61037a565b6102e3565b61022e565b634e487b7160e01b600052604160045260246000fd5b604081019081106001600160401b0382111761018c57604052565b61015b565b601f909101601f19168101906001600160401b0382119082101761018c57604052565b6040519060a082016001600160401b0381118382101761018c57604052565b9092916001600160401b03841161018c578360051b60405192602080946101fc82850182610191565b809781520191810192831161022957905b82821061021a5750505050565b8135815290830190830161020d565b600080fd5b34610229576060366003190112610229576004356001600160401b03811161022957366023820112156102295761028161027460209236906024816004013591016101d3565b6044359060243590610de9565b604051908152f35b6001600160a01b0381160361022957565b604435906102a782610289565b565b606435906102a782610289565b9181601f84011215610229578235916001600160401b038311610229576020838186019501011161022957565b3461022957610120366003190112610229576001600160401b036004358181116102295736602382011215610229578060040135828111610229573660248260051b840101116102295761033561029a565b61033d6102a9565b90610104359485116102295761035a6103789536906004016102b6565b94909360e4359360c4359360a43593608435936024803592016109a6565b005b3461022957600036600319011261022957602060405160008152f35b3461022957610100366003190112610229576103b3602435610289565b6103be604435610289565b60e4356001600160401b038111610229576103dd9036906004016102b6565b505060405162461bcd60e51b815260206004820152600f60248201526e139bdd081a5b5c1b195b595b9d1959608a1b6044820152606490fd5b34610229576000366003190112610229576004546040516001600160801b039091168152602090f35b34610229576020366003190112610229576004356000526002602052602060ff604060002054166040519015158152f35b34610229576000806003193601126105c9576001600160a01b03307f000000000000000000000000000000000000000000000000000000000000000082161461056f57807fb53127684a568b3173ae13b9f8a6016e243e63b6e8ee1178d6a717850b5d6103541680330361055157506004602082600154166040519283809263cb23bcb560e01b82525afa90811561054c57839161051e575b5082546001600160a01b031916911617815580f35b61053f915060203d8111610545575b6105378183610191565b8101906108d2565b38610509565b503d61052d565b6108ea565b60449060405190631194af8760e11b82523360048301526024820152fd5b60405162461bcd60e51b815260206004820152602c60248201527f46756e6374696f6e206d7573742062652063616c6c6564207468726f7567682060448201526b19195b1959d85d1958d85b1b60a21b6064820152608490fd5b80fd5b34610229576000366003190112610229576020600654604051908152f35b34610229576000366003190112610229576007546040516001600160a01b039091168152602090f35b3461022957600036600319011261022957602060045460801c604051908152f35b3461022957600036600319011261022957005b346102295760e03660031901126102295760043561066481610289565b60243561067081610289565b60c435906001600160401b038211610229576020926106966102819336906004016102b6565b92909160a43591608435916064359160443591610d81565b346102295760403660031901126102295760043560243560009180835260036020528160408420557fb4df3847300f076a369cd76d2314b470a1194d9e8a6bb97f1860aee88a5f67488380a380f35b346102295760203660031901126102295760043560005260036020526020604060002054604051908152f35b34610229576000366003190112610229576005546040516001600160801b039091168152602090f35b346102295760203660031901126102295760043561076f81610289565b6001546001600160a01b039190821661080b57600180546001600160a01b0319166001600160a01b038316179055819060209060046040518095819363cb23bcb560e01b8352165afa801561054c57610378926000916107ed575b5060008054919092166001600160a01b03166001600160a01b0319909116179055565b610805915060203d8111610545576105378183610191565b386107ca565b604051633bcd329760e21b8152600490fd5b3461022957600036600319011261022957602060405160028152f35b34610229576000366003190112610229576000546040516001600160a01b039091168152602090f35b346102295760203660031901126102295760405162461bcd60e51b815260206004820152600e60248201526d1393d517d253541311535155115160921b6044820152606490fd5b34610229576000366003190112610229576001546040516001600160a01b039091168152602090f35b9081602091031261022957516108e781610289565b90565b6040513d6000823e3d90fd5b6040519060a082016001600160401b0381118382101761018c5760409081526004546001600160801b038082168552608091821c6020860152600554169184019190915260065460608401526007546001600160a01b031690830152565b6001600160401b03811161018c57601f01601f191660200190565b92919261097b82610954565b916109896040519384610191565b829481845281830111610229578281602093846000960137010152565b6109cd906109c58c8c8b969f9e999d9a989c809c8f8f908c918c610d81565b9236916101d3565b8051610100811015610bf05750806109e68d9251610c0a565b821015610bc757906109f89291610de9565b610a0c816000526003602052604060002090565b5415610bad5750610a31610a2a8b6000526002602052604060002090565b5460ff1690565b610b9457610b1f96959492610b1f610b8e95938c610b0a610ae86102a79e9f96610a78610a6b610b87996000526002602052604060002090565b805460ff19166001179055565b60008d6040517f20af7f3bbfe38132b8900ae295cd9c8d1914be7052d061a511f3f728dab1896460018060a01b03808a1693169180610abc8a829190602083019252565b0390a4610af9610aca6108f6565b9f610ad36101b4565b6001600160801b039182168152989093849190565b166001600160801b03166020890152565b166001600160801b03166040860152565b60608401526001600160a01b03166080830152565b80516020820151608090811b6001600160801b03199081166001600160801b039384161760045560408401516005805490921693169290921790915560608201516006550151600780546001600160a01b0319166001600160a01b0392909216919091179055565b369161096f565b91610cc1565b604051639715b8d360e01b8152600481018b9052602490fd5b6040516310e61af960e31b81526004810191909152602490fd5b610bd19051610c0a565b604051630b8a724b60e01b815260048101929092526024820152604490fd5b60405163ab6a068360e01b81526004810191909152602490fd5b60ff8111610c19576001901b90565b634e487b7160e01b600052601160045260246000fd5b60005b838110610c425750506000910152565b8181015183820152602001610c32565b9190604083820312610229578251801515810361022957602084015190936001600160401b038211610229570181601f82011215610229578051610c9581610954565b92610ca36040519485610191565b81845260208284010111610229576108e79160208085019101610c2f565b9060009160018060a01b0383608482600154169360405197889687958693639e5d4c4960e01b8552166004840152602483015260606044830152610d148151809281606486015260208686019101610c2f565b601f01601f191681010301925af190811561054c576000908192610d5d575b5015610d3c5750565b805115610d4b57805190602001fd5b604051631bb7daad60e11b8152600490fd5b90610d7a92503d8091833e610d728183610191565b810190610c52565b9038610d33565b9295610de39560c895899498999399604051998a97602089019c8d60018060601b0319809360601b16905260601b16603489015260488801526068870152608886015260a88501528484013781016000838201520360a8810184520182610191565b51902090565b916040805191602092838101918252838152610e0481610171565b51902091845192610100808511610e72575094939291906000945b838610610e2f5750505050505090565b909192939495610e3f8783610e8f565b5160019182891b8816610e6257600052835283600020965b019493929190610e1f565b9060005283528360002096610e57565b84604491855191637ed6198f60e11b835260048301526024820152fd5b8051821015610ea35760209160051b010190565b634e487b7160e01b600052603260045260246000fdfea2646970667358221220fbce0a45ad1e245c54e7e16bd28c788274f3e8dbb3b3f53f4c547bb5d7e3d8a164736f6c63430008130033",
  "linkReferences": {},
  "deployedLinkReferences": {}
}