{
  "_format": "hh-sol-artifact-1",
  "contractName": "Inbox",
  "sourceName": "src/bridge/Inbox.sol",
  "abi": [
    {
      "inputs": [
        {
          "internalType": "uint256",
          "name": "_maxDataSize",
          "type": "uint256"
        }
      ],
      "stateMutability": "nonpayable",
      "type": "constructor"
    },
    {
      "inputs": [
        {
          "internalType": "uint256",
          "name": "dataLength",
          "type": "uint256"
        },
        {
          "internalType": "uint256",
          "name": "maxDataLength",
          "type": "uint256"
        }
      ],
      "name": "DataTooLarge",
      "type": "error"
    },
    {
      "inputs": [],
      "name": "GasLimitTooLarge",
      "type": "error"
    },
    {
      "inputs": [
        {
          "internalType": "uint256",
          "name": "expected",
          "type": "uint256"
        },
        {
          "internalType": "uint256",
          "name": "actual",
          "type": "uint256"
        }
      ],
      "name": "InsufficientSubmissionCost",
      "type": "error"
    },
    {
      "inputs": [
        {
          "internalType": "uint256",
          "name": "expected",
          "type": "uint256"
        },
        {
          "internalType": "uint256",
          "name": "actual",
          "type": "uint256"
        }
      ],
      "name": "InsufficientValue",
      "type": "error"
    },
    {
      "inputs": [],
      "name": "L1Forked",
      "type": "error"
    },
    {
      "inputs": [
        {
          "internalType": "address",
          "name": "origin",
          "type": "address"
        }
      ],
      "name": "NotAllowedOrigin",
      "type": "error"
    },
    {
      "inputs": [],
      "name": "NotForked",
      "type": "error"
    },
    {
      "inputs": [],
      "name": "NotOrigin",
      "type": "error"
    },
    {
      "inputs": [
        {
          "internalType": "address",
          "name": "sender",
          "type": "address"
        },
        {
          "internalType": "address",
          "name": "owner",
          "type": "address"
        }
      ],
      "name": "NotOwner",
      "type": "error"
    },
    {
      "inputs": [
        {
          "internalType": "address",
          "name": "sender",
          "type": "address"
        },
        {
          "internalType": "address",
          "name": "rollup",
          "type": "address"
        },
        {
          "internalType": "address",
          "name": "owner",
          "type": "address"
        }
      ],
      "name": "NotRollupOrOwner",
      "type": "error"
    },
    {
      "inputs": [
        {
          "internalType": "address",
          "name": "from",
          "type": "address"
        },
        {
          "internalType": "address",
          "name": "to",
          "type": "address"
        },
        {
          "internalType": "uint256",
          "name": "l2CallValue",
          "type": "uint256"
        },
        {
          "internalType": "uint256",
          "name": "deposit",
          "type": "uint256"
        },
        {
          "internalType": "uint256",
          "name": "maxSubmissionCost",
          "type": "uint256"
        },
        {
          "internalType": "address",
          "name": "excessFeeRefundAddress",
          "type": "address"
        },
        {
          "internalType": "address",
          "name": "callValueRefundAddress",
          "type": "address"
        },
        {
          "internalType": "uint256",
          "name": "gasLimit",
          "type": "uint256"
        },
        {
          "internalType": "uint256",
          "name": "maxFeePerGas",
          "type": "uint256"
        },
        {
          "internalType": "bytes",
          "name": "data",
          "type": "bytes"
        }
      ],
      "name": "RetryableData",
      "type": "error"
    },
    {
      "anonymous": false,
      "inputs": [
        {
          "indexed": true,
          "internalType": "address",
          "name": "user",
          "type": "address"
        },
        {
          "indexed": false,
          "internalType": "bool",
          "name": "val",
          "type": "bool"
        }
      ],
      "name": "AllowListAddressSet",
      "type": "event"
    },
    {
      "anonymous": false,
      "inputs": [
        {
          "indexed": false,
          "internalType": "bool",
          "name": "isEnabled",
          "type": "bool"
        }
      ],
      "name": "AllowListEnabledUpdated",
      "type": "event"
    },
    {
      "anonymous": false,
      "inputs": [
        {
          "indexed": true,
          "internalType": "uint256",
          "name": "messageNum",
          "type": "uint256"
        },
        {
          "indexed": false,
          "internalType": "bytes",
          "name": "data",
          "type": "bytes"
        }
      ],
      "name": "InboxMessageDelivered",
      "type": "event"
    },
    {
      "anonymous": false,
      "inputs": [
        {
          "indexed": true,
          "internalType": "uint256",
          "name": "messageNum",
          "type": "uint256"
        }
      ],
      "name": "InboxMessageDeliveredFromOrigin",
      "type": "event"
    },
    {
      "anonymous": false,
      "inputs": [
        {
          "indexed": false,
          "internalType": "address",
          "name": "account",
          "type": "address"
        }
      ],
      "name": "Paused",
      "type": "event"
    },
    {
      "anonymous": false,
      "inputs": [
        {
          "indexed": false,
          "internalType": "address",
          "name": "account",
          "type": "address"
        }
      ],
      "name": "Unpaused",
      "type": "event"
    },
    {
      "inputs": [],
      "name": "allowListEnabled",
      "outputs": [
        {
          "internalType": "bool",
          "name": "",
          "type": "bool"
        }
      ],
      "stateMutability": "view",
      "type": "function"
    },
    {
      "inputs": [],
      "name": "bridge",
      "outputs": [
        {
          "internalType": "contract IBridge",
          "name": "",
          "type": "address"
        }
      ],
      "stateMutability": "view",
      "type": "function"
    },
    {
      "inputs": [
        {
          "internalType": "uint256",
          "name": "dataLength",
          "type": "uint256"
        },
        {
          "internalType": "uint256",
          "name": "baseFee",
          "type": "uint256"
        }
      ],
      "name": "calculateRetryableSubmissionFee",
      "outputs": [
        {
          "internalType": "uint256",
          "name": "",
          "type": "uint256"
        }
      ],
      "stateMutability": "view",
      "type": "function"
    },
    {
      "inputs": [
        {
          "internalType": "address",
          "name": "to",
          "type": "address"
        },
        {
          "internalType": "uint256",
          "name": "l2CallValue",
          "type": "uint256"
        },
        {
          "internalType": "uint256",
          "name": "maxSubmissionCost",
          "type": "uint256"
        },
        {
          "internalType": "address",
          "name": "excessFeeRefundAddress",
          "type": "address"
        },
        {
          "internalType": "address",
          "name": "callValueRefundAddress",
          "type": "address"
        },
        {
          "internalType": "uint256",
          "name": "gasLimit",
          "type": "uint256"
        },
        {
          "internalType": "uint256",
          "name": "maxFeePerGas",
          "type": "uint256"
        },
        {
          "internalType": "bytes",
          "name": "data",
          "type": "bytes"
        }
      ],
      "name": "createRetryableTicket",
      "outputs": [
        {
          "internalType": "uint256",
          "name": "",
          "type": "uint256"
        }
      ],
      "stateMutability": "payable",
      "type": "function"
    },
    {
      "inputs": [
        {
          "internalType": "address",
          "name": "to",
          "type": "address"
        },
        {
          "internalType": "uint256",
          "name": "l2CallValue",
          "type": "uint256"
        },
        {
          "internalType": "uint256",
          "name": "maxSubmissionCost",
          "type": "uint256"
        },
        {
          "internalType": "address",
          "name": "excessFeeRefundAddress",
          "type": "address"
        },
        {
          "internalType": "address",
          "name": "callValueRefundAddress",
          "type": "address"
        },
        {
          "internalType": "uint256",
          "name": "gasLimit",
          "type": "uint256"
        },
        {
          "internalType": "uint256",
          "name": "maxFeePerGas",
          "type": "uint256"
        },
        {
          "internalType": "bytes",
          "name": "data",
          "type": "bytes"
        }
      ],
      "name": "createRetryableTicketNoRefundAliasRewrite",
      "outputs": [
        {
          "internalType": "uint256",
          "name": "",
          "type": "uint256"
        }
      ],
      "stateMutability": "payable",
      "type": "function"
    },
    {
      "inputs": [
        {
          "internalType": "uint256",
          "name": "",
          "type": "uint256"
        }
      ],
      "name": "depositEth",
      "outputs": [
        {
          "internalType": "uint256",
          "name": "",
          "type": "uint256"
        }
      ],
      "stateMutability": "payable",
      "type": "function"
    },
    {
      "inputs": [],
      "name": "depositEth",
      "outputs": [
        {
          "internalType": "uint256",
          "name": "",
          "type": "uint256"
        }
      ],
      "stateMutability": "payable",
      "type": "function"
    },
    {
      "inputs": [],
      "name": "getProxyAdmin",
      "outputs": [
        {
          "internalType": "address",
          "name": "",
          "type": "address"
        }
      ],
      "stateMutability": "view",
      "type": "function"
    },
    {
      "inputs": [
        {
          "internalType": "contract IBridge",
          "name": "_bridge",
          "type": "address"
        },
        {
          "internalType": "contract ISequencerInbox",
          "name": "_sequencerInbox",
          "type": "address"
        }
      ],
      "name": "initialize",
      "outputs": [],
      "stateMutability": "nonpayable",
      "type": "function"
    },
    {
      "inputs": [
        {
          "internalType": "address",
          "name": "",
          "type": "address"
        }
      ],
      "name": "isAllowed",
      "outputs": [
        {
          "internalType": "bool",
          "name": "",
          "type": "bool"
        }
      ],
      "stateMutability": "view",
      "type": "function"
    },
    {
      "inputs": [],
      "name": "maxDataSize",
      "outputs": [
        {
          "internalType": "uint256",
          "name": "",
          "type": "uint256"
        }
      ],
      "stateMutability": "view",
      "type": "function"
    },
    {
      "inputs": [],
      "name": "pause",
      "outputs": [],
      "stateMutability": "nonpayable",
      "type": "function"
    },
    {
      "inputs": [],
      "name": "paused",
      "outputs": [
        {
          "internalType": "bool",
          "name": "",
          "type": "bool"
        }
      ],
      "stateMutability": "view",
      "type": "function"
    },
    {
      "inputs": [
        {
          "internalType": "contract IBridge",
          "name": "",
          "type": "address"
        }
      ],
      "name": "postUpgradeInit",
      "outputs": [],
      "stateMutability": "nonpayable",
      "type": "function"
    },
    {
      "inputs": [
        {
          "internalType": "uint256",
          "name": "gasLimit",
          "type": "uint256"
        },
        {
          "internalType": "uint256",
          "name": "maxFeePerGas",
          "type": "uint256"
        },
        {
          "internalType": "address",
          "name": "to",
          "type": "address"
        },
        {
          "internalType": "uint256",
          "name": "value",
          "type": "uint256"
        },
        {
          "internalType": "bytes",
          "name": "data",
          "type": "bytes"
        }
      ],
      "name": "sendContractTransaction",
      "outputs": [
        {
          "internalType": "uint256",
          "name": "",
          "type": "uint256"
        }
      ],
      "stateMutability": "nonpayable",
      "type": "function"
    },
    {
      "inputs": [
        {
          "internalType": "uint256",
          "name": "gasLimit",
          "type": "uint256"
        },
        {
          "internalType": "uint256",
          "name": "maxFeePerGas",
          "type": "uint256"
        },
        {
          "internalType": "address",
          "name": "to",
          "type": "address"
        },
        {
          "internalType": "bytes",
          "name": "data",
          "type": "bytes"
        }
      ],
      "name": "sendL1FundedContractTransaction",
      "outputs": [
        {
          "internalType": "uint256",
          "name": "",
          "type": "uint256"
        }
      ],
      "stateMutability": "payable",
      "type": "function"
    },
    {
      "inputs": [
        {
          "internalType": "uint256",
          "name": "gasLimit",
          "type": "uint256"
        },
        {
          "internalType": "uint256",
          "name": "maxFeePerGas",
          "type": "uint256"
        },
        {
          "internalType": "uint256",
          "name": "nonce",
          "type": "uint256"
        },
        {
          "internalType": "address",
          "name": "to",
          "type": "address"
        },
        {
          "internalType": "bytes",
          "name": "data",
          "type": "bytes"
        }
      ],
      "name": "sendL1FundedUnsignedTransaction",
      "outputs": [
        {
          "internalType": "uint256",
          "name": "",
          "type": "uint256"
        }
      ],
      "stateMutability": "payable",
      "type": "function"
    },
    {
      "inputs": [
        {
          "internalType": "uint256",
          "name": "gasLimit",
          "type": "uint256"
        },
        {
          "internalType": "uint256",
          "name": "maxFeePerGas",
          "type": "uint256"
        },
        {
          "internalType": "uint256",
          "name": "nonce",
          "type": "uint256"
        },
        {
          "internalType": "address",
          "name": "to",
          "type": "address"
        },
        {
          "internalType": "bytes",
          "name": "data",
          "type": "bytes"
        }
      ],
      "name": "sendL1FundedUnsignedTransactionToFork",
      "outputs": [
        {
          "internalType": "uint256",
          "name": "",
          "type": "uint256"
        }
      ],
      "stateMutability": "payable",
      "type": "function"
    },
    {
      "inputs": [
        {
          "internalType": "bytes",
          "name": "messageData",
          "type": "bytes"
        }
      ],
      "name": "sendL2Message",
      "outputs": [
        {
          "internalType": "uint256",
          "name": "",
          "type": "uint256"
        }
      ],
      "stateMutability": "nonpayable",
      "type": "function"
    },
    {
      "inputs": [
        {
          "internalType": "bytes",
          "name": "messageData",
          "type": "bytes"
        }
      ],
      "name": "sendL2MessageFromOrigin",
      "outputs": [
        {
          "internalType": "uint256",
          "name": "",
          "type": "uint256"
        }
      ],
      "stateMutability": "nonpayable",
      "type": "function"
    },
    {
      "inputs": [
        {
          "internalType": "uint256",
          "name": "gasLimit",
          "type": "uint256"
        },
        {
          "internalType": "uint256",
          "name": "maxFeePerGas",
          "type": "uint256"
        },
        {
          "internalType": "uint256",
          "name": "nonce",
          "type": "uint256"
        },
        {
          "internalType": "address",
          "name": "to",
          "type": "address"
        },
        {
          "internalType": "uint256",
          "name": "value",
          "type": "uint256"
        },
        {
          "internalType": "bytes",
          "name": "data",
          "type": "bytes"
        }
      ],
      "name": "sendUnsignedTransaction",
      "outputs": [
        {
          "internalType": "uint256",
          "name": "",
          "type": "uint256"
        }
      ],
      "stateMutability": "nonpayable",
      "type": "function"
    },
    {
      "inputs": [
        {
          "internalType": "uint256",
          "name": "gasLimit",
          "type": "uint256"
        },
        {
          "internalType": "uint256",
          "name": "maxFeePerGas",
          "type": "uint256"
        },
        {
          "internalType": "uint256",
          "name": "nonce",
          "type": "uint256"
        },
        {
          "internalType": "address",
          "name": "to",
          "type": "address"
        },
        {
          "internalType": "uint256",
          "name": "value",
          "type": "uint256"
        },
        {
          "internalType": "bytes",
          "name": "data",
          "type": "bytes"
        }
      ],
      "name": "sendUnsignedTransactionToFork",
      "outputs": [
        {
          "internalType": "uint256",
          "name": "",
          "type": "uint256"
        }
      ],
      "stateMutability": "nonpayable",
      "type": "function"
    },
    {
      "inputs": [
        {
          "internalType": "uint256",
          "name": "gasLimit",
          "type": "uint256"
        },
        {
          "internalType": "uint256",
          "name": "maxFeePerGas",
          "type": "uint256"
        },
        {
          "internalType": "uint256",
          "name": "nonce",
          "type": "uint256"
        },
        {
          "internalType": "uint256",
          "name": "value",
          "type": "uint256"
        },
        {
          "internalType": "address",
          "name": "withdrawTo",
          "type": "address"
        }
      ],
      "name": "sendWithdrawEthToFork",
      "outputs": [
        {
          "internalType": "uint256",
          "name": "",
          "type": "uint256"
        }
      ],
      "stateMutability": "nonpayable",
      "type": "function"
    },
    {
      "inputs": [],
      "name": "sequencerInbox",
      "outputs": [
        {
          "internalType": "contract ISequencerInbox",
          "name": "",
          "type": "address"
        }
      ],
      "stateMutability": "view",
      "type": "function"
    },
    {
      "inputs": [
        {
          "internalType": "address[]",
          "name": "user",
          "type": "address[]"
        },
        {
          "internalType": "bool[]",
          "name": "val",
          "type": "bool[]"
        }
      ],
      "name": "setAllowList",
      "outputs": [],
      "stateMutability": "nonpayable",
      "type": "function"
    },
    {
      "inputs": [
        {
          "internalType": "bool",
          "name": "_allowListEnabled",
          "type": "bool"
        }
      ],
      "name": "setAllowListEnabled",
      "outputs": [],
      "stateMutability": "nonpayable",
      "type": "function"
    },
    {
      "inputs": [],
      "name": "unpause",
      "outputs": [],
      "stateMutability": "nonpayable",
      "type": "function"
    },
    {
      "inputs": [
        {
          "internalType": "address",
          "name": "to",
          "type": "address"
        },
        {
          "internalType": "uint256",
          "name": "l2CallValue",
          "type": "uint256"
        },
        {
          "internalType": "uint256",
          "name": "maxSubmissionCost",
          "type": "uint256"
        },
        {
          "internalType": "address",
          "name": "excessFeeRefundAddress",
          "type": "address"
        },
        {
          "internalType": "address",
          "name": "callValueRefundAddress",
          "type": "address"
        },
        {
          "internalType": "uint256",
          "name": "gasLimit",
          "type": "uint256"
        },
        {
          "internalType": "uint256",
          "name": "maxFeePerGas",
          "type": "uint256"
        },
        {
          "internalType": "bytes",
          "name": "data",
          "type": "bytes"
        }
      ],
      "name": "unsafeCreateRetryableTicket",
      "outputs": [
        {
          "internalType": "uint256",
          "name": "",
          "type": "uint256"
        }
      ],
      "stateMutability": "payable",
      "type": "function"
    }
  ],
  "bytecode": "0x60e0346100ba57601f61234438819003918201601f19168301916001600160401b038311848410176100bf578084926020946040528339810103126100ba5751306080524660c05260a05260405161226e90816100d6823960805181818161079701526110a0015260a051818181610337015281816113be01528181611a3501528181611b6801528181611d530152611faa015260c0518181816103be0152818161089301528181610bcb0152818161139101526116400152f35b600080fd5b634e487b7160e01b600052604160045260246000fdfe60406080815260048036101561001457600080fd5b600090813560e01c8062f72382146115fe5780630f4d14e9146115925780631b871c8d146115135780631fe927cf1461133a57806322bd5c1c146113135780633f4ba83a146111b4578063439370b11461119c578063485cc9551461103d5780635075788b14610f8a5780635c975abb14610f665780635e91675814610eb5578063679b6ded14610d8b57806367ef3ab814610cfb5780636e6e8a6a14610cdd57806370665f1414610b775780638456cb5914610a415780638a631aa6146109655780638b3240a01461092f578063a66b327d1461090b578063b75436bb14610836578063babcc539146107f8578063c474d2c51461076d578063e3de72a5146104a5578063e6bd12cf14610383578063e78cea921461035a578063e8eb1dc31461031f578063ee35f327146102f65763efeadb6d1461015357600080fd5b346102f257602090816003193601126102ee578035908115158092036102ea57606554855163cb23bcb560e01b81526001600160a01b0391859082908590829086165afa9081156102e05790829187916102c3575b50169081330361023e575b50506066549060ff8260a01c161515831461020d575060ff60a01b191660a082901b60ff60a01b1617606655925192835290917f16435b45f7482047f839a6a19d291442627200f52cad2803c595150d0d440eb39190a180f35b855162461bcd60e51b8152908101849052600b60248201526a1053149150511657d4d15560aa1b6044820152606490fd5b8651638da5cb5b60e01b81529085828581865afa9182156102b957879261028a575b5081163303156101b3578651630739600760e01b815291829161028691338487016118d5565b0390fd5b6102ab919250863d88116102b2575b6102a3818361187c565b8101906118b6565b9038610260565b503d610299565b88513d89823e3d90fd5b6102da9150863d88116102b2576102a3818361187c565b386101a8565b87513d88823e3d90fd5b8380fd5b8280fd5b5080fd5b8284346102f257816003193601126102f25760665490516001600160a01b039091168152602090f35b8284346102f257816003193601126102f257602090517f00000000000000000000000000000000000000000000000000000000000000008152f35b8284346102f257816003193601126102f25760655490516001600160a01b039091168152602090f35b50919061038f36611801565b9397909294956103a460ff6033541615611922565b8760ff60665460a01c16918261048e575b505061047757467f0000000000000000000000000000000000000000000000000000000000000000146104695732330361045b576001600160401b03861161044d57509261042361044695936104319360209996895196879560018060a01b03998a349416928e89016119a7565b03601f19810183528261187c565b34913361111061111160901b01190116611b62565b9051908152f35b865163107c527b60e01b8152fd5b865163feb3d07160e01b8152fd5b8651635180dd8360e11b8152fd5b602490875190630f51ed7160e41b82523290820152fd5b60ff925032815260676020522054161587386103b5565b5091903461076a578160031936011261076a578235926001600160401b038085116102ee57366023860112156102ee5784820135946104e38661189f565b946104f08151968761187c565b8686526020918287016024809960051b83010191368311610743578901905b82821061074b575050508635928311610747573660238401121561074757828401359261053b8461189f565b936105488351958661187c565b808552888486019160051b83010191368311610743578901905b828210610727575050606554825163cb23bcb560e01b81526001600160a01b03925090849082908890829086165afa90811561071d579082918891610700575b501680330361068c575b50865184510361065a57855b8751811015610656576105cb81866118f8565b511515826105d9838b6118f8565b51168852606785528388209060ff80198354169116179055816105fc828a6118f8565b51167fd9739f45a01ce092c5cdb3d68f63d63d21676b1c6c0b4f9cbc6be4cf5449595a8561062a84896118f8565b5115158651908152a26000198114610644576001016105b8565b634e487b7160e01b8752601186528887fd5b8680f35b815162461bcd60e51b8152808601849052600d818a01526c1253959053125117d253941555609a1b6044820152606490fd5b8251638da5cb5b60e01b815284818881855afa9081156106f65788916106d9575b5082811633036106bd57506105ac565b8351630739600760e01b81529182916102869133848b016118d5565b6106f09150853d87116102b2576102a3818361187c565b386106ad565b84513d8a823e3d90fd5b6107179150853d87116102b2576102a3818361187c565b386105a2565b83513d89823e3d90fd5b8135801515810361073f578152908401908401610562565b8880fd5b8780fd5b8480fd5b81356001600160a01b038116810361073f57815290840190840161050f565b80fd5b5082346102ee5760203660031901126102ee57610788611700565b506001600160a01b036107bf307f000000000000000000000000000000000000000000000000000000000000000083161415611c28565b6000805160206121f98339815191525416908133036107dc578380f35b604493505191631194af8760e11b835233908301526024820152fd5b8284346102f25760203660031901126102f25760209160ff9082906001600160a01b03610823611700565b1681526067855220541690519015158152f35b508290346102ee5760203660031901126102ee5780356001600160401b0381116102ea576108679036908301611716565b91909361087960ff6033541615611922565b8360ff60665460a01c1691826108f4575b50506108dd57467f0000000000000000000000000000000000000000000000000000000000000000036108cf57506108c9602093610446923691611961565b33611a31565b825163c6ea680360e01b8152fd5b602490835190630f51ed7160e41b82523290820152fd5b60ff9250328152606760205220541615838661088a565b5091903461076a578160031936011261076a575061044660209260243590356121a6565b8284346102f257816003193601126102f2576000805160206121f98339815191525490516001600160a01b039091168152602090f35b508290346102ee5760a03660031901126102ee578035906109846116e5565b936001600160401b03916084358381116102ee576109a59036908301611716565b9390926109b760ff6033541615611922565b8660ff60665460a01c169182610a2a575b5050610a14578411610a06575083516020956104469491936108c993859361042393606435916001600160a01b039091169060243590878d016119dc565b845163107c527b60e01b8152fd5b8551630f51ed7160e41b81523281840152602490fd5b60ff925032815260676020522054161586896109c8565b5082346102ee57826003193601126102ee57606554815163cb23bcb560e01b81526020936001600160a01b0392909190859082908490829087165afa908115610b6d579083918791610b50575b501691823303610adf575b857f62e78cea01bee320cd4e420270b5ea74000d11b0c9f74754ebdbfc544b05a25886866001603354610acf60ff821615611922565b60ff19161760335551338152a180f35b8351638da5cb5b60e01b81529085828481875afa918215610b46578792610b27575b508116330315610a9957610286908451938493630739600760e01b8552339085016118d5565b610b3f919250863d88116102b2576102a3818361187c565b9087610b01565b85513d89823e3d90fd5b610b679150863d88116102b2576102a3818361187c565b87610a8e565b84513d88823e3d90fd5b508290346102ee5760a03660031901126102ee578035926001600160a01b039160843583811691908290036102ee57610bb560ff6033541615611922565b60ff60665460a01c1680610cc7575b610cb057467f000000000000000000000000000000000000000000000000000000000000000014610ca257323303610c94576001600160401b038611610a06575091610c8160c16020969361044695610c7188518a8101926325e1606360e01b8452602482015260248152610c388161184b565b89519788948c8601526021850152602435604185015260443560618501526064608185015260643560a185015251809285850190611a0e565b81010360a181018552018361187c565b3361111061111160901b01190116611a31565b845163feb3d07160e01b8152fd5b8451635180dd8360e11b8152fd5b602490855190630f51ed7160e41b82523290820152fd5b50328352606760205260ff858420541615610bc4565b602084610446610cec36611796565b97969096959195949294612155565b509190610d0736611801565b94919297909395610d1d60ff6033541615611922565b8760ff60665460a01c169182610d74575b5050610477576001600160401b03821161044d575060209693610d6c936104469693610423938951978896349360018060a01b0316928d89016119a7565b349033611b62565b60ff92503281526067602052205416158738610d2e565b509190610d9736611796565b9a94939098610db160ff6033999499989598541615611922565b8a60ff60665460a01c169182610e9e575b5050610e8857838195610de8610dd88587611ebf565b610de28b8b611ee2565b90611ebf565b3410610e5457509161044699979593918360209d9a9896943b610e35575b50803b610e16575b503496611ef5565b6001600160a01b0390811661111161111160901b010116935038610e0e565b6001600160a01b0390811661111161111160901b010116935038610e06565b6044908c610e708a610de28d610e6a8a8c611ebf565b92611ee2565b9051631c102d6360e21b815291820152346024820152fd5b8951630f51ed7160e41b81523281870152602490fd5b60ff92503281526067602052205416158a38610dc2565b50829060803660031901126102ee57803590610ecf6116e5565b936001600160401b03916064358381116102ee57610ef09036908301611716565b939092610f0260ff6033541615611922565b8660ff60665460a01c169182610f4f575b5050610a14578411610a0657508351602095610446949193610d6c9385936104239334916001600160a01b039091169060243590878d016119dc565b60ff92503281526067602052205416158689610f13565b8284346102f257816003193601126102f25760209060ff6033541690519015158152f35b508290346102ee57610f9b36611743565b959296909498610fb360ff6033969496541615611922565b8860ff60665460a01c169182611026575b505061100f576001600160401b0383116110015750936108c99361044696936104239360209a978a5198899760018060a01b0316928d89016119a7565b875163107c527b60e01b8152fd5b602490885190630f51ed7160e41b82523290820152fd5b60ff9250328152606760205220541615888b610fc4565b50346102f257826003193601126102f257611056611700565b6001600160a01b039190602435838116908190036107475784549260ff8460081c16908160001461119257303b155b1561113857509061110b9291159384611127575b506110c8857f000000000000000000000000000000000000000000000000000000000000000016301415611c28565b85549460ff8660081c16926110dc84611c89565b1660018060a01b0319606554161760655560018060a81b0319606654161760665561110681611c89565b611c89565b60ff196033541660335561111d575080f35b61ff001916815580f35b61ffff191661010117865586611099565b608490602089519162461bcd60e51b8352820152602e60248201527f496e697469616c697a61626c653a20636f6e747261637420697320616c72656160448201526d191e481a5b9a5d1a585b1a5e995960921b6064820152fd5b60ff851615611085565b8284816003193601126102f257602090610446611ce9565b5091346102f257816003193601126102f257606554815163cb23bcb560e01b8152602092916001600160a01b039190849082908890829086165afa9081156113095790829186916112ec575b501690813303611285575b50506033549360ff85161561124d57507f5db9ee0a495bf2e6ff9c91a7834c1ba4fdd244a5e8aa4e537bd38aeae4b073aa929360ff191660335551338152a180f35b82606492519162461bcd60e51b8352820152601460248201527314185d5cd8589b194e881b9bdd081c185d5cd95960621b6044820152fd5b8251638da5cb5b60e01b81529084828881865afa918215610b6d5786926112cd575b50811633031561120b578251630739600760e01b81529182916102869133848a016118d5565b6112e5919250853d87116102b2576102a3818361187c565b90386112a7565b6113039150853d87116102b2576102a3818361187c565b38611200565b83513d87823e3d90fd5b8284346102f257816003193601126102f25760209060ff60665460a01c1690519015158152f35b5091346102f257602092836003193601126102ee5780356001600160401b0381116102ea5761136c9036908301611716565b61137b60ff6033541615611922565b60ff60665460a01c16806114fe575b6114e857467f0000000000000000000000000000000000000000000000000000000000000000036114d8573233036114c8577f00000000000000000000000000000000000000000000000000000000000000008082116114ad575060646113f687936003933691611961565b8051908401206065548651638db5993b60e01b8152958601939093526001600160a01b0361111161111160901b013301811660248701526044860191909152849283918891165af19081156114a1578391611466575b506000805160206122198339815191528192519380a28152f35b90508381813d831161149a575b61147d818361187c565b810103126102ee575160008051602061221983398151915261144c565b503d611473565b505051903d90823e3d90fd5b91506044935192634634691b60e01b84528301526024820152fd5b835163feb3d07160e01b81528390fd5b835163c6ea680360e01b81528390fd5b8351630f51ed7160e41b81523281850152602490fd5b503285526067865260ff84862054161561138a565b509061151e36611796565b99909861153960ff60339a949a999599989698541615611922565b8b60ff60665460a01c16918261157b575b50506115645760208b6104468c8c8c8c8c8c8c8c8c612155565b6024908b5190630f51ed7160e41b82523290820152fd5b60ff92503281526067602052205416158b3861154a565b5090602036600319011261076a576115af60ff6033541615611922565b8260ff60665460a01c1691826115e7575b50506115d157602082610446611ce9565b6024915190630f51ed7160e41b82523290820152fd5b60ff925032815260676020522054161582386115c0565b508290346102ee5761160f36611743565b949591929690939861162660ff6033541615611922565b8860ff60665460a01c1691826116ce575b505061100f57467f0000000000000000000000000000000000000000000000000000000000000000146116c0573233036116b2576001600160401b03821161100157506104469593610c819360209996936116a4938a5198899660018060a01b03809a16928e89016119a7565b03601f19810184528361187c565b875163feb3d07160e01b8152fd5b8751635180dd8360e11b8152fd5b60ff9250328152606760205220541615888b611637565b604435906001600160a01b03821682036116fb57565b600080fd5b600435906001600160a01b03821682036116fb57565b9181601f840112156116fb578235916001600160401b0383116116fb57602083818601950101116116fb57565b9060c06003198301126116fb576004359160243591604435916064356001600160a01b03811681036116fb57916084359160a435906001600160401b0382116116fb5761179291600401611716565b9091565b6101006003198201126116fb576001600160a01b039160043583811681036116fb5792602435926044359260643583811681036116fb579260843590811681036116fb579160a4359160c4359160e435906001600160401b0382116116fb5761179291600401611716565b60a06003198201126116fb576004359160243591604435916064356001600160a01b03811681036116fb5791608435906001600160401b0382116116fb5761179291600401611716565b606081019081106001600160401b0382111761186657604052565b634e487b7160e01b600052604160045260246000fd5b601f909101601f19168101906001600160401b0382119082101761186657604052565b6001600160401b0381116118665760051b60200190565b908160209103126116fb57516001600160a01b03811681036116fb5790565b6001600160a01b0391821681529181166020830152909116604082015260600190565b805182101561190c5760209160051b010190565b634e487b7160e01b600052603260045260246000fd5b1561192957565b60405162461bcd60e51b815260206004820152601060248201526f14185d5cd8589b194e881c185d5cd95960821b6044820152606490fd5b9192916001600160401b038211611866576040519161198a601f8201601f19166020018461187c565b8294818452818301116116fb578281602093846000960137010152565b94919287969360a198959260008852600188015260218701526041860152606185015260818401528483013701016000815290565b93909286959260819794600160f81b875260018701526021860152604185015260618401528483013701016000815290565b60005b838110611a215750506000910152565b8181015183820152602001611a11565b81517f0000000000000000000000000000000000000000000000000000000000000000808211611b4457505081516020808401918220606554604051638db5993b60e01b8152600360048201526001600160a01b0395861661111161111160901b01018616602482015260448101929092529093919291839185916064918391600091165af1928315611b3857600093611b08575b5090604083946000805160206121d983398151915293611af88351948593818552519283809286015285850190611a0e565b601f01601f19168101030190a290565b90928282813d8311611b31575b611b1f818361187c565b8101031261076a575051916040611ac6565b503d611b15565b6040513d6000823e3d90fd5b6044925060405191634634691b60e01b835260048301526024820152fd5b909182517f0000000000000000000000000000000000000000000000000000000000000000808211611b4457505082516020808501918220606554604051638db5993b60e01b8152600760048201526001600160a01b0396871661111161111160901b0101871660248201526044810192909252909491938492869260649284929091165af1928315611b3857600093611b08575090604083946000805160206121d983398151915293611af88351948593818552519283809286015285850190611a0e565b15611c2f57565b60405162461bcd60e51b815260206004820152602c60248201527f46756e6374696f6e206d7573742062652063616c6c6564207468726f7567682060448201526b19195b1959d85d1958d85b1b60a21b6064820152608490fd5b15611c9057565b60405162461bcd60e51b815260206004820152602b60248201527f496e697469616c697a61626c653a20636f6e7472616374206973206e6f74206960448201526a6e697469616c697a696e6760a81b6064820152608490fd5b611cf860ff6033541615611922565b60ff60665460a01c1680611ea6575b611e8e5733803b15801590611e84575b611e6b575b6040805160609290921b6001600160601b03191660208084019182523460348086019190915284529091611d4f8461184b565b83517f0000000000000000000000000000000000000000000000000000000000000000808211611e50575050835183206065548251638db5993b60e01b8152600c60048201526001600160a01b0361111161111160901b01330181166024830152604482019390935294918491869160649183913491165af1938415611e4557600094611e08575b509083946000805160206121d98339815191529392611af88351948593818552519283809286015285850190611a0e565b90938382813d8311611e3e575b611e1f818361187c565b8101031261076a575051926000805160206121d9833981519152611dd7565b503d611e15565b82513d6000823e3d90fd5b6044925191634634691b60e01b835260048301526024820152fd5b61111161111160901b01016001600160a01b0316611d1c565b5080321415611d17565b604051630f51ed7160e41b8152326004820152602490fd5b5032600052606760205260ff6040600020541615611d07565b91908201809211611ecc57565b634e487b7160e01b600052601160045260246000fd5b81810292918115918404141715611ecc57565b9592999893909794919960018314801561214b575b6120c8576001600160401b0383116120b657611f2648866121a6565b808c106120985750611fa6969798999a6040519a60208c019960018060a01b03168a5260408c01528960608c015260808b015260018060a01b031660a08a015260018060a01b031660c089015260e0880152610100870152856101209180838301528061014094858401378101600084820152039081018652018461187c565b82517f0000000000000000000000000000000000000000000000000000000000000000808211611b4457505082518120606554604051638db5993b60e01b8152600960048201526001600160a01b0361111161111160901b01330181166024830152604482019390935293602092859260649284929091165af1918215611b3857600092612062575b50611af8604083946000805160206121d98339815191529382519384926020845251809281602086015285850190611a0e565b90916020823d602011612090575b8161207d6020938361187c565b8101031261076a57505190611af861202f565b3d9150612070565b6044908c60405191637d6f91c560e11b835260048301526024820152fd5b60405163107c527b60e01b8152600490fd5b908a9795968992604051998a986307c266e360e01b8a523360048b015260018060a01b03958680951660248c015260448b015260648a015260848901521660a48701521660c485015260e4840152610104830152610140610124830152806101448301528061016493848401376000828201840152601f01601f19168101030190fd5b5060018414611f0a565b949290979695939161216c60ff6033541615611922565b60ff60665460a01c168061218d575b611e8e5761218a983496611ef5565b90565b5032600052606760205260ff604060002054161561217b565b80600602906006820403611ecc57610578908101809111611ecc5761218a91806121d257504890611ee2565b90611ee256feff64905f73a67fb594e0f940a8075a860db489ad991e032f48c81123eb52d60bb53127684a568b3173ae13b9f8a6016e243e63b6e8ee1178d6a717850b5d6103ab532385be8f1005a4b6ba8fa20a2245facb346134ac739fe9a5198dc1580b9ca2646970667358221220c32fce498d94fa83b3f506b2a2eb391d76ecbbbf59082932d8ff5feba66377a864736f6c63430008130033",
  "linkReferences": {},
  "deployedLinkReferences": {}
}