{
  "_format": "hh-sol-artifact-1",
  "contractName": "SingleExecutionChallenge",
  "sourceName": "src/mocks/SingleExecutionChallenge.sol",
  "abi": [
    {
      "inputs": [
        {
          "internalType": "contract IOneStepProofEntry",
          "name": "osp_",
          "type": "address"
        },
        {
          "internalType": "contract IChallengeResultReceiver",
          "name": "resultReceiver_",
          "type": "address"
        },
        {
          "internalType": "uint64",
          "name": "maxInboxMessagesRead_",
          "type": "uint64"
        },
        {
          "internalType": "bytes32[2]",
          "name": "startAndEndHashes",
          "type": "bytes32[2]"
        },
        {
          "internalType": "uint256",
          "name": "numSteps_",
          "type": "uint256"
        },
        {
          "internalType": "address",
          "name": "asserter_",
          "type": "address"
        },
        {
          "internalType": "address",
          "name": "challenger_",
          "type": "address"
        },
        {
          "internalType": "uint256",
          "name": "asserterTimeLeft_",
          "type": "uint256"
        },
        {
          "internalType": "uint256",
          "name": "challengerTimeLeft_",
          "type": "uint256"
        }
      ],
      "stateMutability": "nonpayable",
      "type": "constructor"
    },
    {
      "inputs": [
        {
          "internalType": "address",
          "name": "sender",
          "type": "address"
        },
        {
          "internalType": "address",
          "name": "owner",
          "type": "address"
        }
      ],
      "name": "NotOwner",
      "type": "error"
    },
    {
      "anonymous": false,
      "inputs": [
        {
          "indexed": true,
          "internalType": "uint64",
          "name": "challengeIndex",
          "type": "uint64"
        },
        {
          "indexed": true,
          "internalType": "bytes32",
          "name": "challengeRoot",
          "type": "bytes32"
        },
        {
          "indexed": false,
          "internalType": "uint256",
          "name": "challengedSegmentStart",
          "type": "uint256"
        },
        {
          "indexed": false,
          "internalType": "uint256",
          "name": "challengedSegmentLength",
          "type": "uint256"
        },
        {
          "indexed": false,
          "internalType": "bytes32[]",
          "name": "chainHashes",
          "type": "bytes32[]"
        }
      ],
      "name": "Bisected",
      "type": "event"
    },
    {
      "anonymous": false,
      "inputs": [
        {
          "indexed": true,
          "internalType": "uint64",
          "name": "challengeIndex",
          "type": "uint64"
        },
        {
          "indexed": false,
          "internalType": "enum IChallengeManager.ChallengeTerminationType",
          "name": "kind",
          "type": "uint8"
        }
      ],
      "name": "ChallengeEnded",
      "type": "event"
    },
    {
      "anonymous": false,
      "inputs": [
        {
          "indexed": true,
          "internalType": "uint64",
          "name": "challengeIndex",
          "type": "uint64"
        },
        {
          "indexed": false,
          "internalType": "uint256",
          "name": "blockSteps",
          "type": "uint256"
        }
      ],
      "name": "ExecutionChallengeBegun",
      "type": "event"
    },
    {
      "anonymous": false,
      "inputs": [
        {
          "indexed": true,
          "internalType": "uint64",
          "name": "challengeIndex",
          "type": "uint64"
        },
        {
          "components": [
            {
              "internalType": "bytes32[2]",
              "name": "bytes32Vals",
              "type": "bytes32[2]"
            },
            {
              "internalType": "uint64[2]",
              "name": "u64Vals",
              "type": "uint64[2]"
            }
          ],
          "indexed": false,
          "internalType": "struct GlobalState",
          "name": "startState",
          "type": "tuple"
        },
        {
          "components": [
            {
              "internalType": "bytes32[2]",
              "name": "bytes32Vals",
              "type": "bytes32[2]"
            },
            {
              "internalType": "uint64[2]",
              "name": "u64Vals",
              "type": "uint64[2]"
            }
          ],
          "indexed": false,
          "internalType": "struct GlobalState",
          "name": "endState",
          "type": "tuple"
        }
      ],
      "name": "InitiatedChallenge",
      "type": "event"
    },
    {
      "anonymous": false,
      "inputs": [
        {
          "indexed": true,
          "internalType": "uint64",
          "name": "challengeIndex",
          "type": "uint64"
        }
      ],
      "name": "OneStepProofCompleted",
      "type": "event"
    },
    {
      "inputs": [
        {
          "internalType": "uint64",
          "name": "challengeIndex",
          "type": "uint64"
        },
        {
          "components": [
            {
              "internalType": "uint256",
              "name": "oldSegmentsStart",
              "type": "uint256"
            },
            {
              "internalType": "uint256",
              "name": "oldSegmentsLength",
              "type": "uint256"
            },
            {
              "internalType": "bytes32[]",
              "name": "oldSegments",
              "type": "bytes32[]"
            },
            {
              "internalType": "uint256",
              "name": "challengePosition",
              "type": "uint256"
            }
          ],
          "internalType": "struct ChallengeLib.SegmentSelection",
          "name": "selection",
          "type": "tuple"
        },
        {
          "internalType": "bytes32[]",
          "name": "newSegments",
          "type": "bytes32[]"
        }
      ],
      "name": "bisectExecution",
      "outputs": [],
      "stateMutability": "nonpayable",
      "type": "function"
    },
    {
      "inputs": [],
      "name": "bridge",
      "outputs": [
        {
          "internalType": "contract IBridge",
          "name": "",
          "type": "address"
        }
      ],
      "stateMutability": "view",
      "type": "function"
    },
    {
      "inputs": [
        {
          "internalType": "uint64",
          "name": "challengeIndex",
          "type": "uint64"
        },
        {
          "components": [
            {
              "internalType": "uint256",
              "name": "oldSegmentsStart",
              "type": "uint256"
            },
            {
              "internalType": "uint256",
              "name": "oldSegmentsLength",
              "type": "uint256"
            },
            {
              "internalType": "bytes32[]",
              "name": "oldSegments",
              "type": "bytes32[]"
            },
            {
              "internalType": "uint256",
              "name": "challengePosition",
              "type": "uint256"
            }
          ],
          "internalType": "struct ChallengeLib.SegmentSelection",
          "name": "selection",
          "type": "tuple"
        },
        {
          "internalType": "enum MachineStatus[2]",
          "name": "machineStatuses",
          "type": "uint8[2]"
        },
        {
          "internalType": "bytes32[2]",
          "name": "globalStateHashes",
          "type": "bytes32[2]"
        },
        {
          "internalType": "uint256",
          "name": "numSteps",
          "type": "uint256"
        }
      ],
      "name": "challengeExecution",
      "outputs": [],
      "stateMutability": "nonpayable",
      "type": "function"
    },
    {
      "inputs": [
        {
          "internalType": "uint64",
          "name": "challengeIndex",
          "type": "uint64"
        }
      ],
      "name": "challengeInfo",
      "outputs": [
        {
          "components": [
            {
              "components": [
                {
                  "internalType": "address",
                  "name": "addr",
                  "type": "address"
                },
                {
                  "internalType": "uint256",
                  "name": "timeLeft",
                  "type": "uint256"
                }
              ],
              "internalType": "struct ChallengeLib.Participant",
              "name": "current",
              "type": "tuple"
            },
            {
              "components": [
                {
                  "internalType": "address",
                  "name": "addr",
                  "type": "address"
                },
                {
                  "internalType": "uint256",
                  "name": "timeLeft",
                  "type": "uint256"
                }
              ],
              "internalType": "struct ChallengeLib.Participant",
              "name": "next",
              "type": "tuple"
            },
            {
              "internalType": "uint256",
              "name": "lastMoveTimestamp",
              "type": "uint256"
            },
            {
              "internalType": "bytes32",
              "name": "wasmModuleRoot",
              "type": "bytes32"
            },
            {
              "internalType": "bytes32",
              "name": "challengeStateHash",
              "type": "bytes32"
            },
            {
              "internalType": "uint64",
              "name": "maxInboxMessages",
              "type": "uint64"
            },
            {
              "internalType": "enum ChallengeLib.ChallengeMode",
              "name": "mode",
              "type": "uint8"
            }
          ],
          "internalType": "struct ChallengeLib.Challenge",
          "name": "",
          "type": "tuple"
        }
      ],
      "stateMutability": "view",
      "type": "function"
    },
    {
      "inputs": [
        {
          "internalType": "uint256",
          "name": "",
          "type": "uint256"
        }
      ],
      "name": "challenges",
      "outputs": [
        {
          "components": [
            {
              "internalType": "address",
              "name": "addr",
              "type": "address"
            },
            {
              "internalType": "uint256",
              "name": "timeLeft",
              "type": "uint256"
            }
          ],
          "internalType": "struct ChallengeLib.Participant",
          "name": "current",
          "type": "tuple"
        },
        {
          "components": [
            {
              "internalType": "address",
              "name": "addr",
              "type": "address"
            },
            {
              "internalType": "uint256",
              "name": "timeLeft",
              "type": "uint256"
            }
          ],
          "internalType": "struct ChallengeLib.Participant",
          "name": "next",
          "type": "tuple"
        },
        {
          "internalType": "uint256",
          "name": "lastMoveTimestamp",
          "type": "uint256"
        },
        {
          "internalType": "bytes32",
          "name": "wasmModuleRoot",
          "type": "bytes32"
        },
        {
          "internalType": "bytes32",
          "name": "challengeStateHash",
          "type": "bytes32"
        },
        {
          "internalType": "uint64",
          "name": "maxInboxMessages",
          "type": "uint64"
        },
        {
          "internalType": "enum ChallengeLib.ChallengeMode",
          "name": "mode",
          "type": "uint8"
        }
      ],
      "stateMutability": "view",
      "type": "function"
    },
    {
      "inputs": [
        {
          "internalType": "uint64",
          "name": "challengeIndex",
          "type": "uint64"
        }
      ],
      "name": "clearChallenge",
      "outputs": [],
      "stateMutability": "nonpayable",
      "type": "function"
    },
    {
      "inputs": [
        {
          "internalType": "bytes32",
          "name": "wasmModuleRoot_",
          "type": "bytes32"
        },
        {
          "internalType": "enum MachineStatus[2]",
          "name": "startAndEndMachineStatuses_",
          "type": "uint8[2]"
        },
        {
          "components": [
            {
              "internalType": "bytes32[2]",
              "name": "bytes32Vals",
              "type": "bytes32[2]"
            },
            {
              "internalType": "uint64[2]",
              "name": "u64Vals",
              "type": "uint64[2]"
            }
          ],
          "internalType": "struct GlobalState[2]",
          "name": "startAndEndGlobalStates_",
          "type": "tuple[2]"
        },
        {
          "internalType": "uint64",
          "name": "numBlocks",
          "type": "uint64"
        },
        {
          "internalType": "address",
          "name": "asserter_",
          "type": "address"
        },
        {
          "internalType": "address",
          "name": "challenger_",
          "type": "address"
        },
        {
          "internalType": "uint256",
          "name": "asserterTimeLeft_",
          "type": "uint256"
        },
        {
          "internalType": "uint256",
          "name": "challengerTimeLeft_",
          "type": "uint256"
        }
      ],
      "name": "createChallenge",
      "outputs": [
        {
          "internalType": "uint64",
          "name": "",
          "type": "uint64"
        }
      ],
      "stateMutability": "nonpayable",
      "type": "function"
    },
    {
      "inputs": [
        {
          "internalType": "uint64",
          "name": "challengeIndex",
          "type": "uint64"
        }
      ],
      "name": "currentResponder",
      "outputs": [
        {
          "internalType": "address",
          "name": "",
          "type": "address"
        }
      ],
      "stateMutability": "view",
      "type": "function"
    },
    {
      "inputs": [
        {
          "internalType": "bytes32",
          "name": "wasmModuleRoot",
          "type": "bytes32"
        }
      ],
      "name": "getOsp",
      "outputs": [
        {
          "internalType": "contract IOneStepProofEntry",
          "name": "",
          "type": "address"
        }
      ],
      "stateMutability": "view",
      "type": "function"
    },
    {
      "inputs": [
        {
          "internalType": "contract IChallengeResultReceiver",
          "name": "resultReceiver_",
          "type": "address"
        },
        {
          "internalType": "contract ISequencerInbox",
          "name": "sequencerInbox_",
          "type": "address"
        },
        {
          "internalType": "contract IBridge",
          "name": "bridge_",
          "type": "address"
        },
        {
          "internalType": "contract IOneStepProofEntry",
          "name": "osp_",
          "type": "address"
        }
      ],
      "name": "initialize",
      "outputs": [],
      "stateMutability": "nonpayable",
      "type": "function"
    },
    {
      "inputs": [
        {
          "internalType": "uint64",
          "name": "challengeIndex",
          "type": "uint64"
        }
      ],
      "name": "isTimedOut",
      "outputs": [
        {
          "internalType": "bool",
          "name": "",
          "type": "bool"
        }
      ],
      "stateMutability": "view",
      "type": "function"
    },
    {
      "inputs": [
        {
          "internalType": "uint64",
          "name": "challengeIndex",
          "type": "uint64"
        },
        {
          "components": [
            {
              "internalType": "uint256",
              "name": "oldSegmentsStart",
              "type": "uint256"
            },
            {
              "internalType": "uint256",
              "name": "oldSegmentsLength",
              "type": "uint256"
            },
            {
              "internalType": "bytes32[]",
              "name": "oldSegments",
              "type": "bytes32[]"
            },
            {
              "internalType": "uint256",
              "name": "challengePosition",
              "type": "uint256"
            }
          ],
          "internalType": "struct ChallengeLib.SegmentSelection",
          "name": "selection",
          "type": "tuple"
        },
        {
          "internalType": "bytes",
          "name": "proof",
          "type": "bytes"
        }
      ],
      "name": "oneStepProveExecution",
      "outputs": [],
      "stateMutability": "nonpayable",
      "type": "function"
    },
    {
      "inputs": [],
      "name": "osp",
      "outputs": [
        {
          "internalType": "contract IOneStepProofEntry",
          "name": "",
          "type": "address"
        }
      ],
      "stateMutability": "view",
      "type": "function"
    },
    {
      "inputs": [
        {
          "internalType": "bytes32",
          "name": "",
          "type": "bytes32"
        }
      ],
      "name": "ospCond",
      "outputs": [
        {
          "internalType": "contract IOneStepProofEntry",
          "name": "",
          "type": "address"
        }
      ],
      "stateMutability": "view",
      "type": "function"
    },
    {
      "inputs": [
        {
          "internalType": "contract IOneStepProofEntry",
          "name": "osp_",
          "type": "address"
        },
        {
          "internalType": "bytes32",
          "name": "condRoot",
          "type": "bytes32"
        },
        {
          "internalType": "contract IOneStepProofEntry",
          "name": "condOsp",
          "type": "address"
        }
      ],
      "name": "postUpgradeInit",
      "outputs": [],
      "stateMutability": "nonpayable",
      "type": "function"
    },
    {
      "inputs": [],
      "name": "resultReceiver",
      "outputs": [
        {
          "internalType": "contract IChallengeResultReceiver",
          "name": "",
          "type": "address"
        }
      ],
      "stateMutability": "view",
      "type": "function"
    },
    {
      "inputs": [],
      "name": "sequencerInbox",
      "outputs": [
        {
          "internalType": "contract ISequencerInbox",
          "name": "",
          "type": "address"
        }
      ],
      "stateMutability": "view",
      "type": "function"
    },
    {
      "inputs": [
        {
          "internalType": "uint64",
          "name": "challengeIndex",
          "type": "uint64"
        }
      ],
      "name": "timeout",
      "outputs": [],
      "stateMutability": "nonpayable",
      "type": "function"
    },
    {
      "inputs": [],
      "name": "totalChallengesCreated",
      "outputs": [
        {
          "internalType": "uint64",
          "name": "",
          "type": "uint64"
        }
      ],
      "stateMutability": "view",
      "type": "function"
    }
  ],
  "bytecode": "0x60a080604052346200038757620027ba8038038091620000208285620003a8565b8339810161014082820312620003875781516001600160a01b0381169290839003620003875760208101516001600160a01b0381169081900362000387576040820151936001600160401b03918286168603620003875784607f8501121562000387576040519462000092866200038c565b8560a08601918211620003875760608601905b828210620003765750505193620000bf60c08201620003cc565b96620000ce60e08301620003cc565b92610120610100840151930151943060805260018060a01b0319600554161760055560018060a01b03196002541617600255600054938585169486861462000360576001600160401b0319166001868101881691821760009081559182526020526040908190206007810154915199909591949060608b01898111908c11176200034a5760608b0160405260028b5260403660208d01378051908b51156200033457602091828d015201518a5160011015620003345790889493929160408c0152604051600060208201528a60408201528b60608201602082519192019060005b8181106200031a575050509181620001e26007999795936802000000000000000099979503601f198101835282620003a8565b602081519101209d8e60068b01558160206040519262000202846200038c565b6001600160a01b031680845292015260028a0180546001600160a01b031916909117905560038901556040519082906020906200023f846200038c565b6001600160a01b031680845292015287546001600160a01b03191617875560018701554260048701556001600160481b03199092169116171791015560408051600080825260208083019690965260609282018390528651928201839052608082019691959190910191905b818110620003035750505091809160017f86b34e9455464834eca718f62d4481437603bb929d8a78ccde5d1bc79fa06d68940116930390a36040516123d89081620003e282396080518181816101b5015261078c0152f35b8251875260209687019690920191600101620002ab565b825184528d995060209384019390920191600101620001af565b634e487b7160e01b600052603260045260246000fd5b634e487b7160e01b600052604160045260246000fd5b634e487b7160e01b600052601160045260246000fd5b8151815260209182019101620000a5565b600080fd5b604081019081106001600160401b038211176200034a57604052565b601f909101601f19168101906001600160401b038211908210176200034a57604052565b51906001600160a01b0382168203620003875756fe608080604052600436101561001357600080fd5b600090813560e01c90816314eab5e714610a1f575080631b45c86a146108c157806323a9ef23146108805780633504f1d7146108575780633690b011146108265780635038934d1461075057806356e9df97146106815780635ef489e61461065a5780637fd07a9c1461051a5780638f1d37761461047a5780639ede42b914610437578063a521b032146103b9578063d248d1241461033e578063dc74bf8b1461030b578063e78cea92146102e2578063ee35f327146102b9578063f26a62c614610290578063f8c8765e1461015e5763fb7be0a1146100f257600080fd5b3461015b5760031960e0368201126101575761010c610e9e565b90602435906001600160401b03821161015357608090823603011261014f573660841161014f573660c41161014f5761014c9160c43591600401906118a0565b80f35b8280fd5b8380fd5b5080fd5b80fd5b503461015b57608036600319011261015b576004356001600160a01b038181169182900361014f57602435818116809103610153576044359082821680920361028c5760643593838516809503610287576101dd847f000000000000000000000000000000000000000000000000000000000000000016301415610fb1565b6002549384166102535780156102195760018060a01b031980941617600255826003541617600355816004541617600455600554161760055580f35b60405162461bcd60e51b81526020600482015260126024820152712727afa922a9aaa62a2fa922a1a2a4ab22a960711b6044820152606490fd5b60405162461bcd60e51b815260206004820152600c60248201526b1053149150511657d253925560a21b6044820152606490fd5b600080fd5b8480fd5b503461015b578060031936011261015b576005546040516001600160a01b039091168152602090f35b503461015b578060031936011261015b576003546040516001600160a01b039091168152602090f35b503461015b578060031936011261015b576004546040516001600160a01b039091168152602090f35b503461015b57602036600319011261015b57602090600435815260068252604060018060a01b0391205416604051908152f35b503461015b5760031960603682011261015757610359610e9e565b906001600160401b03906024359082821161028c576080908236030112610153576044359282841161028c573660238501121561028c57836004013592831161028c57366024848601011161028c57602461014c94019160040190611e2a565b503461015b57600319606036820112610157576103d4610e9e565b906001600160401b03906024359082821161028c576080908236030112610153576044359282841161028c573660238501121561028c57836004013592831161028c573660248460051b8601011161028c57602461014c9401916004019061146f565b503461015b57602036600319011261015b57602090610470906040906001600160401b03610463610e9e565b1681526001845220612138565b6040519015158152f35b503461015b57602036600319011261015b5760406101209160043581526001602052206104a681610f8a565b906104b360028201610f8a565b90600481015490600581015460076006830154920154926104ec60ff8560401c16956104e26040518099610ec8565b6040880190610ec8565b608086015260a085015260c08401526001600160401b031660e083015261051281610ee0565b610100820152f35b503461015b57602080600319360112610157579061012091604061053c610e9e565b928060c0835161054b81610f31565b845161055681610f00565b600081526000878201528152845161056d81610f00565b600081526000878201528682015282858201528260608201528260808201528260a08201520152600180831b038094168152600183522091604051926105b284610f31565b6105bb81610f8a565b84526105c960028201610f8a565b9284019283526004810154906040850191825260058101546060860190815260076006830154926080880193845201549261063760ff60a0890195878116875260401c169660c089019761061c81610ee0565b885261062c604051809a51610ec8565b516040890190610ec8565b5160808701525160a08601525160c0850152511660e08301525161051281610ee0565b503461015b578060031936011261015b57546040516001600160401b039091168152602090f35b503461015b57602036600319011261015b5761069b610e9e565b6002546001600160a01b03163303610718576001600160401b031680825260016020526040808320600701546106e8911c60ff166106d881610ee0565b6106e06112e9565b90151561130c565b80825260016020526106fc60408320612108565b600080516020612363833981519152602060405160038152a280f35b60405162461bcd60e51b815260206004820152601060248201526f2727aa2fa922a9afa922a1a2a4ab22a960811b6044820152606490fd5b503461015b57606036600319011261015b576004356001600160a01b03818116918290036102875760443590808216809203610287576107b4817f000000000000000000000000000000000000000000000000000000000000000016301415610fb1565b7fb53127684a568b3173ae13b9f8a6016e243e63b6e8ee1178d6a717850b5d610354168033036108085750602435835260066020526040832060018060a01b03199182825416179055600554161760055580f35b60449060405190631194af8760e11b82523360048301526024820152fd5b503461015b57602036600319011261015b576020610845600435611012565b6040516001600160a01b039091168152f35b503461015b578060031936011261015b576002546040516001600160a01b039091168152602090f35b503461015b57602036600319011261015b576020906001600160401b036108a5610e9e565b16815260018252604060018060a01b0391205416604051908152f35b503461015b57602080600319360112610157576001600160401b0390816108e6610e9e565b16918284526001825261090960ff600760408720015460401c166106d881610ee0565b8284526001825261091c60408520612138565b156109e7578284526001825260408420908460018060a01b0392836002820154169361094b8183541692612108565b6002541693843b1561014f57606490836040519687948593630357aa4960e01b85528b6004860152602485015260448401525af180156109dc576109a6575b505060008051602061236383398151915290604051848152a280f35b81949294116109c857604052916000805160206123638339815191523861098a565b634e487b7160e01b82526041600452602482fd5b6040513d87823e3d90fd5b60405162461bcd60e51b815260048101839052601060248201526f54494d454f55545f444541444c494e4560801b6044820152606490fd5b90503461015757610200366003190112610157573660641161015757366101641161015757610164356001600160401b038116810361014f5761018435906001600160a01b03808316830361028c576101a435938185168503610e3d5781600254163303610e69575060405192610a9584610f4c565b60028452604036602086013760046024351015610e3d576080366063190112610e3d57604051610ac481610f00565b3660831215610e2557604051610ad981610f00565b803660a411610e39576064905b60a48210610e5957505081523660c31215610e2557604051610b0781610f00565b803660e411610e395760a4905b60e48210610e4157505081610b30916020610b389401526122e9565b60243561116e565b610b41856110f0565b5260046044351015610e3d5760803660e3190112610e3d57604051610b6581610f00565b366101031215610e2557604051610b7b81610f00565b803661012411610e395760e4905b6101248210610e295750508152366101431215610e2557604051610bac81610f00565b610124815b6101648210610e0d57505081610bce916020610bd69401526122e9565b60443561116e565b610bdf85611113565b52855494610bf56001600160401b038716611123565b6001600160401b03199096166001600160401b0387169081178855610c1b901515611151565b6001600160401b038681168852600160209081526040892060043560058201559190610c45611048565b0151511692610c5560443561103e565b6002604435148015610ded575b610dd9575b602090600783019586549483604051610c7f81610f00565b9383168085526101c435919094018190526002860180546001600160a01b031990811690951790556003860155604051610cb881610f00565b91168082526101e4359390910183905283549091161782556001820155426004909101556001600160481b0319166001600160401b0390911617600160401b17905560408051906064823760a485604083015b60028210610db157505050604060e460808301376101249460c082015b60028210610d8957602086610d7787876001600160401b0384167f76604fe17af46c9b5f53ffe99ff23e0f655dab91886b07ac1fc0254319f7145a6101008aa26001600160401b031683612201565b6040516001600160401b039091168152f35b60019060209081906001600160401b03610da28b610eb4565b16815201970191019095610d28565b60019060209081906001600160401b03610dca87610eb4565b16815201930191019091610d0b565b92610de5602091611123565b939050610c67565b506001600160401b03602080610e01611048565b01510151161515610c62565b60208091610e1a84610eb4565b815201910190610bb1565b8680fd5b8135815260209182019101610b89565b8880fd5b8580fd5b60208091610e4e84610eb4565b815201910190610b14565b8135815260209182019101610ae6565b62461bcd60e51b815260206004820152601060248201526f13d3931657d493d313155417d0d2105360821b6044820152606490fd5b600435906001600160401b038216820361028757565b35906001600160401b038216820361028757565b80516001600160a01b03168252602090810151910152565b60031115610eea57565b634e487b7160e01b600052602160045260246000fd5b604081019081106001600160401b03821117610f1b57604052565b634e487b7160e01b600052604160045260246000fd5b60e081019081106001600160401b03821117610f1b57604052565b606081019081106001600160401b03821117610f1b57604052565b601f909101601f19168101906001600160401b03821190821017610f1b57604052565b90604051610f9781610f00565b82546001600160a01b031681526001909201546020830152565b15610fb857565b60405162461bcd60e51b815260206004820152602c60248201527f46756e6374696f6e206d7573742062652063616c6c6564207468726f7567682060448201526b19195b1959d85d1958d85b1b60a21b6064820152608490fd5b6000908152600660205260409020546001600160a01b039081168061103957506005541690565b905090565b60041115610eea57565b60803660e31901126102875760405161106081610f00565b3661010312156102875760405161107681610f00565b80610124913683116102875760e4905b8382106110e0575050825236610143121561028757604051906110a882610f00565b816101649136831161028757905b8282106110c857505050602082015290565b602080916110d584610eb4565b8152019101906110b6565b8135815260209182019101611086565b8051156110fd5760200190565b634e487b7160e01b600052603260045260246000fd5b8051600110156110fd5760400190565b6001600160401b0390811690811461113b5760010190565b634e487b7160e01b600052601160045260246000fd5b1561115857565b634e487b7160e01b600052600160045260246000fd5b6111778161103e565b600181036111b2575060405160208101916b213637b1b59039ba30ba329d60a11b8352602c820152602c81526111ac81610f4c565b51902090565b6111bb8161103e565b600281036111f95750604051602081019174213637b1b59039ba30ba32961032b93937b932b21d60591b83526035820152603581526111ac81610f4c565b600391506112068161103e565b0361123b57604051602081019074213637b1b59039ba30ba3296103a37b7903330b91d60591b8252601581526111ac81610f00565b60405162461bcd60e51b815260206004820152601060248201526f4241445f424c4f434b5f53544154555360801b6044820152606490fd5b1561127a57565b60405162461bcd60e51b815260206004820152600b60248201526a21a420a62fa9a2a72222a960a91b6044820152606490fd5b156112b457565b60405162461bcd60e51b815260206004820152600d60248201526c4348414c5f444541444c494e4560981b6044820152606490fd5b604051906112f682610f00565b60078252661393d7d0d2105360ca1b6020830152565b156113145750565b6040519062461bcd60e51b82528160208060048301528251908160248401526000935b82851061135a575050604492506000838284010152601f80199101168101030190fd5b8481018201518686016044015293810193859350611337565b903590601e198136030182121561028757018035906001600160401b03821161028757602001918160051b3603831361028757565b9092916001600160401b038411610f1b578360051b60405192602080946113d182850182610f67565b809781520191810192831161028757905b8282106113ef5750505050565b813581529083019083016113e2565b1561140557565b60405162461bcd60e51b81526020600482015260096024820152684249535f535441544560b81b6044820152606490fd5b9190820391821161113b57565b6060906020815260116020820152704241445f4348414c4c454e47455f504f5360781b60408201520190565b6001600160401b0316600081815260016020818152604080842080546001600160a01b039993989497919692959391906114ac908b163314611273565b8284528789526114c66114c0878620612138565b156112ad565b60078701946114de60ff8754891c166106d881610ee0565b60068801546115138884019161150d8d6115026114fb8689611373565b36916113a8565b908701358735611849565b146113fe565b600261151f8285611373565b90501090811561175e575b5061174257611538826117b4565b9390928a85111561171257846028861161170a575b8b81018091116116af5782036116d75781156116c35760001982018281116116af5782916115866114fb928695611590979b989b6117a4565b359084359061214f565b9061159d89841015611151565b6115ab600283511015611151565b6115b6828487611849565b94848252898b528560068984200155875193606085019185528b85015260608885015282518091528a608085019301915b8a8c83831061169d5750505050508160ff9695949392600080516020612383833981519152920390a354901c1661161d81610ee0565b156116975760039161162e82610f8a565b94600483019561164d611642885442611436565b968201968751611436565b958690526002840192611675565b505182546001600160a01b03191691161790550155429055565b835485546001600160a01b03191690841617855585850154908501553861165b565b50505050565b845186529485019490930192016115e7565b634e487b7160e01b88526011600452602488fd5b634e487b7160e01b87526032600452602487fd5b885162461bcd60e51b8152600481018d9052600c60248201526b57524f4e475f44454752454560a01b6044820152606490fd5b50602861154d565b885162461bcd60e51b8152600481018d905260096024820152681513d3d7d4d213d49560ba1b6044820152606490fd5b865162461bcd60e51b81528061175a60048201611443565b0390fd5b611769915083611373565b60001981019150811161178357606083013510153861152a565b634e487b7160e01b86526011600452602486fd5b9190820180921161113b57565b91908110156110fd5760051b0190565b9060408201906117c48284611373565b60001981019150811161113b576020840135811561183357818104936060860135908186029086820483148715171561113b5761180561180b928935611797565b97611373565b6001198101929150821161113b5714611822575050565b906118309293910690611797565b90565b634e487b7160e01b600052601260045260246000fd5b919060405180926020928383019586526040830152606082018382519192019360005b828110611889575050506111ac925003601f198101835282610f67565b85518452948101948694509281019260010161186c565b6001600160401b038116600081815260016020526040808220805490966001600160a01b0396929593949093916118da9088163314611273565b845260016020526118ef6114c0868620612138565b6007870193600160ff8654881c1661190681610ee0565b03611a40576006880154906119348785019261150d6119286114fb8689611373565b60208801358835611849565b60026119408386611373565b905010918215611a03575b50506119eb57916119609160ff959493611aac565b54901c1661196d81610ee0565b156119e757600361197d83610f8a565b92600481019361198e855442611436565b9361199e60208301958651611436565b9485905260028301916119c5565b5182546001600160a01b03191691161790550155429055565b825484546001600160a01b0319169083161784558484015460018501556119ac565b5050565b845162461bcd60e51b81528061175a60048201611443565b611a0f91925084611373565b60001981019291508211611a2c575060608301351015388061194b565b634e487b7160e01b81526011600452602490fd5b855162461bcd60e51b815260206004820152600e60248201526d4348414c5f4e4f545f424c4f434b60901b6044820152606490fd5b15611a7c57565b60405162461bcd60e51b8152602060048201526008602482015267544f4f5f4c4f4e4760c01b6044820152606490fd5b91929060018410611def576001602b1b8411611db557604435600491828210156102875760843595611ade878461116e565b9560643592858410158061028757611b2f98600195611b0b60a43592611b04848461116e565b908661214f565b868060401b038516986000938a8552602099898b52611b3760409e8f8820986117b4565b909b14611a75565b611b408161103e565b60018103611d365750610153578b9c611b5e839d999a9b9c9d61103e565b60028314611ce6575b88519d8e611b7481610f4c565b600281528c369101376005860154906001600160a01b03611b9483611012565b16918a51916301265ef960e21b83528483015260248201528b81604481855afa908115611cdc57918f9492918d94928891611ca0575b50611bd860449495966110f0565b528a5163d8558b8760e01b81529586948593611bf38261103e565b84015260248301525afa918215611c95578092611c62575b5050916007611c5b94928b94611c437f24e032e170243bbea97e140174b22dc7e54fb85925afbf52c70e001cd6af16db9b9c9d611113565b5201805460ff60401b1916600160411b179055612201565b51908152a2565b9091508782813d8311611c8e575b611c7a8183610f67565b8101031261015b5750516007611c5b611c0b565b503d611c70565b8651903d90823e3d90fd5b929480929496508391503d8311611cd5575b611cbc8183610f67565b81010312610e3d57518e938c9390929091611bd8611bca565b503d611cb2565b8a513d88823e3d90fd5b909192809495969798508103611d0457908c97969594939291611b67565b8c5162461bcd60e51b81528083018b9052600c60248201526b4552524f525f4348414e474560a01b6044820152606490fd5b949c9b9d9750509650925092508896959650611d518261103e565b611d5a8161103e565b149182611dab575b505015611d785750835260019052812060060155565b835162461bcd60e51b8152908101839052600d60248201526c48414c5445445f4348414e474560981b6044820152606490fd5b1490503880611d62565b60405162461bcd60e51b81526020600482015260126024820152714348414c4c454e47455f544f4f5f4c4f4e4760701b6044820152606490fd5b60405162461bcd60e51b815260206004820152601360248201527210d2105313115391d157d513d3d7d4d213d495606a1b6044820152606490fd5b6001600160401b03908116600081815260016020818152604080842080546001600160a01b039a939994989197929693959491929190611e6d908c163314611273565b838552888a52611e816114c0888720612138565b6007880195600260ff88548a1c16611e9881610ee0565b036120cf57908a939291611ec960068b015461150d8b870197611ebe6114fb8a8a611373565b908801358835611849565b6002611ed58686611373565b90501080156120ab575b612093578c8b95938a60c48f949586611f5a9997848e8e81528d8a522095611f11611f098b6117b4565b909e14611a75565b600788611f2160058a0154611012565b169701541692876004541695805194611f3986610f00565b8552898501968752611f4b8c8c611373565b9d9060608d01359e8f916117a4565b3590519d8e998a988997635d3adcfb60e01b8952516004890152511660248701526044860152606485015260a060848501528160a48501528484013781810183018d9052601f01601f191681010301915afa938415612089578694612058575b5090611fc591611373565b908983018093116117835790611fdb92916117a4565b351461202557908160ff9493927fc2cc42e04ff8c36de71c6a2937ea9f161dd0dd9e175f00caa26e5200643c781e8380a281528587526006838220015554901c1661161d81610ee0565b835162461bcd60e51b815260048101889052600c60248201526b14d0535157d3d4d417d1539160a21b6044820152606490fd5b9093508a81813d8311612082575b6120708183610f67565b81010312610e3d575192611fc5611fba565b503d612066565b88513d88823e3d90fd5b885162461bcd60e51b81528061175a60048201611443565b506120b68585611373565b6000198101915081116116af5760608501351015611edf565b875162461bcd60e51b8152600481018c9052601260248201527121a420a62fa727aa2fa2ac22a1aaaa24a7a760711b6044820152606490fd5b60076000918281558260018201558260028201558260038201558260048201558260058201558260068201550155565b6001612148600483015442611436565b9101541090565b6121719160408201906121628284611373565b949060608501359586916117a4565b35036121ce5761218091611373565b60018392930180921161113b57612196926117a4565b351461219e57565b60405162461bcd60e51b815260206004820152600860248201526714d0535157d1539160c21b6044820152606490fd5b60405162461bcd60e51b815260206004820152600b60248201526a15d493d391d7d4d510549560aa1b6044820152606490fd5b9160019161221183821015611151565b61221f600283511015611151565b604051906020938483019160009283815281604086015260608501948651958888018097875b8181106122d657505050816122629103601f198101835282610f67565b5190209660018060401b0316958684528281528760066040862001556040519560608701928588528288015260606040880152518092526080860194935b8281106122c35750505050509080600080516020612383833981519152920390a3565b84518652948101949381019383016122a0565b82518452928b0192918b01918701612245565b8051906020808351930151910151602081519101516040519260208401946c23b637b130b61039ba30ba329d60991b8652602d850152604d84015260018060c01b0319809260c01b16606d84015260c01b166075820152605d81526080810181811060018060401b03821117610f1b576040525190209056fefdaece6c274a4b56af16761f83fd6b1062823192630ea08e019fdf9b2d747f4086b34e9455464834eca718f62d4481437603bb929d8a78ccde5d1bc79fa06d68a2646970667358221220e46a4b2e043b9acc3f4e904abfc5c11e0411c094dd697d2351e24dd36a88688564736f6c63430008130033",
  "linkReferences": {},
  "deployedLinkReferences": {}
}